{
  "transactions": [
    {
      "hash": "0x0ad9888f2a9162ecf02fef2ba7ca7462dea1e8a8b53c7fbd0953437a47e7dba5",
      "transactionType": "CALL",
      "contractName": null,
      "contractAddress": "0x04f1a284168743759be6554f607a10cebdb77760",
      "function": "setHook(address,bool)",
      "arguments": [
        "0x80E2F7dC8C2C880BbC4BDF80A5Fb0eB8B1DB68CC",
        "true"
      ],
      "transaction": {
        "from": "0x49f5b131e083510d47b22f7f4526c1b0f7957cda",
        "to": "0x04f1a284168743759be6554f607a10cebdb77760",
        "gas": "0x11ec8",
        "value": "0x0",
        "input": "0x833e8db100000000000000000000000080e2f7dc8c2c880bbc4bdf80a5fb0eb8b1db68cc0000000000000000000000000000000000000000000000000000000000000001",
        "nonce": "0x11",
        "chainId": "0x2105"
      },
      "additionalContracts": [],
      "isFixedGasLimit": false
    },
    {
      "hash": "0x257f11a032da0da8f00ea6f5d2d2a3fbbb1813bea7f86297fc25a134e61bdbef",
      "transactionType": "CALL",
      "contractName": null,
      "contractAddress": "0x04f1a284168743759be6554f607a10cebdb77760",
      "function": "setHook(address,bool)",
      "arguments": [
        "0x9811f10Cd549c754Fa9E5785989c422A762c28cc",
        "true"
      ],
      "transaction": {
        "from": "0x49f5b131e083510d47b22f7f4526c1b0f7957cda",
        "to": "0x04f1a284168743759be6554f607a10cebdb77760",
        "gas": "0x11ebc",
        "value": "0x0",
        "input": "0x833e8db10000000000000000000000009811f10cd549c754fa9e5785989c422a762c28cc0000000000000000000000000000000000000000000000000000000000000001",
        "nonce": "0x12",
        "chainId": "0x2105"
      },
      "additionalContracts": [],
      "isFixedGasLimit": false
    },
    {
      "hash": "0x5f115644c7a2ec0a9f08a1624c62544901f7f2d847167a4d103315332e33fa64",
      "transactionType": "CALL",
      "contractName": null,
      "contractAddress": "0x04f1a284168743759be6554f607a10cebdb77760",
      "function": "setLocker(address,address,bool)",
      "arguments": [
        "0x77247fCD1d5e34A3703AcA898A591Dc7422435f3",
        "0x80E2F7dC8C2C880BbC4BDF80A5Fb0eB8B1DB68CC",
        "true"
      ],
      "transaction": {
        "from": "0x49f5b131e083510d47b22f7f4526c1b0f7957cda",
        "to": "0x04f1a284168743759be6554f607a10cebdb77760",
        "gas": "0x135a6",
        "value": "0x0",
        "input": "0xfc1b602200000000000000000000000077247fcd1d5e34a3703aca898a591dc7422435f300000000000000000000000080e2f7dc8c2c880bbc4bdf80a5fb0eb8b1db68cc0000000000000000000000000000000000000000000000000000000000000001",
        "nonce": "0x13",
        "chainId": "0x2105"
      },
      "additionalContracts": [],
      "isFixedGasLimit": false
    },
    {
      "hash": "0x64f5798cd9a3d135bbf4a67b35d54ffa6d100a2889e4e582f3a79998242059c0",
      "transactionType": "CALL",
      "contractName": null,
      "contractAddress": "0x04f1a284168743759be6554f607a10cebdb77760",
      "function": "setLocker(address,address,bool)",
      "arguments": [
        "0x77247fCD1d5e34A3703AcA898A591Dc7422435f3",
        "0x9811f10Cd549c754Fa9E5785989c422A762c28cc",
        "true"
      ],
      "transaction": {
        "from": "0x49f5b131e083510d47b22f7f4526c1b0f7957cda",
        "to": "0x04f1a284168743759be6554f607a10cebdb77760",
        "gas": "0x135a6",
        "value": "0x0",
        "input": "0xfc1b602200000000000000000000000077247fcd1d5e34a3703aca898a591dc7422435f30000000000000000000000009811f10cd549c754fa9e5785989c422a762c28cc0000000000000000000000000000000000000000000000000000000000000001",
        "nonce": "0x14",
        "chainId": "0x2105"
      },
      "additionalContracts": [],
      "isFixedGasLimit": false
    },
    {
      "hash": "0x757d13ad57bcb6ea8d10dd7766c33d4450d085dd012143bf820eb14ab79f6609",
      "transactionType": "CALL",
      "contractName": null,
      "contractAddress": "0x04f1a284168743759be6554f607a10cebdb77760",
      "function": "setExtension(address,bool)",
      "arguments": [
        "0x1423974d48f525462f1c087cBFdCC20BDBc33CdD",
        "true"
      ],
      "transaction": {
        "from": "0x49f5b131e083510d47b22f7f4526c1b0f7957cda",
        "to": "0x04f1a284168743759be6554f607a10cebdb77760",
        "gas": "0x11d14",
        "value": "0x0",
        "input": "0x031bc1ba0000000000000000000000001423974d48f525462f1c087cbfdcc20bdbc33cdd0000000000000000000000000000000000000000000000000000000000000001",
        "nonce": "0x15",
        "chainId": "0x2105"
      },
      "additionalContracts": [],
      "isFixedGasLimit": false
    },
    {
      "hash": "0x31a0deb8d4a9139776331accf300dc26f5c2b53fc9d2c2328c78a462856e9b27",
      "transactionType": "CALL",
      "contractName": null,
      "contractAddress": "0x04f1a284168743759be6554f607a10cebdb77760",
      "function": "setExtension(address,bool)",
      "arguments": [
        "0xdFCCC93257c20519A9005A2281CFBdF84836d50E",
        "true"
      ],
      "transaction": {
        "from": "0x49f5b131e083510d47b22f7f4526c1b0f7957cda",
        "to": "0x04f1a284168743759be6554f607a10cebdb77760",
        "gas": "0x11cff",
        "value": "0x0",
        "input": "0x031bc1ba000000000000000000000000dfccc93257c20519a9005a2281cfbdf84836d50e0000000000000000000000000000000000000000000000000000000000000001",
        "nonce": "0x16",
        "chainId": "0x2105"
      },
      "additionalContracts": [],
      "isFixedGasLimit": false
    },
    {
      "hash": "0x9b54c002e96bad49f83a4b2d422fd7fa508758db116313c9a298c9668faecdf2",
      "transactionType": "CALL",
      "contractName": null,
      "contractAddress": "0x04f1a284168743759be6554f607a10cebdb77760",
      "function": "setExtension(address,bool)",
      "arguments": [
        "0x5934097864dC487D21A7B4e4EEe201A39ceF728D",
        "true"
      ],
      "transaction": {
        "from": "0x49f5b131e083510d47b22f7f4526c1b0f7957cda",
        "to": "0x04f1a284168743759be6554f607a10cebdb77760",
        "gas": "0x11d17",
        "value": "0x0",
        "input": "0x031bc1ba0000000000000000000000005934097864dc487d21a7b4e4eee201a39cef728d0000000000000000000000000000000000000000000000000000000000000001",
        "nonce": "0x17",
        "chainId": "0x2105"
      },
      "additionalContracts": [],
      "isFixedGasLimit": false
    },
    {
      "hash": "0xfbd7623aac9bbe23fb305660ae4eb9635c28e0c67c89062b7e1c85c202d695a0",
      "transactionType": "CALL",
      "contractName": null,
      "contractAddress": "0x04f1a284168743759be6554f607a10cebdb77760",
      "function": "setExtension(address,bool)",
      "arguments": [
        "0x376028cfb6b9A120E24Aa14c3FAc4205179c0025",
        "true"
      ],
      "transaction": {
        "from": "0x49f5b131e083510d47b22f7f4526c1b0f7957cda",
        "to": "0x04f1a284168743759be6554f607a10cebdb77760",
        "gas": "0x12dcb",
        "value": "0x0",
        "input": "0x031bc1ba000000000000000000000000376028cfb6b9a120e24aa14c3fac4205179c00250000000000000000000000000000000000000000000000000000000000000001",
        "nonce": "0x18",
        "chainId": "0x2105"
      },
      "additionalContracts": [],
      "isFixedGasLimit": false
    },
    {
      "hash": "0x9b9a169cfdd4d71b27b3db182897d0aed7972f6f667657c1cedb5422d7c5b0bd",
      "transactionType": "CALL",
      "contractName": null,
      "contractAddress": "0x04f1a284168743759be6554f607a10cebdb77760",
      "function": "setExtension(address,bool)",
      "arguments": [
        "0x3bca63EcB49d5f917092d10fA879Fdb422740163",
        "true"
      ],
      "transaction": {
        "from": "0x49f5b131e083510d47b22f7f4526c1b0f7957cda",
        "to": "0x04f1a284168743759be6554f607a10cebdb77760",
        "gas": "0x11d1f",
        "value": "0x0",
        "input": "0x031bc1ba0000000000000000000000003bca63ecb49d5f917092d10fa879fdb4227401630000000000000000000000000000000000000000000000000000000000000001",
        "nonce": "0x19",
        "chainId": "0x2105"
      },
      "additionalContracts": [],
      "isFixedGasLimit": false
    },
    {
      "hash": "0x313cf531947917e23e50c307686d40d5e56b9f17e73eae7ecad58a1816a0688b",
      "transactionType": "CALL",
      "contractName": null,
      "contractAddress": "0x04f1a284168743759be6554f607a10cebdb77760",
      "function": "setMevModule(address,bool)",
      "arguments": [
        "0x187e8627c02c58F31831953C1268e157d3BfCefd",
        "true"
      ],
      "transaction": {
        "from": "0x49f5b131e083510d47b22f7f4526c1b0f7957cda",
        "to": "0x04f1a284168743759be6554f607a10cebdb77760",
        "gas": "0x13064",
        "value": "0x0",
        "input": "0xdbb0b1c7000000000000000000000000187e8627c02c58f31831953c1268e157d3bfcefd0000000000000000000000000000000000000000000000000000000000000001",
        "nonce": "0x1a",
        "chainId": "0x2105"
      },
      "additionalContracts": [],
      "isFixedGasLimit": false
    },
    {
      "hash": "0x7a31f784f7f7f2b422363c08a64bddb0bfbf8fa8d443a6bf3a09c6f6254414c4",
      "transactionType": "CALL",
      "contractName": null,
      "contractAddress": "0x04f1a284168743759be6554f607a10cebdb77760",
      "function": "setMevModule(address,bool)",
      "arguments": [
        "0x8D6B080e48756A99F3893491D556B5d6907b6910",
        "true"
      ],
      "transaction": {
        "from": "0x49f5b131e083510d47b22f7f4526c1b0f7957cda",
        "to": "0x04f1a284168743759be6554f607a10cebdb77760",
        "gas": "0x11f76",
        "value": "0x0",
        "input": "0xdbb0b1c70000000000000000000000008d6b080e48756a99f3893491d556b5d6907b69100000000000000000000000000000000000000000000000000000000000000001",
        "nonce": "0x1b",
        "chainId": "0x2105"
      },
      "additionalContracts": [],
      "isFixedGasLimit": false
    }
  ],
  "receipts": [
    {
      "status": "0x1",
      "cumulativeGasUsed": "0x13969a4",
      "logs": [
        {
          "address": "0x04f1a284168743759be6554f607a10cebdb77760",
          "topics": [
            "0x3e7510e93c4fe81ab57ed70b4eaa9a407eeced9cdb0954a360b36947f38ccda0"
          ],
          "data": "0x00000000000000000000000080e2f7dc8c2c880bbc4bdf80a5fb0eb8b1db68cc0000000000000000000000000000000000000000000000000000000000000001",
          "blockHash": "0x0000000000000000000000000000000000000000000000000000000000000000",
          "blockNumber": "0x2951384",
          "blockTimestamp": "0x69b483eb",
          "transactionHash": "0x0ad9888f2a9162ecf02fef2ba7ca7462dea1e8a8b53c7fbd0953437a47e7dba5",
          "transactionIndex": "0x61",
          "logIndex": "0x208",
          "removed": false
        }
      ],
      "logsBloom": "0x00000000000000000000000000000000000000000000000000000000000000000000000000000000000000000000040000000000000000000000000000000000000000000000000000000000000000000000000000000000000000000000000000020000000000000000000000000000000000000000000000000000000000000000000000000000000000000000000000000000000000000000000000200000000000000000000000000000000000000000000000000000000000000000000000000000000000000000400000000080000000000000000000000000000000000000000000000000000000000000000000000000000000000000000000000002",
      "type": "0x2",
      "transactionHash": "0x0ad9888f2a9162ecf02fef2ba7ca7462dea1e8a8b53c7fbd0953437a47e7dba5",
      "transactionIndex": "0x61",
      "blockHash": "0x0000000000000000000000000000000000000000000000000000000000000000",
      "blockNumber": "0x2951384",
      "gasUsed": "0xcfa0",
      "effectiveGasPrice": "0x4c4b72",
      "blobGasUsed": "0x364c",
      "from": "0x49f5b131e083510d47b22f7f4526c1b0f7957cda",
      "to": "0x04f1a284168743759be6554f607a10cebdb77760",
      "contractAddress": null,
      "daFootprintGasScalar": "0x8b",
      "l1BaseFeeScalar": "0x8dd",
      "l1BlobBaseFee": "0x235af9",
      "l1BlobBaseFeeScalar": "0x101c12",
      "l1Fee": "0x17c1e785",
      "l1GasPrice": "0x28718bd",
      "l1GasUsed": "0x640"
    },
    {
      "status": "0x1",
      "cumulativeGasUsed": "0x208bf82",
      "logs": [
        {
          "address": "0x04f1a284168743759be6554f607a10cebdb77760",
          "topics": [
            "0x3e7510e93c4fe81ab57ed70b4eaa9a407eeced9cdb0954a360b36947f38ccda0"
          ],
          "data": "0x0000000000000000000000009811f10cd549c754fa9e5785989c422a762c28cc0000000000000000000000000000000000000000000000000000000000000001",
          "blockHash": "0x0000000000000000000000000000000000000000000000000000000000000000",
          "blockNumber": "0x2951385",
          "blockTimestamp": "0x69b483ed",
          "transactionHash": "0x257f11a032da0da8f00ea6f5d2d2a3fbbb1813bea7f86297fc25a134e61bdbef",
          "transactionIndex": "0x84",
          "logIndex": "0x2d2",
          "removed": false
        }
      ],
      "logsBloom": "0x00000000000000000000000000000000000000000000000000000000000000000000000000000000000000000000040000000000000000000000000000000000000000000000000000000000000000000000000000000000000000000000000000020000000000000000000000000000000000000000000000000000000000000000000000000000000000000000000000000000000000000000000000200000000000000000000000000000000000000000000000000000000000000000000000000000000000000000400000000080000000000000000000000000000000000000000000000000000000000000000000000000000000000000000000000002",
      "type": "0x2",
      "transactionHash": "0x257f11a032da0da8f00ea6f5d2d2a3fbbb1813bea7f86297fc25a134e61bdbef",
      "transactionIndex": "0x84",
      "blockHash": "0x0000000000000000000000000000000000000000000000000000000000000000",
      "blockNumber": "0x2951385",
      "gasUsed": "0xcf98",
      "effectiveGasPrice": "0x4c4b72",
      "blobGasUsed": "0x364c",
      "from": "0x49f5b131e083510d47b22f7f4526c1b0f7957cda",
      "to": "0x04f1a284168743759be6554f607a10cebdb77760",
      "contractAddress": null,
      "daFootprintGasScalar": "0x8b",
      "l1BaseFeeScalar": "0x8dd",
      "l1BlobBaseFee": "0x251dcc",
      "l1BlobBaseFeeScalar": "0x101c12",
      "l1Fee": "0x17fc6532",
      "l1GasPrice": "0x263fec7",
      "l1GasUsed": "0x640"
    },
    {
      "status": "0x1",
      "cumulativeGasUsed": "0x37180b9",
      "logs": [
        {
          "address": "0x04f1a284168743759be6554f607a10cebdb77760",
          "topics": [
            "0xa42b595aa29ec637074f31538fbf673587d74ba490265a33cf04ed41d27a9ddc"
          ],
          "data": "0x00000000000000000000000077247fcd1d5e34a3703aca898a591dc7422435f300000000000000000000000080e2f7dc8c2c880bbc4bdf80a5fb0eb8b1db68cc0000000000000000000000000000000000000000000000000000000000000001",
          "blockHash": "0x0000000000000000000000000000000000000000000000000000000000000000",
          "blockNumber": "0x2951386",
          "blockTimestamp": "0x69b483ef",
          "transactionHash": "0x5f115644c7a2ec0a9f08a1624c62544901f7f2d847167a4d103315332e33fa64",
          "transactionIndex": "0xb5",
          "logIndex": "0x423",
          "removed": false
        }
      ],
      "logsBloom": "0x00000000000000000000000000000000000000000000000000000000000000000000000000001000020000000000000000000000000000000000000000000000000000000000000000000000000000000000000000000000000000000000000000020000000000000000000000000000000000000000000000000000000000000000000000000000800000000000000000000000000000000000000000000000000000000000000000000000000000000000000000000000000000000000000000000000000000000000000000000080000000000000000000000000000000000000000000000000000000000000000000000000000000000000000000000002",
      "type": "0x2",
      "transactionHash": "0x5f115644c7a2ec0a9f08a1624c62544901f7f2d847167a4d103315332e33fa64",
      "transactionIndex": "0xb5",
      "blockHash": "0x0000000000000000000000000000000000000000000000000000000000000000",
      "blockNumber": "0x2951386",
      "gasUsed": "0xd3ba",
      "effectiveGasPrice": "0x4c4b72",
      "blobGasUsed": "0x3762",
      "from": "0x49f5b131e083510d47b22f7f4526c1b0f7957cda",
      "to": "0x04f1a284168743759be6554f607a10cebdb77760",
      "contractAddress": null,
      "daFootprintGasScalar": "0x8b",
      "l1BaseFeeScalar": "0x8dd",
      "l1BlobBaseFee": "0x251dcc",
      "l1BlobBaseFeeScalar": "0x101c12",
      "l1Fee": "0x1e840ce5",
      "l1GasPrice": "0x263fec7",
      "l1GasUsed": "0x662"
    },
    {
      "status": "0x1",
      "cumulativeGasUsed": "0x2158691",
      "logs": [
        {
          "address": "0x04f1a284168743759be6554f607a10cebdb77760",
          "topics": [
            "0xa42b595aa29ec637074f31538fbf673587d74ba490265a33cf04ed41d27a9ddc"
          ],
          "data": "0x00000000000000000000000077247fcd1d5e34a3703aca898a591dc7422435f30000000000000000000000009811f10cd549c754fa9e5785989c422a762c28cc0000000000000000000000000000000000000000000000000000000000000001",
          "blockHash": "0x0000000000000000000000000000000000000000000000000000000000000000",
          "blockNumber": "0x2951387",
          "blockTimestamp": "0x69b483f1",
          "transactionHash": "0x64f5798cd9a3d135bbf4a67b35d54ffa6d100a2889e4e582f3a79998242059c0",
          "transactionIndex": "0x81",
          "logIndex": "0x2ee",
          "removed": false
        }
      ],
      "logsBloom": "0x00000000000000000000000000000000000000000000000000000000000000000000000000001000020000000000000000000000000000000000000000000000000000000000000000000000000000000000000000000000000000000000000000020000000000000000000000000000000000000000000000000000000000000000000000000000800000000000000000000000000000000000000000000000000000000000000000000000000000000000000000000000000000000000000000000000000000000000000000000080000000000000000000000000000000000000000000000000000000000000000000000000000000000000000000000002",
      "type": "0x2",
      "transactionHash": "0x64f5798cd9a3d135bbf4a67b35d54ffa6d100a2889e4e582f3a79998242059c0",
      "transactionIndex": "0x81",
      "blockHash": "0x0000000000000000000000000000000000000000000000000000000000000000",
      "blockNumber": "0x2951387",
      "gasUsed": "0xd3ba",
      "effectiveGasPrice": "0x4c6252",
      "blobGasUsed": "0x3762",
      "from": "0x49f5b131e083510d47b22f7f4526c1b0f7957cda",
      "to": "0x04f1a284168743759be6554f607a10cebdb77760",
      "contractAddress": null,
      "daFootprintGasScalar": "0x8b",
      "l1BaseFeeScalar": "0x8dd",
      "l1BlobBaseFee": "0x251dcc",
      "l1BlobBaseFeeScalar": "0x101c12",
      "l1Fee": "0x17fc6532",
      "l1GasPrice": "0x263fec7",
      "l1GasUsed": "0x662"
    },
    {
      "status": "0x1",
      "cumulativeGasUsed": "0x23523d2",
      "logs": [
        {
          "address": "0x04f1a284168743759be6554f607a10cebdb77760",
          "topics": [
            "0xb393434b606480a39b9a3b6f498a7f5312283d75b93f92d1dffc0dae86425ea2"
          ],
          "data": "0x0000000000000000000000001423974d48f525462f1c087cbfdcc20bdbc33cdd0000000000000000000000000000000000000000000000000000000000000001",
          "blockHash": "0x0000000000000000000000000000000000000000000000000000000000000000",
          "blockNumber": "0x2951388",
          "blockTimestamp": "0x69b483f3",
          "transactionHash": "0x757d13ad57bcb6ea8d10dd7766c33d4450d085dd012143bf820eb14ab79f6609",
          "transactionIndex": "0x5e",
          "logIndex": "0x2d6",
          "removed": false
        }
      ],
      "logsBloom": "0x00000000000000000020000000000000000000000000000000000000000000000000000000000000000000000000000000000000000000000000000000000000000000000000000000000000000000000100000000000000000000000000000000020000000000000000000000000000000000000000000000000000008000000000000000000000000000000000000000000000000000000000000000000000000000000000000000000000000000000000000000000000000000000000000000000000000000000000000000000080000000000000000000000000000000000000000000000000000000000000000000000000000000000000000000000002",
      "type": "0x2",
      "transactionHash": "0x757d13ad57bcb6ea8d10dd7766c33d4450d085dd012143bf820eb14ab79f6609",
      "transactionIndex": "0x5e",
      "blockHash": "0x0000000000000000000000000000000000000000000000000000000000000000",
      "blockNumber": "0x2951388",
      "gasUsed": "0xce65",
      "effectiveGasPrice": "0x4c4bab",
      "blobGasUsed": "0x364c",
      "from": "0x49f5b131e083510d47b22f7f4526c1b0f7957cda",
      "to": "0x04f1a284168743759be6554f607a10cebdb77760",
      "contractAddress": null,
      "daFootprintGasScalar": "0x8b",
      "l1BaseFeeScalar": "0x8dd",
      "l1BlobBaseFee": "0x251dcc",
      "l1BlobBaseFeeScalar": "0x101c12",
      "l1Fee": "0x17fc6532",
      "l1GasPrice": "0x263fec7",
      "l1GasUsed": "0x640"
    },
    {
      "status": "0x1",
      "cumulativeGasUsed": "0xcd70dc",
      "logs": [
        {
          "address": "0x04f1a284168743759be6554f607a10cebdb77760",
          "topics": [
            "0xb393434b606480a39b9a3b6f498a7f5312283d75b93f92d1dffc0dae86425ea2"
          ],
          "data": "0x000000000000000000000000dfccc93257c20519a9005a2281cfbdf84836d50e0000000000000000000000000000000000000000000000000000000000000001",
          "blockHash": "0x0000000000000000000000000000000000000000000000000000000000000000",
          "blockNumber": "0x2951389",
          "blockTimestamp": "0x69b483f5",
          "transactionHash": "0x31a0deb8d4a9139776331accf300dc26f5c2b53fc9d2c2328c78a462856e9b27",
          "transactionIndex": "0x46",
          "logIndex": "0x193",
          "removed": false
        }
      ],
      "logsBloom": "0x00000000000000000020000000000000000000000000000000000000000000000000000000000000000000000000000000000000000000000000000000000000000000000000000000000000000000000100000000000000000000000000000000020000000000000000000000000000000000000000000000000000008000000000000000000000000000000000000000000000000000000000000000000000000000000000000000000000000000000000000000000000000000000000000000000000000000000000000000000080000000000000000000000000000000000000000000000000000000000000000000000000000000000000000000000002",
      "type": "0x2",
      "transactionHash": "0x31a0deb8d4a9139776331accf300dc26f5c2b53fc9d2c2328c78a462856e9b27",
      "transactionIndex": "0x46",
      "blockHash": "0x0000000000000000000000000000000000000000000000000000000000000000",
      "blockNumber": "0x2951389",
      "gasUsed": "0xce56",
      "effectiveGasPrice": "0x4c4b72",
      "blobGasUsed": "0x364c",
      "from": "0x49f5b131e083510d47b22f7f4526c1b0f7957cda",
      "to": "0x04f1a284168743759be6554f607a10cebdb77760",
      "contractAddress": null,
      "daFootprintGasScalar": "0x8b",
      "l1BaseFeeScalar": "0x8dd",
      "l1BlobBaseFee": "0x251dcc",
      "l1BlobBaseFeeScalar": "0x101c12",
      "l1Fee": "0x17fc6532",
      "l1GasPrice": "0x263fec7",
      "l1GasUsed": "0x640"
    },
    {
      "status": "0x1",
      "cumulativeGasUsed": "0x572754d",
      "logs": [
        {
          "address": "0x04f1a284168743759be6554f607a10cebdb77760",
          "topics": [
            "0xb393434b606480a39b9a3b6f498a7f5312283d75b93f92d1dffc0dae86425ea2"
          ],
          "data": "0x0000000000000000000000005934097864dc487d21a7b4e4eee201a39cef728d0000000000000000000000000000000000000000000000000000000000000001",
          "blockHash": "0x4c5737b009bf5988494357b5784f6facbde310e3677a24f6e142638720c6245b",
          "blockNumber": "0x295138a",
          "blockTimestamp": "0x69b483f7",
          "transactionHash": "0x9b54c002e96bad49f83a4b2d422fd7fa508758db116313c9a298c9668faecdf2",
          "transactionIndex": "0x224",
          "logIndex": "0x5d8",
          "removed": false
        }
      ],
      "logsBloom": "0x00000000000000000020000000000000000000000000000000000000000000000000000000000000000000000000000000000000000000000000000000000000000000000000000000000000000000000100000000000000000000000000000000020000000000000000000000000000000000000000000000000000008000000000000000000000000000000000000000000000000000000000000000000000000000000000000000000000000000000000000000000000000000000000000000000000000000000000000000000080000000000000000000000000000000000000000000000000000000000000000000000000000000000000000000000002",
      "type": "0x2",
      "transactionHash": "0x9b54c002e96bad49f83a4b2d422fd7fa508758db116313c9a298c9668faecdf2",
      "transactionIndex": "0x224",
      "blockHash": "0x4c5737b009bf5988494357b5784f6facbde310e3677a24f6e142638720c6245b",
      "blockNumber": "0x295138a",
      "gasUsed": "0xce67",
      "effectiveGasPrice": "0x4c4b72",
      "blobGasUsed": "0x364c",
      "from": "0x49f5b131e083510d47b22f7f4526c1b0f7957cda",
      "to": "0x04f1a284168743759be6554f607a10cebdb77760",
      "contractAddress": null,
      "daFootprintGasScalar": "0x8b",
      "l1BaseFeeScalar": "0x8dd",
      "l1BlobBaseFee": "0x251dcc",
      "l1BlobBaseFeeScalar": "0x101c12",
      "l1Fee": "0x17fc6532",
      "l1GasPrice": "0x263fec7",
      "l1GasUsed": "0x640"
    },
    {
      "status": "0x1",
      "cumulativeGasUsed": "0x38fee1f",
      "logs": [
        {
          "address": "0x04f1a284168743759be6554f607a10cebdb77760",
          "topics": [
            "0xb393434b606480a39b9a3b6f498a7f5312283d75b93f92d1dffc0dae86425ea2"
          ],
          "data": "0x000000000000000000000000376028cfb6b9a120e24aa14c3fac4205179c00250000000000000000000000000000000000000000000000000000000000000001",
          "blockHash": "0x0000000000000000000000000000000000000000000000000000000000000000",
          "blockNumber": "0x295138b",
          "blockTimestamp": "0x69b483f9",
          "transactionHash": "0xfbd7623aac9bbe23fb305660ae4eb9635c28e0c67c89062b7e1c85c202d695a0",
          "transactionIndex": "0x130",
          "logIndex": "0x3bb",
          "removed": false
        }
      ],
      "logsBloom": "0x00000000000000000020000000000000000000000000000000000000000000000000000000000000000000000000000000000000000000000000000000000000000000000000000000000000000000000100000000000000000000000000000000020000000000000000000000000000000000000000000000000000008000000000000000000000000000000000000000000000000000000000000000000000000000000000000000000000000000000000000000000000000000000000000000000000000000000000000000000080000000000000000000000000000000000000000000000000000000000000000000000000000000000000000000000002",
      "type": "0x2",
      "transactionHash": "0xfbd7623aac9bbe23fb305660ae4eb9635c28e0c67c89062b7e1c85c202d695a0",
      "transactionIndex": "0x130",
      "blockHash": "0x0000000000000000000000000000000000000000000000000000000000000000",
      "blockNumber": "0x295138b",
      "gasUsed": "0xce5b",
      "effectiveGasPrice": "0x4cd222",
      "blobGasUsed": "0x364c",
      "from": "0x49f5b131e083510d47b22f7f4526c1b0f7957cda",
      "to": "0x04f1a284168743759be6554f607a10cebdb77760",
      "contractAddress": null,
      "daFootprintGasScalar": "0x8b",
      "l1BaseFeeScalar": "0x8dd",
      "l1BlobBaseFee": "0x2588fc",
      "l1BlobBaseFeeScalar": "0x101c12",
      "l1Fee": "0x22e93dbf",
      "l1GasPrice": "0x24d4051",
      "l1GasUsed": "0x640"
    },
    {
      "status": "0x1",
      "cumulativeGasUsed": "0x324bf8b",
      "logs": [
        {
          "address": "0x04f1a284168743759be6554f607a10cebdb77760",
          "topics": [
            "0xb393434b606480a39b9a3b6f498a7f5312283d75b93f92d1dffc0dae86425ea2"
          ],
          "data": "0x0000000000000000000000003bca63ecb49d5f917092d10fa879fdb4227401630000000000000000000000000000000000000000000000000000000000000001",
          "blockHash": "0x0000000000000000000000000000000000000000000000000000000000000000",
          "blockNumber": "0x295138c",
          "blockTimestamp": "0x69b483fb",
          "transactionHash": "0x9b9a169cfdd4d71b27b3db182897d0aed7972f6f667657c1cedb5422d7c5b0bd",
          "transactionIndex": "0xd3",
          "logIndex": "0x38d",
          "removed": false
        }
      ],
      "logsBloom": "0x00000000000000000020000000000000000000000000000000000000000000000000000000000000000000000000000000000000000000000000000000000000000000000000000000000000000000000100000000000000000000000000000000020000000000000000000000000000000000000000000000000000008000000000000000000000000000000000000000000000000000000000000000000000000000000000000000000000000000000000000000000000000000000000000000000000000000000000000000000080000000000000000000000000000000000000000000000000000000000000000000000000000000000000000000000002",
      "type": "0x2",
      "transactionHash": "0x9b9a169cfdd4d71b27b3db182897d0aed7972f6f667657c1cedb5422d7c5b0bd",
      "transactionIndex": "0xd3",
      "blockHash": "0x0000000000000000000000000000000000000000000000000000000000000000",
      "blockNumber": "0x295138c",
      "gasUsed": "0xce6d",
      "effectiveGasPrice": "0x4ce47f",
      "blobGasUsed": "0x364c",
      "from": "0x49f5b131e083510d47b22f7f4526c1b0f7957cda",
      "to": "0x04f1a284168743759be6554f607a10cebdb77760",
      "contractAddress": null,
      "daFootprintGasScalar": "0x8b",
      "l1BaseFeeScalar": "0x8dd",
      "l1BlobBaseFee": "0x2588fc",
      "l1BlobBaseFeeScalar": "0x101c12",
      "l1Fee": "0x17d607c8",
      "l1GasPrice": "0x24d4051",
      "l1GasUsed": "0x640"
    },
    {
      "status": "0x1",
      "cumulativeGasUsed": "0x15d8e05",
      "logs": [
        {
          "address": "0x04f1a284168743759be6554f607a10cebdb77760",
          "topics": [
            "0xc4bf3ad397ab835bf8aefef70e7e1c35a0cfad7be9c060049050303ace20605c"
          ],
          "data": "0x000000000000000000000000187e8627c02c58f31831953c1268e157d3bfcefd0000000000000000000000000000000000000000000000000000000000000001",
          "blockHash": "0x88f9c1160f85de507965b0849c19033fc2873d5964feac0de1ad472eea6bb9af",
          "blockNumber": "0x295138d",
          "blockTimestamp": "0x69b483fd",
          "transactionHash": "0x313cf531947917e23e50c307686d40d5e56b9f17e73eae7ecad58a1816a0688b",
          "transactionIndex": "0x57",
          "logIndex": "0x229",
          "removed": false
        }
      ],
      "logsBloom": "0x00000000000000000000000000000000000000000000000000000000000000000000000000000000000000000000000000400000000000000000000000000000000000000000000000000000000000000000000000000000000000040000000000020000000000000000000000000000000000000000000000000000000000000000000000000000000000000000000000000000000000000000000000000000000000000000000000000000000000000000000000000000000000000000000000000000000000000000000000000080000000004000000000000000000000000000000000000000000000000000000000000000000000000000000000000002",
      "type": "0x2",
      "transactionHash": "0x313cf531947917e23e50c307686d40d5e56b9f17e73eae7ecad58a1816a0688b",
      "transactionIndex": "0x57",
      "blockHash": "0x88f9c1160f85de507965b0849c19033fc2873d5964feac0de1ad472eea6bb9af",
      "blockNumber": "0x295138d",
      "gasUsed": "0xd022",
      "effectiveGasPrice": "0x4cf5a1",
      "blobGasUsed": "0x364c",
      "from": "0x49f5b131e083510d47b22f7f4526c1b0f7957cda",
      "to": "0x04f1a284168743759be6554f607a10cebdb77760",
      "contractAddress": null,
      "daFootprintGasScalar": "0x8b",
      "l1BaseFeeScalar": "0x8dd",
      "l1BlobBaseFee": "0x2588fc",
      "l1BlobBaseFeeScalar": "0x101c12",
      "l1Fee": "0x17d607c8",
      "l1GasPrice": "0x24d4051",
      "l1GasUsed": "0x640"
    },
    {
      "status": "0x1",
      "cumulativeGasUsed": "0x1788895",
      "logs": [
        {
          "address": "0x04f1a284168743759be6554f607a10cebdb77760",
          "topics": [
            "0xc4bf3ad397ab835bf8aefef70e7e1c35a0cfad7be9c060049050303ace20605c"
          ],
          "data": "0x0000000000000000000000008d6b080e48756a99f3893491d556b5d6907b69100000000000000000000000000000000000000000000000000000000000000001",
          "blockHash": "0x0000000000000000000000000000000000000000000000000000000000000000",
          "blockNumber": "0x295138e",
          "blockTimestamp": "0x69b483ff",
          "transactionHash": "0x7a31f784f7f7f2b422363c08a64bddb0bfbf8fa8d443a6bf3a09c6f6254414c4",
          "transactionIndex": "0x7e",
          "logIndex": "0x297",
          "removed": false
        }
      ],
      "logsBloom": "0x00000000000000000000000000000000000000000000000000000000000000000000000000000000000000000000000000400000000000000000000000000000000000000000000000000000000000000000000000000000000000040000000000020000000000000000000000000000000000000000000000000000000000000000000000000000000000000000000000000000000000000000000000000000000000000000000000000000000000000000000000000000000000000000000000000000000000000000000000000080000000004000000000000000000000000000000000000000000000000000000000000000000000000000000000000002",
      "type": "0x2",
      "transactionHash": "0x7a31f784f7f7f2b422363c08a64bddb0bfbf8fa8d443a6bf3a09c6f6254414c4",
      "transactionIndex": "0x7e",
      "blockHash": "0x0000000000000000000000000000000000000000000000000000000000000000",
      "blockNumber": "0x295138e",
      "gasUsed": "0xd01f",
      "effectiveGasPrice": "0x4cd0f9",
      "blobGasUsed": "0x364c",
      "from": "0x49f5b131e083510d47b22f7f4526c1b0f7957cda",
      "to": "0x04f1a284168743759be6554f607a10cebdb77760",
      "contractAddress": null,
      "daFootprintGasScalar": "0x8b",
      "l1BaseFeeScalar": "0x8dd",
      "l1BlobBaseFee": "0x2588fc",
      "l1BlobBaseFeeScalar": "0x101c12",
      "l1Fee": "0x17d607c8",
      "l1GasPrice": "0x24d4051",
      "l1GasUsed": "0x640"
    }
  ],
  "libraries": [],
  "pending": [],
  "returns": {},
  "timestamp": 1773437950082,
  "chain": 8453,
  "commit": "e787917"
}