{
  "transactions": [
    {
      "hash": "0x98ab72c6a006d5509f1cd17081b2f2cd054ebbd64e33d1c9d0a734029f5b72db",
      "transactionType": "CALL",
      "contractName": null,
      "contractAddress": "0x872c561f699b42977c093f0ed8b4c9a431280c6c",
      "function": "execTransaction(address,uint256,bytes,uint8,uint256,uint256,uint256,address,address,bytes)",
      "arguments": [
        "0x4751BA2b09374C1929FC01734a166e3c8cd75810",
        "0",
        "0xd3f32aa1",
        "0",
        "0",
        "0",
        "0",
        "0x0000000000000000000000000000000000000000",
        "0x0000000000000000000000000000000000000000",
        "0xe8468146f537e883604a1414a9285d7188085f3d1c4ba5188ba70a1e95c5a40b4fd3c4deea2dcec7c725ddca24848be5321cb1c7037d1e48ff53d2dd85d7d6821b0edeaff195e732f3608cefcfb12bd9b0ed22081d5f3b80c9174d254ba1d3e3e6552fa3edcb98ac03d76b43ba58f1b5d7fb402761b82d62d4506fbdf1ec2fbeed1b"
      ],
      "transaction": {
        "from": "0x66205fda77114a5357e7bdcac6ddb356cff0063b",
        "to": "0x872c561f699b42977c093f0ed8b4c9a431280c6c",
        "gas": "0x213ac",
        "value": "0x0",
        "input": "0x6a7612020000000000000000000000004751ba2b09374c1929fc01734a166e3c8cd758100000000000000000000000000000000000000000000000000000000000000000000000000000000000000000000000000000000000000000000000000000014000000000000000000000000000000000000000000000000000000000000000000000000000000000000000000000000000000000000000000000000000000000000000000000000000000000000000000000000000000000000000000000000000000000000000000000000000000000000000000000000000000000000000000000000000000000000000000000000000000000000000000000000000000000000000000000000000000000000000000000000000000000000000000000000000000000000000000000000000000000000000000000000000000000000001800000000000000000000000000000000000000000000000000000000000000004d3f32aa1000000000000000000000000000000000000000000000000000000000000000000000000000000000000000000000000000000000000000000000082e8468146f537e883604a1414a9285d7188085f3d1c4ba5188ba70a1e95c5a40b4fd3c4deea2dcec7c725ddca24848be5321cb1c7037d1e48ff53d2dd85d7d6821b0edeaff195e732f3608cefcfb12bd9b0ed22081d5f3b80c9174d254ba1d3e3e6552fa3edcb98ac03d76b43ba58f1b5d7fb402761b82d62d4506fbdf1ec2fbeed1b000000000000000000000000000000000000000000000000000000000000",
        "nonce": "0x2a",
        "chainId": "0x2105"
      },
      "additionalContracts": [],
      "isFixedGasLimit": false
    }
  ],
  "receipts": [
    {
      "status": "0x1",
      "cumulativeGasUsed": "0x1228069",
      "logs": [
        {
          "address": "0x872c561f699b42977c093f0ed8b4c9a431280c6c",
          "topics": [
            "0x66753cd2356569ee081232e3be8909b950e0a76c1f8460c3a5e3c2be32b11bed"
          ],
          "data": "0x0000000000000000000000004751ba2b09374c1929fc01734a166e3c8cd758100000000000000000000000000000000000000000000000000000000000000000000000000000000000000000000000000000000000000000000000000000016000000000000000000000000000000000000000000000000000000000000000000000000000000000000000000000000000000000000000000000000000000000000000000000000000000000000000000000000000000000000000000000000000000000000000000000000000000000000000000000000000000000000000000000000000000000000000000000000000000000000000000000000000000000000000000000000000000000000000000000000000000000000000000000000000000000000000000000000000000000000000000000000000000000000001a000000000000000000000000000000000000000000000000000000000000002600000000000000000000000000000000000000000000000000000000000000004d3f32aa1000000000000000000000000000000000000000000000000000000000000000000000000000000000000000000000000000000000000000000000082e8468146f537e883604a1414a9285d7188085f3d1c4ba5188ba70a1e95c5a40b4fd3c4deea2dcec7c725ddca24848be5321cb1c7037d1e48ff53d2dd85d7d6821b0edeaff195e732f3608cefcfb12bd9b0ed22081d5f3b80c9174d254ba1d3e3e6552fa3edcb98ac03d76b43ba58f1b5d7fb402761b82d62d4506fbdf1ec2fbeed1b0000000000000000000000000000000000000000000000000000000000000000000000000000000000000000000000000000000000000000000000000060000000000000000000000000000000000000000000000000000000000000004000000000000000000000000066205fda77114a5357e7bdcac6ddb356cff0063b0000000000000000000000000000000000000000000000000000000000000002",
          "blockHash": "0x0000000000000000000000000000000000000000000000000000000000000000",
          "blockNumber": "0x2caa1b9",
          "blockTimestamp": "0x6a1fa055",
          "transactionHash": "0x98ab72c6a006d5509f1cd17081b2f2cd054ebbd64e33d1c9d0a734029f5b72db",
          "transactionIndex": "0x112",
          "logIndex": "0x71",
          "removed": false
        },
        {
          "address": "0x872c561f699b42977c093f0ed8b4c9a431280c6c",
          "topics": [
            "0x442e715f626346e8c54381002da614f62bee8d27386535b2521ec8540898556e",
            "0x162c63c7ed0265fdc4b945acf6c779001b371179c341d314fbe9f061fafa367e"
          ],
          "data": "0x0000000000000000000000000000000000000000000000000000000000000000",
          "blockHash": "0x0000000000000000000000000000000000000000000000000000000000000000",
          "blockNumber": "0x2caa1b9",
          "blockTimestamp": "0x6a1fa055",
          "transactionHash": "0x98ab72c6a006d5509f1cd17081b2f2cd054ebbd64e33d1c9d0a734029f5b72db",
          "transactionIndex": "0x112",
          "logIndex": "0x72",
          "removed": false
        }
      ],
      "logsBloom": "0x00000000400000000000000000000000000000000000000000000000040000000000000000000000000000000000000000000000000000000040000000000000000000000000000000000000000000000000040000000000000000000000000000002000000000000000000000000000000000000000000000000000000000000000000000000000000000000000000000000000000000000000000000000000000000000400000000000000000004000000000000000000000002000000000400000000000400000000000000020000000000000000000000000000000000000000000000000000000000000100000000000000000000000000000000000000",
      "type": "0x2",
      "transactionHash": "0x98ab72c6a006d5509f1cd17081b2f2cd054ebbd64e33d1c9d0a734029f5b72db",
      "transactionIndex": "0x112",
      "blockHash": "0x0000000000000000000000000000000000000000000000000000000000000000",
      "blockNumber": "0x2caa1b9",
      "gasUsed": "0x16b8a",
      "effectiveGasPrice": "0x9cd86f",
      "blobGasUsed": "0x82a8",
      "from": "0x66205fda77114a5357e7bdcac6ddb356cff0063b",
      "to": "0x872c561f699b42977c093f0ed8b4c9a431280c6c",
      "contractAddress": null,
      "daFootprintGasScalar": "0x94",
      "l1BaseFeeScalar": "0x8dd",
      "l1BlobBaseFee": "0xb3c1df",
      "l1BlobBaseFeeScalar": "0x101c12",
      "l1Fee": "0x7655d8b3",
      "l1GasPrice": "0xc2cf19f",
      "l1GasUsed": "0xe2c"
    }
  ],
  "libraries": [],
  "pending": [],
  "returns": {},
  "timestamp": 1780457556980,
  "chain": 8453,
  "commit": "e716e4a"
}