{
  "transactions": [
    {
      "hash": "0x24cc9245646d1ea5e306b55b647921f507378113428c0e9f64c50ebc03d9ac20",
      "transactionType": "CREATE",
      "contractName": "LiquidityHelper",
      "contractAddress": "0x7060d57e693ab82ce98c7a095a4b73f7e137f80b",
      "function": null,
      "arguments": [
        "0x498581fF718922c3f8e6A244956aF099B2652b2b",
        "0x4200000000000000000000000000000000000006",
        "0x4751BA2b09374C1929FC01734a166e3c8cd75810",
        "0x872c561f699B42977c093F0eD8b4C9a431280c6c"
      ],
      "transaction": {
        "from": "0x66205fda77114a5357e7bdcac6ddb356cff0063b",
        "gas": "0x11f83b",
        "value": "0x0",
        "input": "0x610100346100ba57601f61106038819003918201601f19168301916001600160401b038311848410176100be578084926080946040528339810103126100ba57610048816100d2565b90610055602082016100d2565b61006d6060610066604085016100d2565b93016100d2565b9260805260a05260c05260e052604051610f7990816100e7823960805181818160a301526108f3015260a0518161083e015260c05181610879015260e051818181610b440152610be20152f35b5f80fd5b634e487b7160e01b5f52604160045260245ffd5b51906001600160a01b03821682036100ba5756fe6080806040526004361015610012575f80fd5b5f905f3560e01c908163709e9952146107d157506391dd734614610034575f80fd5b3461070e5760207ffffffffffffffffffffffffffffffffffffffffffffffffffffffffffffffffc36011261070e576004359067ffffffffffffffff821161070e573660238301121561070e57816004013567ffffffffffffffff811161070e57820136602482011161070e577f000000000000000000000000000000000000000000000000000000000000000073ffffffffffffffffffffffffffffffffffffffff8116918233036107735784900360c0811261070e5760a01361070e576040516100ff81610dea565b61010b60248601610e6e565b815261011960448601610e6e565b9460208201958652606481013562ffffff8116810361070e5760408301526084810135908160020b820361070e5760c491606084015261015b60a48201610e6e565b60808401520135906fffffffffffffffffffffffffffffffff821680920361070e57604051916080830183811067ffffffffffffffff8211176107465760405261f2d083526020830190620167c482526040840190815260608401915f8352604051947f5a6bcfda000000000000000000000000000000000000000000000000000000008652610238600487018673ffffffffffffffffffffffffffffffffffffffff6080809282815116855282602082015116602086015262ffffff6040820151166040860152606081015160020b6060860152015116910152565b5160020b60a48601525160020b60c48501525160e4840152516101048301526101406101248301525f610144830152604082610164815f885af1918215610703575f92610712575b508160801d600f0b91600f0b925f83129182610572575b5085841294856103a3575b5061038d9650501561039b576102c86fffffffffffffffffffffffffffffffff91610e8f565b16915b61030c60409384516102dd8682610e06565b601381527f4c5020736574746c65643a205745544820203d000000000000000000000000006020820152610eeb565b15610391576fffffffffffffffffffffffffffffffff61032e61036b92610e8f565b165b825161033c8482610e06565b601581527f4c5020736574746c65643a207773744449454d203d00000000000000000000006020820152610eeb565b805191610379602084610e06565b825251918291602083526020830190610da7565b0390f35b5061036b82610330565b5082916102cb565b86976fffffffffffffffffffffffffffffffff6103bf87610e8f565b169073ffffffffffffffffffffffffffffffffffffffff815116833b1561056e57604051907fa58411940000000000000000000000000000000000000000000000000000000082526004820152898160248183885af1908115610563578a91610546575b5050516040517fa9059cbb00000000000000000000000000000000000000000000000000000000815273ffffffffffffffffffffffffffffffffffffffff948516600482015260248101929092529092602091849160449183918c91165af191821561053b57602092610510575b506004604051809981937f11da60b40000000000000000000000000000000000000000000000000000000083525af19586156105055761038d966104d6575b806102a2565b6104f79060203d6020116104fe575b6104ef8183610e06565b810190610e5f565b505f6104d0565b503d6104e5565b6040513d87823e3d90fd5b61052f90833d8511610534575b6105278183610e06565b810190610e47565b610491565b503d61051d565b6040513d89823e3d90fd5b8161055391949394610e06565b61055f5790885f610423565b8880fd5b6040513d8c823e3d90fd5b8980fd5b6fffffffffffffffffffffffffffffffff61058c85610e8f565b169073ffffffffffffffffffffffffffffffffffffffff815116873b1561070e57604051907fa584119400000000000000000000000000000000000000000000000000000000825260048201525f81602481838c5af18015610703576106d0575b50516040517fa9059cbb00000000000000000000000000000000000000000000000000000000815273ffffffffffffffffffffffffffffffffffffffff8481166004830152602482019390935291602091839116818a81604481015b03925af1801561053b576106b3575b506040517f11da60b40000000000000000000000000000000000000000000000000000000081526020816004818a8a5af1801561053b5715610297576106ac9060203d6020116104fe576104ef8183610e06565b505f610297565b6106cb9060203d602011610534576105278183610e06565b610658565b73ffffffffffffffffffffffffffffffffffffffff9850602091926106f85f61064993610e06565b5f99509291506105ed565b6040513d5f823e3d90fd5b5f80fd5b9091506040813d60401161073e575b8161072e60409383610e06565b8101031261070e5751905f610280565b3d9150610721565b7f4e487b71000000000000000000000000000000000000000000000000000000005f52604160045260245ffd5b60646040517f08c379a000000000000000000000000000000000000000000000000000000000815260206004820152600760248201527f6f6e6c7920504d000000000000000000000000000000000000000000000000006044820152fd5b3461070e5760207ffffffffffffffffffffffffffffffffffffffffffffffffffffffffffffffffc36011261070e57600435906fffffffffffffffffffffffffffffffff821680920361070e5761082781610dea565b73ffffffffffffffffffffffffffffffffffffffff7f0000000000000000000000000000000000000000000000000000000000000000169182825273ffffffffffffffffffffffffffffffffffffffff7f00000000000000000000000000000000000000000000000000000000000000001691826020820152610bb86040820152603c60608201525f6080820152604051907f095ea7b300000000000000000000000000000000000000000000000000000000825273ffffffffffffffffffffffffffffffffffffffff7f000000000000000000000000000000000000000000000000000000000000000016918260048201527fffffffffffffffffffffffffffffffffffffffffffffffffffffffffffffffff60248201526020816044815f8a5af1801561070357610d8a575b50604051917f095ea7b30000000000000000000000000000000000000000000000000000000083528060048401527fffffffffffffffffffffffffffffffffffffffffffffffffffffffffffffffff60248401526020836044815f895af1918215610703575f948594610a7494610d6d575b50610a2360405192602084019073ffffffffffffffffffffffffffffffffffffffff6080809282815116855282602082015116602086015262ffffff6040820151166040860152606081015160020b6060860152015116910152565b60c082015260c08152610a3760e082610e06565b6040519485809481937f48c89491000000000000000000000000000000000000000000000000000000008352602060048401526024830190610da7565b03925af1801561070357610cc8575b506040517f70a08231000000000000000000000000000000000000000000000000000000008152306004820152602081602481865afa908115610703575f91610c96575b50604051927f70a08231000000000000000000000000000000000000000000000000000000008452306004850152602084602481865afa938415610703575f94610c62575b5081610bba575b505081610b1c57005b6040517fa9059cbb0000000000000000000000000000000000000000000000000000000081527f000000000000000000000000000000000000000000000000000000000000000073ffffffffffffffffffffffffffffffffffffffff1660048201526024810192909252602090829060449082905f905af1801561070357610ba057005b610bb89060203d602011610534576105278183610e06565b005b6040517fa9059cbb0000000000000000000000000000000000000000000000000000000081527f000000000000000000000000000000000000000000000000000000000000000073ffffffffffffffffffffffffffffffffffffffff1660048201526024810192909252602090829060449082905f905af1801561070357610c43575b80610b13565b610c5b9060203d602011610534576105278183610e06565b5082610c3d565b9093506020813d602011610c8e575b81610c7e60209383610e06565b8101031261070e57519284610b0c565b3d9150610c71565b90506020813d602011610cc0575b81610cb160209383610e06565b8101031261070e575183610ac7565b3d9150610ca4565b3d805f833e610cd78183610e06565b81019060208183031261070e5780519067ffffffffffffffff821161070e570181601f8201121561070e5780519067ffffffffffffffff82116107465760405192610d4a601f84017fffffffffffffffffffffffffffffffffffffffffffffffffffffffffffffffe01660200185610e06565b8284526020838301011161070e57815f9260208093018386015e83010152610a83565b610d859060203d602011610534576105278183610e06565b6109c7565b610da29060203d602011610534576105278183610e06565b610955565b907fffffffffffffffffffffffffffffffffffffffffffffffffffffffffffffffe0601f602080948051918291828752018686015e5f8582860101520116010190565b60a0810190811067ffffffffffffffff82111761074657604052565b90601f7fffffffffffffffffffffffffffffffffffffffffffffffffffffffffffffffe0910116810190811067ffffffffffffffff82111761074657604052565b9081602091031261070e5751801515810361070e5790565b9081602091031261070e575190565b359073ffffffffffffffffffffffffffffffffffffffff8216820361070e57565b600f0b7fffffffffffffffffffffffffffffffff800000000000000000000000000000008114610ebe575f0390565b7f4e487b71000000000000000000000000000000000000000000000000000000005f52601160045260245ffd5b5f91908291610f666040518092610f3460208301957fb60e72cc000000000000000000000000000000000000000000000000000000008752604060248501526064840190610da7565b906044830152037fffffffffffffffffffffffffffffffffffffffffffffffffffffffffffffffe08101835282610e06565b51906a636f6e736f6c652e6c6f675afa5056000000000000000000000000498581ff718922c3f8e6a244956af099b2652b2b00000000000000000000000042000000000000000000000000000000000000060000000000000000000000004751ba2b09374c1929fc01734a166e3c8cd75810000000000000000000000000872c561f699b42977c093f0ed8b4c9a431280c6c",
        "nonce": "0x1d",
        "chainId": "0x2105"
      },
      "additionalContracts": [],
      "isFixedGasLimit": false
    },
    {
      "hash": "0x7475cf64ea0be4448415c03c849744cac101a149a9b9c30c8ecc71f5806f78cb",
      "transactionType": "CALL",
      "contractName": null,
      "contractAddress": "0x872c561f699b42977c093f0ed8b4c9a431280c6c",
      "function": "execTransaction(address,uint256,bytes,uint8,uint256,uint256,uint256,address,address,bytes)",
      "arguments": [
        "0x4200000000000000000000000000000000000006",
        "0",
        "0xa9059cbb0000000000000000000000007060d57e693ab82ce98c7a095a4b73f7e137f80b00000000000000000000000000000000000000000000000000071afd498d0000",
        "0",
        "0",
        "0",
        "0",
        "0x0000000000000000000000000000000000000000",
        "0x0000000000000000000000000000000000000000",
        "0x3c9713abedac390475d2eea1a63f5745dd473cefe1e10f5ec549cda33b4afd1b1d9ee651b97d0843013fac3c7fad0102b5ad4d7dae115de005db9254f7d45fbd1bcda5299bb47a6288a295dafa89e61f89bea152dd6f4c1918046969516f902e1e71a18b344f83eb6853fcb02f737448695e6df1e4f846c058883fbc2e37047fc01b"
      ],
      "transaction": {
        "from": "0x66205fda77114a5357e7bdcac6ddb356cff0063b",
        "to": "0x872c561f699b42977c093f0ed8b4c9a431280c6c",
        "gas": "0x212ad",
        "value": "0x0",
        "input": "0x6a76120200000000000000000000000042000000000000000000000000000000000000060000000000000000000000000000000000000000000000000000000000000000000000000000000000000000000000000000000000000000000000000000014000000000000000000000000000000000000000000000000000000000000000000000000000000000000000000000000000000000000000000000000000000000000000000000000000000000000000000000000000000000000000000000000000000000000000000000000000000000000000000000000000000000000000000000000000000000000000000000000000000000000000000000000000000000000000000000000000000000000000000000000000000000000000000000000000000000000000000000000000000000000000000000000000000000000001c00000000000000000000000000000000000000000000000000000000000000044a9059cbb0000000000000000000000007060d57e693ab82ce98c7a095a4b73f7e137f80b00000000000000000000000000000000000000000000000000071afd498d00000000000000000000000000000000000000000000000000000000000000000000000000000000000000000000000000000000000000000000000000823c9713abedac390475d2eea1a63f5745dd473cefe1e10f5ec549cda33b4afd1b1d9ee651b97d0843013fac3c7fad0102b5ad4d7dae115de005db9254f7d45fbd1bcda5299bb47a6288a295dafa89e61f89bea152dd6f4c1918046969516f902e1e71a18b344f83eb6853fcb02f737448695e6df1e4f846c058883fbc2e37047fc01b000000000000000000000000000000000000000000000000000000000000",
        "nonce": "0x1e",
        "chainId": "0x2105"
      },
      "additionalContracts": [],
      "isFixedGasLimit": false
    },
    {
      "hash": "0xd5f56ac524eb68bd3456cd4c982174085fce8b8f8af2c976d6ae88531a859704",
      "transactionType": "CALL",
      "contractName": null,
      "contractAddress": "0x872c561f699b42977c093f0ed8b4c9a431280c6c",
      "function": "execTransaction(address,uint256,bytes,uint8,uint256,uint256,uint256,address,address,bytes)",
      "arguments": [
        "0x4751BA2b09374C1929FC01734a166e3c8cd75810",
        "0",
        "0xa9059cbb0000000000000000000000007060d57e693ab82ce98c7a095a4b73f7e137f80b00000000000000000000000000000000000000000000000026066f7b9c920000",
        "0",
        "0",
        "0",
        "0",
        "0x0000000000000000000000000000000000000000",
        "0x0000000000000000000000000000000000000000",
        "0x380ea31c7d9e1dc140e1e41ca3697fc3f81e4eed42f352c99a831f63119ad42c500c39ce1580f261bc1c6ddaa9df50139220b0e64b5cde057f6bf59ba063f6af1caeb8b50af560570c6917e547ae9df758c2cf572dae41f119f9ed2630da6067a31a22f8b64886be130298f64cff9c9292bd7edb6860c44a2566033a056ef72c811b"
      ],
      "transaction": {
        "from": "0x66205fda77114a5357e7bdcac6ddb356cff0063b",
        "to": "0x872c561f699b42977c093f0ed8b4c9a431280c6c",
        "gas": "0x234f3",
        "value": "0x0",
        "input": "0x6a7612020000000000000000000000004751ba2b09374c1929fc01734a166e3c8cd758100000000000000000000000000000000000000000000000000000000000000000000000000000000000000000000000000000000000000000000000000000014000000000000000000000000000000000000000000000000000000000000000000000000000000000000000000000000000000000000000000000000000000000000000000000000000000000000000000000000000000000000000000000000000000000000000000000000000000000000000000000000000000000000000000000000000000000000000000000000000000000000000000000000000000000000000000000000000000000000000000000000000000000000000000000000000000000000000000000000000000000000000000000000000000000000001c00000000000000000000000000000000000000000000000000000000000000044a9059cbb0000000000000000000000007060d57e693ab82ce98c7a095a4b73f7e137f80b00000000000000000000000000000000000000000000000026066f7b9c920000000000000000000000000000000000000000000000000000000000000000000000000000000000000000000000000000000000000000000000000082380ea31c7d9e1dc140e1e41ca3697fc3f81e4eed42f352c99a831f63119ad42c500c39ce1580f261bc1c6ddaa9df50139220b0e64b5cde057f6bf59ba063f6af1caeb8b50af560570c6917e547ae9df758c2cf572dae41f119f9ed2630da6067a31a22f8b64886be130298f64cff9c9292bd7edb6860c44a2566033a056ef72c811b000000000000000000000000000000000000000000000000000000000000",
        "nonce": "0x1f",
        "chainId": "0x2105"
      },
      "additionalContracts": [],
      "isFixedGasLimit": false
    },
    {
      "hash": "0x14175d78e156d5ee8ee522a9c6d305c05a1e60c02c4d27bdc03162ff82c00c76",
      "transactionType": "CALL",
      "contractName": null,
      "contractAddress": "0x872c561f699b42977c093f0ed8b4c9a431280c6c",
      "function": "execTransaction(address,uint256,bytes,uint8,uint256,uint256,uint256,address,address,bytes)",
      "arguments": [
        "0x7060D57e693AB82cE98c7A095a4B73F7e137F80b",
        "0",
        "0x709e995200000000000000000000000000000000000000000000000001b16e5a86990000",
        "0",
        "0",
        "0",
        "0",
        "0x0000000000000000000000000000000000000000",
        "0x0000000000000000000000000000000000000000",
        "0xe6bace46a11839356ebbf233bac41c8f4c50920093f123b06003045125c7e0093abd2fec881b60c71b9328f0485c8c6b8f823afb0a7b49a90d9c6db093980a351b33e176907345bd49039dea3edac21b621e84158c613bedf80857c896bbef89822657ab2a46b3b298374b84bc1b3fd1f12475e73364d322407412cf414df0f9851b"
      ],
      "transaction": {
        "from": "0x66205fda77114a5357e7bdcac6ddb356cff0063b",
        "to": "0x872c561f699b42977c093f0ed8b4c9a431280c6c",
        "gas": "0x7ae50",
        "value": "0x0",
        "input": "0x6a7612020000000000000000000000007060d57e693ab82ce98c7a095a4b73f7e137f80b0000000000000000000000000000000000000000000000000000000000000000000000000000000000000000000000000000000000000000000000000000014000000000000000000000000000000000000000000000000000000000000000000000000000000000000000000000000000000000000000000000000000000000000000000000000000000000000000000000000000000000000000000000000000000000000000000000000000000000000000000000000000000000000000000000000000000000000000000000000000000000000000000000000000000000000000000000000000000000000000000000000000000000000000000000000000000000000000000000000000000000000000000000000000000000000001a00000000000000000000000000000000000000000000000000000000000000024709e995200000000000000000000000000000000000000000000000001b16e5a86990000000000000000000000000000000000000000000000000000000000000000000000000000000000000000000000000000000000000000000000000082e6bace46a11839356ebbf233bac41c8f4c50920093f123b06003045125c7e0093abd2fec881b60c71b9328f0485c8c6b8f823afb0a7b49a90d9c6db093980a351b33e176907345bd49039dea3edac21b621e84158c613bedf80857c896bbef89822657ab2a46b3b298374b84bc1b3fd1f12475e73364d322407412cf414df0f9851b000000000000000000000000000000000000000000000000000000000000",
        "nonce": "0x20",
        "chainId": "0x2105"
      },
      "additionalContracts": [],
      "isFixedGasLimit": false
    }
  ],
  "receipts": [
    {
      "status": "0x1",
      "cumulativeGasUsed": "0x724342",
      "logs": [],
      "logsBloom": "0x00000000000000000000000000000000000000000000000000000000000000000000000000000000000000000000000000000000000000000000000000000000000000000000000000000000000000000000000000000000000000000000000000000000000000000000000000000000000000000000000000000000000000000000000000000000000000000000000000000000000000000000000000000000000000000000000000000000000000000000000000000000000000000000000000000000000000000000000000000000000000000000000000000000000000000000000000000000000000000000000000000000000000000000000000000000",
      "type": "0x2",
      "transactionHash": "0xd5f56ac524eb68bd3456cd4c982174085fce8b8f8af2c976d6ae88531a859704",
      "transactionIndex": "0x32",
      "blockHash": "0x0000000000000000000000000000000000000000000000000000000000000000",
      "blockNumber": "0x2c9f97e",
      "gasUsed": "0xdd2a4",
      "effectiveGasPrice": "0x57bcf0",
      "blobGasUsed": "0x4712c",
      "from": "0x66205fda77114a5357e7bdcac6ddb356cff0063b",
      "to": null,
      "contractAddress": "0x7060d57e693ab82ce98c7a095a4b73f7e137f80b",
      "daFootprintGasScalar": "0x94",
      "l1BaseFeeScalar": "0x8dd",
      "l1BlobBaseFee": "0x66fd02",
      "l1BlobBaseFeeScalar": "0x101c12",
      "l1Fee": "0x4c0ec6f4",
      "l1GasPrice": "0x6b4362c",
      "l1GasUsed": "0x7af8"
    },
    {
      "status": "0x1",
      "cumulativeGasUsed": "0x73c376",
      "logs": [
        {
          "address": "0x872c561f699b42977c093f0ed8b4c9a431280c6c",
          "topics": [
            "0x66753cd2356569ee081232e3be8909b950e0a76c1f8460c3a5e3c2be32b11bed"
          ],
          "data": "0x00000000000000000000000042000000000000000000000000000000000000060000000000000000000000000000000000000000000000000000000000000000000000000000000000000000000000000000000000000000000000000000016000000000000000000000000000000000000000000000000000000000000000000000000000000000000000000000000000000000000000000000000000000000000000000000000000000000000000000000000000000000000000000000000000000000000000000000000000000000000000000000000000000000000000000000000000000000000000000000000000000000000000000000000000000000000000000000000000000000000000000000000000000000000000000000000000000000000000000000000000000000000000000000000000000000000001e000000000000000000000000000000000000000000000000000000000000002a00000000000000000000000000000000000000000000000000000000000000044a9059cbb0000000000000000000000007060d57e693ab82ce98c7a095a4b73f7e137f80b00000000000000000000000000000000000000000000000000071afd498d00000000000000000000000000000000000000000000000000000000000000000000000000000000000000000000000000000000000000000000000000823c9713abedac390475d2eea1a63f5745dd473cefe1e10f5ec549cda33b4afd1b1d9ee651b97d0843013fac3c7fad0102b5ad4d7dae115de005db9254f7d45fbd1bcda5299bb47a6288a295dafa89e61f89bea152dd6f4c1918046969516f902e1e71a18b344f83eb6853fcb02f737448695e6df1e4f846c058883fbc2e37047fc01b0000000000000000000000000000000000000000000000000000000000000000000000000000000000000000000000000000000000000000000000000060000000000000000000000000000000000000000000000000000000000000003500000000000000000000000066205fda77114a5357e7bdcac6ddb356cff0063b0000000000000000000000000000000000000000000000000000000000000002",
          "blockHash": "0x0000000000000000000000000000000000000000000000000000000000000000",
          "blockNumber": "0x2c9f97e",
          "blockTimestamp": "0x6a1e4fdf",
          "transactionHash": "0x24cc9245646d1ea5e306b55b647921f507378113428c0e9f64c50ebc03d9ac20",
          "transactionIndex": "0x33",
          "logIndex": "0x6e",
          "removed": false
        },
        {
          "address": "0x4200000000000000000000000000000000000006",
          "topics": [
            "0xddf252ad1be2c89b69c2b068fc378daa952ba7f163c4a11628f55a4df523b3ef",
            "0x000000000000000000000000872c561f699b42977c093f0ed8b4c9a431280c6c",
            "0x0000000000000000000000007060d57e693ab82ce98c7a095a4b73f7e137f80b"
          ],
          "data": "0x00000000000000000000000000000000000000000000000000071afd498d0000",
          "blockHash": "0x0000000000000000000000000000000000000000000000000000000000000000",
          "blockNumber": "0x2c9f97e",
          "blockTimestamp": "0x6a1e4fdf",
          "transactionHash": "0x24cc9245646d1ea5e306b55b647921f507378113428c0e9f64c50ebc03d9ac20",
          "transactionIndex": "0x33",
          "logIndex": "0x6f",
          "removed": false
        },
        {
          "address": "0x872c561f699b42977c093f0ed8b4c9a431280c6c",
          "topics": [
            "0x442e715f626346e8c54381002da614f62bee8d27386535b2521ec8540898556e",
            "0x6257a2d32db7f49a9580d1cb443ccabc984e3bfdf88f521f6a48f98dd0f641b4"
          ],
          "data": "0x0000000000000000000000000000000000000000000000000000000000000000",
          "blockHash": "0x0000000000000000000000000000000000000000000000000000000000000000",
          "blockNumber": "0x2c9f97e",
          "blockTimestamp": "0x6a1e4fdf",
          "transactionHash": "0x24cc9245646d1ea5e306b55b647921f507378113428c0e9f64c50ebc03d9ac20",
          "transactionIndex": "0x33",
          "logIndex": "0x70",
          "removed": false
        }
      ],
      "logsBloom": "0x00040000400000000000000000000000000000000000000000040000040000000008000000000000000000100000000000400000000000000000000000000000000000000000000000000008000000000000050000008000000000000000000000002000000000000000000000000000000000800000000000000010000000000000000000000000000000000000000000001000002000000000000000000000000000000400000000000000001004000000000000000000000002000000000000000002000400000000000000020000000000000000000000000000000000000000000000000000000000000000000000000000004000000000000000000000",
      "type": "0x2",
      "transactionHash": "0x24cc9245646d1ea5e306b55b647921f507378113428c0e9f64c50ebc03d9ac20",
      "transactionIndex": "0x33",
      "blockHash": "0x0000000000000000000000000000000000000000000000000000000000000000",
      "blockNumber": "0x2c9f97e",
      "gasUsed": "0x18034",
      "effectiveGasPrice": "0x57bcf0",
      "blobGasUsed": "0x8c7c",
      "from": "0x66205fda77114a5357e7bdcac6ddb356cff0063b",
      "to": "0x872c561f699b42977c093f0ed8b4c9a431280c6c",
      "contractAddress": null,
      "daFootprintGasScalar": "0x94",
      "l1BaseFeeScalar": "0x8dd",
      "l1BlobBaseFee": "0x66fd02",
      "l1BlobBaseFeeScalar": "0x101c12",
      "l1Fee": "0x4c0ec6f4",
      "l1GasPrice": "0x6b4362c",
      "l1GasUsed": "0xf37"
    },
    {
      "status": "0x1",
      "cumulativeGasUsed": "0x7545c1",
      "logs": [
        {
          "address": "0x872c561f699b42977c093f0ed8b4c9a431280c6c",
          "topics": [
            "0x66753cd2356569ee081232e3be8909b950e0a76c1f8460c3a5e3c2be32b11bed"
          ],
          "data": "0x0000000000000000000000004751ba2b09374c1929fc01734a166e3c8cd758100000000000000000000000000000000000000000000000000000000000000000000000000000000000000000000000000000000000000000000000000000016000000000000000000000000000000000000000000000000000000000000000000000000000000000000000000000000000000000000000000000000000000000000000000000000000000000000000000000000000000000000000000000000000000000000000000000000000000000000000000000000000000000000000000000000000000000000000000000000000000000000000000000000000000000000000000000000000000000000000000000000000000000000000000000000000000000000000000000000000000000000000000000000000000000000001e000000000000000000000000000000000000000000000000000000000000002a00000000000000000000000000000000000000000000000000000000000000044a9059cbb0000000000000000000000007060d57e693ab82ce98c7a095a4b73f7e137f80b00000000000000000000000000000000000000000000000026066f7b9c920000000000000000000000000000000000000000000000000000000000000000000000000000000000000000000000000000000000000000000000000082380ea31c7d9e1dc140e1e41ca3697fc3f81e4eed42f352c99a831f63119ad42c500c39ce1580f261bc1c6ddaa9df50139220b0e64b5cde057f6bf59ba063f6af1caeb8b50af560570c6917e547ae9df758c2cf572dae41f119f9ed2630da6067a31a22f8b64886be130298f64cff9c9292bd7edb6860c44a2566033a056ef72c811b0000000000000000000000000000000000000000000000000000000000000000000000000000000000000000000000000000000000000000000000000060000000000000000000000000000000000000000000000000000000000000003600000000000000000000000066205fda77114a5357e7bdcac6ddb356cff0063b0000000000000000000000000000000000000000000000000000000000000002",
          "blockHash": "0x0000000000000000000000000000000000000000000000000000000000000000",
          "blockNumber": "0x2c9f97e",
          "blockTimestamp": "0x6a1e4fdf",
          "transactionHash": "0x7475cf64ea0be4448415c03c849744cac101a149a9b9c30c8ecc71f5806f78cb",
          "transactionIndex": "0x34",
          "logIndex": "0x71",
          "removed": false
        },
        {
          "address": "0x4751ba2b09374c1929fc01734a166e3c8cd75810",
          "topics": [
            "0xddf252ad1be2c89b69c2b068fc378daa952ba7f163c4a11628f55a4df523b3ef",
            "0x000000000000000000000000872c561f699b42977c093f0ed8b4c9a431280c6c",
            "0x0000000000000000000000007060d57e693ab82ce98c7a095a4b73f7e137f80b"
          ],
          "data": "0x00000000000000000000000000000000000000000000000026066f7b9c920000",
          "blockHash": "0x0000000000000000000000000000000000000000000000000000000000000000",
          "blockNumber": "0x2c9f97e",
          "blockTimestamp": "0x6a1e4fdf",
          "transactionHash": "0x7475cf64ea0be4448415c03c849744cac101a149a9b9c30c8ecc71f5806f78cb",
          "transactionIndex": "0x34",
          "logIndex": "0x72",
          "removed": false
        },
        {
          "address": "0x872c561f699b42977c093f0ed8b4c9a431280c6c",
          "topics": [
            "0x442e715f626346e8c54381002da614f62bee8d27386535b2521ec8540898556e",
            "0x1cbf7c620767992925d527dd2dcb8da84fad0568a0c427478707a8a8fa4b0985"
          ],
          "data": "0x0000000000000000000000000000000000000000000000000000000000000000",
          "blockHash": "0x0000000000000000000000000000000000000000000000000000000000000000",
          "blockNumber": "0x2c9f97e",
          "blockTimestamp": "0x6a1e4fdf",
          "transactionHash": "0x7475cf64ea0be4448415c03c849744cac101a149a9b9c30c8ecc71f5806f78cb",
          "transactionIndex": "0x34",
          "logIndex": "0x73",
          "removed": false
        }
      ],
      "logsBloom": "0x00000000400000000000000000000000000000000000010000000000040020000008000000000000000000000000000000000000000000000000000000000000000020000000008000000008000000000000050000008000000000000000000000002000000000000000000000000000000004800000000000000010000000000000000000000000000000000000000000001000000000000000000000000000000000000400000000000000001004000000000000000000000002000000000000000002000400000000000000020000000000000000000000000000000000000000000000000000000000000000000000000000000100000000000000000000",
      "type": "0x2",
      "transactionHash": "0x7475cf64ea0be4448415c03c849744cac101a149a9b9c30c8ecc71f5806f78cb",
      "transactionIndex": "0x34",
      "blockHash": "0x0000000000000000000000000000000000000000000000000000000000000000",
      "blockNumber": "0x2c9f97e",
      "gasUsed": "0x1824b",
      "effectiveGasPrice": "0x57bcf0",
      "blobGasUsed": "0x936c",
      "from": "0x66205fda77114a5357e7bdcac6ddb356cff0063b",
      "to": "0x872c561f699b42977c093f0ed8b4c9a431280c6c",
      "contractAddress": null,
      "daFootprintGasScalar": "0x94",
      "l1BaseFeeScalar": "0x8dd",
      "l1BlobBaseFee": "0x66fd02",
      "l1BlobBaseFeeScalar": "0x101c12",
      "l1Fee": "0x4c0ec6f4",
      "l1GasPrice": "0x6b4362c",
      "l1GasUsed": "0xff3"
    },
    {
      "status": "0x1",
      "cumulativeGasUsed": "0x7ad555",
      "logs": [
        {
          "address": "0x872c561f699b42977c093f0ed8b4c9a431280c6c",
          "topics": [
            "0x66753cd2356569ee081232e3be8909b950e0a76c1f8460c3a5e3c2be32b11bed"
          ],
          "data": "0x0000000000000000000000007060d57e693ab82ce98c7a095a4b73f7e137f80b0000000000000000000000000000000000000000000000000000000000000000000000000000000000000000000000000000000000000000000000000000016000000000000000000000000000000000000000000000000000000000000000000000000000000000000000000000000000000000000000000000000000000000000000000000000000000000000000000000000000000000000000000000000000000000000000000000000000000000000000000000000000000000000000000000000000000000000000000000000000000000000000000000000000000000000000000000000000000000000000000000000000000000000000000000000000000000000000000000000000000000000000000000000000000000000001c000000000000000000000000000000000000000000000000000000000000002800000000000000000000000000000000000000000000000000000000000000024709e995200000000000000000000000000000000000000000000000001b16e5a86990000000000000000000000000000000000000000000000000000000000000000000000000000000000000000000000000000000000000000000000000082e6bace46a11839356ebbf233bac41c8f4c50920093f123b06003045125c7e0093abd2fec881b60c71b9328f0485c8c6b8f823afb0a7b49a90d9c6db093980a351b33e176907345bd49039dea3edac21b621e84158c613bedf80857c896bbef89822657ab2a46b3b298374b84bc1b3fd1f12475e73364d322407412cf414df0f9851b0000000000000000000000000000000000000000000000000000000000000000000000000000000000000000000000000000000000000000000000000060000000000000000000000000000000000000000000000000000000000000003700000000000000000000000066205fda77114a5357e7bdcac6ddb356cff0063b0000000000000000000000000000000000000000000000000000000000000002",
          "blockHash": "0x0000000000000000000000000000000000000000000000000000000000000000",
          "blockNumber": "0x2c9f97e",
          "blockTimestamp": "0x6a1e4fdf",
          "transactionHash": "0x14175d78e156d5ee8ee522a9c6d305c05a1e60c02c4d27bdc03162ff82c00c76",
          "transactionIndex": "0x35",
          "logIndex": "0x74",
          "removed": false
        },
        {
          "address": "0x4200000000000000000000000000000000000006",
          "topics": [
            "0x8c5be1e5ebec7d5bd14f71427d1e84f3dd0314c0f7b2291e5b200ac8c7c3b925",
            "0x0000000000000000000000007060d57e693ab82ce98c7a095a4b73f7e137f80b",
            "0x000000000000000000000000498581ff718922c3f8e6a244956af099b2652b2b"
          ],
          "data": "0xffffffffffffffffffffffffffffffffffffffffffffffffffffffffffffffff",
          "blockHash": "0x0000000000000000000000000000000000000000000000000000000000000000",
          "blockNumber": "0x2c9f97e",
          "blockTimestamp": "0x6a1e4fdf",
          "transactionHash": "0x14175d78e156d5ee8ee522a9c6d305c05a1e60c02c4d27bdc03162ff82c00c76",
          "transactionIndex": "0x35",
          "logIndex": "0x75",
          "removed": false
        },
        {
          "address": "0x4751ba2b09374c1929fc01734a166e3c8cd75810",
          "topics": [
            "0x8c5be1e5ebec7d5bd14f71427d1e84f3dd0314c0f7b2291e5b200ac8c7c3b925",
            "0x0000000000000000000000007060d57e693ab82ce98c7a095a4b73f7e137f80b",
            "0x000000000000000000000000498581ff718922c3f8e6a244956af099b2652b2b"
          ],
          "data": "0xffffffffffffffffffffffffffffffffffffffffffffffffffffffffffffffff",
          "blockHash": "0x0000000000000000000000000000000000000000000000000000000000000000",
          "blockNumber": "0x2c9f97e",
          "blockTimestamp": "0x6a1e4fdf",
          "transactionHash": "0x14175d78e156d5ee8ee522a9c6d305c05a1e60c02c4d27bdc03162ff82c00c76",
          "transactionIndex": "0x35",
          "logIndex": "0x76",
          "removed": false
        },
        {
          "address": "0x498581ff718922c3f8e6a244956af099b2652b2b",
          "topics": [
            "0xf208f4912782fd25c7f114ca3723a2d5dd6f3bcc3ac8db5af63baa85f711d5ec",
            "0xe95d630c3b506e47b24697747b0711b30fb54cc4e187fe679f5383fb3841cf7b",
            "0x0000000000000000000000007060d57e693ab82ce98c7a095a4b73f7e137f80b"
          ],
          "data": "0x000000000000000000000000000000000000000000000000000000000000f2d000000000000000000000000000000000000000000000000000000000000167c400000000000000000000000000000000000000000000000001b16e5a869900000000000000000000000000000000000000000000000000000000000000000000",
          "blockHash": "0x0000000000000000000000000000000000000000000000000000000000000000",
          "blockNumber": "0x2c9f97e",
          "blockTimestamp": "0x6a1e4fdf",
          "transactionHash": "0x14175d78e156d5ee8ee522a9c6d305c05a1e60c02c4d27bdc03162ff82c00c76",
          "transactionIndex": "0x35",
          "logIndex": "0x77",
          "removed": false
        },
        {
          "address": "0x4200000000000000000000000000000000000006",
          "topics": [
            "0xddf252ad1be2c89b69c2b068fc378daa952ba7f163c4a11628f55a4df523b3ef",
            "0x0000000000000000000000007060d57e693ab82ce98c7a095a4b73f7e137f80b",
            "0x000000000000000000000000498581ff718922c3f8e6a244956af099b2652b2b"
          ],
          "data": "0x00000000000000000000000000000000000000000000000000055eefec13dd9f",
          "blockHash": "0x0000000000000000000000000000000000000000000000000000000000000000",
          "blockNumber": "0x2c9f97e",
          "blockTimestamp": "0x6a1e4fdf",
          "transactionHash": "0x14175d78e156d5ee8ee522a9c6d305c05a1e60c02c4d27bdc03162ff82c00c76",
          "transactionIndex": "0x35",
          "logIndex": "0x78",
          "removed": false
        },
        {
          "address": "0x4751ba2b09374c1929fc01734a166e3c8cd75810",
          "topics": [
            "0xddf252ad1be2c89b69c2b068fc378daa952ba7f163c4a11628f55a4df523b3ef",
            "0x0000000000000000000000007060d57e693ab82ce98c7a095a4b73f7e137f80b",
            "0x000000000000000000000000498581ff718922c3f8e6a244956af099b2652b2b"
          ],
          "data": "0x00000000000000000000000000000000000000000000000025b874d8305c1050",
          "blockHash": "0x0000000000000000000000000000000000000000000000000000000000000000",
          "blockNumber": "0x2c9f97e",
          "blockTimestamp": "0x6a1e4fdf",
          "transactionHash": "0x14175d78e156d5ee8ee522a9c6d305c05a1e60c02c4d27bdc03162ff82c00c76",
          "transactionIndex": "0x35",
          "logIndex": "0x79",
          "removed": false
        },
        {
          "address": "0x4200000000000000000000000000000000000006",
          "topics": [
            "0xddf252ad1be2c89b69c2b068fc378daa952ba7f163c4a11628f55a4df523b3ef",
            "0x0000000000000000000000007060d57e693ab82ce98c7a095a4b73f7e137f80b",
            "0x000000000000000000000000872c561f699b42977c093f0ed8b4c9a431280c6c"
          ],
          "data": "0x0000000000000000000000000000000000000000000000000001bc0d5d792261",
          "blockHash": "0x0000000000000000000000000000000000000000000000000000000000000000",
          "blockNumber": "0x2c9f97e",
          "blockTimestamp": "0x6a1e4fdf",
          "transactionHash": "0x14175d78e156d5ee8ee522a9c6d305c05a1e60c02c4d27bdc03162ff82c00c76",
          "transactionIndex": "0x35",
          "logIndex": "0x7a",
          "removed": false
        },
        {
          "address": "0x4751ba2b09374c1929fc01734a166e3c8cd75810",
          "topics": [
            "0xddf252ad1be2c89b69c2b068fc378daa952ba7f163c4a11628f55a4df523b3ef",
            "0x0000000000000000000000007060d57e693ab82ce98c7a095a4b73f7e137f80b",
            "0x000000000000000000000000872c561f699b42977c093f0ed8b4c9a431280c6c"
          ],
          "data": "0x000000000000000000000000000000000000000000000000004dfaa36c35efb0",
          "blockHash": "0x0000000000000000000000000000000000000000000000000000000000000000",
          "blockNumber": "0x2c9f97e",
          "blockTimestamp": "0x6a1e4fdf",
          "transactionHash": "0x14175d78e156d5ee8ee522a9c6d305c05a1e60c02c4d27bdc03162ff82c00c76",
          "transactionIndex": "0x35",
          "logIndex": "0x7b",
          "removed": false
        },
        {
          "address": "0x872c561f699b42977c093f0ed8b4c9a431280c6c",
          "topics": [
            "0x442e715f626346e8c54381002da614f62bee8d27386535b2521ec8540898556e",
            "0xd17825eb735f64029928a0b76556e810f4cf1575a1a14aa5fdec0c65c6c60b99"
          ],
          "data": "0x0000000000000000000000000000000000000000000000000000000000000000",
          "blockHash": "0x0000000000000000000000000000000000000000000000000000000000000000",
          "blockNumber": "0x2c9f97e",
          "blockTimestamp": "0x6a1e4fdf",
          "transactionHash": "0x14175d78e156d5ee8ee522a9c6d305c05a1e60c02c4d27bdc03162ff82c00c76",
          "transactionIndex": "0x35",
          "logIndex": "0x7c",
          "removed": false
        }
      ],
      "logsBloom": "0x00000400400000000000000000000000000000000000000000040000040020000028000000000000000000100000000000000004000000000000000000210000000000000000000000000008000000000000050000008000000000000000000000002000000000000000000000000000000004800000001000000010000000000000000001004000000000000000000000001000002000000000000400000000024004000400000000000000001004000000000000000000000002000000000000000002000400000000000000020000000800200000000000000000000000000010000000000000000000000000000004000400000100000000000000000000",
      "type": "0x2",
      "transactionHash": "0x14175d78e156d5ee8ee522a9c6d305c05a1e60c02c4d27bdc03162ff82c00c76",
      "transactionIndex": "0x35",
      "blockHash": "0x0000000000000000000000000000000000000000000000000000000000000000",
      "blockNumber": "0x2c9f97e",
      "gasUsed": "0x58f94",
      "effectiveGasPrice": "0x57bcf0",
      "blobGasUsed": "0x8620",
      "from": "0x66205fda77114a5357e7bdcac6ddb356cff0063b",
      "to": "0x872c561f699b42977c093f0ed8b4c9a431280c6c",
      "contractAddress": null,
      "daFootprintGasScalar": "0x94",
      "l1BaseFeeScalar": "0x8dd",
      "l1BlobBaseFee": "0x66fd02",
      "l1BlobBaseFeeScalar": "0x101c12",
      "l1Fee": "0x4c0ec6f4",
      "l1GasPrice": "0x6b4362c",
      "l1GasUsed": "0xe89"
    }
  ],
  "libraries": [],
  "pending": [],
  "returns": {},
  "timestamp": 1780371422725,
  "chain": 8453,
  "commit": "20d2714"
}