{
  "transactions": [
    {
      "hash": "0xae3ca1e19155def9d6b660d3a137dd80f9f66cabc0503773331ee337f891daf0",
      "transactionType": "CREATE",
      "contractName": "WstDiemVvvOracle",
      "contractAddress": "0xc76e2fe5176b432035def5362023a8df36bee94e",
      "function": null,
      "arguments": [
        "0xb9f23c33FfD2213f31C0cFb6c9e2fDf525a9Dd2D",
        "0xbB345D35450BF9Ee76F3D2cE214E8e7AC5e1071d",
        "0xacfE6019Ed1A7Dc6f7B508C02d1b04ec88cC21bf",
        "2"
      ],
      "transaction": {
        "from": "0xf04822e5b0e76a34aeea936c79b4439f794b8be1",
        "gas": "0x77f0d",
        "value": "0x0",
        "input": "0x610120806040523461021a576080816108e980380380916100208285610337565b83398101031261021a576100338161036e565b61003f6020830161036e565b90606061004e6040850161036e565b9301516001600160a01b039091169182151580610325575b80610313575b156102df5781156102aa5760808390526001600160a01b031660a08190526040516338d52e0f60e01b81529092602090829060049082905afa908115610226575f91610270575b5060c05260e083905261010052604051630dfe168160e01b815290602082600481845afa918215610226575f92610231575b509060206004926040519384809263d21220a760e01b82525afa918215610226575f926101e6575b5060c0516001600160a01b03908116911681811493846101d0575b841561019f575b5050505015610190576040516105669081610383823960805181818160a8015261030f015260a05181818161028d01526104d4015260c0518181816101880152610217015260e0518161011a01526101005181818161024c01526104690152f35b630732619560e01b5f5260045ffd5b6001600160a01b031614925090826101bd575b50505f80808061012f565b6001600160a01b03161490505f806101b2565b6001600160a01b03848116908216149450610128565b9091506020813d60201161021e575b8161020260209383610337565b8101031261021a576102139061036e565b905f61010d565b5f80fd5b3d91506101f5565b6040513d5f823e3d90fd5b91506020823d602011610268575b8161024c60209383610337565b8101031261021a57602061026160049361036e565b92506100e5565b3d915061023f565b90506020813d6020116102a2575b8161028b60209383610337565b8101031261021a5761029c9061036e565b5f6100b3565b3d915061027e565b60405162461bcd60e51b815260206004820152600d60248201526c06772616e756c61726974793d3609c1b6044820152606490fd5b60405162461bcd60e51b815260206004820152600c60248201526b7a65726f206164647265737360a01b6044820152606490fd5b506001600160a01b038416151561006c565b506001600160a01b0381161515610066565b601f909101601f19168101906001600160401b0382119082101761035a57604052565b634e487b7160e01b5f52604160045260245ffd5b51906001600160a01b038216820361021a5756fe6080806040526004361015610012575f80fd5b5f3560e01c90816316f0115b1461048c575080639ad7f70b14610434578063a035b1fe146101ac578063ad66f1821461013e578063b9c54f78146100d05763fbfa77cf1461005e575f80fd5b346100cc575f7ffffffffffffffffffffffffffffffffffffffffffffffffffffffffffffffffc3601126100cc57602060405173ffffffffffffffffffffffffffffffffffffffff7f0000000000000000000000000000000000000000000000000000000000000000168152f35b5f80fd5b346100cc575f7ffffffffffffffffffffffffffffffffffffffffffffffffffffffffffffffffc3601126100cc57602060405173ffffffffffffffffffffffffffffffffffffffff7f0000000000000000000000000000000000000000000000000000000000000000168152f35b346100cc575f7ffffffffffffffffffffffffffffffffffffffffffffffffffffffffffffffffc3601126100cc57602060405173ffffffffffffffffffffffffffffffffffffffff7f0000000000000000000000000000000000000000000000000000000000000000168152f35b346100cc575f7ffffffffffffffffffffffffffffffffffffffffffffffffffffffffffffffffc3601126100cc576040517f9e8cc04b00000000000000000000000000000000000000000000000000000000815273ffffffffffffffffffffffffffffffffffffffff7f0000000000000000000000000000000000000000000000000000000000000000166004820152670de0b6b3a764000060248201527f0000000000000000000000000000000000000000000000000000000000000000604482015260208160648173ffffffffffffffffffffffffffffffffffffffff7f0000000000000000000000000000000000000000000000000000000000000000165afa9081156103f7575f91610402575b506040517f07a2d13a000000000000000000000000000000000000000000000000000000008152670de0b6b3a7640000600482015260208160248173ffffffffffffffffffffffffffffffffffffffff7f0000000000000000000000000000000000000000000000000000000000000000165afa9081156103f7575f916103c5575b50811580156103bd575b6103955781810291818304149015171561036857602090604051908152f35b7f4e487b71000000000000000000000000000000000000000000000000000000005f52601160045260245ffd5b7f4dfba023000000000000000000000000000000000000000000000000000000005f5260045ffd5b508015610349565b90506020813d6020116103ef575b816103e0602093836104f8565b810103126100cc57518261033f565b3d91506103d3565b6040513d5f823e3d90fd5b90506020813d60201161042c575b8161041d602093836104f8565b810103126100cc5751816102bd565b3d9150610410565b346100cc575f7ffffffffffffffffffffffffffffffffffffffffffffffffffffffffffffffffc3601126100cc5760206040517f00000000000000000000000000000000000000000000000000000000000000008152f35b346100cc575f7ffffffffffffffffffffffffffffffffffffffffffffffffffffffffffffffffc3601126100cc5760209073ffffffffffffffffffffffffffffffffffffffff7f0000000000000000000000000000000000000000000000000000000000000000168152f35b90601f7fffffffffffffffffffffffffffffffffffffffffffffffffffffffffffffffe0910116810190811067ffffffffffffffff82111761053957604052565b7f4e487b71000000000000000000000000000000000000000000000000000000005f52604160045260245ffd000000000000000000000000b9f23c33ffd2213f31c0cfb6c9e2fdf525a9dd2d000000000000000000000000bb345d35450bf9ee76f3d2ce214e8e7ac5e1071d000000000000000000000000acfe6019ed1a7dc6f7b508c02d1b04ec88cc21bf0000000000000000000000000000000000000000000000000000000000000002",
        "nonce": "0x0",
        "chainId": "0x2105"
      },
      "additionalContracts": [],
      "isFixedGasLimit": false
    },
    {
      "hash": "0xad801910dfa7ebd21a3bb26f0b556b3451d2026d599371b026a11e3e3a081fe8",
      "transactionType": "CALL",
      "contractName": null,
      "contractAddress": "0xbbbbbbbbbb9cc5e90e3b3af64bdaf62c37eeffcb",
      "function": "createMarket((address,address,address,address,uint256))",
      "arguments": [
        "(0xacfE6019Ed1A7Dc6f7B508C02d1b04ec88cC21bf, 0xb9f23c33FfD2213f31C0cFb6c9e2fDf525a9Dd2D, 0xC76e2fe5176B432035Def5362023a8DF36bEE94E, 0x46415998764C29aB2a25CbeA6254146D50D22687, 625000000000000000)"
      ],
      "transaction": {
        "from": "0xf04822e5b0e76a34aeea936c79b4439f794b8be1",
        "to": "0xbbbbbbbbbb9cc5e90e3b3af64bdaf62c37eeffcb",
        "gas": "0x46902",
        "value": "0x0",
        "input": "0x8c1358a2000000000000000000000000acfe6019ed1a7dc6f7b508c02d1b04ec88cc21bf000000000000000000000000b9f23c33ffd2213f31c0cfb6c9e2fdf525a9dd2d000000000000000000000000c76e2fe5176b432035def5362023a8df36bee94e00000000000000000000000046415998764c29ab2a25cbea6254146d50d2268700000000000000000000000000000000000000000000000008ac7230489e8000",
        "nonce": "0x1",
        "chainId": "0x2105"
      },
      "additionalContracts": [],
      "isFixedGasLimit": false
    }
  ],
  "receipts": [
    {
      "status": "0x1",
      "cumulativeGasUsed": "0x26ed825",
      "logs": [],
      "logsBloom": "0x00000000000000000000000000000000000000000000000000000000000000000000000000000000000000000000000000000000000000000000000000000000000000000000000000000000000000000000000000000000000000000000000000000000000000000000000000000000000000000000000000000000000000000000000000000000000000000000000000000000000000000000000000000000000000000000000000000000000000000000000000000000000000000000000000000000000000000000000000000000000000000000000000000000000000000000000000000000000000000000000000000000000000000000000000000000",
      "type": "0x2",
      "transactionHash": "0xad801910dfa7ebd21a3bb26f0b556b3451d2026d599371b026a11e3e3a081fe8",
      "transactionIndex": "0x152",
      "blockHash": "0x0000000000000000000000000000000000000000000000000000000000000000",
      "blockNumber": "0x2cca60e",
      "gasUsed": "0x5c432",
      "effectiveGasPrice": "0x59dc1d",
      "blobGasUsed": "0x2643c",
      "from": "0xf04822e5b0e76a34aeea936c79b4439f794b8be1",
      "to": null,
      "contractAddress": "0xc76e2fe5176b432035def5362023a8df36bee94e",
      "daFootprintGasScalar": "0x94",
      "l1BaseFeeScalar": "0x8dd",
      "l1BlobBaseFee": "0x18e78f3",
      "l1BlobBaseFeeScalar": "0x101c12",
      "l1Fee": "0xfd193204",
      "l1GasPrice": "0x18735ca6",
      "l1GasUsed": "0x4231"
    },
    {
      "status": "0x1",
      "cumulativeGasUsed": "0x271dc1e",
      "logs": [
        {
          "address": "0xbbbbbbbbbb9cc5e90e3b3af64bdaf62c37eeffcb",
          "topics": [
            "0xac4b2400f169220b0c0afdde7a0b32e775ba727ea1cb30b35f935cdaab8683ac",
            "0xab0345699b8e7a86763b6adbf165c6cd367d11d8e6d875c0f1a20861d8f4f8c8"
          ],
          "data": "0x000000000000000000000000acfe6019ed1a7dc6f7b508c02d1b04ec88cc21bf000000000000000000000000b9f23c33ffd2213f31c0cfb6c9e2fdf525a9dd2d000000000000000000000000c76e2fe5176b432035def5362023a8df36bee94e00000000000000000000000046415998764c29ab2a25cbea6254146d50d2268700000000000000000000000000000000000000000000000008ac7230489e8000",
          "blockHash": "0x0000000000000000000000000000000000000000000000000000000000000000",
          "blockNumber": "0x2cca60e",
          "blockTimestamp": "0x6a23a8ff",
          "transactionHash": "0xae3ca1e19155def9d6b660d3a137dd80f9f66cabc0503773331ee337f891daf0",
          "transactionIndex": "0x153",
          "logIndex": "0x35a",
          "removed": false
        },
        {
          "address": "0x46415998764c29ab2a25cbea6254146d50d22687",
          "topics": [
            "0x7120161a7b3d31251e01294ab351ef15a41b91659a36032e4641bb89b121e321",
            "0xab0345699b8e7a86763b6adbf165c6cd367d11d8e6d875c0f1a20861d8f4f8c8"
          ],
          "data": "0x0000000000000000000000000000000000000000000000000000000012e687bf000000000000000000000000000000000000000000000000000000004b9a1eff",
          "blockHash": "0x0000000000000000000000000000000000000000000000000000000000000000",
          "blockNumber": "0x2cca60e",
          "blockTimestamp": "0x6a23a8ff",
          "transactionHash": "0xae3ca1e19155def9d6b660d3a137dd80f9f66cabc0503773331ee337f891daf0",
          "transactionIndex": "0x153",
          "logIndex": "0x35b",
          "removed": false
        }
      ],
      "logsBloom": "0x00000000000000000000000000000800000000000000000000000000000000000000000000000100000000000000000000000000000001000000000000804000000000000010000000000000000000000000000000000000000000000000000000000000000000000000000000000000000000000000000000000040000004000000000000000008000000000000000008000000000000000008000000000000000000000000000000000000000000000000000000000000000000000000000020000000000000000000000000000000000100000000000000000000000000000000000000000000000000000001000000000000000000000000000000000010",
      "type": "0x2",
      "transactionHash": "0xae3ca1e19155def9d6b660d3a137dd80f9f66cabc0503773331ee337f891daf0",
      "transactionIndex": "0x153",
      "blockHash": "0x0000000000000000000000000000000000000000000000000000000000000000",
      "blockNumber": "0x2cca60e",
      "gasUsed": "0x303f9",
      "effectiveGasPrice": "0x59dc1d",
      "blobGasUsed": "0x5874",
      "from": "0xf04822e5b0e76a34aeea936c79b4439f794b8be1",
      "to": "0xbbbbbbbbbb9cc5e90e3b3af64bdaf62c37eeffcb",
      "contractAddress": null,
      "daFootprintGasScalar": "0x94",
      "l1BaseFeeScalar": "0x8dd",
      "l1BlobBaseFee": "0x18e78f3",
      "l1BlobBaseFeeScalar": "0x101c12",
      "l1Fee": "0xfd193204",
      "l1GasPrice": "0x18735ca6",
      "l1GasUsed": "0x992"
    }
  ],
  "libraries": [],
  "pending": [],
  "returns": {},
  "timestamp": 1780721941817,
  "chain": 8453,
  "commit": "1ea44bc"
}