{
  "transactions": [
    {
      "hash": "0x0883877e751d3341f2d02a07dfc923fa6c03d5a296f62ba79ae648128a5a8baa",
      "transactionType": "CALL",
      "contractName": null,
      "contractAddress": "0x498581ff718922c3f8e6a244956af099b2652b2b",
      "function": "initialize((address,address,uint24,int24,address),uint160)",
      "arguments": [
        "(0x4200000000000000000000000000000000000006, 0xa6076Ac24f21A9c526d6d32774d66cBB804Cf649, 3000, 60, 0x0000000000000000000000000000000000000000)",
        "88179520331798197263030981595"
      ],
      "transaction": {
        "from": "0xeed4c6fd992e003ca01f10a3c3e7d8b671789698",
        "to": "0x498581ff718922c3f8e6a244956af099b2652b2b",
        "gas": "0x116a4",
        "value": "0x0",
        "input": "0x6276cbbe0000000000000000000000004200000000000000000000000000000000000006000000000000000000000000a6076ac24f21a9c526d6d32774d66cbb804cf6490000000000000000000000000000000000000000000000000000000000000bb8000000000000000000000000000000000000000000000000000000000000003c000000000000000000000000000000000000000000000000000000000000000000000000000000000000000000000000000000011cec63bf9f8e577b79f293db",
        "nonce": "0x49",
        "chainId": "0x2105"
      },
      "additionalContracts": [],
      "isFixedGasLimit": false
    },
    {
      "hash": "0xcf819e1d752fe88e2db7e76d51488c3592572a0b2ae9dd13bd645fbe04a1f40e",
      "transactionType": "CALL",
      "contractName": null,
      "contractAddress": "0xf4d97f2da56e8c3098f3a8d538db630a2606a024",
      "function": "approve(address,uint256)",
      "arguments": [
        "0x60b9bDfFE446A17202b0e56318ED3aE67bb2694E",
        "6132671138769816"
      ],
      "transaction": {
        "from": "0xeed4c6fd992e003ca01f10a3c3e7d8b671789698",
        "to": "0xf4d97f2da56e8c3098f3a8d538db630a2606a024",
        "gas": "0xf824",
        "value": "0x0",
        "input": "0x095ea7b300000000000000000000000060b9bdffe446a17202b0e56318ed3ae67bb2694e0000000000000000000000000000000000000000000000000015c9a1c4c02b98",
        "nonce": "0x4a",
        "chainId": "0x2105"
      },
      "additionalContracts": [],
      "isFixedGasLimit": false
    },
    {
      "hash": "0xdd9111c3e08d2c34bad1f2627ae36f1d8b41041acce6c4f97462ea48d3df196c",
      "transactionType": "CALL",
      "contractName": null,
      "contractAddress": "0xa6076ac24f21a9c526d6d32774d66cbb804cf649",
      "function": "approve(address,uint256)",
      "arguments": [
        "0x60b9bDfFE446A17202b0e56318ED3aE67bb2694E",
        "12441439226996590"
      ],
      "transaction": {
        "from": "0xeed4c6fd992e003ca01f10a3c3e7d8b671789698",
        "to": "0xa6076ac24f21a9c526d6d32774d66cbb804cf649",
        "gas": "0xf818",
        "value": "0x0",
        "input": "0x095ea7b300000000000000000000000060b9bdffe446a17202b0e56318ed3ae67bb2694e000000000000000000000000000000000000000000000000002c336c4d9ea76e",
        "nonce": "0x4b",
        "chainId": "0x2105"
      },
      "additionalContracts": [],
      "isFixedGasLimit": false
    },
    {
      "hash": "0x7149e8dd547fa2181c6f377249205f155c0bd732159bbf9c0299e9a68f96466b",
      "transactionType": "CALL",
      "contractName": null,
      "contractAddress": "0x60b9bdffe446a17202b0e56318ed3ae67bb2694e",
      "function": "add_liquidity(uint256[],uint256)",
      "arguments": [
        "[6132671138769816, 12441439226996590]",
        "0"
      ],
      "transaction": {
        "from": "0xeed4c6fd992e003ca01f10a3c3e7d8b671789698",
        "to": "0x60b9bdffe446a17202b0e56318ed3ae67bb2694e",
        "gas": "0x59f3e",
        "value": "0x0",
        "input": "0xb72df5de0000000000000000000000000000000000000000000000000000000000000040000000000000000000000000000000000000000000000000000000000000000000000000000000000000000000000000000000000000000000000000000000020000000000000000000000000000000000000000000000000015c9a1c4c02b98000000000000000000000000000000000000000000000000002c336c4d9ea76e",
        "nonce": "0x4c",
        "chainId": "0x2105"
      },
      "additionalContracts": [],
      "isFixedGasLimit": false
    }
  ],
  "receipts": [
    {
      "status": "0x1",
      "cumulativeGasUsed": "0x890ce4",
      "logs": [
        {
          "address": "0x498581ff718922c3f8e6a244956af099b2652b2b",
          "topics": [
            "0xdd466e674ea557f56295e2d0218a125ea4b4f0f6f3307b95f85e6110838d6438",
            "0x43da55144439c36976064cdf90cc24402a07b7be6d37987b7673f1f481bd1f15",
            "0x0000000000000000000000004200000000000000000000000000000000000006",
            "0x000000000000000000000000a6076ac24f21a9c526d6d32774d66cbb804cf649"
          ],
          "data": "0x0000000000000000000000000000000000000000000000000000000000000bb8000000000000000000000000000000000000000000000000000000000000003c000000000000000000000000000000000000000000000000000000000000000000000000000000000000000000000000000000011cec63bf9f8e577b79f293db000000000000000000000000000000000000000000000000000000000000085c",
          "blockHash": "0xb73b4916b9299ae555dac1c478ea2e3b8406889bfaa5d6c31adad84e0e6c82b1",
          "blockNumber": "0x2c9d06f",
          "blockTimestamp": "0x6a1dfdc1",
          "transactionHash": "0xcf819e1d752fe88e2db7e76d51488c3592572a0b2ae9dd13bd645fbe04a1f40e",
          "transactionIndex": "0x43",
          "logIndex": "0x88",
          "removed": false
        }
      ],
      "logsBloom": "0x00000000000000000000000000000000000000000000000000000000000000000000000000000000000000000000000000000000000000000020000000000000000000000000000000000000000000000000000000000000000000000000000000000000000000000000000000000000000010000000000000002000000000000000000000004008000000000000000000000001040000000000000000200000000000000000000000000000000000000000000000000000000000000000200000200000000004000000000000000000000802000000000000000000000000000000002000000000000000000000000000000400000000000000000000000000",
      "type": "0x2",
      "transactionHash": "0xcf819e1d752fe88e2db7e76d51488c3592572a0b2ae9dd13bd645fbe04a1f40e",
      "transactionIndex": "0x43",
      "blockHash": "0xb73b4916b9299ae555dac1c478ea2e3b8406889bfaa5d6c31adad84e0e6c82b1",
      "blockNumber": "0x2c9d06f",
      "gasUsed": "0xc9bc",
      "effectiveGasPrice": "0x4f5880",
      "blobGasUsed": "0x4438",
      "from": "0xeed4c6fd992e003ca01f10a3c3e7d8b671789698",
      "to": "0x498581ff718922c3f8e6a244956af099b2652b2b",
      "contractAddress": null,
      "daFootprintGasScalar": "0x94",
      "l1BaseFeeScalar": "0x8dd",
      "l1BlobBaseFee": "0xbb5682",
      "l1BlobBaseFeeScalar": "0x101c12",
      "l1Fee": "0x9dc8a782",
      "l1GasPrice": "0xf8b36e9",
      "l1GasUsed": "0x760"
    },
    {
      "status": "0x1",
      "cumulativeGasUsed": "0x89c08b",
      "logs": [
        {
          "address": "0xf4d97f2da56e8c3098f3a8d538db630a2606a024",
          "topics": [
            "0x8c5be1e5ebec7d5bd14f71427d1e84f3dd0314c0f7b2291e5b200ac8c7c3b925",
            "0x000000000000000000000000eed4c6fd992e003ca01f10a3c3e7d8b671789698",
            "0x00000000000000000000000060b9bdffe446a17202b0e56318ed3ae67bb2694e"
          ],
          "data": "0x0000000000000000000000000000000000000000000000000015c9a1c4c02b98",
          "blockHash": "0xb73b4916b9299ae555dac1c478ea2e3b8406889bfaa5d6c31adad84e0e6c82b1",
          "blockNumber": "0x2c9d06f",
          "blockTimestamp": "0x6a1dfdc1",
          "transactionHash": "0x0883877e751d3341f2d02a07dfc923fa6c03d5a296f62ba79ae648128a5a8baa",
          "transactionIndex": "0x44",
          "logIndex": "0x89",
          "removed": false
        }
      ],
      "logsBloom": "0x00000000040000000000000000000000000000000000000000000000000000000000000000000000000000000000000000000000000000000000000000200000000000000200000000000000000000000000000200000000000000000000000000000000000000000000000000000000000000000000000000000100000000000000000000000000000000000000000000000000000000000000000000000000020000000000000000000000000000000000008000000020000000000000000000000000000000000000000000000000000000000001000000000000000000000010000000000000000000000000000004000000040000000000000000000000",
      "type": "0x2",
      "transactionHash": "0x0883877e751d3341f2d02a07dfc923fa6c03d5a296f62ba79ae648128a5a8baa",
      "transactionIndex": "0x44",
      "blockHash": "0xb73b4916b9299ae555dac1c478ea2e3b8406889bfaa5d6c31adad84e0e6c82b1",
      "blockNumber": "0x2c9d06f",
      "gasUsed": "0xb3a7",
      "effectiveGasPrice": "0x4f5880",
      "blobGasUsed": "0x39d0",
      "from": "0xeed4c6fd992e003ca01f10a3c3e7d8b671789698",
      "to": "0xf4d97f2da56e8c3098f3a8d538db630a2606a024",
      "contractAddress": null,
      "daFootprintGasScalar": "0x94",
      "l1BaseFeeScalar": "0x8dd",
      "l1BlobBaseFee": "0xbb5682",
      "l1BlobBaseFeeScalar": "0x101c12",
      "l1Fee": "0x85b090ed",
      "l1GasPrice": "0xf8b36e9",
      "l1GasUsed": "0x640"
    },
    {
      "status": "0x1",
      "cumulativeGasUsed": "0x8a742a",
      "logs": [
        {
          "address": "0xa6076ac24f21a9c526d6d32774d66cbb804cf649",
          "topics": [
            "0x8c5be1e5ebec7d5bd14f71427d1e84f3dd0314c0f7b2291e5b200ac8c7c3b925",
            "0x000000000000000000000000eed4c6fd992e003ca01f10a3c3e7d8b671789698",
            "0x00000000000000000000000060b9bdffe446a17202b0e56318ed3ae67bb2694e"
          ],
          "data": "0x000000000000000000000000000000000000000000000000002c336c4d9ea76e",
          "blockHash": "0xb73b4916b9299ae555dac1c478ea2e3b8406889bfaa5d6c31adad84e0e6c82b1",
          "blockNumber": "0x2c9d06f",
          "blockTimestamp": "0x6a1dfdc1",
          "transactionHash": "0xdd9111c3e08d2c34bad1f2627ae36f1d8b41041acce6c4f97462ea48d3df196c",
          "transactionIndex": "0x45",
          "logIndex": "0x8a",
          "removed": false
        }
      ],
      "logsBloom": "0x00000000000000000000000000000000000000000000000000000000000000000000000000000000080000000000000000000000000000000000000000200000000000000200000000000000000000000000000000000000000000000000000000000000000000000000000000000000000000000000000000000100000000000000000000000000000000000000000000000000000000000000000000000000020000000000000000000000000000000000000000000020000000000000000000000000000000000000000000000000000000008001000000000000000000000010000000000000000000000000000004000000040000000000000020000000",
      "type": "0x2",
      "transactionHash": "0xdd9111c3e08d2c34bad1f2627ae36f1d8b41041acce6c4f97462ea48d3df196c",
      "transactionIndex": "0x45",
      "blockHash": "0xb73b4916b9299ae555dac1c478ea2e3b8406889bfaa5d6c31adad84e0e6c82b1",
      "blockNumber": "0x2c9d06f",
      "gasUsed": "0xb39f",
      "effectiveGasPrice": "0x4f5880",
      "blobGasUsed": "0x39d0",
      "from": "0xeed4c6fd992e003ca01f10a3c3e7d8b671789698",
      "to": "0xa6076ac24f21a9c526d6d32774d66cbb804cf649",
      "contractAddress": null,
      "daFootprintGasScalar": "0x94",
      "l1BaseFeeScalar": "0x8dd",
      "l1BlobBaseFee": "0xbb5682",
      "l1BlobBaseFeeScalar": "0x101c12",
      "l1Fee": "0x85b090ed",
      "l1GasPrice": "0xf8b36e9",
      "l1GasUsed": "0x640"
    },
    {
      "status": "0x1",
      "cumulativeGasUsed": "0x8e8627",
      "logs": [
        {
          "address": "0xf4d97f2da56e8c3098f3a8d538db630a2606a024",
          "topics": [
            "0xddf252ad1be2c89b69c2b068fc378daa952ba7f163c4a11628f55a4df523b3ef",
            "0x000000000000000000000000eed4c6fd992e003ca01f10a3c3e7d8b671789698",
            "0x00000000000000000000000060b9bdffe446a17202b0e56318ed3ae67bb2694e"
          ],
          "data": "0x0000000000000000000000000000000000000000000000000015c9a1c4c02b98",
          "blockHash": "0xb73b4916b9299ae555dac1c478ea2e3b8406889bfaa5d6c31adad84e0e6c82b1",
          "blockNumber": "0x2c9d06f",
          "blockTimestamp": "0x6a1dfdc1",
          "transactionHash": "0x7149e8dd547fa2181c6f377249205f155c0bd732159bbf9c0299e9a68f96466b",
          "transactionIndex": "0x46",
          "logIndex": "0x8b",
          "removed": false
        },
        {
          "address": "0xa6076ac24f21a9c526d6d32774d66cbb804cf649",
          "topics": [
            "0xddf252ad1be2c89b69c2b068fc378daa952ba7f163c4a11628f55a4df523b3ef",
            "0x000000000000000000000000eed4c6fd992e003ca01f10a3c3e7d8b671789698",
            "0x00000000000000000000000060b9bdffe446a17202b0e56318ed3ae67bb2694e"
          ],
          "data": "0x000000000000000000000000000000000000000000000000002c336c4d9ea76e",
          "blockHash": "0xb73b4916b9299ae555dac1c478ea2e3b8406889bfaa5d6c31adad84e0e6c82b1",
          "blockNumber": "0x2c9d06f",
          "blockTimestamp": "0x6a1dfdc1",
          "transactionHash": "0x7149e8dd547fa2181c6f377249205f155c0bd732159bbf9c0299e9a68f96466b",
          "transactionIndex": "0x46",
          "logIndex": "0x8c",
          "removed": false
        },
        {
          "address": "0x60b9bdffe446a17202b0e56318ed3ae67bb2694e",
          "topics": [
            "0xddf252ad1be2c89b69c2b068fc378daa952ba7f163c4a11628f55a4df523b3ef",
            "0x0000000000000000000000000000000000000000000000000000000000000000",
            "0x000000000000000000000000eed4c6fd992e003ca01f10a3c3e7d8b671789698"
          ],
          "data": "0x0000000000000000000000000000000000000000000000000041f965d983a1fd",
          "blockHash": "0xb73b4916b9299ae555dac1c478ea2e3b8406889bfaa5d6c31adad84e0e6c82b1",
          "blockNumber": "0x2c9d06f",
          "blockTimestamp": "0x6a1dfdc1",
          "transactionHash": "0x7149e8dd547fa2181c6f377249205f155c0bd732159bbf9c0299e9a68f96466b",
          "transactionIndex": "0x46",
          "logIndex": "0x8d",
          "removed": false
        },
        {
          "address": "0x60b9bdffe446a17202b0e56318ed3ae67bb2694e",
          "topics": [
            "0x189c623b666b1b45b83d7178f39b8c087cb09774317ca2f53c2d3c3726f222a2",
            "0x000000000000000000000000eed4c6fd992e003ca01f10a3c3e7d8b671789698"
          ],
          "data": "0x000000000000000000000000000000000000000000000000000000000000008000000000000000000000000000000000000000000000000000000000000000e00000000000000000000000000000000000000000000000000041f965d983a1fd0000000000000000000000000000000000000000000000000041f965d983a1fd00000000000000000000000000000000000000000000000000000000000000020000000000000000000000000000000000000000000000000015c9a1c4c02b98000000000000000000000000000000000000000000000000002c336c4d9ea76e0000000000000000000000000000000000000000000000000000000000000000",
          "blockHash": "0xb73b4916b9299ae555dac1c478ea2e3b8406889bfaa5d6c31adad84e0e6c82b1",
          "blockNumber": "0x2c9d06f",
          "blockTimestamp": "0x6a1dfdc1",
          "transactionHash": "0x7149e8dd547fa2181c6f377249205f155c0bd732159bbf9c0299e9a68f96466b",
          "transactionIndex": "0x46",
          "logIndex": "0x8e",
          "removed": false
        }
      ],
      "logsBloom": "0x00000000040004000000000000000000000000000000000000000000000000000000000000000000080000000000000000000000000000000000000000000000000000000200000000000008000000000000000200000000000000000000000000000000020000000000000000000800000001000000000000000110000000000000002000000000000000000000000000000000000020000000000000000000000000000000100000000000000000000000008000000020000000000000000000000002000000000000000000000000000000008001000000000000000020000000000080000000000000000000000004000000040000000000000020000000",
      "type": "0x2",
      "transactionHash": "0x7149e8dd547fa2181c6f377249205f155c0bd732159bbf9c0299e9a68f96466b",
      "transactionIndex": "0x46",
      "blockHash": "0xb73b4916b9299ae555dac1c478ea2e3b8406889bfaa5d6c31adad84e0e6c82b1",
      "blockNumber": "0x2c9d06f",
      "gasUsed": "0x411fd",
      "effectiveGasPrice": "0x4f5880",
      "blobGasUsed": "0x39d0",
      "from": "0xeed4c6fd992e003ca01f10a3c3e7d8b671789698",
      "to": "0x60b9bdffe446a17202b0e56318ed3ae67bb2694e",
      "contractAddress": null,
      "daFootprintGasScalar": "0x94",
      "l1BaseFeeScalar": "0x8dd",
      "l1BlobBaseFee": "0xbb5682",
      "l1BlobBaseFeeScalar": "0x101c12",
      "l1Fee": "0x85b090ed",
      "l1GasPrice": "0xf8b36e9",
      "l1GasUsed": "0x640"
    }
  ],
  "libraries": [],
  "pending": [],
  "returns": {},
  "timestamp": 1780350401175,
  "chain": 8453,
  "commit": "b7e9519"
}