{
  "transactions": [
    {
      "hash": "0x02a430a132ae2e00f2a1f01920cc4a5b636d403bc077ed50ff1b185388ff129c",
      "transactionType": "CALL",
      "contractName": null,
      "contractAddress": "0x498581ff718922c3f8e6a244956af099b2652b2b",
      "function": "initialize((address,address,uint24,int24,address),uint160)",
      "arguments": [
        "(0x3394898b648385FAd4FE847c52B5E4CCe0D63662, 0x4200000000000000000000000000000000000006, 3000, 60, 0x0000000000000000000000000000000000000000)",
        "71527173991668645734723354624"
      ],
      "transaction": {
        "from": "0x6002820a323bc6b44fe54059ea6964a36be4b1f6",
        "to": "0x498581ff718922c3f8e6a244956af099b2652b2b",
        "gas": "0x12741",
        "value": "0x0",
        "input": "0x6276cbbe0000000000000000000000003394898b648385fad4fe847c52b5e4cce0d6366200000000000000000000000042000000000000000000000000000000000000060000000000000000000000000000000000000000000000000000000000000bb8000000000000000000000000000000000000000000000000000000000000003c00000000000000000000000000000000000000000000000000000000000000000000000000000000000000000000000000000000e71de43fad00a00000000000",
        "nonce": "0x10",
        "chainId": "0x2105"
      },
      "additionalContracts": [],
      "isFixedGasLimit": false
    }
  ],
  "receipts": [
    {
      "status": "0x1",
      "cumulativeGasUsed": "0x448d4c8",
      "logs": [
        {
          "address": "0x498581ff718922c3f8e6a244956af099b2652b2b",
          "topics": [
            "0xdd466e674ea557f56295e2d0218a125ea4b4f0f6f3307b95f85e6110838d6438",
            "0x7ee39a9106c1bcfbe88de979fe96bf9d5185b366d5a202a39c7c67075c264ead",
            "0x0000000000000000000000003394898b648385fad4fe847c52b5e4cce0d63662",
            "0x0000000000000000000000004200000000000000000000000000000000000006"
          ],
          "data": "0x0000000000000000000000000000000000000000000000000000000000000bb8000000000000000000000000000000000000000000000000000000000000003c00000000000000000000000000000000000000000000000000000000000000000000000000000000000000000000000000000000e71de43fad00a00000000000fffffffffffffffffffffffffffffffffffffffffffffffffffffffffffff802",
          "blockHash": "0xff1d783da8d9a8f1472857a2f9b849997eb44b340140cb861ab6ba503e78a950",
          "blockNumber": "0x2c9dabc",
          "blockTimestamp": "0x6a1e125b",
          "transactionHash": "0x02a430a132ae2e00f2a1f01920cc4a5b636d403bc077ed50ff1b185388ff129c",
          "transactionIndex": "0x150",
          "logIndex": "0x6b1",
          "removed": false
        }
      ],
      "logsBloom": "0x00000000000000000200000000000000000000000000000000000000000000000000000000000000000000000000000000000000000000000020000000000000000000000000000000000000000000000000000000000000000000004000000000000000000000000000000000000000000010000000000000000000000000000000000000004008000000000000000000000001000000000000000000200000000000000000000000000000000000000000000000000000000000008000000000000000000004000000000000000020000800000000400000000000000000000000000000000000000000400000000000000400000000000000000000000000",
      "type": "0x2",
      "transactionHash": "0x02a430a132ae2e00f2a1f01920cc4a5b636d403bc077ed50ff1b185388ff129c",
      "transactionIndex": "0x150",
      "blockHash": "0xff1d783da8d9a8f1472857a2f9b849997eb44b340140cb861ab6ba503e78a950",
      "blockNumber": "0x2c9dabc",
      "gasUsed": "0xc9e3",
      "effectiveGasPrice": "0x4f5880",
      "blobGasUsed": "0x4438",
      "from": "0x6002820a323bc6b44fe54059ea6964a36be4b1f6",
      "to": "0x498581ff718922c3f8e6a244956af099b2652b2b",
      "contractAddress": null,
      "daFootprintGasScalar": "0x94",
      "l1BaseFeeScalar": "0x8dd",
      "l1BlobBaseFee": "0xfe8df3",
      "l1BlobBaseFeeScalar": "0x101c12",
      "l1Fee": "0xe60797ba",
      "l1GasPrice": "0x18c5006a",
      "l1GasUsed": "0x760"
    }
  ],
  "libraries": [],
  "pending": [],
  "returns": {},
  "timestamp": 1780355676350,
  "chain": 8453,
  "commit": "b7e9519"
}