{
  "transactions": [
    {
      "hash": "0xfd60305962377ff4eaec573af8ebf9d952bae0eb5ee492e842b0573efe67a4c1",
      "transactionType": "CALL",
      "contractName": null,
      "contractAddress": "0x872c561f699b42977c093f0ed8b4c9a431280c6c",
      "function": "execTransaction(address,uint256,bytes,uint8,uint256,uint256,uint256,address,address,bytes)",
      "arguments": [
        "0x4200000000000000000000000000000000000006",
        "0",
        "0x095ea7b30000000000000000000000002626664c2603336e57b271c5c0b26f421741e481000000000000000000000000000000000000000000000000002386f26fc10000",
        "0",
        "0",
        "0",
        "0",
        "0x0000000000000000000000000000000000000000",
        "0x0000000000000000000000000000000000000000",
        "0x2c61e1967c82688f22ce0b0321911a5bcb5fab2b52430b1fc33c3047c553300c0ae635b478762f33d6c9df3f8989c609f6510c720b6d386ea21256e75a9360cb1c4ab1a3fe07c53b9a4feb08c18f92fc93c12099394fa0a616889397f9ecf44f2b50469cbbe76628eb567589e68a1b30ca1303c77378d28749e493b23a15af3db51b"
      ],
      "transaction": {
        "from": "0x66205fda77114a5357e7bdcac6ddb356cff0063b",
        "to": "0x872c561f699b42977c093f0ed8b4c9a431280c6c",
        "gas": "0x1f611",
        "value": "0x0",
        "input": "0x6a76120200000000000000000000000042000000000000000000000000000000000000060000000000000000000000000000000000000000000000000000000000000000000000000000000000000000000000000000000000000000000000000000014000000000000000000000000000000000000000000000000000000000000000000000000000000000000000000000000000000000000000000000000000000000000000000000000000000000000000000000000000000000000000000000000000000000000000000000000000000000000000000000000000000000000000000000000000000000000000000000000000000000000000000000000000000000000000000000000000000000000000000000000000000000000000000000000000000000000000000000000000000000000000000000000000000000000001c00000000000000000000000000000000000000000000000000000000000000044095ea7b30000000000000000000000002626664c2603336e57b271c5c0b26f421741e481000000000000000000000000000000000000000000000000002386f26fc100000000000000000000000000000000000000000000000000000000000000000000000000000000000000000000000000000000000000000000000000822c61e1967c82688f22ce0b0321911a5bcb5fab2b52430b1fc33c3047c553300c0ae635b478762f33d6c9df3f8989c609f6510c720b6d386ea21256e75a9360cb1c4ab1a3fe07c53b9a4feb08c18f92fc93c12099394fa0a616889397f9ecf44f2b50469cbbe76628eb567589e68a1b30ca1303c77378d28749e493b23a15af3db51b000000000000000000000000000000000000000000000000000000000000",
        "nonce": "0x21",
        "chainId": "0x2105"
      },
      "additionalContracts": [],
      "isFixedGasLimit": false
    },
    {
      "hash": "0xb7dadba85864f684fba275c5eb51a108391469a5e84b2479d8ebae67f5206474",
      "transactionType": "CALL",
      "contractName": null,
      "contractAddress": "0x872c561f699b42977c093f0ed8b4c9a431280c6c",
      "function": "execTransaction(address,uint256,bytes,uint8,uint256,uint256,uint256,address,address,bytes)",
      "arguments": [
        "0x2626664c2603336E57B271c5C0b26F421741e481",
        "0",
        "0x04e45aaf0000000000000000000000004200000000000000000000000000000000000006000000000000000000000000acfe6019ed1a7dc6f7b508c02d1b04ec88cc21bf0000000000000000000000000000000000000000000000000000000000000bb8000000000000000000000000872c561f699b42977c093f0ed8b4c9a431280c6c000000000000000000000000000000000000000000000000002386f26fc1000000000000000000000000000000000000000000000000000000000000000000000000000000000000000000000000000000000000000000000000000000000000",
        "0",
        "0",
        "0",
        "0",
        "0x0000000000000000000000000000000000000000",
        "0x0000000000000000000000000000000000000000",
        "0x41cbeb0e6b9cae602da0dedc3591f667f49b156e2f894b7e3d7823b6f08a993616f48b8f789f77c168e31068a3ace47b58e1d3ad5a1462167b251a559d7905991c87bd96c3a489c2b376523d3f867dc2ea62efb6ea49d48d29c82f06e65ad91c887638e4f0846b024128144f5582b6ec03f85410cc656fc9dd6359cc6628474fcc1c"
      ],
      "transaction": {
        "from": "0x66205fda77114a5357e7bdcac6ddb356cff0063b",
        "to": "0x872c561f699b42977c093f0ed8b4c9a431280c6c",
        "gas": "0x3c14c",
        "value": "0x0",
        "input": "0x6a7612020000000000000000000000002626664c2603336e57b271c5c0b26f421741e48100000000000000000000000000000000000000000000000000000000000000000000000000000000000000000000000000000000000000000000000000000140000000000000000000000000000000000000000000000000000000000000000000000000000000000000000000000000000000000000000000000000000000000000000000000000000000000000000000000000000000000000000000000000000000000000000000000000000000000000000000000000000000000000000000000000000000000000000000000000000000000000000000000000000000000000000000000000000000000000000000000000000000000000000000000000000000000000000000000000000000000000000000000000000000000000026000000000000000000000000000000000000000000000000000000000000000e404e45aaf0000000000000000000000004200000000000000000000000000000000000006000000000000000000000000acfe6019ed1a7dc6f7b508c02d1b04ec88cc21bf0000000000000000000000000000000000000000000000000000000000000bb8000000000000000000000000872c561f699b42977c093f0ed8b4c9a431280c6c000000000000000000000000000000000000000000000000002386f26fc100000000000000000000000000000000000000000000000000000000000000000000000000000000000000000000000000000000000000000000000000000000000000000000000000000000000000000000000000000000000000000000000000000000000000000000000000000000000000000000000000000000008241cbeb0e6b9cae602da0dedc3591f667f49b156e2f894b7e3d7823b6f08a993616f48b8f789f77c168e31068a3ace47b58e1d3ad5a1462167b251a559d7905991c87bd96c3a489c2b376523d3f867dc2ea62efb6ea49d48d29c82f06e65ad91c887638e4f0846b024128144f5582b6ec03f85410cc656fc9dd6359cc6628474fcc1c000000000000000000000000000000000000000000000000000000000000",
        "nonce": "0x22",
        "chainId": "0x2105"
      },
      "additionalContracts": [],
      "isFixedGasLimit": false
    },
    {
      "hash": "0x8969d895f9812e3936d830905ab3210b60b1300c433f9aaf7da2b1feab2f170e",
      "transactionType": "CALL",
      "contractName": null,
      "contractAddress": "0x872c561f699b42977c093f0ed8b4c9a431280c6c",
      "function": "execTransaction(address,uint256,bytes,uint8,uint256,uint256,uint256,address,address,bytes)",
      "arguments": [
        "0xacfE6019Ed1A7Dc6f7B508C02d1b04ec88cC21bf",
        "0",
        "0x095ea7b30000000000000000000000004751ba2b09374c1929fc01734a166e3c8cd758100000000000000000000000000000000000000000000000000de0b6b3a7640000",
        "0",
        "0",
        "0",
        "0",
        "0x0000000000000000000000000000000000000000",
        "0x0000000000000000000000000000000000000000",
        "0x62849b58a9bd13afc1c29834d0873b1ad94523c9be4599857d22d4acec35e12d74e9b73008a0646c6b42f8b0d20d5f3773c0241afdd3d562478add9efb1747141b9dee379d9a822c0eeaa7731fa08b976d93812b45a88bf257726fc371af4ee38d5c3efcb124adcd12eb4637df3cccbe6e7ea90d201188c6471a30fa6ff990efd81b"
      ],
      "transaction": {
        "from": "0x66205fda77114a5357e7bdcac6ddb356cff0063b",
        "to": "0x872c561f699b42977c093f0ed8b4c9a431280c6c",
        "gas": "0x1f6ce",
        "value": "0x0",
        "input": "0x6a761202000000000000000000000000acfe6019ed1a7dc6f7b508c02d1b04ec88cc21bf0000000000000000000000000000000000000000000000000000000000000000000000000000000000000000000000000000000000000000000000000000014000000000000000000000000000000000000000000000000000000000000000000000000000000000000000000000000000000000000000000000000000000000000000000000000000000000000000000000000000000000000000000000000000000000000000000000000000000000000000000000000000000000000000000000000000000000000000000000000000000000000000000000000000000000000000000000000000000000000000000000000000000000000000000000000000000000000000000000000000000000000000000000000000000000000001c00000000000000000000000000000000000000000000000000000000000000044095ea7b30000000000000000000000004751ba2b09374c1929fc01734a166e3c8cd758100000000000000000000000000000000000000000000000000de0b6b3a764000000000000000000000000000000000000000000000000000000000000000000000000000000000000000000000000000000000000000000000000008262849b58a9bd13afc1c29834d0873b1ad94523c9be4599857d22d4acec35e12d74e9b73008a0646c6b42f8b0d20d5f3773c0241afdd3d562478add9efb1747141b9dee379d9a822c0eeaa7731fa08b976d93812b45a88bf257726fc371af4ee38d5c3efcb124adcd12eb4637df3cccbe6e7ea90d201188c6471a30fa6ff990efd81b000000000000000000000000000000000000000000000000000000000000",
        "nonce": "0x23",
        "chainId": "0x2105"
      },
      "additionalContracts": [],
      "isFixedGasLimit": false
    },
    {
      "hash": "0x99bb4e3ea94d27919bbe92275ebf54cf1fb56eab7ba690d4e8c03f7bb1c7c2da",
      "transactionType": "CALL",
      "contractName": null,
      "contractAddress": "0x872c561f699b42977c093f0ed8b4c9a431280c6c",
      "function": "execTransaction(address,uint256,bytes,uint8,uint256,uint256,uint256,address,address,bytes)",
      "arguments": [
        "0x4751BA2b09374C1929FC01734a166e3c8cd75810",
        "0",
        "0xdc14a38600000000000000000000000032fddfb0eec6c638d5c8b7cabf3be9065478e90e000000000000000000000000acfe6019ed1a7dc6f7b508c02d1b04ec88cc21bf000000000000000000000000321b7ff75154472b18edb199033ff4d116f340ff0000000000000000000000000000000000000000000000000de0b6b3a7640000",
        "0",
        "0",
        "0",
        "0",
        "0x0000000000000000000000000000000000000000",
        "0x0000000000000000000000000000000000000000",
        "0xba4763861aa6c79768992ca1765f2419f02930f2b96333754a1ab0716ed59d152d2439273f4567e771a448f85067ee0abdfdbf88636e70b00ae54746a79d4b8d1bcf69f72cfe4305e9d58867bb928f55670c1e3d91d58e6deb2ff5683e5e4558b936b2aa1ff8aeec53fb6e0463898ac87ccd1fd908bd0fa2dd765c08eec86496601c"
      ],
      "transaction": {
        "from": "0x66205fda77114a5357e7bdcac6ddb356cff0063b",
        "to": "0x872c561f699b42977c093f0ed8b4c9a431280c6c",
        "gas": "0x4d296",
        "value": "0x0",
        "input": "0x6a7612020000000000000000000000004751ba2b09374c1929fc01734a166e3c8cd758100000000000000000000000000000000000000000000000000000000000000000000000000000000000000000000000000000000000000000000000000000014000000000000000000000000000000000000000000000000000000000000000000000000000000000000000000000000000000000000000000000000000000000000000000000000000000000000000000000000000000000000000000000000000000000000000000000000000000000000000000000000000000000000000000000000000000000000000000000000000000000000000000000000000000000000000000000000000000000000000000000000000000000000000000000000000000000000000000000000000000000000000000000000000000000000002000000000000000000000000000000000000000000000000000000000000000084dc14a38600000000000000000000000032fddfb0eec6c638d5c8b7cabf3be9065478e90e000000000000000000000000acfe6019ed1a7dc6f7b508c02d1b04ec88cc21bf000000000000000000000000321b7ff75154472b18edb199033ff4d116f340ff0000000000000000000000000000000000000000000000000de0b6b3a7640000000000000000000000000000000000000000000000000000000000000000000000000000000000000000000000000000000000000000000000000082ba4763861aa6c79768992ca1765f2419f02930f2b96333754a1ab0716ed59d152d2439273f4567e771a448f85067ee0abdfdbf88636e70b00ae54746a79d4b8d1bcf69f72cfe4305e9d58867bb928f55670c1e3d91d58e6deb2ff5683e5e4558b936b2aa1ff8aeec53fb6e0463898ac87ccd1fd908bd0fa2dd765c08eec86496601c000000000000000000000000000000000000000000000000000000000000",
        "nonce": "0x24",
        "chainId": "0x2105"
      },
      "additionalContracts": [],
      "isFixedGasLimit": false
    },
    {
      "hash": "0x909a9e5c72318c95666f85ca9dbac7697aee8d3f1a51913e51b9945d7eaccf45",
      "transactionType": "CALL",
      "contractName": null,
      "contractAddress": "0x872c561f699b42977c093f0ed8b4c9a431280c6c",
      "function": "execTransaction(address,uint256,bytes,uint8,uint256,uint256,uint256,address,address,bytes)",
      "arguments": [
        "0x21fe048B10dC9bED2Ee0Ae76724C627CA7F35F61",
        "0",
        "0x748747e600000000000000000000000032fddfb0eec6c638d5c8b7cabf3be9065478e90e",
        "0",
        "0",
        "0",
        "0",
        "0x0000000000000000000000000000000000000000",
        "0x0000000000000000000000000000000000000000",
        "0xddc6a145fa24afdb03b43a9e34c11690cee42171c3f30ad96a6618dd0ab9bd077714504b0468399ad6f9d70cdd6c002f4179cfb5b93661b088a192134859642d1b78938dfbdbb053557b35ed38f220098f096df6ca28bfbe254318dac3f318a0913424ea8539d961a1cb304243dfd65609f1d2bfaef6892ed879295beb449831621b"
      ],
      "transaction": {
        "from": "0x66205fda77114a5357e7bdcac6ddb356cff0063b",
        "to": "0x872c561f699b42977c093f0ed8b4c9a431280c6c",
        "gas": "0x21c0b",
        "value": "0x0",
        "input": "0x6a76120200000000000000000000000021fe048b10dc9bed2ee0ae76724c627ca7f35f610000000000000000000000000000000000000000000000000000000000000000000000000000000000000000000000000000000000000000000000000000014000000000000000000000000000000000000000000000000000000000000000000000000000000000000000000000000000000000000000000000000000000000000000000000000000000000000000000000000000000000000000000000000000000000000000000000000000000000000000000000000000000000000000000000000000000000000000000000000000000000000000000000000000000000000000000000000000000000000000000000000000000000000000000000000000000000000000000000000000000000000000000000000000000000000001a00000000000000000000000000000000000000000000000000000000000000024748747e600000000000000000000000032fddfb0eec6c638d5c8b7cabf3be9065478e90e000000000000000000000000000000000000000000000000000000000000000000000000000000000000000000000000000000000000000000000082ddc6a145fa24afdb03b43a9e34c11690cee42171c3f30ad96a6618dd0ab9bd077714504b0468399ad6f9d70cdd6c002f4179cfb5b93661b088a192134859642d1b78938dfbdbb053557b35ed38f220098f096df6ca28bfbe254318dac3f318a0913424ea8539d961a1cb304243dfd65609f1d2bfaef6892ed879295beb449831621b000000000000000000000000000000000000000000000000000000000000",
        "nonce": "0x25",
        "chainId": "0x2105"
      },
      "additionalContracts": [],
      "isFixedGasLimit": false
    },
    {
      "hash": "0xfd586023bed3b98e170227b469ee91412f2bcb651f5319cb867133c144a7bbd9",
      "transactionType": "CALL",
      "contractName": null,
      "contractAddress": "0x872c561f699b42977c093f0ed8b4c9a431280c6c",
      "function": "execTransaction(address,uint256,bytes,uint8,uint256,uint256,uint256,address,address,bytes)",
      "arguments": [
        "0x4751BA2b09374C1929FC01734a166e3c8cd75810",
        "0",
        "0x748747e600000000000000000000000032fddfb0eec6c638d5c8b7cabf3be9065478e90e",
        "0",
        "0",
        "0",
        "0",
        "0x0000000000000000000000000000000000000000",
        "0x0000000000000000000000000000000000000000",
        "0xd6f4823307098c917eab3e8296395068382741d41a4f09ab6102138b13c91db82244f7a5453d8abf097d8138996949659e574225294bf1b2326b56dfc3dbb1eb1b430e8fdd8d9a5ae354fb10cc4b70dbbdc5d77660637bbaaee96ce2af9d71f45575372cb2a475cd43f31a0551009d33d872cdebe57f261cac64e42ce0ca4f0be31b"
      ],
      "transaction": {
        "from": "0x66205fda77114a5357e7bdcac6ddb356cff0063b",
        "to": "0x872c561f699b42977c093f0ed8b4c9a431280c6c",
        "gas": "0x1fd60",
        "value": "0x0",
        "input": "0x6a7612020000000000000000000000004751ba2b09374c1929fc01734a166e3c8cd758100000000000000000000000000000000000000000000000000000000000000000000000000000000000000000000000000000000000000000000000000000014000000000000000000000000000000000000000000000000000000000000000000000000000000000000000000000000000000000000000000000000000000000000000000000000000000000000000000000000000000000000000000000000000000000000000000000000000000000000000000000000000000000000000000000000000000000000000000000000000000000000000000000000000000000000000000000000000000000000000000000000000000000000000000000000000000000000000000000000000000000000000000000000000000000000001a00000000000000000000000000000000000000000000000000000000000000024748747e600000000000000000000000032fddfb0eec6c638d5c8b7cabf3be9065478e90e000000000000000000000000000000000000000000000000000000000000000000000000000000000000000000000000000000000000000000000082d6f4823307098c917eab3e8296395068382741d41a4f09ab6102138b13c91db82244f7a5453d8abf097d8138996949659e574225294bf1b2326b56dfc3dbb1eb1b430e8fdd8d9a5ae354fb10cc4b70dbbdc5d77660637bbaaee96ce2af9d71f45575372cb2a475cd43f31a0551009d33d872cdebe57f261cac64e42ce0ca4f0be31b000000000000000000000000000000000000000000000000000000000000",
        "nonce": "0x26",
        "chainId": "0x2105"
      },
      "additionalContracts": [],
      "isFixedGasLimit": false
    }
  ],
  "receipts": [
    {
      "status": "0x1",
      "cumulativeGasUsed": "0x27d006d",
      "logs": [
        {
          "address": "0x872c561f699b42977c093f0ed8b4c9a431280c6c",
          "topics": [
            "0x66753cd2356569ee081232e3be8909b950e0a76c1f8460c3a5e3c2be32b11bed"
          ],
          "data": "0x00000000000000000000000042000000000000000000000000000000000000060000000000000000000000000000000000000000000000000000000000000000000000000000000000000000000000000000000000000000000000000000016000000000000000000000000000000000000000000000000000000000000000000000000000000000000000000000000000000000000000000000000000000000000000000000000000000000000000000000000000000000000000000000000000000000000000000000000000000000000000000000000000000000000000000000000000000000000000000000000000000000000000000000000000000000000000000000000000000000000000000000000000000000000000000000000000000000000000000000000000000000000000000000000000000000000001e000000000000000000000000000000000000000000000000000000000000002a00000000000000000000000000000000000000000000000000000000000000044095ea7b30000000000000000000000002626664c2603336e57b271c5c0b26f421741e481000000000000000000000000000000000000000000000000002386f26fc100000000000000000000000000000000000000000000000000000000000000000000000000000000000000000000000000000000000000000000000000822c61e1967c82688f22ce0b0321911a5bcb5fab2b52430b1fc33c3047c553300c0ae635b478762f33d6c9df3f8989c609f6510c720b6d386ea21256e75a9360cb1c4ab1a3fe07c53b9a4feb08c18f92fc93c12099394fa0a616889397f9ecf44f2b50469cbbe76628eb567589e68a1b30ca1303c77378d28749e493b23a15af3db51b0000000000000000000000000000000000000000000000000000000000000000000000000000000000000000000000000000000000000000000000000060000000000000000000000000000000000000000000000000000000000000003800000000000000000000000066205fda77114a5357e7bdcac6ddb356cff0063b0000000000000000000000000000000000000000000000000000000000000002",
          "blockHash": "0x94ed0f0fed14b0af914636ccefccc7dfecde68a627df9a6bba3ce46ca7c57c0c",
          "blockNumber": "0x2c9fc84",
          "blockTimestamp": "0x6a1e55eb",
          "transactionHash": "0xb7dadba85864f684fba275c5eb51a108391469a5e84b2479d8ebae67f5206474",
          "transactionIndex": "0xbc",
          "logIndex": "0x318",
          "removed": false
        },
        {
          "address": "0x4200000000000000000000000000000000000006",
          "topics": [
            "0x8c5be1e5ebec7d5bd14f71427d1e84f3dd0314c0f7b2291e5b200ac8c7c3b925",
            "0x000000000000000000000000872c561f699b42977c093f0ed8b4c9a431280c6c",
            "0x0000000000000000000000002626664c2603336e57b271c5c0b26f421741e481"
          ],
          "data": "0x000000000000000000000000000000000000000000000000002386f26fc10000",
          "blockHash": "0x94ed0f0fed14b0af914636ccefccc7dfecde68a627df9a6bba3ce46ca7c57c0c",
          "blockNumber": "0x2c9fc84",
          "blockTimestamp": "0x6a1e55eb",
          "transactionHash": "0xb7dadba85864f684fba275c5eb51a108391469a5e84b2479d8ebae67f5206474",
          "transactionIndex": "0xbc",
          "logIndex": "0x319",
          "removed": false
        },
        {
          "address": "0x872c561f699b42977c093f0ed8b4c9a431280c6c",
          "topics": [
            "0x442e715f626346e8c54381002da614f62bee8d27386535b2521ec8540898556e",
            "0xedab3f21e5d88112ec2f09c8bf8ce747dad2e2bf44a20709e9df8239d6d572cd"
          ],
          "data": "0x0000000000000000000000000000000000000000000000000000000000000000",
          "blockHash": "0x94ed0f0fed14b0af914636ccefccc7dfecde68a627df9a6bba3ce46ca7c57c0c",
          "blockNumber": "0x2c9fc84",
          "blockTimestamp": "0x6a1e55eb",
          "transactionHash": "0xb7dadba85864f684fba275c5eb51a108391469a5e84b2479d8ebae67f5206474",
          "transactionIndex": "0xbc",
          "logIndex": "0x31a",
          "removed": false
        }
      ],
      "logsBloom": "0x00000000400000000000000000000000000000000000000800040000040000000008000000000000000000100000000000000004000000000000000000200000000000000000000000000000000000000000040000000000000000000000000000002000000000000000000000000000000000000000000000000000000000000000000000000000000000000000000000001000002000000002000000000000020000000400000000000000001004000000000000000000000002000000000000000002000400000000000000020000000000000000000000000000000800000010000000000000000000000000040000000000000000000000000000000000",
      "type": "0x2",
      "transactionHash": "0xb7dadba85864f684fba275c5eb51a108391469a5e84b2479d8ebae67f5206474",
      "transactionIndex": "0xbc",
      "blockHash": "0x94ed0f0fed14b0af914636ccefccc7dfecde68a627df9a6bba3ce46ca7c57c0c",
      "blockNumber": "0x2c9fc84",
      "gasUsed": "0x16b7e",
      "effectiveGasPrice": "0x5121fa",
      "blobGasUsed": "0x8c7c",
      "from": "0x66205fda77114a5357e7bdcac6ddb356cff0063b",
      "to": "0x872c561f699b42977c093f0ed8b4c9a431280c6c",
      "contractAddress": null,
      "daFootprintGasScalar": "0x94",
      "l1BaseFeeScalar": "0x8dd",
      "l1BlobBaseFee": "0x86ce26",
      "l1BlobBaseFeeScalar": "0x101c12",
      "l1Fee": "0xd4464fb7",
      "l1GasPrice": "0x8b313ca",
      "l1GasUsed": "0xf37"
    },
    {
      "status": "0x1",
      "cumulativeGasUsed": "0x27fb864",
      "logs": [
        {
          "address": "0x872c561f699b42977c093f0ed8b4c9a431280c6c",
          "topics": [
            "0x66753cd2356569ee081232e3be8909b950e0a76c1f8460c3a5e3c2be32b11bed"
          ],
          "data": "0x0000000000000000000000002626664c2603336e57b271c5c0b26f421741e481000000000000000000000000000000000000000000000000000000000000000000000000000000000000000000000000000000000000000000000000000001600000000000000000000000000000000000000000000000000000000000000000000000000000000000000000000000000000000000000000000000000000000000000000000000000000000000000000000000000000000000000000000000000000000000000000000000000000000000000000000000000000000000000000000000000000000000000000000000000000000000000000000000000000000000000000000000000000000000000000000000000000000000000000000000000000000000000000000000000000000000000000000000000000000000000280000000000000000000000000000000000000000000000000000000000000034000000000000000000000000000000000000000000000000000000000000000e404e45aaf0000000000000000000000004200000000000000000000000000000000000006000000000000000000000000acfe6019ed1a7dc6f7b508c02d1b04ec88cc21bf0000000000000000000000000000000000000000000000000000000000000bb8000000000000000000000000872c561f699b42977c093f0ed8b4c9a431280c6c000000000000000000000000000000000000000000000000002386f26fc100000000000000000000000000000000000000000000000000000000000000000000000000000000000000000000000000000000000000000000000000000000000000000000000000000000000000000000000000000000000000000000000000000000000000000000000000000000000000000000000000000000008241cbeb0e6b9cae602da0dedc3591f667f49b156e2f894b7e3d7823b6f08a993616f48b8f789f77c168e31068a3ace47b58e1d3ad5a1462167b251a559d7905991c87bd96c3a489c2b376523d3f867dc2ea62efb6ea49d48d29c82f06e65ad91c887638e4f0846b024128144f5582b6ec03f85410cc656fc9dd6359cc6628474fcc1c0000000000000000000000000000000000000000000000000000000000000000000000000000000000000000000000000000000000000000000000000060000000000000000000000000000000000000000000000000000000000000003900000000000000000000000066205fda77114a5357e7bdcac6ddb356cff0063b0000000000000000000000000000000000000000000000000000000000000002",
          "blockHash": "0x94ed0f0fed14b0af914636ccefccc7dfecde68a627df9a6bba3ce46ca7c57c0c",
          "blockNumber": "0x2c9fc84",
          "blockTimestamp": "0x6a1e55eb",
          "transactionHash": "0x909a9e5c72318c95666f85ca9dbac7697aee8d3f1a51913e51b9945d7eaccf45",
          "transactionIndex": "0xbd",
          "logIndex": "0x31b",
          "removed": false
        },
        {
          "address": "0xacfe6019ed1a7dc6f7b508c02d1b04ec88cc21bf",
          "topics": [
            "0xddf252ad1be2c89b69c2b068fc378daa952ba7f163c4a11628f55a4df523b3ef",
            "0x0000000000000000000000008eaf39189c73819d3949cab2b1a7afce8e3ba0d9",
            "0x000000000000000000000000872c561f699b42977c093f0ed8b4c9a431280c6c"
          ],
          "data": "0x0000000000000000000000000000000000000000000000000f0530e07dabf4be",
          "blockHash": "0x94ed0f0fed14b0af914636ccefccc7dfecde68a627df9a6bba3ce46ca7c57c0c",
          "blockNumber": "0x2c9fc84",
          "blockTimestamp": "0x6a1e55eb",
          "transactionHash": "0x909a9e5c72318c95666f85ca9dbac7697aee8d3f1a51913e51b9945d7eaccf45",
          "transactionIndex": "0xbd",
          "logIndex": "0x31c",
          "removed": false
        },
        {
          "address": "0x4200000000000000000000000000000000000006",
          "topics": [
            "0xddf252ad1be2c89b69c2b068fc378daa952ba7f163c4a11628f55a4df523b3ef",
            "0x000000000000000000000000872c561f699b42977c093f0ed8b4c9a431280c6c",
            "0x0000000000000000000000008eaf39189c73819d3949cab2b1a7afce8e3ba0d9"
          ],
          "data": "0x000000000000000000000000000000000000000000000000002386f26fc10000",
          "blockHash": "0x94ed0f0fed14b0af914636ccefccc7dfecde68a627df9a6bba3ce46ca7c57c0c",
          "blockNumber": "0x2c9fc84",
          "blockTimestamp": "0x6a1e55eb",
          "transactionHash": "0x909a9e5c72318c95666f85ca9dbac7697aee8d3f1a51913e51b9945d7eaccf45",
          "transactionIndex": "0xbd",
          "logIndex": "0x31d",
          "removed": false
        },
        {
          "address": "0x8eaf39189c73819d3949cab2b1a7afce8e3ba0d9",
          "topics": [
            "0xc42079f94a6350d7e6235f29174924f928cc2ac818eb64fed8004e115fbcca67",
            "0x0000000000000000000000002626664c2603336e57b271c5c0b26f421741e481",
            "0x000000000000000000000000872c561f699b42977c093f0ed8b4c9a431280c6c"
          ],
          "data": "0x000000000000000000000000000000000000000000000000002386f26fc10000fffffffffffffffffffffffffffffffffffffffffffffffff0facf1f82540b42000000000000000000000000000000000000000a6ae2ffc2a40c712374bc2aad000000000000000000000000000000000000000000000012577c2b145c50b496000000000000000000000000000000000000000000000000000000000000b718",
          "blockHash": "0x94ed0f0fed14b0af914636ccefccc7dfecde68a627df9a6bba3ce46ca7c57c0c",
          "blockNumber": "0x2c9fc84",
          "blockTimestamp": "0x6a1e55eb",
          "transactionHash": "0x909a9e5c72318c95666f85ca9dbac7697aee8d3f1a51913e51b9945d7eaccf45",
          "transactionIndex": "0xbd",
          "logIndex": "0x31e",
          "removed": false
        },
        {
          "address": "0x872c561f699b42977c093f0ed8b4c9a431280c6c",
          "topics": [
            "0x442e715f626346e8c54381002da614f62bee8d27386535b2521ec8540898556e",
            "0xa8b6918bf3e1ee008bf6c1b1418e388143679cb789ee504c05ccdcc852f0453c"
          ],
          "data": "0x0000000000000000000000000000000000000000000000000000000000000000",
          "blockHash": "0x94ed0f0fed14b0af914636ccefccc7dfecde68a627df9a6bba3ce46ca7c57c0c",
          "blockNumber": "0x2c9fc84",
          "blockTimestamp": "0x6a1e55eb",
          "transactionHash": "0x909a9e5c72318c95666f85ca9dbac7697aee8d3f1a51913e51b9945d7eaccf45",
          "transactionIndex": "0xbd",
          "logIndex": "0x31f",
          "removed": false
        }
      ],
      "logsBloom": "0x00000000400000000000000000000000000000000000000000040000040000000008000000040000000000100000000000000000000020020000000000000000000000000000000800000008000000000000040000000000000400000000000000002000000000000000000000000000000000080000000000000010000800000000000000000000000000000000000000001000002000800002000000000000002000000420000000000000001004000000080000000000000002000000000000010002000400000000000000020000000000000000000000000000000800000000000400000000000000000000040000000000000100000000000000000000",
      "type": "0x2",
      "transactionHash": "0x909a9e5c72318c95666f85ca9dbac7697aee8d3f1a51913e51b9945d7eaccf45",
      "transactionIndex": "0xbd",
      "blockHash": "0x94ed0f0fed14b0af914636ccefccc7dfecde68a627df9a6bba3ce46ca7c57c0c",
      "blockNumber": "0x2c9fc84",
      "gasUsed": "0x2b7f7",
      "effectiveGasPrice": "0x5121fa",
      "blobGasUsed": "0x9f90",
      "from": "0x66205fda77114a5357e7bdcac6ddb356cff0063b",
      "to": "0x872c561f699b42977c093f0ed8b4c9a431280c6c",
      "contractAddress": null,
      "daFootprintGasScalar": "0x94",
      "l1BaseFeeScalar": "0x8dd",
      "l1BlobBaseFee": "0x86ce26",
      "l1BlobBaseFeeScalar": "0x101c12",
      "l1Fee": "0xf171b76f",
      "l1GasPrice": "0x8b313ca",
      "l1GasUsed": "0x114f"
    },
    {
      "status": "0x1",
      "cumulativeGasUsed": "0x281246a",
      "logs": [
        {
          "address": "0x872c561f699b42977c093f0ed8b4c9a431280c6c",
          "topics": [
            "0x66753cd2356569ee081232e3be8909b950e0a76c1f8460c3a5e3c2be32b11bed"
          ],
          "data": "0x000000000000000000000000acfe6019ed1a7dc6f7b508c02d1b04ec88cc21bf0000000000000000000000000000000000000000000000000000000000000000000000000000000000000000000000000000000000000000000000000000016000000000000000000000000000000000000000000000000000000000000000000000000000000000000000000000000000000000000000000000000000000000000000000000000000000000000000000000000000000000000000000000000000000000000000000000000000000000000000000000000000000000000000000000000000000000000000000000000000000000000000000000000000000000000000000000000000000000000000000000000000000000000000000000000000000000000000000000000000000000000000000000000000000000000001e000000000000000000000000000000000000000000000000000000000000002a00000000000000000000000000000000000000000000000000000000000000044095ea7b30000000000000000000000004751ba2b09374c1929fc01734a166e3c8cd758100000000000000000000000000000000000000000000000000de0b6b3a764000000000000000000000000000000000000000000000000000000000000000000000000000000000000000000000000000000000000000000000000008262849b58a9bd13afc1c29834d0873b1ad94523c9be4599857d22d4acec35e12d74e9b73008a0646c6b42f8b0d20d5f3773c0241afdd3d562478add9efb1747141b9dee379d9a822c0eeaa7731fa08b976d93812b45a88bf257726fc371af4ee38d5c3efcb124adcd12eb4637df3cccbe6e7ea90d201188c6471a30fa6ff990efd81b0000000000000000000000000000000000000000000000000000000000000000000000000000000000000000000000000000000000000000000000000060000000000000000000000000000000000000000000000000000000000000003a00000000000000000000000066205fda77114a5357e7bdcac6ddb356cff0063b0000000000000000000000000000000000000000000000000000000000000002",
          "blockHash": "0x94ed0f0fed14b0af914636ccefccc7dfecde68a627df9a6bba3ce46ca7c57c0c",
          "blockNumber": "0x2c9fc84",
          "blockTimestamp": "0x6a1e55eb",
          "transactionHash": "0xfd60305962377ff4eaec573af8ebf9d952bae0eb5ee492e842b0573efe67a4c1",
          "transactionIndex": "0xbe",
          "logIndex": "0x320",
          "removed": false
        },
        {
          "address": "0xacfe6019ed1a7dc6f7b508c02d1b04ec88cc21bf",
          "topics": [
            "0x8c5be1e5ebec7d5bd14f71427d1e84f3dd0314c0f7b2291e5b200ac8c7c3b925",
            "0x000000000000000000000000872c561f699b42977c093f0ed8b4c9a431280c6c",
            "0x0000000000000000000000004751ba2b09374c1929fc01734a166e3c8cd75810"
          ],
          "data": "0x0000000000000000000000000000000000000000000000000de0b6b3a7640000",
          "blockHash": "0x94ed0f0fed14b0af914636ccefccc7dfecde68a627df9a6bba3ce46ca7c57c0c",
          "blockNumber": "0x2c9fc84",
          "blockTimestamp": "0x6a1e55eb",
          "transactionHash": "0xfd60305962377ff4eaec573af8ebf9d952bae0eb5ee492e842b0573efe67a4c1",
          "transactionIndex": "0xbe",
          "logIndex": "0x321",
          "removed": false
        },
        {
          "address": "0x872c561f699b42977c093f0ed8b4c9a431280c6c",
          "topics": [
            "0x442e715f626346e8c54381002da614f62bee8d27386535b2521ec8540898556e",
            "0x70cb1bd03a841248e9012c8fe57e07fe29676640dfe898d60855537a06a5c4e2"
          ],
          "data": "0x0000000000000000000000000000000000000000000000000000000000000000",
          "blockHash": "0x94ed0f0fed14b0af914636ccefccc7dfecde68a627df9a6bba3ce46ca7c57c0c",
          "blockNumber": "0x2c9fc84",
          "blockTimestamp": "0x6a1e55eb",
          "transactionHash": "0xfd60305962377ff4eaec573af8ebf9d952bae0eb5ee492e842b0573efe67a4c1",
          "transactionIndex": "0xbe",
          "logIndex": "0x322",
          "removed": false
        }
      ],
      "logsBloom": "0x00000000400000000000000000000000000000000000000000001000040000000008000000000000000000000000000000000000000000000000000000200000000000000010000000000000000000000000040000000000000000000000000000002000000000000000000000000000000000000000000000000000000000000000000000000000000000000002000000001000000000000000000000000000020000000400000000000000001004000000080000000000000002000000000000000000000400000000000000020000000080000000000000000020000800000010000400000000000001000000000000000000000000000000000000000000",
      "type": "0x2",
      "transactionHash": "0xfd60305962377ff4eaec573af8ebf9d952bae0eb5ee492e842b0573efe67a4c1",
      "transactionIndex": "0xbe",
      "blockHash": "0x94ed0f0fed14b0af914636ccefccc7dfecde68a627df9a6bba3ce46ca7c57c0c",
      "blockNumber": "0x2c9fc84",
      "gasUsed": "0x16c06",
      "effectiveGasPrice": "0x5121fa",
      "blobGasUsed": "0x936c",
      "from": "0x66205fda77114a5357e7bdcac6ddb356cff0063b",
      "to": "0x872c561f699b42977c093f0ed8b4c9a431280c6c",
      "contractAddress": null,
      "daFootprintGasScalar": "0x94",
      "l1BaseFeeScalar": "0x8dd",
      "l1BlobBaseFee": "0x86ce26",
      "l1BlobBaseFeeScalar": "0x101c12",
      "l1Fee": "0xde7be737",
      "l1GasPrice": "0x8b313ca",
      "l1GasUsed": "0xff3"
    },
    {
      "status": "0x1",
      "cumulativeGasUsed": "0x2847094",
      "logs": [
        {
          "address": "0x872c561f699b42977c093f0ed8b4c9a431280c6c",
          "topics": [
            "0x66753cd2356569ee081232e3be8909b950e0a76c1f8460c3a5e3c2be32b11bed"
          ],
          "data": "0x0000000000000000000000004751ba2b09374c1929fc01734a166e3c8cd7581000000000000000000000000000000000000000000000000000000000000000000000000000000000000000000000000000000000000000000000000000000160000000000000000000000000000000000000000000000000000000000000000000000000000000000000000000000000000000000000000000000000000000000000000000000000000000000000000000000000000000000000000000000000000000000000000000000000000000000000000000000000000000000000000000000000000000000000000000000000000000000000000000000000000000000000000000000000000000000000000000000000000000000000000000000000000000000000000000000000000000000000000000000000000000000000022000000000000000000000000000000000000000000000000000000000000002e00000000000000000000000000000000000000000000000000000000000000084dc14a38600000000000000000000000032fddfb0eec6c638d5c8b7cabf3be9065478e90e000000000000000000000000acfe6019ed1a7dc6f7b508c02d1b04ec88cc21bf000000000000000000000000321b7ff75154472b18edb199033ff4d116f340ff0000000000000000000000000000000000000000000000000de0b6b3a7640000000000000000000000000000000000000000000000000000000000000000000000000000000000000000000000000000000000000000000000000082ba4763861aa6c79768992ca1765f2419f02930f2b96333754a1ab0716ed59d152d2439273f4567e771a448f85067ee0abdfdbf88636e70b00ae54746a79d4b8d1bcf69f72cfe4305e9d58867bb928f55670c1e3d91d58e6deb2ff5683e5e4558b936b2aa1ff8aeec53fb6e0463898ac87ccd1fd908bd0fa2dd765c08eec86496601c0000000000000000000000000000000000000000000000000000000000000000000000000000000000000000000000000000000000000000000000000060000000000000000000000000000000000000000000000000000000000000003b00000000000000000000000066205fda77114a5357e7bdcac6ddb356cff0063b0000000000000000000000000000000000000000000000000000000000000002",
          "blockHash": "0x94ed0f0fed14b0af914636ccefccc7dfecde68a627df9a6bba3ce46ca7c57c0c",
          "blockNumber": "0x2c9fc84",
          "blockTimestamp": "0x6a1e55eb",
          "transactionHash": "0x99bb4e3ea94d27919bbe92275ebf54cf1fb56eab7ba690d4e8c03f7bb1c7c2da",
          "transactionIndex": "0xbf",
          "logIndex": "0x323",
          "removed": false
        },
        {
          "address": "0xacfe6019ed1a7dc6f7b508c02d1b04ec88cc21bf",
          "topics": [
            "0xddf252ad1be2c89b69c2b068fc378daa952ba7f163c4a11628f55a4df523b3ef",
            "0x000000000000000000000000872c561f699b42977c093f0ed8b4c9a431280c6c",
            "0x0000000000000000000000004751ba2b09374c1929fc01734a166e3c8cd75810"
          ],
          "data": "0x0000000000000000000000000000000000000000000000000de0b6b3a7640000",
          "blockHash": "0x94ed0f0fed14b0af914636ccefccc7dfecde68a627df9a6bba3ce46ca7c57c0c",
          "blockNumber": "0x2c9fc84",
          "blockTimestamp": "0x6a1e55eb",
          "transactionHash": "0x99bb4e3ea94d27919bbe92275ebf54cf1fb56eab7ba690d4e8c03f7bb1c7c2da",
          "transactionIndex": "0xbf",
          "logIndex": "0x324",
          "removed": false
        },
        {
          "address": "0xacfe6019ed1a7dc6f7b508c02d1b04ec88cc21bf",
          "topics": [
            "0x8c5be1e5ebec7d5bd14f71427d1e84f3dd0314c0f7b2291e5b200ac8c7c3b925",
            "0x0000000000000000000000004751ba2b09374c1929fc01734a166e3c8cd75810",
            "0x000000000000000000000000321b7ff75154472b18edb199033ff4d116f340ff"
          ],
          "data": "0x0000000000000000000000000000000000000000000000000de0b6b3a7640000",
          "blockHash": "0x94ed0f0fed14b0af914636ccefccc7dfecde68a627df9a6bba3ce46ca7c57c0c",
          "blockNumber": "0x2c9fc84",
          "blockTimestamp": "0x6a1e55eb",
          "transactionHash": "0x99bb4e3ea94d27919bbe92275ebf54cf1fb56eab7ba690d4e8c03f7bb1c7c2da",
          "transactionIndex": "0xbf",
          "logIndex": "0x325",
          "removed": false
        },
        {
          "address": "0xacfe6019ed1a7dc6f7b508c02d1b04ec88cc21bf",
          "topics": [
            "0xddf252ad1be2c89b69c2b068fc378daa952ba7f163c4a11628f55a4df523b3ef",
            "0x0000000000000000000000000000000000000000000000000000000000000000",
            "0x0000000000000000000000002d8cb8dc596dad0e1e34e2042e7ae6df93b11524"
          ],
          "data": "0x00000000000000000000000000000000000000000000000009223373f59a7a24",
          "blockHash": "0x94ed0f0fed14b0af914636ccefccc7dfecde68a627df9a6bba3ce46ca7c57c0c",
          "blockNumber": "0x2c9fc84",
          "blockTimestamp": "0x6a1e55eb",
          "transactionHash": "0x99bb4e3ea94d27919bbe92275ebf54cf1fb56eab7ba690d4e8c03f7bb1c7c2da",
          "transactionIndex": "0xbf",
          "logIndex": "0x326",
          "removed": false
        },
        {
          "address": "0xacfe6019ed1a7dc6f7b508c02d1b04ec88cc21bf",
          "topics": [
            "0xddf252ad1be2c89b69c2b068fc378daa952ba7f163c4a11628f55a4df523b3ef",
            "0x0000000000000000000000000000000000000000000000000000000000000000",
            "0x000000000000000000000000321b7ff75154472b18edb199033ff4d116f340ff"
          ],
          "data": "0x000000000000000000000000000000000000000000000000a35ee090e72c451a",
          "blockHash": "0x94ed0f0fed14b0af914636ccefccc7dfecde68a627df9a6bba3ce46ca7c57c0c",
          "blockNumber": "0x2c9fc84",
          "blockTimestamp": "0x6a1e55eb",
          "transactionHash": "0x99bb4e3ea94d27919bbe92275ebf54cf1fb56eab7ba690d4e8c03f7bb1c7c2da",
          "transactionIndex": "0xbf",
          "logIndex": "0x327",
          "removed": false
        },
        {
          "address": "0x321b7ff75154472b18edb199033ff4d116f340ff",
          "topics": [
            "0xddf252ad1be2c89b69c2b068fc378daa952ba7f163c4a11628f55a4df523b3ef",
            "0x0000000000000000000000000000000000000000000000000000000000000000",
            "0x00000000000000000000000032fddfb0eec6c638d5c8b7cabf3be9065478e90e"
          ],
          "data": "0x0000000000000000000000000000000000000000000000000de0b6b3a7640000",
          "blockHash": "0x94ed0f0fed14b0af914636ccefccc7dfecde68a627df9a6bba3ce46ca7c57c0c",
          "blockNumber": "0x2c9fc84",
          "blockTimestamp": "0x6a1e55eb",
          "transactionHash": "0x99bb4e3ea94d27919bbe92275ebf54cf1fb56eab7ba690d4e8c03f7bb1c7c2da",
          "transactionIndex": "0xbf",
          "logIndex": "0x328",
          "removed": false
        },
        {
          "address": "0xacfe6019ed1a7dc6f7b508c02d1b04ec88cc21bf",
          "topics": [
            "0xddf252ad1be2c89b69c2b068fc378daa952ba7f163c4a11628f55a4df523b3ef",
            "0x0000000000000000000000004751ba2b09374c1929fc01734a166e3c8cd75810",
            "0x000000000000000000000000321b7ff75154472b18edb199033ff4d116f340ff"
          ],
          "data": "0x0000000000000000000000000000000000000000000000000de0b6b3a7640000",
          "blockHash": "0x94ed0f0fed14b0af914636ccefccc7dfecde68a627df9a6bba3ce46ca7c57c0c",
          "blockNumber": "0x2c9fc84",
          "blockTimestamp": "0x6a1e55eb",
          "transactionHash": "0x99bb4e3ea94d27919bbe92275ebf54cf1fb56eab7ba690d4e8c03f7bb1c7c2da",
          "transactionIndex": "0xbf",
          "logIndex": "0x329",
          "removed": false
        },
        {
          "address": "0x321b7ff75154472b18edb199033ff4d116f340ff",
          "topics": [
            "0x9e71bc8eea02a63969f509818f2dafb9254532904319f9dbda79b67bd34a5f3d",
            "0x00000000000000000000000032fddfb0eec6c638d5c8b7cabf3be9065478e90e"
          ],
          "data": "0x0000000000000000000000000000000000000000000000000de0b6b3a7640000",
          "blockHash": "0x94ed0f0fed14b0af914636ccefccc7dfecde68a627df9a6bba3ce46ca7c57c0c",
          "blockNumber": "0x2c9fc84",
          "blockTimestamp": "0x6a1e55eb",
          "transactionHash": "0x99bb4e3ea94d27919bbe92275ebf54cf1fb56eab7ba690d4e8c03f7bb1c7c2da",
          "transactionIndex": "0xbf",
          "logIndex": "0x32a",
          "removed": false
        },
        {
          "address": "0x4751ba2b09374c1929fc01734a166e3c8cd75810",
          "topics": [
            "0x3510c54b2dcfbc4504aaf36d4cd2f64379a3758e483999c6e6131b79ac2c3db0",
            "0x00000000000000000000000032fddfb0eec6c638d5c8b7cabf3be9065478e90e"
          ],
          "data": "0x0000000000000000000000000000000000000000000000000de0b6b3a7640000",
          "blockHash": "0x94ed0f0fed14b0af914636ccefccc7dfecde68a627df9a6bba3ce46ca7c57c0c",
          "blockNumber": "0x2c9fc84",
          "blockTimestamp": "0x6a1e55eb",
          "transactionHash": "0x99bb4e3ea94d27919bbe92275ebf54cf1fb56eab7ba690d4e8c03f7bb1c7c2da",
          "transactionIndex": "0xbf",
          "logIndex": "0x32b",
          "removed": false
        },
        {
          "address": "0x872c561f699b42977c093f0ed8b4c9a431280c6c",
          "topics": [
            "0x442e715f626346e8c54381002da614f62bee8d27386535b2521ec8540898556e",
            "0x4dd8414393bb6b397988a11840d32cd57660a071724e8cd33f4f1c2b342a0a95"
          ],
          "data": "0x0000000000000000000000000000000000000000000000000000000000000000",
          "blockHash": "0x94ed0f0fed14b0af914636ccefccc7dfecde68a627df9a6bba3ce46ca7c57c0c",
          "blockNumber": "0x2c9fc84",
          "blockTimestamp": "0x6a1e55eb",
          "transactionHash": "0x99bb4e3ea94d27919bbe92275ebf54cf1fb56eab7ba690d4e8c03f7bb1c7c2da",
          "transactionIndex": "0xbf",
          "logIndex": "0x32c",
          "removed": false
        }
      ],
      "logsBloom": "0x00040000400000000000000000000800000000000800000000001000040424000008000000000000000000000000000000040400400000000000000000200000000080000000000000000008000000000000040000000000000000000000000044002000020000000008000000000801000004010000000000000010000000000000000000000002000200200000000000001000000000000000000000000000020000000400000000000000401004000000080000000000000002000000000000000002000400000000001000020000004080000000000000000000000820000010000400000000000001000000000000000000000100000001000000000000",
      "type": "0x2",
      "transactionHash": "0x99bb4e3ea94d27919bbe92275ebf54cf1fb56eab7ba690d4e8c03f7bb1c7c2da",
      "transactionIndex": "0xbf",
      "blockHash": "0x94ed0f0fed14b0af914636ccefccc7dfecde68a627df9a6bba3ce46ca7c57c0c",
      "blockNumber": "0x2c9fc84",
      "gasUsed": "0x34c2a",
      "effectiveGasPrice": "0x5121fa",
      "blobGasUsed": "0xaa8c",
      "from": "0x66205fda77114a5357e7bdcac6ddb356cff0063b",
      "to": "0x872c561f699b42977c093f0ed8b4c9a431280c6c",
      "contractAddress": null,
      "daFootprintGasScalar": "0x94",
      "l1BaseFeeScalar": "0x8dd",
      "l1BlobBaseFee": "0x86ce26",
      "l1BlobBaseFeeScalar": "0x101c12",
      "l1Fee": "0x1017cca14",
      "l1GasPrice": "0x8b313ca",
      "l1GasUsed": "0x1275"
    },
    {
      "status": "0x1",
      "cumulativeGasUsed": "0x285e1d7",
      "logs": [
        {
          "address": "0x872c561f699b42977c093f0ed8b4c9a431280c6c",
          "topics": [
            "0x66753cd2356569ee081232e3be8909b950e0a76c1f8460c3a5e3c2be32b11bed"
          ],
          "data": "0x00000000000000000000000021fe048b10dc9bed2ee0ae76724c627ca7f35f610000000000000000000000000000000000000000000000000000000000000000000000000000000000000000000000000000000000000000000000000000016000000000000000000000000000000000000000000000000000000000000000000000000000000000000000000000000000000000000000000000000000000000000000000000000000000000000000000000000000000000000000000000000000000000000000000000000000000000000000000000000000000000000000000000000000000000000000000000000000000000000000000000000000000000000000000000000000000000000000000000000000000000000000000000000000000000000000000000000000000000000000000000000000000000000001c000000000000000000000000000000000000000000000000000000000000002800000000000000000000000000000000000000000000000000000000000000024748747e600000000000000000000000032fddfb0eec6c638d5c8b7cabf3be9065478e90e000000000000000000000000000000000000000000000000000000000000000000000000000000000000000000000000000000000000000000000082ddc6a145fa24afdb03b43a9e34c11690cee42171c3f30ad96a6618dd0ab9bd077714504b0468399ad6f9d70cdd6c002f4179cfb5b93661b088a192134859642d1b78938dfbdbb053557b35ed38f220098f096df6ca28bfbe254318dac3f318a0913424ea8539d961a1cb304243dfd65609f1d2bfaef6892ed879295beb449831621b0000000000000000000000000000000000000000000000000000000000000000000000000000000000000000000000000000000000000000000000000060000000000000000000000000000000000000000000000000000000000000003c00000000000000000000000066205fda77114a5357e7bdcac6ddb356cff0063b0000000000000000000000000000000000000000000000000000000000000002",
          "blockHash": "0x94ed0f0fed14b0af914636ccefccc7dfecde68a627df9a6bba3ce46ca7c57c0c",
          "blockNumber": "0x2c9fc84",
          "blockTimestamp": "0x6a1e55eb",
          "transactionHash": "0x8969d895f9812e3936d830905ab3210b60b1300c433f9aaf7da2b1feab2f170e",
          "transactionIndex": "0xc0",
          "logIndex": "0x32d",
          "removed": false
        },
        {
          "address": "0x21fe048b10dc9bed2ee0ae76724c627ca7f35f61",
          "topics": [
            "0x0425bcd291db1d48816f2a98edc7ecaf6dd5c64b973d9e4b3b6b750763dc6c2e",
            "0x00000000000000000000000032fddfb0eec6c638d5c8b7cabf3be9065478e90e"
          ],
          "data": "0x",
          "blockHash": "0x94ed0f0fed14b0af914636ccefccc7dfecde68a627df9a6bba3ce46ca7c57c0c",
          "blockNumber": "0x2c9fc84",
          "blockTimestamp": "0x6a1e55eb",
          "transactionHash": "0x8969d895f9812e3936d830905ab3210b60b1300c433f9aaf7da2b1feab2f170e",
          "transactionIndex": "0xc0",
          "logIndex": "0x32e",
          "removed": false
        },
        {
          "address": "0x872c561f699b42977c093f0ed8b4c9a431280c6c",
          "topics": [
            "0x442e715f626346e8c54381002da614f62bee8d27386535b2521ec8540898556e",
            "0x55656f1426bcbd1b2df8ffdb1ac201de247cada65c429375329fff80a5842be3"
          ],
          "data": "0x0000000000000000000000000000000000000000000000000000000000000000",
          "blockHash": "0x94ed0f0fed14b0af914636ccefccc7dfecde68a627df9a6bba3ce46ca7c57c0c",
          "blockNumber": "0x2c9fc84",
          "blockTimestamp": "0x6a1e55eb",
          "transactionHash": "0x8969d895f9812e3936d830905ab3210b60b1300c433f9aaf7da2b1feab2f170e",
          "transactionIndex": "0xc0",
          "logIndex": "0x32f",
          "removed": false
        }
      ],
      "logsBloom": "0x00040000400000000000000000200000000000000000000008000000040000008000000000000000000000000000000000000000000000000002000000000000000080000000000000000000000000000000140000000001000000000000000000002000000000000000000000000000000000000000000000000000000000000000000000000000002200000000000000000000000000040000000000000000000000000400000000000000000004000000000000000000000002000000000000000000000400000000000000020000000000000000000000000000004000000000000000000000000000000000000000000000000000000000000000000000",
      "type": "0x2",
      "transactionHash": "0x8969d895f9812e3936d830905ab3210b60b1300c433f9aaf7da2b1feab2f170e",
      "transactionIndex": "0xc0",
      "blockHash": "0x94ed0f0fed14b0af914636ccefccc7dfecde68a627df9a6bba3ce46ca7c57c0c",
      "blockNumber": "0x2c9fc84",
      "gasUsed": "0x17143",
      "effectiveGasPrice": "0x5121fa",
      "blobGasUsed": "0x8d10",
      "from": "0x66205fda77114a5357e7bdcac6ddb356cff0063b",
      "to": "0x872c561f699b42977c093f0ed8b4c9a431280c6c",
      "contractAddress": null,
      "daFootprintGasScalar": "0x94",
      "l1BaseFeeScalar": "0x8dd",
      "l1BlobBaseFee": "0x86ce26",
      "l1BlobBaseFeeScalar": "0x101c12",
      "l1Fee": "0xd500ff1b",
      "l1GasPrice": "0x8b313ca",
      "l1GasUsed": "0xf45"
    },
    {
      "status": "0x1",
      "cumulativeGasUsed": "0x287529f",
      "logs": [
        {
          "address": "0x872c561f699b42977c093f0ed8b4c9a431280c6c",
          "topics": [
            "0x66753cd2356569ee081232e3be8909b950e0a76c1f8460c3a5e3c2be32b11bed"
          ],
          "data": "0x0000000000000000000000004751ba2b09374c1929fc01734a166e3c8cd758100000000000000000000000000000000000000000000000000000000000000000000000000000000000000000000000000000000000000000000000000000016000000000000000000000000000000000000000000000000000000000000000000000000000000000000000000000000000000000000000000000000000000000000000000000000000000000000000000000000000000000000000000000000000000000000000000000000000000000000000000000000000000000000000000000000000000000000000000000000000000000000000000000000000000000000000000000000000000000000000000000000000000000000000000000000000000000000000000000000000000000000000000000000000000000000001c000000000000000000000000000000000000000000000000000000000000002800000000000000000000000000000000000000000000000000000000000000024748747e600000000000000000000000032fddfb0eec6c638d5c8b7cabf3be9065478e90e000000000000000000000000000000000000000000000000000000000000000000000000000000000000000000000000000000000000000000000082d6f4823307098c917eab3e8296395068382741d41a4f09ab6102138b13c91db82244f7a5453d8abf097d8138996949659e574225294bf1b2326b56dfc3dbb1eb1b430e8fdd8d9a5ae354fb10cc4b70dbbdc5d77660637bbaaee96ce2af9d71f45575372cb2a475cd43f31a0551009d33d872cdebe57f261cac64e42ce0ca4f0be31b0000000000000000000000000000000000000000000000000000000000000000000000000000000000000000000000000000000000000000000000000060000000000000000000000000000000000000000000000000000000000000003d00000000000000000000000066205fda77114a5357e7bdcac6ddb356cff0063b0000000000000000000000000000000000000000000000000000000000000002",
          "blockHash": "0x94ed0f0fed14b0af914636ccefccc7dfecde68a627df9a6bba3ce46ca7c57c0c",
          "blockNumber": "0x2c9fc84",
          "blockTimestamp": "0x6a1e55eb",
          "transactionHash": "0xfd586023bed3b98e170227b469ee91412f2bcb651f5319cb867133c144a7bbd9",
          "transactionIndex": "0xc1",
          "logIndex": "0x330",
          "removed": false
        },
        {
          "address": "0x4751ba2b09374c1929fc01734a166e3c8cd75810",
          "topics": [
            "0x0425bcd291db1d48816f2a98edc7ecaf6dd5c64b973d9e4b3b6b750763dc6c2e",
            "0x00000000000000000000000032fddfb0eec6c638d5c8b7cabf3be9065478e90e"
          ],
          "data": "0x",
          "blockHash": "0x94ed0f0fed14b0af914636ccefccc7dfecde68a627df9a6bba3ce46ca7c57c0c",
          "blockNumber": "0x2c9fc84",
          "blockTimestamp": "0x6a1e55eb",
          "transactionHash": "0xfd586023bed3b98e170227b469ee91412f2bcb651f5319cb867133c144a7bbd9",
          "transactionIndex": "0xc1",
          "logIndex": "0x331",
          "removed": false
        },
        {
          "address": "0x872c561f699b42977c093f0ed8b4c9a431280c6c",
          "topics": [
            "0x442e715f626346e8c54381002da614f62bee8d27386535b2521ec8540898556e",
            "0xd917970822a83d99e0bfcd00d8e9d649bcddfaf8f65f2c7e19710bd7b500868d"
          ],
          "data": "0x0000000000000000000000000000000000000000000000000000000000000000",
          "blockHash": "0x94ed0f0fed14b0af914636ccefccc7dfecde68a627df9a6bba3ce46ca7c57c0c",
          "blockNumber": "0x2c9fc84",
          "blockTimestamp": "0x6a1e55eb",
          "transactionHash": "0xfd586023bed3b98e170227b469ee91412f2bcb651f5319cb867133c144a7bbd9",
          "transactionIndex": "0xc1",
          "logIndex": "0x332",
          "removed": false
        }
      ],
      "logsBloom": "0x00040000400000000000000000200000000000000000000008000000040020000000000000000000000000000000000000000000000000000000000000000000000080000000000000000400000000001000040000000000000000000000000000002000000000000000000000000000000004000004000000000000000000000000000000000000000200000000000000000000000000040000000000000000000000000400000000000000000004000000000000000000000002000000000000000000000400000000000000020000000000000000000000000000000000000000000000000000000000000000000000000000000100000000000000000000",
      "type": "0x2",
      "transactionHash": "0xfd586023bed3b98e170227b469ee91412f2bcb651f5319cb867133c144a7bbd9",
      "transactionIndex": "0xc1",
      "blockHash": "0x94ed0f0fed14b0af914636ccefccc7dfecde68a627df9a6bba3ce46ca7c57c0c",
      "blockNumber": "0x2c9fc84",
      "gasUsed": "0x170c8",
      "effectiveGasPrice": "0x5121fa",
      "blobGasUsed": "0x8d10",
      "from": "0x66205fda77114a5357e7bdcac6ddb356cff0063b",
      "to": "0x872c561f699b42977c093f0ed8b4c9a431280c6c",
      "contractAddress": null,
      "daFootprintGasScalar": "0x94",
      "l1BaseFeeScalar": "0x8dd",
      "l1BlobBaseFee": "0x86ce26",
      "l1BlobBaseFeeScalar": "0x101c12",
      "l1Fee": "0xd500ff1b",
      "l1GasPrice": "0x8b313ca",
      "l1GasUsed": "0xf45"
    }
  ],
  "libraries": [],
  "pending": [],
  "returns": {},
  "timestamp": 1780372971330,
  "chain": 8453,
  "commit": "b26d72a"
}