{
  "transactions": [
    {
      "hash": "0xd3d40918222f556eeee4c23bfdeb17e270802a03848537114cb44d15ee7c2917",
      "transactionType": "CALL",
      "contractName": null,
      "contractAddress": "0x872c561f699b42977c093f0ed8b4c9a431280c6c",
      "function": "execTransaction(address,uint256,bytes,uint8,uint256,uint256,uint256,address,address,bytes)",
      "arguments": [
        "0xc4845F25B84EA8970D622fbF4FF7d10a6Fb7829e",
        "0",
        "0x715018a6",
        "0",
        "0",
        "0",
        "0",
        "0x0000000000000000000000000000000000000000",
        "0x0000000000000000000000000000000000000000",
        "0x086bb6db5eefbe706821e21a4ba6c21bd6aa22ed21ec924652d4b2ccadb91d80268386418168b37c4e0b3cee01050acd2e58f5e5eab0d98fff55aaf56c3de4d01ca32fd118cd4e4a6435acb57d46b8c85439fdc6a8248be1e4d28483bcaba88df96e14cb8bab2bace82f6df30127dda5cba86cc18922845a6444487d9a9ba6c5911c"
      ],
      "transaction": {
        "from": "0xeed4c6fd992e003ca01f10a3c3e7d8b671789698",
        "to": "0x872c561f699b42977c093f0ed8b4c9a431280c6c",
        "gas": "0x1900b",
        "value": "0x0",
        "input": "0x6a761202000000000000000000000000c4845f25b84ea8970d622fbf4ff7d10a6fb7829e0000000000000000000000000000000000000000000000000000000000000000000000000000000000000000000000000000000000000000000000000000014000000000000000000000000000000000000000000000000000000000000000000000000000000000000000000000000000000000000000000000000000000000000000000000000000000000000000000000000000000000000000000000000000000000000000000000000000000000000000000000000000000000000000000000000000000000000000000000000000000000000000000000000000000000000000000000000000000000000000000000000000000000000000000000000000000000000000000000000000000000000000000000000000000000000001800000000000000000000000000000000000000000000000000000000000000004715018a6000000000000000000000000000000000000000000000000000000000000000000000000000000000000000000000000000000000000000000000082086bb6db5eefbe706821e21a4ba6c21bd6aa22ed21ec924652d4b2ccadb91d80268386418168b37c4e0b3cee01050acd2e58f5e5eab0d98fff55aaf56c3de4d01ca32fd118cd4e4a6435acb57d46b8c85439fdc6a8248be1e4d28483bcaba88df96e14cb8bab2bace82f6df30127dda5cba86cc18922845a6444487d9a9ba6c5911c000000000000000000000000000000000000000000000000000000000000",
        "nonce": "0x53",
        "chainId": "0x2105"
      },
      "additionalContracts": [],
      "isFixedGasLimit": false
    },
    {
      "hash": "0x127b30f9eff0c1c5a095a99225c8a62812f3a9de3b8f4344c57e5752f7daf391",
      "transactionType": "CALL",
      "contractName": null,
      "contractAddress": "0x872c561f699b42977c093f0ed8b4c9a431280c6c",
      "function": "execTransaction(address,uint256,bytes,uint8,uint256,uint256,uint256,address,address,bytes)",
      "arguments": [
        "0x1C3709eCc560E3c5f529544ef36daA10E352f862",
        "0",
        "0x715018a6",
        "0",
        "0",
        "0",
        "0",
        "0x0000000000000000000000000000000000000000",
        "0x0000000000000000000000000000000000000000",
        "0xd352a6715dba535a38a86d2a49f2598d0580aabb62dddce8fb1f91f869d6f4781b987ba7ed1ad009e6d5ced07fdf3698deee72e61d26fb6db8ba2898a9f0bc561b2f4f957456e17993cfd1e9fc67872fc5a0af741eb5f46e17f329cfe83c810aa82b41b7a74191beec44701bca4d99107f404ea79009ab631aa0448f3398db4d7e1b"
      ],
      "transaction": {
        "from": "0xeed4c6fd992e003ca01f10a3c3e7d8b671789698",
        "to": "0x872c561f699b42977c093f0ed8b4c9a431280c6c",
        "gas": "0x1791b",
        "value": "0x0",
        "input": "0x6a7612020000000000000000000000001c3709ecc560e3c5f529544ef36daa10e352f8620000000000000000000000000000000000000000000000000000000000000000000000000000000000000000000000000000000000000000000000000000014000000000000000000000000000000000000000000000000000000000000000000000000000000000000000000000000000000000000000000000000000000000000000000000000000000000000000000000000000000000000000000000000000000000000000000000000000000000000000000000000000000000000000000000000000000000000000000000000000000000000000000000000000000000000000000000000000000000000000000000000000000000000000000000000000000000000000000000000000000000000000000000000000000000000001800000000000000000000000000000000000000000000000000000000000000004715018a6000000000000000000000000000000000000000000000000000000000000000000000000000000000000000000000000000000000000000000000082d352a6715dba535a38a86d2a49f2598d0580aabb62dddce8fb1f91f869d6f4781b987ba7ed1ad009e6d5ced07fdf3698deee72e61d26fb6db8ba2898a9f0bc561b2f4f957456e17993cfd1e9fc67872fc5a0af741eb5f46e17f329cfe83c810aa82b41b7a74191beec44701bca4d99107f404ea79009ab631aa0448f3398db4d7e1b000000000000000000000000000000000000000000000000000000000000",
        "nonce": "0x54",
        "chainId": "0x2105"
      },
      "additionalContracts": [],
      "isFixedGasLimit": false
    },
    {
      "hash": "0x14c2bc50b3a9bc0d8aa08c902d919b52beafde9ff1549952ba20473ef63c9ad2",
      "transactionType": "CALL",
      "contractName": null,
      "contractAddress": "0x872c561f699b42977c093f0ed8b4c9a431280c6c",
      "function": "execTransaction(address,uint256,bytes,uint8,uint256,uint256,uint256,address,address,bytes)",
      "arguments": [
        "0x23b43f4B8902147a2ccbb3f337947AD54Be71153",
        "0",
        "0x715018a6",
        "0",
        "0",
        "0",
        "0",
        "0x0000000000000000000000000000000000000000",
        "0x0000000000000000000000000000000000000000",
        "0x386ac8b7560969402ccbc5ef848155158b38ad078a0d234a233c78a1805309b14a39108339265226f0f254eee1b9d8299339833d13567d05d47a10aaf8263d981cbdc2584e548bb3a815b5ec2cea1b9ad4162dcd023a46675d30f9cdd6652f6a282b4e8d37d9f5db6f6717d3bc56b50d79080081ef5e02cd76e542239de8e883161c"
      ],
      "transaction": {
        "from": "0xeed4c6fd992e003ca01f10a3c3e7d8b671789698",
        "to": "0x872c561f699b42977c093f0ed8b4c9a431280c6c",
        "gas": "0x18f3b",
        "value": "0x0",
        "input": "0x6a76120200000000000000000000000023b43f4b8902147a2ccbb3f337947ad54be711530000000000000000000000000000000000000000000000000000000000000000000000000000000000000000000000000000000000000000000000000000014000000000000000000000000000000000000000000000000000000000000000000000000000000000000000000000000000000000000000000000000000000000000000000000000000000000000000000000000000000000000000000000000000000000000000000000000000000000000000000000000000000000000000000000000000000000000000000000000000000000000000000000000000000000000000000000000000000000000000000000000000000000000000000000000000000000000000000000000000000000000000000000000000000000000001800000000000000000000000000000000000000000000000000000000000000004715018a6000000000000000000000000000000000000000000000000000000000000000000000000000000000000000000000000000000000000000000000082386ac8b7560969402ccbc5ef848155158b38ad078a0d234a233c78a1805309b14a39108339265226f0f254eee1b9d8299339833d13567d05d47a10aaf8263d981cbdc2584e548bb3a815b5ec2cea1b9ad4162dcd023a46675d30f9cdd6652f6a282b4e8d37d9f5db6f6717d3bc56b50d79080081ef5e02cd76e542239de8e883161c000000000000000000000000000000000000000000000000000000000000",
        "nonce": "0x55",
        "chainId": "0x2105"
      },
      "additionalContracts": [],
      "isFixedGasLimit": false
    },
    {
      "hash": "0xb49fc21a4311cf20045892a21e38d3dacdd28b6ef433b545e99648d26783a339",
      "transactionType": "CALL",
      "contractName": null,
      "contractAddress": "0x872c561f699b42977c093f0ed8b4c9a431280c6c",
      "function": "execTransaction(address,uint256,bytes,uint8,uint256,uint256,uint256,address,address,bytes)",
      "arguments": [
        "0x4C56e11b7C7a6C411BD67138df19B48d1b32d9b7",
        "0",
        "0x715018a6",
        "0",
        "0",
        "0",
        "0",
        "0x0000000000000000000000000000000000000000",
        "0x0000000000000000000000000000000000000000",
        "0xa54c5cc76ba25dde33c80493418d02255975e03ad220225caa555ed1644e73585021b8bc8158a00c61eba924e154268ff70b476c03141fa41a03390d82f38fac1bc4282921c22613382918bb220fc1cb1530b28785b38527c6493401432a9b05245048626bc0da2a5c7496939279ff98b7a2a07cf7e7f6f90742a00ed14c3fa1031c"
      ],
      "transaction": {
        "from": "0xeed4c6fd992e003ca01f10a3c3e7d8b671789698",
        "to": "0x872c561f699b42977c093f0ed8b4c9a431280c6c",
        "gas": "0x1791d",
        "value": "0x0",
        "input": "0x6a7612020000000000000000000000004c56e11b7c7a6c411bd67138df19b48d1b32d9b70000000000000000000000000000000000000000000000000000000000000000000000000000000000000000000000000000000000000000000000000000014000000000000000000000000000000000000000000000000000000000000000000000000000000000000000000000000000000000000000000000000000000000000000000000000000000000000000000000000000000000000000000000000000000000000000000000000000000000000000000000000000000000000000000000000000000000000000000000000000000000000000000000000000000000000000000000000000000000000000000000000000000000000000000000000000000000000000000000000000000000000000000000000000000000000001800000000000000000000000000000000000000000000000000000000000000004715018a6000000000000000000000000000000000000000000000000000000000000000000000000000000000000000000000000000000000000000000000082a54c5cc76ba25dde33c80493418d02255975e03ad220225caa555ed1644e73585021b8bc8158a00c61eba924e154268ff70b476c03141fa41a03390d82f38fac1bc4282921c22613382918bb220fc1cb1530b28785b38527c6493401432a9b05245048626bc0da2a5c7496939279ff98b7a2a07cf7e7f6f90742a00ed14c3fa1031c000000000000000000000000000000000000000000000000000000000000",
        "nonce": "0x56",
        "chainId": "0x2105"
      },
      "additionalContracts": [],
      "isFixedGasLimit": false
    },
    {
      "hash": "0xb26274dbdd25ae6cd08337df2ca4d8db987a16d6bfaf80ba84f45c6143e4e2bf",
      "transactionType": "CALL",
      "contractName": null,
      "contractAddress": "0x872c561f699b42977c093f0ed8b4c9a431280c6c",
      "function": "execTransaction(address,uint256,bytes,uint8,uint256,uint256,uint256,address,address,bytes)",
      "arguments": [
        "0x601361c2d095f39ca6C5221DDA90e78AB3ba5F05",
        "0",
        "0x715018a6",
        "0",
        "0",
        "0",
        "0",
        "0x0000000000000000000000000000000000000000",
        "0x0000000000000000000000000000000000000000",
        "0x56b9f1da39be34079fe0b03126fdd317ffa88abd0eb9fd9c70b89d9a23be913b735c29d29e78ed02870a73ddad5bdf5d22ea2b169526361edc625ff5f7db94df1c3e722eddfb878445d3c69c6c023f3a3f21ea0132d81a71fb585e73ded72935891135215848e82d026808386ea2e4594e94e2aa6b95af3da2ef7228027da640821c"
      ],
      "transaction": {
        "from": "0xeed4c6fd992e003ca01f10a3c3e7d8b671789698",
        "to": "0x872c561f699b42977c093f0ed8b4c9a431280c6c",
        "gas": "0x1791d",
        "value": "0x0",
        "input": "0x6a761202000000000000000000000000601361c2d095f39ca6c5221dda90e78ab3ba5f050000000000000000000000000000000000000000000000000000000000000000000000000000000000000000000000000000000000000000000000000000014000000000000000000000000000000000000000000000000000000000000000000000000000000000000000000000000000000000000000000000000000000000000000000000000000000000000000000000000000000000000000000000000000000000000000000000000000000000000000000000000000000000000000000000000000000000000000000000000000000000000000000000000000000000000000000000000000000000000000000000000000000000000000000000000000000000000000000000000000000000000000000000000000000000000001800000000000000000000000000000000000000000000000000000000000000004715018a600000000000000000000000000000000000000000000000000000000000000000000000000000000000000000000000000000000000000000000008256b9f1da39be34079fe0b03126fdd317ffa88abd0eb9fd9c70b89d9a23be913b735c29d29e78ed02870a73ddad5bdf5d22ea2b169526361edc625ff5f7db94df1c3e722eddfb878445d3c69c6c023f3a3f21ea0132d81a71fb585e73ded72935891135215848e82d026808386ea2e4594e94e2aa6b95af3da2ef7228027da640821c000000000000000000000000000000000000000000000000000000000000",
        "nonce": "0x57",
        "chainId": "0x2105"
      },
      "additionalContracts": [],
      "isFixedGasLimit": false
    },
    {
      "hash": "0x967e7a0b35a6664acd821441d00c25fdc71453eaf4f2a555b0cda2725a5ad060",
      "transactionType": "CALL",
      "contractName": null,
      "contractAddress": "0x872c561f699b42977c093f0ed8b4c9a431280c6c",
      "function": "execTransaction(address,uint256,bytes,uint8,uint256,uint256,uint256,address,address,bytes)",
      "arguments": [
        "0x4D590397D2fe409a4B223906fbd0635FEF30ad7c",
        "0",
        "0x715018a6",
        "0",
        "0",
        "0",
        "0",
        "0x0000000000000000000000000000000000000000",
        "0x0000000000000000000000000000000000000000",
        "0x0ab78136c140dcf7a7e617b19a10b54cb523bc87213b7108d3dfc64355623d250bf24a33ea347336859f296c6b1e9fb69dfd054bf533b7ccbfbe438c77b158f51b3e57bd97a795cb153e4218795cbfeaea2cd1320c67bb980bf745230e4a5b6d185a583026a15b0b59172586b57aff4ae4528b7a189116cbf15b36f05f7aeb86fb1c"
      ],
      "transaction": {
        "from": "0xeed4c6fd992e003ca01f10a3c3e7d8b671789698",
        "to": "0x872c561f699b42977c093f0ed8b4c9a431280c6c",
        "gas": "0x1791d",
        "value": "0x0",
        "input": "0x6a7612020000000000000000000000004d590397d2fe409a4b223906fbd0635fef30ad7c0000000000000000000000000000000000000000000000000000000000000000000000000000000000000000000000000000000000000000000000000000014000000000000000000000000000000000000000000000000000000000000000000000000000000000000000000000000000000000000000000000000000000000000000000000000000000000000000000000000000000000000000000000000000000000000000000000000000000000000000000000000000000000000000000000000000000000000000000000000000000000000000000000000000000000000000000000000000000000000000000000000000000000000000000000000000000000000000000000000000000000000000000000000000000000000001800000000000000000000000000000000000000000000000000000000000000004715018a60000000000000000000000000000000000000000000000000000000000000000000000000000000000000000000000000000000000000000000000820ab78136c140dcf7a7e617b19a10b54cb523bc87213b7108d3dfc64355623d250bf24a33ea347336859f296c6b1e9fb69dfd054bf533b7ccbfbe438c77b158f51b3e57bd97a795cb153e4218795cbfeaea2cd1320c67bb980bf745230e4a5b6d185a583026a15b0b59172586b57aff4ae4528b7a189116cbf15b36f05f7aeb86fb1c000000000000000000000000000000000000000000000000000000000000",
        "nonce": "0x58",
        "chainId": "0x2105"
      },
      "additionalContracts": [],
      "isFixedGasLimit": false
    },
    {
      "hash": "0xf22d9b9b059386f1a51b6ef88c7efc10c2a6a118839ac1af479cefbf403941f9",
      "transactionType": "CALL",
      "contractName": null,
      "contractAddress": "0x872c561f699b42977c093f0ed8b4c9a431280c6c",
      "function": "execTransaction(address,uint256,bytes,uint8,uint256,uint256,uint256,address,address,bytes)",
      "arguments": [
        "0x8Dc32dA92B89a0968BEc020924491FE94573bef2",
        "0",
        "0x715018a6",
        "0",
        "0",
        "0",
        "0",
        "0x0000000000000000000000000000000000000000",
        "0x0000000000000000000000000000000000000000",
        "0x989125fa2b099188da690808608535d96ae9fda26eed950897a44d8c83e1489271f7649bb2c1943fbac9b852e630adb6030f13caa70b0ac3676de34e98d93ff41c7d180979832c2aadb058509416ad4d9d716d6b6c965e23d52740469782bcf3d24a6ccf36fc512c777aadec92593f1f703dd266996698accb698c08738ff911461c"
      ],
      "transaction": {
        "from": "0xeed4c6fd992e003ca01f10a3c3e7d8b671789698",
        "to": "0x872c561f699b42977c093f0ed8b4c9a431280c6c",
        "gas": "0x178fc",
        "value": "0x0",
        "input": "0x6a7612020000000000000000000000008dc32da92b89a0968bec020924491fe94573bef20000000000000000000000000000000000000000000000000000000000000000000000000000000000000000000000000000000000000000000000000000014000000000000000000000000000000000000000000000000000000000000000000000000000000000000000000000000000000000000000000000000000000000000000000000000000000000000000000000000000000000000000000000000000000000000000000000000000000000000000000000000000000000000000000000000000000000000000000000000000000000000000000000000000000000000000000000000000000000000000000000000000000000000000000000000000000000000000000000000000000000000000000000000000000000000001800000000000000000000000000000000000000000000000000000000000000004715018a6000000000000000000000000000000000000000000000000000000000000000000000000000000000000000000000000000000000000000000000082989125fa2b099188da690808608535d96ae9fda26eed950897a44d8c83e1489271f7649bb2c1943fbac9b852e630adb6030f13caa70b0ac3676de34e98d93ff41c7d180979832c2aadb058509416ad4d9d716d6b6c965e23d52740469782bcf3d24a6ccf36fc512c777aadec92593f1f703dd266996698accb698c08738ff911461c000000000000000000000000000000000000000000000000000000000000",
        "nonce": "0x59",
        "chainId": "0x2105"
      },
      "additionalContracts": [],
      "isFixedGasLimit": false
    },
    {
      "hash": "0xe63dc2b7d2b5c720cf86f21a1e4dae415d754585f8ebbbeb33a5b0571f3173be",
      "transactionType": "CALL",
      "contractName": null,
      "contractAddress": "0x872c561f699b42977c093f0ed8b4c9a431280c6c",
      "function": "execTransaction(address,uint256,bytes,uint8,uint256,uint256,uint256,address,address,bytes)",
      "arguments": [
        "0x93577aAA7469Ef62198680Bc006a45e9bd6292B3",
        "0",
        "0x715018a6",
        "0",
        "0",
        "0",
        "0",
        "0x0000000000000000000000000000000000000000",
        "0x0000000000000000000000000000000000000000",
        "0x0a2ed62fa707fe21d858f6f67499382e50434ec092915d6fff26383576d2a4c072d806aea45779e3fba5fe013a1f679db74137fd35b055d9cf88b7fa619f51501b4a3816fa08669cc424ddd9b4882b7d80d3036ad8161e69beb7922ee2d27e367a1b2477f272825d3d3c514a98fc7e6efcc6d1452dadb69dc5915dae52f3e506cd1c"
      ],
      "transaction": {
        "from": "0xeed4c6fd992e003ca01f10a3c3e7d8b671789698",
        "to": "0x872c561f699b42977c093f0ed8b4c9a431280c6c",
        "gas": "0x18f18",
        "value": "0x0",
        "input": "0x6a76120200000000000000000000000093577aaa7469ef62198680bc006a45e9bd6292b30000000000000000000000000000000000000000000000000000000000000000000000000000000000000000000000000000000000000000000000000000014000000000000000000000000000000000000000000000000000000000000000000000000000000000000000000000000000000000000000000000000000000000000000000000000000000000000000000000000000000000000000000000000000000000000000000000000000000000000000000000000000000000000000000000000000000000000000000000000000000000000000000000000000000000000000000000000000000000000000000000000000000000000000000000000000000000000000000000000000000000000000000000000000000000000001800000000000000000000000000000000000000000000000000000000000000004715018a60000000000000000000000000000000000000000000000000000000000000000000000000000000000000000000000000000000000000000000000820a2ed62fa707fe21d858f6f67499382e50434ec092915d6fff26383576d2a4c072d806aea45779e3fba5fe013a1f679db74137fd35b055d9cf88b7fa619f51501b4a3816fa08669cc424ddd9b4882b7d80d3036ad8161e69beb7922ee2d27e367a1b2477f272825d3d3c514a98fc7e6efcc6d1452dadb69dc5915dae52f3e506cd1c000000000000000000000000000000000000000000000000000000000000",
        "nonce": "0x5a",
        "chainId": "0x2105"
      },
      "additionalContracts": [],
      "isFixedGasLimit": false
    }
  ],
  "receipts": [
    {
      "status": "0x1",
      "cumulativeGasUsed": "0x16dc9fe",
      "logs": [
        {
          "address": "0x872c561f699b42977c093f0ed8b4c9a431280c6c",
          "topics": [
            "0x66753cd2356569ee081232e3be8909b950e0a76c1f8460c3a5e3c2be32b11bed"
          ],
          "data": "0x000000000000000000000000c4845f25b84ea8970d622fbf4ff7d10a6fb7829e0000000000000000000000000000000000000000000000000000000000000000000000000000000000000000000000000000000000000000000000000000016000000000000000000000000000000000000000000000000000000000000000000000000000000000000000000000000000000000000000000000000000000000000000000000000000000000000000000000000000000000000000000000000000000000000000000000000000000000000000000000000000000000000000000000000000000000000000000000000000000000000000000000000000000000000000000000000000000000000000000000000000000000000000000000000000000000000000000000000000000000000000000000000000000000000001a000000000000000000000000000000000000000000000000000000000000002600000000000000000000000000000000000000000000000000000000000000004715018a6000000000000000000000000000000000000000000000000000000000000000000000000000000000000000000000000000000000000000000000082086bb6db5eefbe706821e21a4ba6c21bd6aa22ed21ec924652d4b2ccadb91d80268386418168b37c4e0b3cee01050acd2e58f5e5eab0d98fff55aaf56c3de4d01ca32fd118cd4e4a6435acb57d46b8c85439fdc6a8248be1e4d28483bcaba88df96e14cb8bab2bace82f6df30127dda5cba86cc18922845a6444487d9a9ba6c5911c00000000000000000000000000000000000000000000000000000000000000000000000000000000000000000000000000000000000000000000000000600000000000000000000000000000000000000000000000000000000000000028000000000000000000000000eed4c6fd992e003ca01f10a3c3e7d8b6717896980000000000000000000000000000000000000000000000000000000000000002",
          "blockHash": "0x0000000000000000000000000000000000000000000000000000000000000000",
          "blockNumber": "0x2c9d46f",
          "blockTimestamp": "0x6a1e05c1",
          "transactionHash": "0x967e7a0b35a6664acd821441d00c25fdc71453eaf4f2a555b0cda2725a5ad060",
          "transactionIndex": "0x60",
          "logIndex": "0x2b4",
          "removed": false
        },
        {
          "address": "0xc4845f25b84ea8970d622fbf4ff7d10a6fb7829e",
          "topics": [
            "0x8be0079c531659141344cd1fd0a4f28419497f9722a3daafe3b4186f6b6457e0",
            "0x000000000000000000000000872c561f699b42977c093f0ed8b4c9a431280c6c",
            "0x0000000000000000000000000000000000000000000000000000000000000000"
          ],
          "data": "0x",
          "blockHash": "0x0000000000000000000000000000000000000000000000000000000000000000",
          "blockNumber": "0x2c9d46f",
          "blockTimestamp": "0x6a1e05c1",
          "transactionHash": "0x967e7a0b35a6664acd821441d00c25fdc71453eaf4f2a555b0cda2725a5ad060",
          "transactionIndex": "0x60",
          "logIndex": "0x2b5",
          "removed": false
        },
        {
          "address": "0x872c561f699b42977c093f0ed8b4c9a431280c6c",
          "topics": [
            "0x442e715f626346e8c54381002da614f62bee8d27386535b2521ec8540898556e",
            "0x0d6fabebef131c4d126421c7a6d8e7c5800b0fb0c4637642e5438009f06c043d"
          ],
          "data": "0x0000000000000000000000000000000000000000000000000000000000000000",
          "blockHash": "0x0000000000000000000000000000000000000000000000000000000000000000",
          "blockNumber": "0x2c9d46f",
          "blockTimestamp": "0x6a1e05c1",
          "transactionHash": "0x967e7a0b35a6664acd821441d00c25fdc71453eaf4f2a555b0cda2725a5ad060",
          "transactionIndex": "0x60",
          "logIndex": "0x2b6",
          "removed": false
        }
      ],
      "logsBloom": "0x00000000400000000000000000000000000000000000000000800000040000000008000000000000000000000000000000000000000000000000000000000000000000000000000000000000000000000001040000000000000000000000000000002000020000000000000020000800000000000000000000000000000000400000000080000000000000000000000000001000000000000004000000000000400000000400000000000000001004000000000000000000000002000000000000000000000400000000000000020000000000000000000000000000000020000000000000000000000000000000000000010000000000400000000000000000",
      "type": "0x2",
      "transactionHash": "0x967e7a0b35a6664acd821441d00c25fdc71453eaf4f2a555b0cda2725a5ad060",
      "transactionIndex": "0x60",
      "blockHash": "0x0000000000000000000000000000000000000000000000000000000000000000",
      "blockNumber": "0x2c9d46f",
      "gasUsed": "0x11189",
      "effectiveGasPrice": "0x5b8d80",
      "blobGasUsed": "0x8214",
      "from": "0xeed4c6fd992e003ca01f10a3c3e7d8b671789698",
      "to": "0x872c561f699b42977c093f0ed8b4c9a431280c6c",
      "contractAddress": null,
      "daFootprintGasScalar": "0x94",
      "l1BaseFeeScalar": "0x8dd",
      "l1BlobBaseFee": "0x937797",
      "l1BlobBaseFeeScalar": "0x101c12",
      "l1Fee": "0x62c4f838",
      "l1GasPrice": "0xa744662",
      "l1GasUsed": "0xe1e"
    },
    {
      "status": "0x1",
      "cumulativeGasUsed": "0x174343f",
      "logs": [
        {
          "address": "0x872c561f699b42977c093f0ed8b4c9a431280c6c",
          "topics": [
            "0x66753cd2356569ee081232e3be8909b950e0a76c1f8460c3a5e3c2be32b11bed"
          ],
          "data": "0x0000000000000000000000001c3709ecc560e3c5f529544ef36daa10e352f8620000000000000000000000000000000000000000000000000000000000000000000000000000000000000000000000000000000000000000000000000000016000000000000000000000000000000000000000000000000000000000000000000000000000000000000000000000000000000000000000000000000000000000000000000000000000000000000000000000000000000000000000000000000000000000000000000000000000000000000000000000000000000000000000000000000000000000000000000000000000000000000000000000000000000000000000000000000000000000000000000000000000000000000000000000000000000000000000000000000000000000000000000000000000000000000001a000000000000000000000000000000000000000000000000000000000000002600000000000000000000000000000000000000000000000000000000000000004715018a6000000000000000000000000000000000000000000000000000000000000000000000000000000000000000000000000000000000000000000000082d352a6715dba535a38a86d2a49f2598d0580aabb62dddce8fb1f91f869d6f4781b987ba7ed1ad009e6d5ced07fdf3698deee72e61d26fb6db8ba2898a9f0bc561b2f4f957456e17993cfd1e9fc67872fc5a0af741eb5f46e17f329cfe83c810aa82b41b7a74191beec44701bca4d99107f404ea79009ab631aa0448f3398db4d7e1b00000000000000000000000000000000000000000000000000000000000000000000000000000000000000000000000000000000000000000000000000600000000000000000000000000000000000000000000000000000000000000029000000000000000000000000eed4c6fd992e003ca01f10a3c3e7d8b6717896980000000000000000000000000000000000000000000000000000000000000002",
          "blockHash": "0x0000000000000000000000000000000000000000000000000000000000000000",
          "blockNumber": "0x2c9d46f",
          "blockTimestamp": "0x6a1e05c1",
          "transactionHash": "0xe63dc2b7d2b5c720cf86f21a1e4dae415d754585f8ebbbeb33a5b0571f3173be",
          "transactionIndex": "0x65",
          "logIndex": "0x2c2",
          "removed": false
        },
        {
          "address": "0x1c3709ecc560e3c5f529544ef36daa10e352f862",
          "topics": [
            "0x8be0079c531659141344cd1fd0a4f28419497f9722a3daafe3b4186f6b6457e0",
            "0x000000000000000000000000872c561f699b42977c093f0ed8b4c9a431280c6c",
            "0x0000000000000000000000000000000000000000000000000000000000000000"
          ],
          "data": "0x",
          "blockHash": "0x0000000000000000000000000000000000000000000000000000000000000000",
          "blockNumber": "0x2c9d46f",
          "blockTimestamp": "0x6a1e05c1",
          "transactionHash": "0xe63dc2b7d2b5c720cf86f21a1e4dae415d754585f8ebbbeb33a5b0571f3173be",
          "transactionIndex": "0x65",
          "logIndex": "0x2c3",
          "removed": false
        },
        {
          "address": "0x872c561f699b42977c093f0ed8b4c9a431280c6c",
          "topics": [
            "0x442e715f626346e8c54381002da614f62bee8d27386535b2521ec8540898556e",
            "0x525a3a9352c0a5a32eb63f93c2176ccc8e863b8756c7c22b464f4ec8f87ab3ca"
          ],
          "data": "0x0000000000000000000000000000000000000000000000000000000000000000",
          "blockHash": "0x0000000000000000000000000000000000000000000000000000000000000000",
          "blockNumber": "0x2c9d46f",
          "blockTimestamp": "0x6a1e05c1",
          "transactionHash": "0xe63dc2b7d2b5c720cf86f21a1e4dae415d754585f8ebbbeb33a5b0571f3173be",
          "transactionIndex": "0x65",
          "logIndex": "0x2c4",
          "removed": false
        }
      ],
      "logsBloom": "0x00000000400000000000000000000000000000000000000000800000040000000008000000000000000000020000000000000000000000000000000000000000000000000000000000004000000000000001040200000000000000000000000000002000020000000000000001000800000008000000000000000000000000400000000000000000000000000000000000001000000000000000000000000000000000000400000000000000001004000000000000000000000002000000000000000000000400000000010000020000000000000000000000000000000020000000000000000000000000000000000000000000000000000000000000000000",
      "type": "0x2",
      "transactionHash": "0xe63dc2b7d2b5c720cf86f21a1e4dae415d754585f8ebbbeb33a5b0571f3173be",
      "transactionIndex": "0x65",
      "blockHash": "0x0000000000000000000000000000000000000000000000000000000000000000",
      "blockNumber": "0x2c9d46f",
      "gasUsed": "0x11105",
      "effectiveGasPrice": "0x5b8d80",
      "blobGasUsed": "0x8214",
      "from": "0xeed4c6fd992e003ca01f10a3c3e7d8b671789698",
      "to": "0x872c561f699b42977c093f0ed8b4c9a431280c6c",
      "contractAddress": null,
      "daFootprintGasScalar": "0x94",
      "l1BaseFeeScalar": "0x8dd",
      "l1BlobBaseFee": "0x937797",
      "l1BlobBaseFeeScalar": "0x101c12",
      "l1Fee": "0x62c4f838",
      "l1GasPrice": "0xa744662",
      "l1GasUsed": "0xe1e"
    },
    {
      "status": "0x1",
      "cumulativeGasUsed": "0x175453a",
      "logs": [
        {
          "address": "0x872c561f699b42977c093f0ed8b4c9a431280c6c",
          "topics": [
            "0x66753cd2356569ee081232e3be8909b950e0a76c1f8460c3a5e3c2be32b11bed"
          ],
          "data": "0x00000000000000000000000023b43f4b8902147a2ccbb3f337947ad54be711530000000000000000000000000000000000000000000000000000000000000000000000000000000000000000000000000000000000000000000000000000016000000000000000000000000000000000000000000000000000000000000000000000000000000000000000000000000000000000000000000000000000000000000000000000000000000000000000000000000000000000000000000000000000000000000000000000000000000000000000000000000000000000000000000000000000000000000000000000000000000000000000000000000000000000000000000000000000000000000000000000000000000000000000000000000000000000000000000000000000000000000000000000000000000000000001a000000000000000000000000000000000000000000000000000000000000002600000000000000000000000000000000000000000000000000000000000000004715018a6000000000000000000000000000000000000000000000000000000000000000000000000000000000000000000000000000000000000000000000082386ac8b7560969402ccbc5ef848155158b38ad078a0d234a233c78a1805309b14a39108339265226f0f254eee1b9d8299339833d13567d05d47a10aaf8263d981cbdc2584e548bb3a815b5ec2cea1b9ad4162dcd023a46675d30f9cdd6652f6a282b4e8d37d9f5db6f6717d3bc56b50d79080081ef5e02cd76e542239de8e883161c0000000000000000000000000000000000000000000000000000000000000000000000000000000000000000000000000000000000000000000000000060000000000000000000000000000000000000000000000000000000000000002a000000000000000000000000eed4c6fd992e003ca01f10a3c3e7d8b6717896980000000000000000000000000000000000000000000000000000000000000002",
          "blockHash": "0x0000000000000000000000000000000000000000000000000000000000000000",
          "blockNumber": "0x2c9d46f",
          "blockTimestamp": "0x6a1e05c1",
          "transactionHash": "0x127b30f9eff0c1c5a095a99225c8a62812f3a9de3b8f4344c57e5752f7daf391",
          "transactionIndex": "0x66",
          "logIndex": "0x2c5",
          "removed": false
        },
        {
          "address": "0x23b43f4b8902147a2ccbb3f337947ad54be71153",
          "topics": [
            "0x8be0079c531659141344cd1fd0a4f28419497f9722a3daafe3b4186f6b6457e0",
            "0x000000000000000000000000872c561f699b42977c093f0ed8b4c9a431280c6c",
            "0x0000000000000000000000000000000000000000000000000000000000000000"
          ],
          "data": "0x",
          "blockHash": "0x0000000000000000000000000000000000000000000000000000000000000000",
          "blockNumber": "0x2c9d46f",
          "blockTimestamp": "0x6a1e05c1",
          "transactionHash": "0x127b30f9eff0c1c5a095a99225c8a62812f3a9de3b8f4344c57e5752f7daf391",
          "transactionIndex": "0x66",
          "logIndex": "0x2c6",
          "removed": false
        },
        {
          "address": "0x872c561f699b42977c093f0ed8b4c9a431280c6c",
          "topics": [
            "0x442e715f626346e8c54381002da614f62bee8d27386535b2521ec8540898556e",
            "0xe94a47b48f8e471fb84ea0eb49137c72c17fe5a8468e3c46201802c7fe09e29b"
          ],
          "data": "0x0000000000000000000000000000000000000000000000000000000000000000",
          "blockHash": "0x0000000000000000000000000000000000000000000000000000000000000000",
          "blockNumber": "0x2c9d46f",
          "blockTimestamp": "0x6a1e05c1",
          "transactionHash": "0x127b30f9eff0c1c5a095a99225c8a62812f3a9de3b8f4344c57e5752f7daf391",
          "transactionIndex": "0x66",
          "logIndex": "0x2c7",
          "removed": false
        }
      ],
      "logsBloom": "0x00000000400000000000000000000000000000000000000000800000040000000008000000000040000000000000000000000000000000000000000000000000000000000000000000000000000000000001040000000000000000000000000000002000020000000000000000000800000000000000000000000000000000400000000000000000000000000000000000001000080000000000000000000000000000000400000000000000001004000000000000000000000002000000000010000000000400000000000000020000000000000000000000000000000020000000000080000000001000000020000000000000000000000000000000000000",
      "type": "0x2",
      "transactionHash": "0x127b30f9eff0c1c5a095a99225c8a62812f3a9de3b8f4344c57e5752f7daf391",
      "transactionIndex": "0x66",
      "blockHash": "0x0000000000000000000000000000000000000000000000000000000000000000",
      "blockNumber": "0x2c9d46f",
      "gasUsed": "0x110fb",
      "effectiveGasPrice": "0x5b8d80",
      "blobGasUsed": "0x8214",
      "from": "0xeed4c6fd992e003ca01f10a3c3e7d8b671789698",
      "to": "0x872c561f699b42977c093f0ed8b4c9a431280c6c",
      "contractAddress": null,
      "daFootprintGasScalar": "0x94",
      "l1BaseFeeScalar": "0x8dd",
      "l1BlobBaseFee": "0x937797",
      "l1BlobBaseFeeScalar": "0x101c12",
      "l1Fee": "0x62c4f838",
      "l1GasPrice": "0xa744662",
      "l1GasUsed": "0xe1e"
    },
    {
      "status": "0x1",
      "cumulativeGasUsed": "0x1765641",
      "logs": [
        {
          "address": "0x872c561f699b42977c093f0ed8b4c9a431280c6c",
          "topics": [
            "0x66753cd2356569ee081232e3be8909b950e0a76c1f8460c3a5e3c2be32b11bed"
          ],
          "data": "0x0000000000000000000000004c56e11b7c7a6c411bd67138df19b48d1b32d9b70000000000000000000000000000000000000000000000000000000000000000000000000000000000000000000000000000000000000000000000000000016000000000000000000000000000000000000000000000000000000000000000000000000000000000000000000000000000000000000000000000000000000000000000000000000000000000000000000000000000000000000000000000000000000000000000000000000000000000000000000000000000000000000000000000000000000000000000000000000000000000000000000000000000000000000000000000000000000000000000000000000000000000000000000000000000000000000000000000000000000000000000000000000000000000000001a000000000000000000000000000000000000000000000000000000000000002600000000000000000000000000000000000000000000000000000000000000004715018a6000000000000000000000000000000000000000000000000000000000000000000000000000000000000000000000000000000000000000000000082a54c5cc76ba25dde33c80493418d02255975e03ad220225caa555ed1644e73585021b8bc8158a00c61eba924e154268ff70b476c03141fa41a03390d82f38fac1bc4282921c22613382918bb220fc1cb1530b28785b38527c6493401432a9b05245048626bc0da2a5c7496939279ff98b7a2a07cf7e7f6f90742a00ed14c3fa1031c0000000000000000000000000000000000000000000000000000000000000000000000000000000000000000000000000000000000000000000000000060000000000000000000000000000000000000000000000000000000000000002b000000000000000000000000eed4c6fd992e003ca01f10a3c3e7d8b6717896980000000000000000000000000000000000000000000000000000000000000002",
          "blockHash": "0x0000000000000000000000000000000000000000000000000000000000000000",
          "blockNumber": "0x2c9d46f",
          "blockTimestamp": "0x6a1e05c1",
          "transactionHash": "0xd3d40918222f556eeee4c23bfdeb17e270802a03848537114cb44d15ee7c2917",
          "transactionIndex": "0x67",
          "logIndex": "0x2c8",
          "removed": false
        },
        {
          "address": "0x4c56e11b7c7a6c411bd67138df19b48d1b32d9b7",
          "topics": [
            "0x8be0079c531659141344cd1fd0a4f28419497f9722a3daafe3b4186f6b6457e0",
            "0x000000000000000000000000872c561f699b42977c093f0ed8b4c9a431280c6c",
            "0x0000000000000000000000000000000000000000000000000000000000000000"
          ],
          "data": "0x",
          "blockHash": "0x0000000000000000000000000000000000000000000000000000000000000000",
          "blockNumber": "0x2c9d46f",
          "blockTimestamp": "0x6a1e05c1",
          "transactionHash": "0xd3d40918222f556eeee4c23bfdeb17e270802a03848537114cb44d15ee7c2917",
          "transactionIndex": "0x67",
          "logIndex": "0x2c9",
          "removed": false
        },
        {
          "address": "0x872c561f699b42977c093f0ed8b4c9a431280c6c",
          "topics": [
            "0x442e715f626346e8c54381002da614f62bee8d27386535b2521ec8540898556e",
            "0x51e2a8b943e6fcb9c7229913049e3e61017defa5791d3c0fb1b8bd4c16907cbc"
          ],
          "data": "0x0000000000000000000000000000000000000000000000000000000000000000",
          "blockHash": "0x0000000000000000000000000000000000000000000000000000000000000000",
          "blockNumber": "0x2c9d46f",
          "blockTimestamp": "0x6a1e05c1",
          "transactionHash": "0xd3d40918222f556eeee4c23bfdeb17e270802a03848537114cb44d15ee7c2917",
          "transactionIndex": "0x67",
          "logIndex": "0x2ca",
          "removed": false
        }
      ],
      "logsBloom": "0x00000000400000000000000000000000000000000000000000800000040000000008000000000000000000000000000000003000000000000000000000000004000000000000000000000000010000000001040000000000000000000000000000002000020000000000000000000800000000000000000000000000000000400000000000000000000000000000000000001000200000000000000000000000000000000400000200000000001004000000000000000000000002000000000000000000000400000000000000020000000000000000000000000000000020000000000000000000000000000000000000000000000000000000000000000000",
      "type": "0x2",
      "transactionHash": "0xd3d40918222f556eeee4c23bfdeb17e270802a03848537114cb44d15ee7c2917",
      "transactionIndex": "0x67",
      "blockHash": "0x0000000000000000000000000000000000000000000000000000000000000000",
      "blockNumber": "0x2c9d46f",
      "gasUsed": "0x11107",
      "effectiveGasPrice": "0x5b8d80",
      "blobGasUsed": "0x8214",
      "from": "0xeed4c6fd992e003ca01f10a3c3e7d8b671789698",
      "to": "0x872c561f699b42977c093f0ed8b4c9a431280c6c",
      "contractAddress": null,
      "daFootprintGasScalar": "0x94",
      "l1BaseFeeScalar": "0x8dd",
      "l1BlobBaseFee": "0x937797",
      "l1BlobBaseFeeScalar": "0x101c12",
      "l1Fee": "0x62c4f838",
      "l1GasPrice": "0xa744662",
      "l1GasUsed": "0xe1e"
    },
    {
      "status": "0x1",
      "cumulativeGasUsed": "0x1776748",
      "logs": [
        {
          "address": "0x872c561f699b42977c093f0ed8b4c9a431280c6c",
          "topics": [
            "0x66753cd2356569ee081232e3be8909b950e0a76c1f8460c3a5e3c2be32b11bed"
          ],
          "data": "0x000000000000000000000000601361c2d095f39ca6c5221dda90e78ab3ba5f050000000000000000000000000000000000000000000000000000000000000000000000000000000000000000000000000000000000000000000000000000016000000000000000000000000000000000000000000000000000000000000000000000000000000000000000000000000000000000000000000000000000000000000000000000000000000000000000000000000000000000000000000000000000000000000000000000000000000000000000000000000000000000000000000000000000000000000000000000000000000000000000000000000000000000000000000000000000000000000000000000000000000000000000000000000000000000000000000000000000000000000000000000000000000000000001a000000000000000000000000000000000000000000000000000000000000002600000000000000000000000000000000000000000000000000000000000000004715018a600000000000000000000000000000000000000000000000000000000000000000000000000000000000000000000000000000000000000000000008256b9f1da39be34079fe0b03126fdd317ffa88abd0eb9fd9c70b89d9a23be913b735c29d29e78ed02870a73ddad5bdf5d22ea2b169526361edc625ff5f7db94df1c3e722eddfb878445d3c69c6c023f3a3f21ea0132d81a71fb585e73ded72935891135215848e82d026808386ea2e4594e94e2aa6b95af3da2ef7228027da640821c0000000000000000000000000000000000000000000000000000000000000000000000000000000000000000000000000000000000000000000000000060000000000000000000000000000000000000000000000000000000000000002c000000000000000000000000eed4c6fd992e003ca01f10a3c3e7d8b6717896980000000000000000000000000000000000000000000000000000000000000002",
          "blockHash": "0x0000000000000000000000000000000000000000000000000000000000000000",
          "blockNumber": "0x2c9d46f",
          "blockTimestamp": "0x6a1e05c1",
          "transactionHash": "0x14c2bc50b3a9bc0d8aa08c902d919b52beafde9ff1549952ba20473ef63c9ad2",
          "transactionIndex": "0x68",
          "logIndex": "0x2cb",
          "removed": false
        },
        {
          "address": "0x601361c2d095f39ca6c5221dda90e78ab3ba5f05",
          "topics": [
            "0x8be0079c531659141344cd1fd0a4f28419497f9722a3daafe3b4186f6b6457e0",
            "0x000000000000000000000000872c561f699b42977c093f0ed8b4c9a431280c6c",
            "0x0000000000000000000000000000000000000000000000000000000000000000"
          ],
          "data": "0x",
          "blockHash": "0x0000000000000000000000000000000000000000000000000000000000000000",
          "blockNumber": "0x2c9d46f",
          "blockTimestamp": "0x6a1e05c1",
          "transactionHash": "0x14c2bc50b3a9bc0d8aa08c902d919b52beafde9ff1549952ba20473ef63c9ad2",
          "transactionIndex": "0x68",
          "logIndex": "0x2cc",
          "removed": false
        },
        {
          "address": "0x872c561f699b42977c093f0ed8b4c9a431280c6c",
          "topics": [
            "0x442e715f626346e8c54381002da614f62bee8d27386535b2521ec8540898556e",
            "0x4731ad2620bcee75c3d5cab032cb4ce7a092be8ad23072693d71c88262d4c907"
          ],
          "data": "0x0000000000000000000000000000000000000000000000000000000000000000",
          "blockHash": "0x0000000000000000000000000000000000000000000000000000000000000000",
          "blockNumber": "0x2c9d46f",
          "blockTimestamp": "0x6a1e05c1",
          "transactionHash": "0x14c2bc50b3a9bc0d8aa08c902d919b52beafde9ff1549952ba20473ef63c9ad2",
          "transactionIndex": "0x68",
          "logIndex": "0x2cd",
          "removed": false
        }
      ],
      "logsBloom": "0x00000000400000000000000000000000000000000000000000800000040000000008000000000000000000000000000000000000000000000000000000000000000000000000000000000000000000000001040000000000000000000000000001003000020000000000000080000800000000000000000000000000000000400000000000000000000000000000000000001000000000000000000000000000000000000400000000000000001004000010000000004000000002000000000000000000000400000000000000020000000000000000000000000000000020000000000000000000000000000000000000000000000000000000000000000100",
      "type": "0x2",
      "transactionHash": "0x14c2bc50b3a9bc0d8aa08c902d919b52beafde9ff1549952ba20473ef63c9ad2",
      "transactionIndex": "0x68",
      "blockHash": "0x0000000000000000000000000000000000000000000000000000000000000000",
      "blockNumber": "0x2c9d46f",
      "gasUsed": "0x11107",
      "effectiveGasPrice": "0x5b8d80",
      "blobGasUsed": "0x8214",
      "from": "0xeed4c6fd992e003ca01f10a3c3e7d8b671789698",
      "to": "0x872c561f699b42977c093f0ed8b4c9a431280c6c",
      "contractAddress": null,
      "daFootprintGasScalar": "0x94",
      "l1BaseFeeScalar": "0x8dd",
      "l1BlobBaseFee": "0x937797",
      "l1BlobBaseFeeScalar": "0x101c12",
      "l1Fee": "0x62c4f838",
      "l1GasPrice": "0xa744662",
      "l1GasUsed": "0xe1e"
    },
    {
      "status": "0x1",
      "cumulativeGasUsed": "0x178784f",
      "logs": [
        {
          "address": "0x872c561f699b42977c093f0ed8b4c9a431280c6c",
          "topics": [
            "0x66753cd2356569ee081232e3be8909b950e0a76c1f8460c3a5e3c2be32b11bed"
          ],
          "data": "0x0000000000000000000000004d590397d2fe409a4b223906fbd0635fef30ad7c0000000000000000000000000000000000000000000000000000000000000000000000000000000000000000000000000000000000000000000000000000016000000000000000000000000000000000000000000000000000000000000000000000000000000000000000000000000000000000000000000000000000000000000000000000000000000000000000000000000000000000000000000000000000000000000000000000000000000000000000000000000000000000000000000000000000000000000000000000000000000000000000000000000000000000000000000000000000000000000000000000000000000000000000000000000000000000000000000000000000000000000000000000000000000000000001a000000000000000000000000000000000000000000000000000000000000002600000000000000000000000000000000000000000000000000000000000000004715018a60000000000000000000000000000000000000000000000000000000000000000000000000000000000000000000000000000000000000000000000820ab78136c140dcf7a7e617b19a10b54cb523bc87213b7108d3dfc64355623d250bf24a33ea347336859f296c6b1e9fb69dfd054bf533b7ccbfbe438c77b158f51b3e57bd97a795cb153e4218795cbfeaea2cd1320c67bb980bf745230e4a5b6d185a583026a15b0b59172586b57aff4ae4528b7a189116cbf15b36f05f7aeb86fb1c0000000000000000000000000000000000000000000000000000000000000000000000000000000000000000000000000000000000000000000000000060000000000000000000000000000000000000000000000000000000000000002d000000000000000000000000eed4c6fd992e003ca01f10a3c3e7d8b6717896980000000000000000000000000000000000000000000000000000000000000002",
          "blockHash": "0x0000000000000000000000000000000000000000000000000000000000000000",
          "blockNumber": "0x2c9d46f",
          "blockTimestamp": "0x6a1e05c1",
          "transactionHash": "0xb49fc21a4311cf20045892a21e38d3dacdd28b6ef433b545e99648d26783a339",
          "transactionIndex": "0x69",
          "logIndex": "0x2ce",
          "removed": false
        },
        {
          "address": "0x4d590397d2fe409a4b223906fbd0635fef30ad7c",
          "topics": [
            "0x8be0079c531659141344cd1fd0a4f28419497f9722a3daafe3b4186f6b6457e0",
            "0x000000000000000000000000872c561f699b42977c093f0ed8b4c9a431280c6c",
            "0x0000000000000000000000000000000000000000000000000000000000000000"
          ],
          "data": "0x",
          "blockHash": "0x0000000000000000000000000000000000000000000000000000000000000000",
          "blockNumber": "0x2c9d46f",
          "blockTimestamp": "0x6a1e05c1",
          "transactionHash": "0xb49fc21a4311cf20045892a21e38d3dacdd28b6ef433b545e99648d26783a339",
          "transactionIndex": "0x69",
          "logIndex": "0x2cf",
          "removed": false
        },
        {
          "address": "0x872c561f699b42977c093f0ed8b4c9a431280c6c",
          "topics": [
            "0x442e715f626346e8c54381002da614f62bee8d27386535b2521ec8540898556e",
            "0x819b716a06be724246510796cd32f994e51579428da98161be2ed174e34d320f"
          ],
          "data": "0x0000000000000000000000000000000000000000000000000000000000000000",
          "blockHash": "0x0000000000000000000000000000000000000000000000000000000000000000",
          "blockNumber": "0x2c9d46f",
          "blockTimestamp": "0x6a1e05c1",
          "transactionHash": "0xb49fc21a4311cf20045892a21e38d3dacdd28b6ef433b545e99648d26783a339",
          "transactionIndex": "0x69",
          "logIndex": "0x2d0",
          "removed": false
        }
      ],
      "logsBloom": "0x00000000400000000000000000000000000000000000000000800000040000000008000000000000000000000000000000000000000000000000000000000000000000000000000000000000000000000001040000000000000000000000000200002000020000000000000000000800000000000000000000000000000000400008000000000000000000000000000000001000000000000000000000000000000000000400000800000000001004000020000800000000000002000000000000000000000400000000000000020000000002000000000000000000000020000000000000000000000000000000000000000000000000000000000000000000",
      "type": "0x2",
      "transactionHash": "0xb49fc21a4311cf20045892a21e38d3dacdd28b6ef433b545e99648d26783a339",
      "transactionIndex": "0x69",
      "blockHash": "0x0000000000000000000000000000000000000000000000000000000000000000",
      "blockNumber": "0x2c9d46f",
      "gasUsed": "0x11107",
      "effectiveGasPrice": "0x5b8d80",
      "blobGasUsed": "0x8214",
      "from": "0xeed4c6fd992e003ca01f10a3c3e7d8b671789698",
      "to": "0x872c561f699b42977c093f0ed8b4c9a431280c6c",
      "contractAddress": null,
      "daFootprintGasScalar": "0x94",
      "l1BaseFeeScalar": "0x8dd",
      "l1BlobBaseFee": "0x937797",
      "l1BlobBaseFeeScalar": "0x101c12",
      "l1Fee": "0x62c4f838",
      "l1GasPrice": "0xa744662",
      "l1GasUsed": "0xe1e"
    },
    {
      "status": "0x1",
      "cumulativeGasUsed": "0x179893e",
      "logs": [
        {
          "address": "0x872c561f699b42977c093f0ed8b4c9a431280c6c",
          "topics": [
            "0x66753cd2356569ee081232e3be8909b950e0a76c1f8460c3a5e3c2be32b11bed"
          ],
          "data": "0x0000000000000000000000008dc32da92b89a0968bec020924491fe94573bef20000000000000000000000000000000000000000000000000000000000000000000000000000000000000000000000000000000000000000000000000000016000000000000000000000000000000000000000000000000000000000000000000000000000000000000000000000000000000000000000000000000000000000000000000000000000000000000000000000000000000000000000000000000000000000000000000000000000000000000000000000000000000000000000000000000000000000000000000000000000000000000000000000000000000000000000000000000000000000000000000000000000000000000000000000000000000000000000000000000000000000000000000000000000000000000001a000000000000000000000000000000000000000000000000000000000000002600000000000000000000000000000000000000000000000000000000000000004715018a6000000000000000000000000000000000000000000000000000000000000000000000000000000000000000000000000000000000000000000000082989125fa2b099188da690808608535d96ae9fda26eed950897a44d8c83e1489271f7649bb2c1943fbac9b852e630adb6030f13caa70b0ac3676de34e98d93ff41c7d180979832c2aadb058509416ad4d9d716d6b6c965e23d52740469782bcf3d24a6ccf36fc512c777aadec92593f1f703dd266996698accb698c08738ff911461c0000000000000000000000000000000000000000000000000000000000000000000000000000000000000000000000000000000000000000000000000060000000000000000000000000000000000000000000000000000000000000002e000000000000000000000000eed4c6fd992e003ca01f10a3c3e7d8b6717896980000000000000000000000000000000000000000000000000000000000000002",
          "blockHash": "0x8bc497eff44b23c225f6b7fa120cf9d6047c171e206dd0f4f88eca9811be16b4",
          "blockNumber": "0x2c9d46f",
          "blockTimestamp": "0x6a1e05c1",
          "transactionHash": "0xf22d9b9b059386f1a51b6ef88c7efc10c2a6a118839ac1af479cefbf403941f9",
          "transactionIndex": "0x6a",
          "logIndex": "0x2d1",
          "removed": false
        },
        {
          "address": "0x8dc32da92b89a0968bec020924491fe94573bef2",
          "topics": [
            "0x8be0079c531659141344cd1fd0a4f28419497f9722a3daafe3b4186f6b6457e0",
            "0x000000000000000000000000872c561f699b42977c093f0ed8b4c9a431280c6c",
            "0x0000000000000000000000000000000000000000000000000000000000000000"
          ],
          "data": "0x",
          "blockHash": "0x8bc497eff44b23c225f6b7fa120cf9d6047c171e206dd0f4f88eca9811be16b4",
          "blockNumber": "0x2c9d46f",
          "blockTimestamp": "0x6a1e05c1",
          "transactionHash": "0xf22d9b9b059386f1a51b6ef88c7efc10c2a6a118839ac1af479cefbf403941f9",
          "transactionIndex": "0x6a",
          "logIndex": "0x2d2",
          "removed": false
        },
        {
          "address": "0x872c561f699b42977c093f0ed8b4c9a431280c6c",
          "topics": [
            "0x442e715f626346e8c54381002da614f62bee8d27386535b2521ec8540898556e",
            "0x61e41a719ab24fe0dfc8311db11e528e333d1adfa8b8577e49704bd8daed8bb9"
          ],
          "data": "0x0000000000000000000000000000000000000000000000000000000000000000",
          "blockHash": "0x8bc497eff44b23c225f6b7fa120cf9d6047c171e206dd0f4f88eca9811be16b4",
          "blockNumber": "0x2c9d46f",
          "blockTimestamp": "0x6a1e05c1",
          "transactionHash": "0xf22d9b9b059386f1a51b6ef88c7efc10c2a6a118839ac1af479cefbf403941f9",
          "transactionIndex": "0x6a",
          "logIndex": "0x2d3",
          "removed": false
        }
      ],
      "logsBloom": "0x00000000400000000000000000004000000000000000000000800000040000000008000000000000000000000000040000000000000000000000800000000000000000000000000000000000000000000021040000000000000000000000000000002000020000000000000000000800000000000000000000000000000000400000000000000000000040000000000000001000000000000000000000000000000000000400000000000000001004000000000000000000000002000000000000000000000400008000000000020000000000000000000000000000000020000000000000000000000000000000000000000000000000000000000000000000",
      "type": "0x2",
      "transactionHash": "0xf22d9b9b059386f1a51b6ef88c7efc10c2a6a118839ac1af479cefbf403941f9",
      "transactionIndex": "0x6a",
      "blockHash": "0x8bc497eff44b23c225f6b7fa120cf9d6047c171e206dd0f4f88eca9811be16b4",
      "blockNumber": "0x2c9d46f",
      "gasUsed": "0x110ef",
      "effectiveGasPrice": "0x5b8d80",
      "blobGasUsed": "0x8214",
      "from": "0xeed4c6fd992e003ca01f10a3c3e7d8b671789698",
      "to": "0x872c561f699b42977c093f0ed8b4c9a431280c6c",
      "contractAddress": null,
      "daFootprintGasScalar": "0x94",
      "l1BaseFeeScalar": "0x8dd",
      "l1BlobBaseFee": "0x937797",
      "l1BlobBaseFeeScalar": "0x101c12",
      "l1Fee": "0xdf268f34",
      "l1GasPrice": "0xa744662",
      "l1GasUsed": "0xe1e"
    },
    {
      "status": "0x1",
      "cumulativeGasUsed": "0x17a9a21",
      "logs": [
        {
          "address": "0x872c561f699b42977c093f0ed8b4c9a431280c6c",
          "topics": [
            "0x66753cd2356569ee081232e3be8909b950e0a76c1f8460c3a5e3c2be32b11bed"
          ],
          "data": "0x00000000000000000000000093577aaa7469ef62198680bc006a45e9bd6292b30000000000000000000000000000000000000000000000000000000000000000000000000000000000000000000000000000000000000000000000000000016000000000000000000000000000000000000000000000000000000000000000000000000000000000000000000000000000000000000000000000000000000000000000000000000000000000000000000000000000000000000000000000000000000000000000000000000000000000000000000000000000000000000000000000000000000000000000000000000000000000000000000000000000000000000000000000000000000000000000000000000000000000000000000000000000000000000000000000000000000000000000000000000000000000000001a000000000000000000000000000000000000000000000000000000000000002600000000000000000000000000000000000000000000000000000000000000004715018a60000000000000000000000000000000000000000000000000000000000000000000000000000000000000000000000000000000000000000000000820a2ed62fa707fe21d858f6f67499382e50434ec092915d6fff26383576d2a4c072d806aea45779e3fba5fe013a1f679db74137fd35b055d9cf88b7fa619f51501b4a3816fa08669cc424ddd9b4882b7d80d3036ad8161e69beb7922ee2d27e367a1b2477f272825d3d3c514a98fc7e6efcc6d1452dadb69dc5915dae52f3e506cd1c0000000000000000000000000000000000000000000000000000000000000000000000000000000000000000000000000000000000000000000000000060000000000000000000000000000000000000000000000000000000000000002f000000000000000000000000eed4c6fd992e003ca01f10a3c3e7d8b6717896980000000000000000000000000000000000000000000000000000000000000002",
          "blockHash": "0x0000000000000000000000000000000000000000000000000000000000000000",
          "blockNumber": "0x2c9d46f",
          "blockTimestamp": "0x6a1e05c1",
          "transactionHash": "0xb26274dbdd25ae6cd08337df2ca4d8db987a16d6bfaf80ba84f45c6143e4e2bf",
          "transactionIndex": "0x6b",
          "logIndex": "0x2d4",
          "removed": false
        },
        {
          "address": "0x93577aaa7469ef62198680bc006a45e9bd6292b3",
          "topics": [
            "0x8be0079c531659141344cd1fd0a4f28419497f9722a3daafe3b4186f6b6457e0",
            "0x000000000000000000000000872c561f699b42977c093f0ed8b4c9a431280c6c",
            "0x0000000000000000000000000000000000000000000000000000000000000000"
          ],
          "data": "0x",
          "blockHash": "0x0000000000000000000000000000000000000000000000000000000000000000",
          "blockNumber": "0x2c9d46f",
          "blockTimestamp": "0x6a1e05c1",
          "transactionHash": "0xb26274dbdd25ae6cd08337df2ca4d8db987a16d6bfaf80ba84f45c6143e4e2bf",
          "transactionIndex": "0x6b",
          "logIndex": "0x2d5",
          "removed": false
        },
        {
          "address": "0x872c561f699b42977c093f0ed8b4c9a431280c6c",
          "topics": [
            "0x442e715f626346e8c54381002da614f62bee8d27386535b2521ec8540898556e",
            "0x8f280d5aea5b185e49068f0a136e361a9702cab2e964d6c4b6f9fa085e81a2a1"
          ],
          "data": "0x0000000000000000000000000000000000000000000000000000000000000000",
          "blockHash": "0x0000000000000000000000000000000000000000000000000000000000000000",
          "blockNumber": "0x2c9d46f",
          "blockTimestamp": "0x6a1e05c1",
          "transactionHash": "0xb26274dbdd25ae6cd08337df2ca4d8db987a16d6bfaf80ba84f45c6143e4e2bf",
          "transactionIndex": "0x6b",
          "logIndex": "0x2d6",
          "removed": false
        }
      ],
      "logsBloom": "0x00000000400000080000000000000000000000001000000000800000040000000008000000000000000000000000000000000000000000000000000000000000000000000000000000000000000000000001040000000000000000000000000000002000020000000000000000000800000000000000000000000000000000400000000000000000001000000000000000001000000000000000000000000400000000000400000000000000001004000000000000000000000002000000000000000000000400000000000000020000000000000000000000000000000020000000000000000000000000000000000000000400000000000000040000000000",
      "type": "0x2",
      "transactionHash": "0xb26274dbdd25ae6cd08337df2ca4d8db987a16d6bfaf80ba84f45c6143e4e2bf",
      "transactionIndex": "0x6b",
      "blockHash": "0x0000000000000000000000000000000000000000000000000000000000000000",
      "blockNumber": "0x2c9d46f",
      "gasUsed": "0x110e3",
      "effectiveGasPrice": "0x5b8d80",
      "blobGasUsed": "0x8214",
      "from": "0xeed4c6fd992e003ca01f10a3c3e7d8b671789698",
      "to": "0x872c561f699b42977c093f0ed8b4c9a431280c6c",
      "contractAddress": null,
      "daFootprintGasScalar": "0x94",
      "l1BaseFeeScalar": "0x8dd",
      "l1BlobBaseFee": "0x937797",
      "l1BlobBaseFeeScalar": "0x101c12",
      "l1Fee": "0x62c4f838",
      "l1GasPrice": "0xa744662",
      "l1GasUsed": "0xe1e"
    }
  ],
  "libraries": [],
  "pending": [],
  "returns": {},
  "timestamp": 1780352450111,
  "chain": 8453,
  "commit": "b7e9519"
}