{
  "transactions": [
    {
      "hash": "0x5bfdf9f13934eda9d0e4a534860a7d5c17bd75864ccc7a95218bbdcd213a676e",
      "transactionType": "CALL",
      "contractName": null,
      "contractAddress": "0x872c561f699b42977c093f0ed8b4c9a431280c6c",
      "function": "execTransaction(address,uint256,bytes,uint8,uint256,uint256,uint256,address,address,bytes)",
      "arguments": [
        "0xBBBBBbbBBb9cC5e90e3b3Af64bdAF62C37EEFFCb",
        "0",
        "0x8c1358a2000000000000000000000000f4d97f2da56e8c3098f3a8d538db630a2606a024000000000000000000000000b9f23c33ffd2213f31c0cfb6c9e2fdf525a9dd2d000000000000000000000000e762e8011d453853638d1978398df8b1d383a2d900000000000000000000000046415998764c29ab2a25cbea6254146d50d226870000000000000000000000000000000000000000000000000aaf96eb9d0d0000",
        "0",
        "0",
        "0",
        "0",
        "0x0000000000000000000000000000000000000000",
        "0x0000000000000000000000000000000000000000",
        "0x0b95460bea6d1fc59b76f4079f4b45cccb2e5125e0a36dd038836fd1a45d1a2c652f908e1518a207e32254eeb7dae31a5d3ec1fdfa290e0a2c5cd7e8a9b7ff1a1ca32d881694bdba710cc0405a4cd2f6af59a3c0fb89716f5324ec056d049992e5370d4bf6e46df95fd0a6a6bf5f5aaf0a2942d87407e777c74fd1721d99e707bf1b"
      ],
      "transaction": {
        "from": "0x10900528c57bbce07c223b25ae9bb66966274b5d",
        "to": "0x872c561f699b42977c093f0ed8b4c9a431280c6c",
        "gas": "0x57baf",
        "value": "0x0",
        "input": "0x6a761202000000000000000000000000bbbbbbbbbb9cc5e90e3b3af64bdaf62c37eeffcb00000000000000000000000000000000000000000000000000000000000000000000000000000000000000000000000000000000000000000000000000000140000000000000000000000000000000000000000000000000000000000000000000000000000000000000000000000000000000000000000000000000000000000000000000000000000000000000000000000000000000000000000000000000000000000000000000000000000000000000000000000000000000000000000000000000000000000000000000000000000000000000000000000000000000000000000000000000000000000000000000000000000000000000000000000000000000000000000000000000000000000000000000000000000000000000022000000000000000000000000000000000000000000000000000000000000000a48c1358a2000000000000000000000000f4d97f2da56e8c3098f3a8d538db630a2606a024000000000000000000000000b9f23c33ffd2213f31c0cfb6c9e2fdf525a9dd2d000000000000000000000000e762e8011d453853638d1978398df8b1d383a2d900000000000000000000000046415998764c29ab2a25cbea6254146d50d226870000000000000000000000000000000000000000000000000aaf96eb9d0d00000000000000000000000000000000000000000000000000000000000000000000000000000000000000000000000000000000000000000000000000820b95460bea6d1fc59b76f4079f4b45cccb2e5125e0a36dd038836fd1a45d1a2c652f908e1518a207e32254eeb7dae31a5d3ec1fdfa290e0a2c5cd7e8a9b7ff1a1ca32d881694bdba710cc0405a4cd2f6af59a3c0fb89716f5324ec056d049992e5370d4bf6e46df95fd0a6a6bf5f5aaf0a2942d87407e777c74fd1721d99e707bf1b000000000000000000000000000000000000000000000000000000000000",
        "nonce": "0x20",
        "chainId": "0x2105"
      },
      "additionalContracts": [],
      "isFixedGasLimit": false
    }
  ],
  "receipts": [
    {
      "status": "0x1",
      "cumulativeGasUsed": "0x3a7cf91",
      "logs": [
        {
          "address": "0x872c561f699b42977c093f0ed8b4c9a431280c6c",
          "topics": [
            "0x66753cd2356569ee081232e3be8909b950e0a76c1f8460c3a5e3c2be32b11bed"
          ],
          "data": "0x000000000000000000000000bbbbbbbbbb9cc5e90e3b3af64bdaf62c37eeffcb000000000000000000000000000000000000000000000000000000000000000000000000000000000000000000000000000000000000000000000000000001600000000000000000000000000000000000000000000000000000000000000000000000000000000000000000000000000000000000000000000000000000000000000000000000000000000000000000000000000000000000000000000000000000000000000000000000000000000000000000000000000000000000000000000000000000000000000000000000000000000000000000000000000000000000000000000000000000000000000000000000000000000000000000000000000000000000000000000000000000000000000000000000000000000000000240000000000000000000000000000000000000000000000000000000000000030000000000000000000000000000000000000000000000000000000000000000a48c1358a2000000000000000000000000f4d97f2da56e8c3098f3a8d538db630a2606a024000000000000000000000000b9f23c33ffd2213f31c0cfb6c9e2fdf525a9dd2d000000000000000000000000e762e8011d453853638d1978398df8b1d383a2d900000000000000000000000046415998764c29ab2a25cbea6254146d50d226870000000000000000000000000000000000000000000000000aaf96eb9d0d00000000000000000000000000000000000000000000000000000000000000000000000000000000000000000000000000000000000000000000000000820b95460bea6d1fc59b76f4079f4b45cccb2e5125e0a36dd038836fd1a45d1a2c652f908e1518a207e32254eeb7dae31a5d3ec1fdfa290e0a2c5cd7e8a9b7ff1a1ca32d881694bdba710cc0405a4cd2f6af59a3c0fb89716f5324ec056d049992e5370d4bf6e46df95fd0a6a6bf5f5aaf0a2942d87407e777c74fd1721d99e707bf1b0000000000000000000000000000000000000000000000000000000000000000000000000000000000000000000000000000000000000000000000000060000000000000000000000000000000000000000000000000000000000000004500000000000000000000000010900528c57bbce07c223b25ae9bb66966274b5d0000000000000000000000000000000000000000000000000000000000000002",
          "blockHash": "0x0010a172d3a9dcb7ca26010818e0ec6ade81b7bace61cd202a72fc7cc993e7b7",
          "blockNumber": "0x2cb31ab",
          "blockTimestamp": "0x6a20c039",
          "transactionHash": "0x5bfdf9f13934eda9d0e4a534860a7d5c17bd75864ccc7a95218bbdcd213a676e",
          "transactionIndex": "0x2f7",
          "logIndex": "0x2e8",
          "removed": false
        },
        {
          "address": "0xbbbbbbbbbb9cc5e90e3b3af64bdaf62c37eeffcb",
          "topics": [
            "0xac4b2400f169220b0c0afdde7a0b32e775ba727ea1cb30b35f935cdaab8683ac",
            "0x0943d95ec274bae5b0c3658cc5ead90d822aa9f8809dfc798780a2e652e72f2c"
          ],
          "data": "0x000000000000000000000000f4d97f2da56e8c3098f3a8d538db630a2606a024000000000000000000000000b9f23c33ffd2213f31c0cfb6c9e2fdf525a9dd2d000000000000000000000000e762e8011d453853638d1978398df8b1d383a2d900000000000000000000000046415998764c29ab2a25cbea6254146d50d226870000000000000000000000000000000000000000000000000aaf96eb9d0d0000",
          "blockHash": "0x0010a172d3a9dcb7ca26010818e0ec6ade81b7bace61cd202a72fc7cc993e7b7",
          "blockNumber": "0x2cb31ab",
          "blockTimestamp": "0x6a20c039",
          "transactionHash": "0x5bfdf9f13934eda9d0e4a534860a7d5c17bd75864ccc7a95218bbdcd213a676e",
          "transactionIndex": "0x2f7",
          "logIndex": "0x2e9",
          "removed": false
        },
        {
          "address": "0x46415998764c29ab2a25cbea6254146d50d22687",
          "topics": [
            "0x7120161a7b3d31251e01294ab351ef15a41b91659a36032e4641bb89b121e321",
            "0x0943d95ec274bae5b0c3658cc5ead90d822aa9f8809dfc798780a2e652e72f2c"
          ],
          "data": "0x0000000000000000000000000000000000000000000000000000000012e687bf000000000000000000000000000000000000000000000000000000004b9a1eff",
          "blockHash": "0x0010a172d3a9dcb7ca26010818e0ec6ade81b7bace61cd202a72fc7cc993e7b7",
          "blockNumber": "0x2cb31ab",
          "blockTimestamp": "0x6a20c039",
          "transactionHash": "0x5bfdf9f13934eda9d0e4a534860a7d5c17bd75864ccc7a95218bbdcd213a676e",
          "transactionIndex": "0x2f7",
          "logIndex": "0x2ea",
          "removed": false
        },
        {
          "address": "0x872c561f699b42977c093f0ed8b4c9a431280c6c",
          "topics": [
            "0x442e715f626346e8c54381002da614f62bee8d27386535b2521ec8540898556e",
            "0xfd5b6ebadd509871695a32533195a3aad388840df1a5aab14eefb28d8c4a25f9"
          ],
          "data": "0x0000000000000000000000000000000000000000000000000000000000000000",
          "blockHash": "0x0010a172d3a9dcb7ca26010818e0ec6ade81b7bace61cd202a72fc7cc993e7b7",
          "blockNumber": "0x2cb31ab",
          "blockTimestamp": "0x6a20c039",
          "transactionHash": "0x5bfdf9f13934eda9d0e4a534860a7d5c17bd75864ccc7a95218bbdcd213a676e",
          "transactionIndex": "0x2f7",
          "logIndex": "0x2eb",
          "removed": false
        }
      ],
      "logsBloom": "0x00000000400000000000000020000800000000000000000000000000040000000000000000000100000000000000000000000000000000000000000000804000000000000010000000000000000000000000040001000000000000000000000000202000000000000000000000000000000000000000000000000040000000000000000000000008000000000000000000000000000000000008000000000000000000000400000000000000000004000000000000000000000002000000000020000000000400000000000002020000000100000000000000000000000000000000000000000000000000000001000000020000000000000000000000000010",
      "type": "0x2",
      "transactionHash": "0x5bfdf9f13934eda9d0e4a534860a7d5c17bd75864ccc7a95218bbdcd213a676e",
      "transactionIndex": "0x2f7",
      "blockHash": "0x0010a172d3a9dcb7ca26010818e0ec6ade81b7bace61cd202a72fc7cc993e7b7",
      "blockNumber": "0x2cb31ab",
      "gasUsed": "0x3bfc9",
      "effectiveGasPrice": "0x7aca3cd",
      "blobGasUsed": "0xb61c",
      "from": "0x10900528c57bbce07c223b25ae9bb66966274b5d",
      "to": "0x872c561f699b42977c093f0ed8b4c9a431280c6c",
      "contractAddress": null,
      "daFootprintGasScalar": "0x94",
      "l1BaseFeeScalar": "0x8dd",
      "l1BlobBaseFee": "0xc6167d",
      "l1BlobBaseFeeScalar": "0x101c12",
      "l1Fee": "0x184e2c7a3",
      "l1GasPrice": "0xb74e6c9",
      "l1GasUsed": "0x13b6"
    }
  ],
  "libraries": [],
  "pending": [],
  "returns": {},
  "timestamp": 1780531258264,
  "chain": 8453,
  "commit": "f7aa400"
}