{
  "transactions": [
    {
      "hash": "0x2334af4a82f4afcb3d134dfe9d432d233a5edd8285f0085542e2f829259fce16",
      "transactionType": "CALL",
      "contractName": null,
      "contractAddress": "0x833589fcd6edb6e08f4c7c32d4f71b54bda02913",
      "function": "approve(address,uint256)",
      "arguments": [
        "0x91b3E39Ef6335D97876AdB4448A998c7cbD3885F",
        "25930853"
      ],
      "transaction": {
        "from": "0x988ce72d127b8a06821bbb3708897dbdc0d66f2f",
        "to": "0x833589fcd6edb6e08f4c7c32d4f71b54bda02913",
        "gas": "0x13cc6",
        "value": "0x0",
        "input": "0x095ea7b300000000000000000000000091b3e39ef6335d97876adb4448a998c7cbd3885f00000000000000000000000000000000000000000000000000000000018bac65",
        "nonce": "0x0",
        "chainId": "0x2105"
      },
      "additionalContracts": [],
      "isFixedGasLimit": false
    },
    {
      "hash": "0x7424e4831af5bd4034b4c74f23417c243238f9b79f978f4763f5e748a22052a8",
      "transactionType": "CALL",
      "contractName": null,
      "contractAddress": "0x91b3e39ef6335d97876adb4448a998c7cbd3885f",
      "function": "receiveSettlement(uint256)",
      "arguments": [
        "25930853"
      ],
      "transaction": {
        "from": "0x988ce72d127b8a06821bbb3708897dbdc0d66f2f",
        "to": "0x91b3e39ef6335d97876adb4448a998c7cbd3885f",
        "gas": "0x15d8a",
        "value": "0x0",
        "input": "0xdef3d30700000000000000000000000000000000000000000000000000000000018bac65",
        "nonce": "0x1",
        "chainId": "0x2105"
      },
      "additionalContracts": [],
      "isFixedGasLimit": false
    },
    {
      "hash": "0x43faa79673c9aa16693efe87139e49373009ebc35242138d080e44a312a637c1",
      "transactionType": "CALL",
      "contractName": null,
      "contractAddress": "0x91b3e39ef6335d97876adb4448a998c7cbd3885f",
      "function": "routeYield(uint256)",
      "arguments": [
        "17350115467415860"
      ],
      "transaction": {
        "from": "0x988ce72d127b8a06821bbb3708897dbdc0d66f2f",
        "to": "0x91b3e39ef6335d97876adb4448a998c7cbd3885f",
        "gas": "0x8590c",
        "value": "0x0",
        "input": "0x07387fd9000000000000000000000000000000000000000000000000003da3d68d3f5134",
        "nonce": "0x2",
        "chainId": "0x2105"
      },
      "additionalContracts": [],
      "isFixedGasLimit": false
    }
  ],
  "receipts": [
    {
      "status": "0x1",
      "cumulativeGasUsed": "0x1033f37",
      "logs": [
        {
          "address": "0x833589fcd6edb6e08f4c7c32d4f71b54bda02913",
          "topics": [
            "0x8c5be1e5ebec7d5bd14f71427d1e84f3dd0314c0f7b2291e5b200ac8c7c3b925",
            "0x000000000000000000000000988ce72d127b8a06821bbb3708897dbdc0d66f2f",
            "0x00000000000000000000000091b3e39ef6335d97876adb4448a998c7cbd3885f"
          ],
          "data": "0x00000000000000000000000000000000000000000000000000000000018bac65",
          "blockHash": "0x0000000000000000000000000000000000000000000000000000000000000000",
          "blockNumber": "0x2d11f09",
          "blockTimestamp": "0x6a2c9af5",
          "transactionHash": "0x2334af4a82f4afcb3d134dfe9d432d233a5edd8285f0085542e2f829259fce16",
          "transactionIndex": "0x4c",
          "logIndex": "0x1b7",
          "removed": false
        }
      ],
      "logsBloom": "0x00000000000000000000000000000000000800000000000000000000000008000002000010000000000000000000110000000000000000000000000000200000000000000000000000000000000008000000000000080000000000000000000000800000000000000000000000000000000000000000000000000000000000000000000000000000000000000000000000000000000000000000000000000000020000000000000000000000000000000000000000000000000000000000000000000000000000000000000000000000000000000000000000000000000000000010000000000000000000000000000000000000000000000000000000000000",
      "type": "0x2",
      "transactionHash": "0x2334af4a82f4afcb3d134dfe9d432d233a5edd8285f0085542e2f829259fce16",
      "transactionIndex": "0x4c",
      "blockHash": "0x0000000000000000000000000000000000000000000000000000000000000000",
      "blockNumber": "0x2d11f09",
      "gasUsed": "0xd899",
      "effectiveGasPrice": "0x4c4b8d",
      "blobGasUsed": "0x39d0",
      "from": "0x988ce72d127b8a06821bbb3708897dbdc0d66f2f",
      "to": "0x833589fcd6edb6e08f4c7c32d4f71b54bda02913",
      "contractAddress": null,
      "daFootprintGasScalar": "0x94",
      "l1BaseFeeScalar": "0x8dd",
      "l1BlobBaseFee": "0x73778c",
      "l1BlobBaseFeeScalar": "0x101c12",
      "l1Fee": "0x4cee0807",
      "l1GasPrice": "0x812d7c7",
      "l1GasUsed": "0x640"
    },
    {
      "status": "0x1",
      "cumulativeGasUsed": "0x1043c47",
      "logs": [
        {
          "address": "0x833589fcd6edb6e08f4c7c32d4f71b54bda02913",
          "topics": [
            "0xddf252ad1be2c89b69c2b068fc378daa952ba7f163c4a11628f55a4df523b3ef",
            "0x000000000000000000000000988ce72d127b8a06821bbb3708897dbdc0d66f2f",
            "0x00000000000000000000000091b3e39ef6335d97876adb4448a998c7cbd3885f"
          ],
          "data": "0x00000000000000000000000000000000000000000000000000000000018bac65",
          "blockHash": "0x0000000000000000000000000000000000000000000000000000000000000000",
          "blockNumber": "0x2d11f09",
          "blockTimestamp": "0x6a2c9af5",
          "transactionHash": "0x43faa79673c9aa16693efe87139e49373009ebc35242138d080e44a312a637c1",
          "transactionIndex": "0x4d",
          "logIndex": "0x1b8",
          "removed": false
        },
        {
          "address": "0x91b3e39ef6335d97876adb4448a998c7cbd3885f",
          "topics": [
            "0x8a92d411665ba2871660087c41aa031d8328805f31550763ecee1791ac6e377a"
          ],
          "data": "0x00000000000000000000000000000000000000000000000000000000018bac65",
          "blockHash": "0x0000000000000000000000000000000000000000000000000000000000000000",
          "blockNumber": "0x2d11f09",
          "blockTimestamp": "0x6a2c9af5",
          "transactionHash": "0x43faa79673c9aa16693efe87139e49373009ebc35242138d080e44a312a637c1",
          "transactionIndex": "0x4d",
          "logIndex": "0x1b9",
          "removed": false
        }
      ],
      "logsBloom": "0x00000000000000000000000000000000000800000000000000000000000008000002000010000000000000000000110000000000000000000000080001000000000000000000000000000008000008000000000000080000000002000000000000800000000000000000000000000000000000000000000000000010000000000000000000000000000000000000000000000000000000000000000000000040000000000000000000000000000000000200000000000000000000000000000000000002000000000000000000000000000000000000000000000000000000000000000000000000000000000000000000000001000000000000000000000000",
      "type": "0x2",
      "transactionHash": "0x43faa79673c9aa16693efe87139e49373009ebc35242138d080e44a312a637c1",
      "transactionIndex": "0x4d",
      "blockHash": "0x0000000000000000000000000000000000000000000000000000000000000000",
      "blockNumber": "0x2d11f09",
      "gasUsed": "0xfd10",
      "effectiveGasPrice": "0x4c4b8d",
      "blobGasUsed": "0x39d0",
      "from": "0x988ce72d127b8a06821bbb3708897dbdc0d66f2f",
      "to": "0x91b3e39ef6335d97876adb4448a998c7cbd3885f",
      "contractAddress": null,
      "daFootprintGasScalar": "0x94",
      "l1BaseFeeScalar": "0x8dd",
      "l1BlobBaseFee": "0x73778c",
      "l1BlobBaseFeeScalar": "0x101c12",
      "l1Fee": "0x4cee0807",
      "l1GasPrice": "0x812d7c7",
      "l1GasUsed": "0x640"
    },
    {
      "status": "0x1",
      "cumulativeGasUsed": "0x109f182",
      "logs": [
        {
          "address": "0x833589fcd6edb6e08f4c7c32d4f71b54bda02913",
          "topics": [
            "0x8c5be1e5ebec7d5bd14f71427d1e84f3dd0314c0f7b2291e5b200ac8c7c3b925",
            "0x00000000000000000000000091b3e39ef6335d97876adb4448a998c7cbd3885f",
            "0x0000000000000000000000002626664c2603336e57b271c5c0b26f421741e481"
          ],
          "data": "0x00000000000000000000000000000000000000000000000000000000018bac65",
          "blockHash": "0x0000000000000000000000000000000000000000000000000000000000000000",
          "blockNumber": "0x2d11f09",
          "blockTimestamp": "0x6a2c9af5",
          "transactionHash": "0x7424e4831af5bd4034b4c74f23417c243238f9b79f978f4763f5e748a22052a8",
          "transactionIndex": "0x4e",
          "logIndex": "0x1ba",
          "removed": false
        },
        {
          "address": "0x4200000000000000000000000000000000000006",
          "topics": [
            "0xddf252ad1be2c89b69c2b068fc378daa952ba7f163c4a11628f55a4df523b3ef",
            "0x000000000000000000000000d0b53d9277642d899df5c87a3966a349a798f224",
            "0x0000000000000000000000002626664c2603336e57b271c5c0b26f421741e481"
          ],
          "data": "0x00000000000000000000000000000000000000000000000000375cfea31f7639",
          "blockHash": "0x0000000000000000000000000000000000000000000000000000000000000000",
          "blockNumber": "0x2d11f09",
          "blockTimestamp": "0x6a2c9af5",
          "transactionHash": "0x7424e4831af5bd4034b4c74f23417c243238f9b79f978f4763f5e748a22052a8",
          "transactionIndex": "0x4e",
          "logIndex": "0x1bb",
          "removed": false
        },
        {
          "address": "0x833589fcd6edb6e08f4c7c32d4f71b54bda02913",
          "topics": [
            "0xddf252ad1be2c89b69c2b068fc378daa952ba7f163c4a11628f55a4df523b3ef",
            "0x00000000000000000000000091b3e39ef6335d97876adb4448a998c7cbd3885f",
            "0x000000000000000000000000d0b53d9277642d899df5c87a3966a349a798f224"
          ],
          "data": "0x00000000000000000000000000000000000000000000000000000000018bac65",
          "blockHash": "0x0000000000000000000000000000000000000000000000000000000000000000",
          "blockNumber": "0x2d11f09",
          "blockTimestamp": "0x6a2c9af5",
          "transactionHash": "0x7424e4831af5bd4034b4c74f23417c243238f9b79f978f4763f5e748a22052a8",
          "transactionIndex": "0x4e",
          "logIndex": "0x1bc",
          "removed": false
        },
        {
          "address": "0xd0b53d9277642d899df5c87a3966a349a798f224",
          "topics": [
            "0xc42079f94a6350d7e6235f29174924f928cc2ac818eb64fed8004e115fbcca67",
            "0x0000000000000000000000002626664c2603336e57b271c5c0b26f421741e481",
            "0x0000000000000000000000002626664c2603336e57b271c5c0b26f421741e481"
          ],
          "data": "0xffffffffffffffffffffffffffffffffffffffffffffffffffc8a3015ce089c700000000000000000000000000000000000000000000000000000000018bac6500000000000000000000000000000000000000000002ac359f85bdae1bebccb70000000000000000000000000000000000000000000000001136df951d518942fffffffffffffffffffffffffffffffffffffffffffffffffffffffffffcea54",
          "blockHash": "0x0000000000000000000000000000000000000000000000000000000000000000",
          "blockNumber": "0x2d11f09",
          "blockTimestamp": "0x6a2c9af5",
          "transactionHash": "0x7424e4831af5bd4034b4c74f23417c243238f9b79f978f4763f5e748a22052a8",
          "transactionIndex": "0x4e",
          "logIndex": "0x1bd",
          "removed": false
        },
        {
          "address": "0xf4d97f2da56e8c3098f3a8d538db630a2606a024",
          "topics": [
            "0xddf252ad1be2c89b69c2b068fc378daa952ba7f163c4a11628f55a4df523b3ef",
            "0x00000000000000000000000080d995189ecc593672ad4703b250a5e82672eb1d",
            "0x00000000000000000000000091b3e39ef6335d97876adb4448a998c7cbd3885f"
          ],
          "data": "0x000000000000000000000000000000000000000000000000003ee5ba14776d04",
          "blockHash": "0x0000000000000000000000000000000000000000000000000000000000000000",
          "blockNumber": "0x2d11f09",
          "blockTimestamp": "0x6a2c9af5",
          "transactionHash": "0x7424e4831af5bd4034b4c74f23417c243238f9b79f978f4763f5e748a22052a8",
          "transactionIndex": "0x4e",
          "logIndex": "0x1be",
          "removed": false
        },
        {
          "address": "0x4200000000000000000000000000000000000006",
          "topics": [
            "0xddf252ad1be2c89b69c2b068fc378daa952ba7f163c4a11628f55a4df523b3ef",
            "0x0000000000000000000000002626664c2603336e57b271c5c0b26f421741e481",
            "0x00000000000000000000000080d995189ecc593672ad4703b250a5e82672eb1d"
          ],
          "data": "0x00000000000000000000000000000000000000000000000000375cfea31f7639",
          "blockHash": "0x0000000000000000000000000000000000000000000000000000000000000000",
          "blockNumber": "0x2d11f09",
          "blockTimestamp": "0x6a2c9af5",
          "transactionHash": "0x7424e4831af5bd4034b4c74f23417c243238f9b79f978f4763f5e748a22052a8",
          "transactionIndex": "0x4e",
          "logIndex": "0x1bf",
          "removed": false
        },
        {
          "address": "0x80d995189ecc593672ad4703b250a5e82672eb1d",
          "topics": [
            "0xc42079f94a6350d7e6235f29174924f928cc2ac818eb64fed8004e115fbcca67",
            "0x0000000000000000000000002626664c2603336e57b271c5c0b26f421741e481",
            "0x00000000000000000000000091b3e39ef6335d97876adb4448a998c7cbd3885f"
          ],
          "data": "0x00000000000000000000000000000000000000000000000000375cfea31f7639ffffffffffffffffffffffffffffffffffffffffffffffffffc11a45eb8892fc0000000000000000000000000000000000000001123c3066bd9881cc3da39e89000000000000000000000000000000000000000000000029331a06a7985c9ed20000000000000000000000000000000000000000000000000000000000000560",
          "blockHash": "0x0000000000000000000000000000000000000000000000000000000000000000",
          "blockNumber": "0x2d11f09",
          "blockTimestamp": "0x6a2c9af5",
          "transactionHash": "0x7424e4831af5bd4034b4c74f23417c243238f9b79f978f4763f5e748a22052a8",
          "transactionIndex": "0x4e",
          "logIndex": "0x1c0",
          "removed": false
        },
        {
          "address": "0xf4d97f2da56e8c3098f3a8d538db630a2606a024",
          "topics": [
            "0x8c5be1e5ebec7d5bd14f71427d1e84f3dd0314c0f7b2291e5b200ac8c7c3b925",
            "0x00000000000000000000000091b3e39ef6335d97876adb4448a998c7cbd3885f",
            "0x000000000000000000000000e49fa849cb37b0e7a42b2335e333fb99474167ba"
          ],
          "data": "0x00000000000000000000000000000000000000000000000000389b8ddf384884",
          "blockHash": "0x0000000000000000000000000000000000000000000000000000000000000000",
          "blockNumber": "0x2d11f09",
          "blockTimestamp": "0x6a2c9af5",
          "transactionHash": "0x7424e4831af5bd4034b4c74f23417c243238f9b79f978f4763f5e748a22052a8",
          "transactionIndex": "0x4e",
          "logIndex": "0x1c1",
          "removed": false
        },
        {
          "address": "0xf4d97f2da56e8c3098f3a8d538db630a2606a024",
          "topics": [
            "0xddf252ad1be2c89b69c2b068fc378daa952ba7f163c4a11628f55a4df523b3ef",
            "0x00000000000000000000000091b3e39ef6335d97876adb4448a998c7cbd3885f",
            "0x000000000000000000000000e49fa849cb37b0e7a42b2335e333fb99474167ba"
          ],
          "data": "0x00000000000000000000000000000000000000000000000000389b8ddf384884",
          "blockHash": "0x0000000000000000000000000000000000000000000000000000000000000000",
          "blockNumber": "0x2d11f09",
          "blockTimestamp": "0x6a2c9af5",
          "transactionHash": "0x7424e4831af5bd4034b4c74f23417c243238f9b79f978f4763f5e748a22052a8",
          "transactionIndex": "0x4e",
          "logIndex": "0x1c2",
          "removed": false
        },
        {
          "address": "0xe49fa849cb37b0e7a42b2335e333fb99474167ba",
          "topics": [
            "0xddf252ad1be2c89b69c2b068fc378daa952ba7f163c4a11628f55a4df523b3ef",
            "0x0000000000000000000000000000000000000000000000000000000000000000",
            "0x0000000000000000000000002afe303f4abd285631872c5a971e5d32fbf1e087"
          ],
          "data": "0x0000000000000000000000000000000000000000000000000002d493e4c2d06d",
          "blockHash": "0x0000000000000000000000000000000000000000000000000000000000000000",
          "blockNumber": "0x2d11f09",
          "blockTimestamp": "0x6a2c9af5",
          "transactionHash": "0x7424e4831af5bd4034b4c74f23417c243238f9b79f978f4763f5e748a22052a8",
          "transactionIndex": "0x4e",
          "logIndex": "0x1c3",
          "removed": false
        },
        {
          "address": "0xf4d97f2da56e8c3098f3a8d538db630a2606a024",
          "topics": [
            "0xddf252ad1be2c89b69c2b068fc378daa952ba7f163c4a11628f55a4df523b3ef",
            "0x000000000000000000000000e49fa849cb37b0e7a42b2335e333fb99474167ba",
            "0x000000000000000000000000f4d97f2da56e8c3098f3a8d538db630a2606a024"
          ],
          "data": "0x00000000000000000000000000000000000000000000000000389b8ddf384884",
          "blockHash": "0x0000000000000000000000000000000000000000000000000000000000000000",
          "blockNumber": "0x2d11f09",
          "blockTimestamp": "0x6a2c9af5",
          "transactionHash": "0x7424e4831af5bd4034b4c74f23417c243238f9b79f978f4763f5e748a22052a8",
          "transactionIndex": "0x4e",
          "logIndex": "0x1c4",
          "removed": false
        },
        {
          "address": "0xf4d97f2da56e8c3098f3a8d538db630a2606a024",
          "topics": [
            "0x9e71bc8eea02a63969f509818f2dafb9254532904319f9dbda79b67bd34a5f3d",
            "0x000000000000000000000000e49fa849cb37b0e7a42b2335e333fb99474167ba"
          ],
          "data": "0x00000000000000000000000000000000000000000000000000389b8ddf384884",
          "blockHash": "0x0000000000000000000000000000000000000000000000000000000000000000",
          "blockNumber": "0x2d11f09",
          "blockTimestamp": "0x6a2c9af5",
          "transactionHash": "0x7424e4831af5bd4034b4c74f23417c243238f9b79f978f4763f5e748a22052a8",
          "transactionIndex": "0x4e",
          "logIndex": "0x1c5",
          "removed": false
        },
        {
          "address": "0xe49fa849cb37b0e7a42b2335e333fb99474167ba",
          "topics": [
            "0xacbd54b264ff56c8ad2bf455c6c70de36919ed45c1244f5ed9123e4f0d2d85c6",
            "0x00000000000000000000000091b3e39ef6335d97876adb4448a998c7cbd3885f"
          ],
          "data": "0x00000000000000000000000000000000000000000000000000389b8ddf384884",
          "blockHash": "0x0000000000000000000000000000000000000000000000000000000000000000",
          "blockNumber": "0x2d11f09",
          "blockTimestamp": "0x6a2c9af5",
          "transactionHash": "0x7424e4831af5bd4034b4c74f23417c243238f9b79f978f4763f5e748a22052a8",
          "transactionIndex": "0x4e",
          "logIndex": "0x1c6",
          "removed": false
        },
        {
          "address": "0xf4d97f2da56e8c3098f3a8d538db630a2606a024",
          "topics": [
            "0x8c5be1e5ebec7d5bd14f71427d1e84f3dd0314c0f7b2291e5b200ac8c7c3b925",
            "0x00000000000000000000000091b3e39ef6335d97876adb4448a998c7cbd3885f",
            "0x000000000000000000000000e49fa849cb37b0e7a42b2335e333fb99474167ba"
          ],
          "data": "0x00000000000000000000000000000000000000000000000000064a2c353f2480",
          "blockHash": "0x0000000000000000000000000000000000000000000000000000000000000000",
          "blockNumber": "0x2d11f09",
          "blockTimestamp": "0x6a2c9af5",
          "transactionHash": "0x7424e4831af5bd4034b4c74f23417c243238f9b79f978f4763f5e748a22052a8",
          "transactionIndex": "0x4e",
          "logIndex": "0x1c7",
          "removed": false
        },
        {
          "address": "0xf4d97f2da56e8c3098f3a8d538db630a2606a024",
          "topics": [
            "0xddf252ad1be2c89b69c2b068fc378daa952ba7f163c4a11628f55a4df523b3ef",
            "0x00000000000000000000000091b3e39ef6335d97876adb4448a998c7cbd3885f",
            "0x000000000000000000000000e49fa849cb37b0e7a42b2335e333fb99474167ba"
          ],
          "data": "0x00000000000000000000000000000000000000000000000000064a2c353f2480",
          "blockHash": "0x0000000000000000000000000000000000000000000000000000000000000000",
          "blockNumber": "0x2d11f09",
          "blockTimestamp": "0x6a2c9af5",
          "transactionHash": "0x7424e4831af5bd4034b4c74f23417c243238f9b79f978f4763f5e748a22052a8",
          "transactionIndex": "0x4e",
          "logIndex": "0x1c8",
          "removed": false
        },
        {
          "address": "0xe49fa849cb37b0e7a42b2335e333fb99474167ba",
          "topics": [
            "0xddf252ad1be2c89b69c2b068fc378daa952ba7f163c4a11628f55a4df523b3ef",
            "0x0000000000000000000000000000000000000000000000000000000000000000",
            "0x00000000000000000000000091b3e39ef6335d97876adb4448a998c7cbd3885f"
          ],
          "data": "0x00000000000000000000000000000000000000000000000000064930ea4d8c37",
          "blockHash": "0x0000000000000000000000000000000000000000000000000000000000000000",
          "blockNumber": "0x2d11f09",
          "blockTimestamp": "0x6a2c9af5",
          "transactionHash": "0x7424e4831af5bd4034b4c74f23417c243238f9b79f978f4763f5e748a22052a8",
          "transactionIndex": "0x4e",
          "logIndex": "0x1c9",
          "removed": false
        },
        {
          "address": "0xf4d97f2da56e8c3098f3a8d538db630a2606a024",
          "topics": [
            "0xddf252ad1be2c89b69c2b068fc378daa952ba7f163c4a11628f55a4df523b3ef",
            "0x000000000000000000000000e49fa849cb37b0e7a42b2335e333fb99474167ba",
            "0x000000000000000000000000f4d97f2da56e8c3098f3a8d538db630a2606a024"
          ],
          "data": "0x00000000000000000000000000000000000000000000000000064a2c353f2480",
          "blockHash": "0x0000000000000000000000000000000000000000000000000000000000000000",
          "blockNumber": "0x2d11f09",
          "blockTimestamp": "0x6a2c9af5",
          "transactionHash": "0x7424e4831af5bd4034b4c74f23417c243238f9b79f978f4763f5e748a22052a8",
          "transactionIndex": "0x4e",
          "logIndex": "0x1ca",
          "removed": false
        },
        {
          "address": "0xf4d97f2da56e8c3098f3a8d538db630a2606a024",
          "topics": [
            "0x9e71bc8eea02a63969f509818f2dafb9254532904319f9dbda79b67bd34a5f3d",
            "0x000000000000000000000000e49fa849cb37b0e7a42b2335e333fb99474167ba"
          ],
          "data": "0x00000000000000000000000000000000000000000000000000064a2c353f2480",
          "blockHash": "0x0000000000000000000000000000000000000000000000000000000000000000",
          "blockNumber": "0x2d11f09",
          "blockTimestamp": "0x6a2c9af5",
          "transactionHash": "0x7424e4831af5bd4034b4c74f23417c243238f9b79f978f4763f5e748a22052a8",
          "transactionIndex": "0x4e",
          "logIndex": "0x1cb",
          "removed": false
        },
        {
          "address": "0xe49fa849cb37b0e7a42b2335e333fb99474167ba",
          "topics": [
            "0x0d20d21590061e9949167273e5b1e7e024e14c9058e41ad850c293ab69cbe95f",
            "0x00000000000000000000000091b3e39ef6335d97876adb4448a998c7cbd3885f",
            "0x00000000000000000000000091b3e39ef6335d97876adb4448a998c7cbd3885f"
          ],
          "data": "0x00000000000000000000000000000000000000000000000000064a2c353f248000000000000000000000000000000000000000000000000000064930ea4d8c37",
          "blockHash": "0x0000000000000000000000000000000000000000000000000000000000000000",
          "blockNumber": "0x2d11f09",
          "blockTimestamp": "0x6a2c9af5",
          "transactionHash": "0x7424e4831af5bd4034b4c74f23417c243238f9b79f978f4763f5e748a22052a8",
          "transactionIndex": "0x4e",
          "logIndex": "0x1cc",
          "removed": false
        },
        {
          "address": "0x91b3e39ef6335d97876adb4448a998c7cbd3885f",
          "topics": [
            "0x73ae596b0194c4a2e07c63759627e439490e08b1ba95331625271bad9ee2d76a"
          ],
          "data": "0x00000000000000000000000000000000000000000000000000000000018bac65000000000000000000000000000000000000000000000000003ee5ba14776d0400000000000000000000000000000000000000000000000000064930ea4d8c37",
          "blockHash": "0x0000000000000000000000000000000000000000000000000000000000000000",
          "blockNumber": "0x2d11f09",
          "blockTimestamp": "0x6a2c9af5",
          "transactionHash": "0x7424e4831af5bd4034b4c74f23417c243238f9b79f978f4763f5e748a22052a8",
          "transactionIndex": "0x4e",
          "logIndex": "0x1cd",
          "removed": false
        }
      ],
      "logsBloom": "0x000000000400001400000000000400000008000008000000000400200000080c0000000080000000000008100000910000001000000020000000000000200004000040000000000800000008000000000000000200080000010000000000404040800000020000000008008000100800000040000000000000000010000800000000000000000200000004000000000010800008002000000002000000000040020000002000000000000004000000000200028000008000000000000000000000010002000000000000000000000000000000400000000000000000000820000010000000000001000200000000040000000001000000000000000000800000",
      "type": "0x2",
      "transactionHash": "0x7424e4831af5bd4034b4c74f23417c243238f9b79f978f4763f5e748a22052a8",
      "transactionIndex": "0x4e",
      "blockHash": "0x0000000000000000000000000000000000000000000000000000000000000000",
      "blockNumber": "0x2d11f09",
      "gasUsed": "0x5b53b",
      "effectiveGasPrice": "0x4c4b8d",
      "blobGasUsed": "0x39d0",
      "from": "0x988ce72d127b8a06821bbb3708897dbdc0d66f2f",
      "to": "0x91b3e39ef6335d97876adb4448a998c7cbd3885f",
      "contractAddress": null,
      "daFootprintGasScalar": "0x94",
      "l1BaseFeeScalar": "0x8dd",
      "l1BlobBaseFee": "0x73778c",
      "l1BlobBaseFeeScalar": "0x101c12",
      "l1Fee": "0x4cee0807",
      "l1GasPrice": "0x812d7c7",
      "l1GasUsed": "0x640"
    }
  ],
  "libraries": [],
  "pending": [],
  "returns": {},
  "timestamp": 1781308147921,
  "chain": 8453,
  "commit": "87fbb45"
}