{
  "transactions": [
    {
      "hash": "0xb5d232c6d71b991f7013591032741826ff3fba5c274fa78a3456e2528eca925a",
      "transactionType": "CALL",
      "contractName": null,
      "contractAddress": "0x872c561f699b42977c093f0ed8b4c9a431280c6c",
      "function": "execTransaction(address,uint256,bytes,uint8,uint256,uint256,uint256,address,address,bytes)",
      "arguments": [
        "0xF4d97F2da56e8c3098f3a8D538DB630A2606a024",
        "0",
        "0x095ea7b30000000000000000000000004751ba2b09374c1929fc01734a166e3c8cd7581000000000000000000000000000000000000000000000000026066f7b9c920000",
        "0",
        "0",
        "0",
        "0",
        "0x0000000000000000000000000000000000000000",
        "0x0000000000000000000000000000000000000000",
        "0xac938337ebe80bdc4427a5175a157ff3b6db8f10893c634094c6db41997355f5583f5013978dda402df51a342a2cc6b4ec43292d2029a2a0fc9333853499c53d1c212cc17fe919184e7f26b4e94929fd67e484287558182d61188b055e96e7dd9a4563c30fa6b8b5ab3ead61cc174c8953194df86e8df32e2db389cd25c107995c1b"
      ],
      "transaction": {
        "from": "0x66205fda77114a5357e7bdcac6ddb356cff0063b",
        "to": "0x872c561f699b42977c093f0ed8b4c9a431280c6c",
        "gas": "0x1f704",
        "value": "0x0",
        "input": "0x6a761202000000000000000000000000f4d97f2da56e8c3098f3a8d538db630a2606a0240000000000000000000000000000000000000000000000000000000000000000000000000000000000000000000000000000000000000000000000000000014000000000000000000000000000000000000000000000000000000000000000000000000000000000000000000000000000000000000000000000000000000000000000000000000000000000000000000000000000000000000000000000000000000000000000000000000000000000000000000000000000000000000000000000000000000000000000000000000000000000000000000000000000000000000000000000000000000000000000000000000000000000000000000000000000000000000000000000000000000000000000000000000000000000000001c00000000000000000000000000000000000000000000000000000000000000044095ea7b30000000000000000000000004751ba2b09374c1929fc01734a166e3c8cd7581000000000000000000000000000000000000000000000000026066f7b9c920000000000000000000000000000000000000000000000000000000000000000000000000000000000000000000000000000000000000000000000000082ac938337ebe80bdc4427a5175a157ff3b6db8f10893c634094c6db41997355f5583f5013978dda402df51a342a2cc6b4ec43292d2029a2a0fc9333853499c53d1c212cc17fe919184e7f26b4e94929fd67e484287558182d61188b055e96e7dd9a4563c30fa6b8b5ab3ead61cc174c8953194df86e8df32e2db389cd25c107995c1b000000000000000000000000000000000000000000000000000000000000",
        "nonce": "0x1b",
        "chainId": "0x2105"
      },
      "additionalContracts": [],
      "isFixedGasLimit": false
    },
    {
      "hash": "0x5e532acfbd390a42961572e370b05d627b50a431c08f9605d19d8b0ed373bbec",
      "transactionType": "CALL",
      "contractName": null,
      "contractAddress": "0x872c561f699b42977c093f0ed8b4c9a431280c6c",
      "function": "execTransaction(address,uint256,bytes,uint8,uint256,uint256,uint256,address,address,bytes)",
      "arguments": [
        "0x4751BA2b09374C1929FC01734a166e3c8cd75810",
        "0",
        "0x6e553f6500000000000000000000000000000000000000000000000026066f7b9c920000000000000000000000000000872c561f699b42977c093f0ed8b4c9a431280c6c",
        "0",
        "0",
        "0",
        "0",
        "0x0000000000000000000000000000000000000000",
        "0x0000000000000000000000000000000000000000",
        "0x841a4d3c8735edd22e25a8988c41b16a411ae6b265b892ce17c02f6b323a6f3c4c553231b5f162d84cb67d8769d5963f7a53be27860f02efbd49d087684c5aad1cd3eed3ad2269ce5a43c0a2172112813f1cb67ab5b87ea2c8f757648a4c7fb007797d45d6b025a46e6604966afa3e541cddda29ced8c973467d0f5de5a347cfee1b"
      ],
      "transaction": {
        "from": "0x66205fda77114a5357e7bdcac6ddb356cff0063b",
        "to": "0x872c561f699b42977c093f0ed8b4c9a431280c6c",
        "gas": "0x317ac",
        "value": "0x0",
        "input": "0x6a7612020000000000000000000000004751ba2b09374c1929fc01734a166e3c8cd758100000000000000000000000000000000000000000000000000000000000000000000000000000000000000000000000000000000000000000000000000000014000000000000000000000000000000000000000000000000000000000000000000000000000000000000000000000000000000000000000000000000000000000000000000000000000000000000000000000000000000000000000000000000000000000000000000000000000000000000000000000000000000000000000000000000000000000000000000000000000000000000000000000000000000000000000000000000000000000000000000000000000000000000000000000000000000000000000000000000000000000000000000000000000000000000001c000000000000000000000000000000000000000000000000000000000000000446e553f6500000000000000000000000000000000000000000000000026066f7b9c920000000000000000000000000000872c561f699b42977c093f0ed8b4c9a431280c6c000000000000000000000000000000000000000000000000000000000000000000000000000000000000000000000000000000000000000000000082841a4d3c8735edd22e25a8988c41b16a411ae6b265b892ce17c02f6b323a6f3c4c553231b5f162d84cb67d8769d5963f7a53be27860f02efbd49d087684c5aad1cd3eed3ad2269ce5a43c0a2172112813f1cb67ab5b87ea2c8f757648a4c7fb007797d45d6b025a46e6604966afa3e541cddda29ced8c973467d0f5de5a347cfee1b000000000000000000000000000000000000000000000000000000000000",
        "nonce": "0x1c",
        "chainId": "0x2105"
      },
      "additionalContracts": [],
      "isFixedGasLimit": false
    }
  ],
  "receipts": [
    {
      "status": "0x1",
      "cumulativeGasUsed": "0x228aba8",
      "logs": [
        {
          "address": "0x872c561f699b42977c093f0ed8b4c9a431280c6c",
          "topics": [
            "0x66753cd2356569ee081232e3be8909b950e0a76c1f8460c3a5e3c2be32b11bed"
          ],
          "data": "0x000000000000000000000000f4d97f2da56e8c3098f3a8d538db630a2606a0240000000000000000000000000000000000000000000000000000000000000000000000000000000000000000000000000000000000000000000000000000016000000000000000000000000000000000000000000000000000000000000000000000000000000000000000000000000000000000000000000000000000000000000000000000000000000000000000000000000000000000000000000000000000000000000000000000000000000000000000000000000000000000000000000000000000000000000000000000000000000000000000000000000000000000000000000000000000000000000000000000000000000000000000000000000000000000000000000000000000000000000000000000000000000000000001e000000000000000000000000000000000000000000000000000000000000002a00000000000000000000000000000000000000000000000000000000000000044095ea7b30000000000000000000000004751ba2b09374c1929fc01734a166e3c8cd7581000000000000000000000000000000000000000000000000026066f7b9c920000000000000000000000000000000000000000000000000000000000000000000000000000000000000000000000000000000000000000000000000082ac938337ebe80bdc4427a5175a157ff3b6db8f10893c634094c6db41997355f5583f5013978dda402df51a342a2cc6b4ec43292d2029a2a0fc9333853499c53d1c212cc17fe919184e7f26b4e94929fd67e484287558182d61188b055e96e7dd9a4563c30fa6b8b5ab3ead61cc174c8953194df86e8df32e2db389cd25c107995c1b0000000000000000000000000000000000000000000000000000000000000000000000000000000000000000000000000000000000000000000000000060000000000000000000000000000000000000000000000000000000000000003300000000000000000000000066205fda77114a5357e7bdcac6ddb356cff0063b0000000000000000000000000000000000000000000000000000000000000002",
          "blockHash": "0x3a3eb549f52d1fd862197596e146bf3f65b3d7fbd09927686250f28e97ad77cd",
          "blockNumber": "0x2c9f8ba",
          "blockTimestamp": "0x6a1e4e57",
          "transactionHash": "0x5e532acfbd390a42961572e370b05d627b50a431c08f9605d19d8b0ed373bbec",
          "transactionIndex": "0x105",
          "logIndex": "0x2a4",
          "removed": false
        },
        {
          "address": "0xf4d97f2da56e8c3098f3a8d538db630a2606a024",
          "topics": [
            "0x8c5be1e5ebec7d5bd14f71427d1e84f3dd0314c0f7b2291e5b200ac8c7c3b925",
            "0x000000000000000000000000872c561f699b42977c093f0ed8b4c9a431280c6c",
            "0x0000000000000000000000004751ba2b09374c1929fc01734a166e3c8cd75810"
          ],
          "data": "0x00000000000000000000000000000000000000000000000026066f7b9c920000",
          "blockHash": "0x3a3eb549f52d1fd862197596e146bf3f65b3d7fbd09927686250f28e97ad77cd",
          "blockNumber": "0x2c9f8ba",
          "blockTimestamp": "0x6a1e4e57",
          "transactionHash": "0x5e532acfbd390a42961572e370b05d627b50a431c08f9605d19d8b0ed373bbec",
          "transactionIndex": "0x105",
          "logIndex": "0x2a5",
          "removed": false
        },
        {
          "address": "0x872c561f699b42977c093f0ed8b4c9a431280c6c",
          "topics": [
            "0x442e715f626346e8c54381002da614f62bee8d27386535b2521ec8540898556e",
            "0x76027a072597063cce8d38921cee78c0580fa92cd70c36b1c8192103c324409a"
          ],
          "data": "0x0000000000000000000000000000000000000000000000000000000000000000",
          "blockHash": "0x3a3eb549f52d1fd862197596e146bf3f65b3d7fbd09927686250f28e97ad77cd",
          "blockNumber": "0x2c9f8ba",
          "blockTimestamp": "0x6a1e4e57",
          "transactionHash": "0x5e532acfbd390a42961572e370b05d627b50a431c08f9605d19d8b0ed373bbec",
          "transactionIndex": "0x105",
          "logIndex": "0x2a6",
          "removed": false
        }
      ],
      "logsBloom": "0x00000000440000000000000000000000000000000000000000001000040000000008000000000000000000000000000000000000000000000000000000200000000000000000000000000000000000400000040200000000000000000000000000002000000000000000000000000000000000000000000000000000000000000000000000000000000000000000000000001000000000000000000000000000020000000400000000000000001004000000008000000000000002000000000000000000000400000000000000020000000080000000000000000000000080000010000000800000000001000000000000000000000000000000000000000000",
      "type": "0x2",
      "transactionHash": "0x5e532acfbd390a42961572e370b05d627b50a431c08f9605d19d8b0ed373bbec",
      "transactionIndex": "0x105",
      "blockHash": "0x3a3eb549f52d1fd862197596e146bf3f65b3d7fbd09927686250f28e97ad77cd",
      "blockNumber": "0x2c9f8ba",
      "gasUsed": "0x16c2e",
      "effectiveGasPrice": "0x4f5880",
      "blobGasUsed": "0x936c",
      "from": "0x66205fda77114a5357e7bdcac6ddb356cff0063b",
      "to": "0x872c561f699b42977c093f0ed8b4c9a431280c6c",
      "contractAddress": null,
      "daFootprintGasScalar": "0x94",
      "l1BaseFeeScalar": "0x8dd",
      "l1BlobBaseFee": "0x7e80df",
      "l1BlobBaseFeeScalar": "0x101c12",
      "l1Fee": "0xd69b2b54",
      "l1GasPrice": "0x8cad5b3",
      "l1GasUsed": "0xff3"
    },
    {
      "status": "0x1",
      "cumulativeGasUsed": "0x22ac8f9",
      "logs": [
        {
          "address": "0x872c561f699b42977c093f0ed8b4c9a431280c6c",
          "topics": [
            "0x66753cd2356569ee081232e3be8909b950e0a76c1f8460c3a5e3c2be32b11bed"
          ],
          "data": "0x0000000000000000000000004751ba2b09374c1929fc01734a166e3c8cd758100000000000000000000000000000000000000000000000000000000000000000000000000000000000000000000000000000000000000000000000000000016000000000000000000000000000000000000000000000000000000000000000000000000000000000000000000000000000000000000000000000000000000000000000000000000000000000000000000000000000000000000000000000000000000000000000000000000000000000000000000000000000000000000000000000000000000000000000000000000000000000000000000000000000000000000000000000000000000000000000000000000000000000000000000000000000000000000000000000000000000000000000000000000000000000000001e000000000000000000000000000000000000000000000000000000000000002a000000000000000000000000000000000000000000000000000000000000000446e553f6500000000000000000000000000000000000000000000000026066f7b9c920000000000000000000000000000872c561f699b42977c093f0ed8b4c9a431280c6c000000000000000000000000000000000000000000000000000000000000000000000000000000000000000000000000000000000000000000000082841a4d3c8735edd22e25a8988c41b16a411ae6b265b892ce17c02f6b323a6f3c4c553231b5f162d84cb67d8769d5963f7a53be27860f02efbd49d087684c5aad1cd3eed3ad2269ce5a43c0a2172112813f1cb67ab5b87ea2c8f757648a4c7fb007797d45d6b025a46e6604966afa3e541cddda29ced8c973467d0f5de5a347cfee1b0000000000000000000000000000000000000000000000000000000000000000000000000000000000000000000000000000000000000000000000000060000000000000000000000000000000000000000000000000000000000000003400000000000000000000000066205fda77114a5357e7bdcac6ddb356cff0063b0000000000000000000000000000000000000000000000000000000000000002",
          "blockHash": "0x3a3eb549f52d1fd862197596e146bf3f65b3d7fbd09927686250f28e97ad77cd",
          "blockNumber": "0x2c9f8ba",
          "blockTimestamp": "0x6a1e4e57",
          "transactionHash": "0xb5d232c6d71b991f7013591032741826ff3fba5c274fa78a3456e2528eca925a",
          "transactionIndex": "0x106",
          "logIndex": "0x2a7",
          "removed": false
        },
        {
          "address": "0xf4d97f2da56e8c3098f3a8d538db630a2606a024",
          "topics": [
            "0xddf252ad1be2c89b69c2b068fc378daa952ba7f163c4a11628f55a4df523b3ef",
            "0x000000000000000000000000872c561f699b42977c093f0ed8b4c9a431280c6c",
            "0x0000000000000000000000004751ba2b09374c1929fc01734a166e3c8cd75810"
          ],
          "data": "0x00000000000000000000000000000000000000000000000026066f7b9c920000",
          "blockHash": "0x3a3eb549f52d1fd862197596e146bf3f65b3d7fbd09927686250f28e97ad77cd",
          "blockNumber": "0x2c9f8ba",
          "blockTimestamp": "0x6a1e4e57",
          "transactionHash": "0xb5d232c6d71b991f7013591032741826ff3fba5c274fa78a3456e2528eca925a",
          "transactionIndex": "0x106",
          "logIndex": "0x2a8",
          "removed": false
        },
        {
          "address": "0x4751ba2b09374c1929fc01734a166e3c8cd75810",
          "topics": [
            "0xddf252ad1be2c89b69c2b068fc378daa952ba7f163c4a11628f55a4df523b3ef",
            "0x0000000000000000000000000000000000000000000000000000000000000000",
            "0x000000000000000000000000872c561f699b42977c093f0ed8b4c9a431280c6c"
          ],
          "data": "0x0000000000000000000000000000000000000000000000000009bc03f6af4000",
          "blockHash": "0x3a3eb549f52d1fd862197596e146bf3f65b3d7fbd09927686250f28e97ad77cd",
          "blockNumber": "0x2c9f8ba",
          "blockTimestamp": "0x6a1e4e57",
          "transactionHash": "0xb5d232c6d71b991f7013591032741826ff3fba5c274fa78a3456e2528eca925a",
          "transactionIndex": "0x106",
          "logIndex": "0x2a9",
          "removed": false
        },
        {
          "address": "0x4751ba2b09374c1929fc01734a166e3c8cd75810",
          "topics": [
            "0xddf252ad1be2c89b69c2b068fc378daa952ba7f163c4a11628f55a4df523b3ef",
            "0x0000000000000000000000000000000000000000000000000000000000000000",
            "0x000000000000000000000000872c561f699b42977c093f0ed8b4c9a431280c6c"
          ],
          "data": "0x00000000000000000000000000000000000000000000000025fcb377a5e2c000",
          "blockHash": "0x3a3eb549f52d1fd862197596e146bf3f65b3d7fbd09927686250f28e97ad77cd",
          "blockNumber": "0x2c9f8ba",
          "blockTimestamp": "0x6a1e4e57",
          "transactionHash": "0xb5d232c6d71b991f7013591032741826ff3fba5c274fa78a3456e2528eca925a",
          "transactionIndex": "0x106",
          "logIndex": "0x2aa",
          "removed": false
        },
        {
          "address": "0x4751ba2b09374c1929fc01734a166e3c8cd75810",
          "topics": [
            "0xdcbc1c05240f31ff3ad067ef1ee35ce4997762752e3a095284754544f4c709d7",
            "0x000000000000000000000000872c561f699b42977c093f0ed8b4c9a431280c6c",
            "0x000000000000000000000000872c561f699b42977c093f0ed8b4c9a431280c6c"
          ],
          "data": "0x00000000000000000000000000000000000000000000000026066f7b9c92000000000000000000000000000000000000000000000000000025fcb377a5e2c000",
          "blockHash": "0x3a3eb549f52d1fd862197596e146bf3f65b3d7fbd09927686250f28e97ad77cd",
          "blockNumber": "0x2c9f8ba",
          "blockTimestamp": "0x6a1e4e57",
          "transactionHash": "0xb5d232c6d71b991f7013591032741826ff3fba5c274fa78a3456e2528eca925a",
          "transactionIndex": "0x106",
          "logIndex": "0x2ab",
          "removed": false
        },
        {
          "address": "0xf4d97f2da56e8c3098f3a8d538db630a2606a024",
          "topics": [
            "0xddf252ad1be2c89b69c2b068fc378daa952ba7f163c4a11628f55a4df523b3ef",
            "0x0000000000000000000000004751ba2b09374c1929fc01734a166e3c8cd75810",
            "0x000000000000000000000000f4d97f2da56e8c3098f3a8d538db630a2606a024"
          ],
          "data": "0x00000000000000000000000000000000000000000000000026066f7b9c920000",
          "blockHash": "0x3a3eb549f52d1fd862197596e146bf3f65b3d7fbd09927686250f28e97ad77cd",
          "blockNumber": "0x2c9f8ba",
          "blockTimestamp": "0x6a1e4e57",
          "transactionHash": "0xb5d232c6d71b991f7013591032741826ff3fba5c274fa78a3456e2528eca925a",
          "transactionIndex": "0x106",
          "logIndex": "0x2ac",
          "removed": false
        },
        {
          "address": "0xf4d97f2da56e8c3098f3a8d538db630a2606a024",
          "topics": [
            "0x9e71bc8eea02a63969f509818f2dafb9254532904319f9dbda79b67bd34a5f3d",
            "0x0000000000000000000000004751ba2b09374c1929fc01734a166e3c8cd75810"
          ],
          "data": "0x00000000000000000000000000000000000000000000000026066f7b9c920000",
          "blockHash": "0x3a3eb549f52d1fd862197596e146bf3f65b3d7fbd09927686250f28e97ad77cd",
          "blockNumber": "0x2c9f8ba",
          "blockTimestamp": "0x6a1e4e57",
          "transactionHash": "0xb5d232c6d71b991f7013591032741826ff3fba5c274fa78a3456e2528eca925a",
          "transactionIndex": "0x106",
          "logIndex": "0x2ad",
          "removed": false
        },
        {
          "address": "0x872c561f699b42977c093f0ed8b4c9a431280c6c",
          "topics": [
            "0x442e715f626346e8c54381002da614f62bee8d27386535b2521ec8540898556e",
            "0xa9188412ce6446a62288835638346fb73754b1ccb61c12883e0e97da1bc1e6c4"
          ],
          "data": "0x0000000000000000000000000000000000000000000000000000000000000000",
          "blockHash": "0x3a3eb549f52d1fd862197596e146bf3f65b3d7fbd09927686250f28e97ad77cd",
          "blockNumber": "0x2c9f8ba",
          "blockTimestamp": "0x6a1e4e57",
          "transactionHash": "0xb5d232c6d71b991f7013591032741826ff3fba5c274fa78a3456e2528eca925a",
          "transactionIndex": "0x106",
          "logIndex": "0x2ae",
          "removed": false
        }
      ],
      "logsBloom": "0x00000000440000000000000000000000000000000800000000001000040020000008000000000000000000000000000000000000000000000000000000000000000000400000000000000008000000000000040200000000000000000000000040002000020000000008008000000800000404000004000000000010000000000000000000000000000000000000000000001000000000000000000000000000000000000400000000000004001004000000008000000000000002000000001000000002000400000000000000020000040080000008000000000000000020000000000000000001000001000000000000000000000100000000000000000000",
      "type": "0x2",
      "transactionHash": "0xb5d232c6d71b991f7013591032741826ff3fba5c274fa78a3456e2528eca925a",
      "transactionIndex": "0x106",
      "blockHash": "0x3a3eb549f52d1fd862197596e146bf3f65b3d7fbd09927686250f28e97ad77cd",
      "blockNumber": "0x2c9f8ba",
      "gasUsed": "0x21d51",
      "effectiveGasPrice": "0x4f5880",
      "blobGasUsed": "0x8904",
      "from": "0x66205fda77114a5357e7bdcac6ddb356cff0063b",
      "to": "0x872c561f699b42977c093f0ed8b4c9a431280c6c",
      "contractAddress": null,
      "daFootprintGasScalar": "0x94",
      "l1BaseFeeScalar": "0x8dd",
      "l1BlobBaseFee": "0x7e80df",
      "l1BlobBaseFeeScalar": "0x101c12",
      "l1Fee": "0xc7d598ec",
      "l1GasPrice": "0x8cad5b3",
      "l1GasUsed": "0xeda"
    }
  ],
  "libraries": [],
  "pending": [],
  "returns": {},
  "timestamp": 1780371031948,
  "chain": 8453,
  "commit": "20d2714"
}