{
  "transactions": [
    {
      "hash": "0x6395b146c6e72d2f4a6c0138834039975e603c5dc0723399fa0973fcb4340219",
      "transactionType": "CALL",
      "contractName": null,
      "contractAddress": "0x872c561f699b42977c093f0ed8b4c9a431280c6c",
      "function": "execTransaction(address,uint256,bytes,uint8,uint256,uint256,uint256,address,address,bytes)",
      "arguments": [
        "0x21fe048B10dC9bED2Ee0Ae76724C627CA7F35F61",
        "0",
        "0xafe74e18000000000000000000000000000000000000000000000000000000000000006000000000000000000000000032fddfb0eec6c638d5c8b7cabf3be9065478e90e00000000000000000000000000000000000000000000000000000000000000000000000000000000000000000000000000000000000000000000000000000013537572706c7573496e74656c6c6967656e636500000000000000000000000000",
        "0",
        "0",
        "0",
        "0",
        "0x0000000000000000000000000000000000000000",
        "0x0000000000000000000000000000000000000000",
        "0xbbfc362e2fee25f1e37a8594c07a9b23e01e31993c07fd2d9f5952686833d4b079d3d9521bb38d6884a92ac2a5c6e0f91ce65f9e25b713431b017bf80a697e821ce1cc9ceb489acbc07487327613c4e3e847ebda5e1c70656bac522e3e23b20f3c7c501b4d35c2f544e859e3466954c39794d36f939d4be0d63774105bdfe862a81b"
      ],
      "transaction": {
        "from": "0x66205fda77114a5357e7bdcac6ddb356cff0063b",
        "to": "0x872c561f699b42977c093f0ed8b4c9a431280c6c",
        "gas": "0x3689e",
        "value": "0x0",
        "input": "0x6a76120200000000000000000000000021fe048b10dc9bed2ee0ae76724c627ca7f35f6100000000000000000000000000000000000000000000000000000000000000000000000000000000000000000000000000000000000000000000000000000140000000000000000000000000000000000000000000000000000000000000000000000000000000000000000000000000000000000000000000000000000000000000000000000000000000000000000000000000000000000000000000000000000000000000000000000000000000000000000000000000000000000000000000000000000000000000000000000000000000000000000000000000000000000000000000000000000000000000000000000000000000000000000000000000000000000000000000000000000000000000000000000000000000000000022000000000000000000000000000000000000000000000000000000000000000a4afe74e18000000000000000000000000000000000000000000000000000000000000006000000000000000000000000032fddfb0eec6c638d5c8b7cabf3be9065478e90e00000000000000000000000000000000000000000000000000000000000000000000000000000000000000000000000000000000000000000000000000000013537572706c7573496e74656c6c6967656e636500000000000000000000000000000000000000000000000000000000000000000000000000000000000000000000000000000000000000000000000000000000000000000000000082bbfc362e2fee25f1e37a8594c07a9b23e01e31993c07fd2d9f5952686833d4b079d3d9521bb38d6884a92ac2a5c6e0f91ce65f9e25b713431b017bf80a697e821ce1cc9ceb489acbc07487327613c4e3e847ebda5e1c70656bac522e3e23b20f3c7c501b4d35c2f544e859e3466954c39794d36f939d4be0d63774105bdfe862a81b000000000000000000000000000000000000000000000000000000000000",
        "nonce": "0x29",
        "chainId": "0x2105"
      },
      "additionalContracts": [],
      "isFixedGasLimit": false
    }
  ],
  "receipts": [
    {
      "status": "0x1",
      "cumulativeGasUsed": "0x13721b1",
      "logs": [
        {
          "address": "0x872c561f699b42977c093f0ed8b4c9a431280c6c",
          "topics": [
            "0x66753cd2356569ee081232e3be8909b950e0a76c1f8460c3a5e3c2be32b11bed"
          ],
          "data": "0x00000000000000000000000021fe048b10dc9bed2ee0ae76724c627ca7f35f61000000000000000000000000000000000000000000000000000000000000000000000000000000000000000000000000000000000000000000000000000001600000000000000000000000000000000000000000000000000000000000000000000000000000000000000000000000000000000000000000000000000000000000000000000000000000000000000000000000000000000000000000000000000000000000000000000000000000000000000000000000000000000000000000000000000000000000000000000000000000000000000000000000000000000000000000000000000000000000000000000000000000000000000000000000000000000000000000000000000000000000000000000000000000000000000240000000000000000000000000000000000000000000000000000000000000030000000000000000000000000000000000000000000000000000000000000000a4afe74e18000000000000000000000000000000000000000000000000000000000000006000000000000000000000000032fddfb0eec6c638d5c8b7cabf3be9065478e90e00000000000000000000000000000000000000000000000000000000000000000000000000000000000000000000000000000000000000000000000000000013537572706c7573496e74656c6c6967656e636500000000000000000000000000000000000000000000000000000000000000000000000000000000000000000000000000000000000000000000000000000000000000000000000082bbfc362e2fee25f1e37a8594c07a9b23e01e31993c07fd2d9f5952686833d4b079d3d9521bb38d6884a92ac2a5c6e0f91ce65f9e25b713431b017bf80a697e821ce1cc9ceb489acbc07487327613c4e3e847ebda5e1c70656bac522e3e23b20f3c7c501b4d35c2f544e859e3466954c39794d36f939d4be0d63774105bdfe862a81b0000000000000000000000000000000000000000000000000000000000000000000000000000000000000000000000000000000000000000000000000060000000000000000000000000000000000000000000000000000000000000003f00000000000000000000000066205fda77114a5357e7bdcac6ddb356cff0063b0000000000000000000000000000000000000000000000000000000000000002",
          "blockHash": "0xef01117f78b114df774f7c54d26e72a8ad7929dd43c5d5435e714c40238326ab",
          "blockNumber": "0x2ca07dc",
          "blockTimestamp": "0x6a1e6c9b",
          "transactionHash": "0x6395b146c6e72d2f4a6c0138834039975e603c5dc0723399fa0973fcb4340219",
          "transactionIndex": "0x82",
          "logIndex": "0x157",
          "removed": false
        },
        {
          "address": "0x21fe048b10dc9bed2ee0ae76724c627ca7f35f61",
          "topics": [
            "0xdaa9b70579ef8115ea9aafd04ec0b9e2764c1251b203a67c0a348df9b2c0b190",
            "0x0000000000000000000000000000000000000000000000000000000000000001"
          ],
          "data": "0x000000000000000000000000000000000000000000000000000000000000006000000000000000000000000032fddfb0eec6c638d5c8b7cabf3be9065478e90e00000000000000000000000000000000000000000000000000000000000000000000000000000000000000000000000000000000000000000000000000000013537572706c7573496e74656c6c6967656e636500000000000000000000000000",
          "blockHash": "0xef01117f78b114df774f7c54d26e72a8ad7929dd43c5d5435e714c40238326ab",
          "blockNumber": "0x2ca07dc",
          "blockTimestamp": "0x6a1e6c9b",
          "transactionHash": "0x6395b146c6e72d2f4a6c0138834039975e603c5dc0723399fa0973fcb4340219",
          "transactionIndex": "0x82",
          "logIndex": "0x158",
          "removed": false
        },
        {
          "address": "0x872c561f699b42977c093f0ed8b4c9a431280c6c",
          "topics": [
            "0x442e715f626346e8c54381002da614f62bee8d27386535b2521ec8540898556e",
            "0x9fd182f87c523f77895a4c72d6785df387f10242dfce416a17f10356a21cd016"
          ],
          "data": "0x0000000000000000000000000000000000000000000000000000000000000000",
          "blockHash": "0xef01117f78b114df774f7c54d26e72a8ad7929dd43c5d5435e714c40238326ab",
          "blockNumber": "0x2ca07dc",
          "blockTimestamp": "0x6a1e6c9b",
          "transactionHash": "0x6395b146c6e72d2f4a6c0138834039975e603c5dc0723399fa0973fcb4340219",
          "transactionIndex": "0x82",
          "logIndex": "0x159",
          "removed": false
        }
      ],
      "logsBloom": "0x00000000400040000000000800000000000000000000000000000000040000000000000000000000000000000000000000000000000000000000000000040000000000000000000000000000000000000000140000040000000000000000000000002000000000000000000000000000000000000000000000000004000000000000000000000000002000000000000000000000000000000000000000000000000000000400000000000000000004000000000000000000000002000000000000000000000400800000000000020000000000000000000000000000004040000000000000000000000000000000000000020000000000000000000000000040",
      "type": "0x2",
      "transactionHash": "0x6395b146c6e72d2f4a6c0138834039975e603c5dc0723399fa0973fcb4340219",
      "transactionIndex": "0x82",
      "blockHash": "0xef01117f78b114df774f7c54d26e72a8ad7929dd43c5d5435e714c40238326ab",
      "blockNumber": "0x2ca07dc",
      "gasUsed": "0x254aa",
      "effectiveGasPrice": "0x5b8d80",
      "blobGasUsed": "0x9dd4",
      "from": "0x66205fda77114a5357e7bdcac6ddb356cff0063b",
      "to": "0x872c561f699b42977c093f0ed8b4c9a431280c6c",
      "contractAddress": null,
      "daFootprintGasScalar": "0x94",
      "l1BaseFeeScalar": "0x8dd",
      "l1BlobBaseFee": "0x7413be",
      "l1BlobBaseFeeScalar": "0x101c12",
      "l1Fee": "0xd70d9611",
      "l1GasPrice": "0x876bb80",
      "l1GasUsed": "0x1119"
    }
  ],
  "libraries": [],
  "pending": [],
  "returns": {},
  "timestamp": 1780378779707,
  "chain": 8453,
  "commit": "7a7b9fb"
}