{
  "transactions": [
    {
      "hash": "0x39c45309f3c2c29d992ddf7823680b9adab0b236ded391ff22286ace4215ecf7",
      "transactionType": "CALL",
      "contractName": null,
      "contractAddress": "0x872c561f699b42977c093f0ed8b4c9a431280c6c",
      "function": "execTransaction(address,uint256,bytes,uint8,uint256,uint256,uint256,address,address,bytes)",
      "arguments": [
        "0x3394898b648385FAd4FE847c52B5E4CCe0D63662",
        "0",
        "0xc267ada400000000000000000000000033b218bd86046aad25c209b1d7adb7e8a6648387",
        "0",
        "0",
        "0",
        "0",
        "0x0000000000000000000000000000000000000000",
        "0x0000000000000000000000000000000000000000",
        "0x7372187daa383f33bda0af41bb86dba44a85fae4a906d47670adf8e89f2b70e06a94496ef95a1f652f6e3103a931391314c32a7d25b5d48c0bf76ed98a8bf6a41b68a7f8df2a287806c0e6c346cb0b68a7d879cd30d5210014a23091e94249f53562f47434fada9407c44ac2199899fb5328a70f013d5abbae0fbc9f2c8a9e883f1c"
      ],
      "transaction": {
        "from": "0x6002820a323bc6b44fe54059ea6964a36be4b1f6",
        "to": "0x872c561f699b42977c093f0ed8b4c9a431280c6c",
        "gas": "0x1a4aa",
        "value": "0x0",
        "input": "0x6a7612020000000000000000000000003394898b648385fad4fe847c52b5e4cce0d636620000000000000000000000000000000000000000000000000000000000000000000000000000000000000000000000000000000000000000000000000000014000000000000000000000000000000000000000000000000000000000000000000000000000000000000000000000000000000000000000000000000000000000000000000000000000000000000000000000000000000000000000000000000000000000000000000000000000000000000000000000000000000000000000000000000000000000000000000000000000000000000000000000000000000000000000000000000000000000000000000000000000000000000000000000000000000000000000000000000000000000000000000000000000000000000001a00000000000000000000000000000000000000000000000000000000000000024c267ada400000000000000000000000033b218bd86046aad25c209b1d7adb7e8a66483870000000000000000000000000000000000000000000000000000000000000000000000000000000000000000000000000000000000000000000000827372187daa383f33bda0af41bb86dba44a85fae4a906d47670adf8e89f2b70e06a94496ef95a1f652f6e3103a931391314c32a7d25b5d48c0bf76ed98a8bf6a41b68a7f8df2a287806c0e6c346cb0b68a7d879cd30d5210014a23091e94249f53562f47434fada9407c44ac2199899fb5328a70f013d5abbae0fbc9f2c8a9e883f1c000000000000000000000000000000000000000000000000000000000000",
        "nonce": "0x11",
        "chainId": "0x2105"
      },
      "additionalContracts": [],
      "isFixedGasLimit": false
    },
    {
      "hash": "0xdff588169b99e255b3d6484bf74cf6336fe1f49768a6d78e8ccf2839a7bce59d",
      "transactionType": "CALL",
      "contractName": null,
      "contractAddress": "0x872c561f699b42977c093f0ed8b4c9a431280c6c",
      "function": "execTransaction(address,uint256,bytes,uint8,uint256,uint256,uint256,address,address,bytes)",
      "arguments": [
        "0xA92EF6a90058f52556e74504324D28D7EC8d49a2",
        "0",
        "0x1f00d99e000000000000000000000000498581ff718922c3f8e6a244956af099b2652b2b",
        "0",
        "0",
        "0",
        "0",
        "0x0000000000000000000000000000000000000000",
        "0x0000000000000000000000000000000000000000",
        "0xaf8e0de03c1e8f3d4232607389e3575c25da0dbc27cc4cb94279fa599fad235b0b93f284b82b545239a26a5aa97ebb8efdd539d428b412a3c9dcfb7e423ce7921b2511b5ae01cfb6ec097a18eae102b933a75204e55254f13de37ff48970fa0be36f3128f0b3c00657958951a102f21ad088e1db8fd81a4a62c7f84477a02ce3f21b"
      ],
      "transaction": {
        "from": "0x6002820a323bc6b44fe54059ea6964a36be4b1f6",
        "to": "0x872c561f699b42977c093f0ed8b4c9a431280c6c",
        "gas": "0x1f508",
        "value": "0x0",
        "input": "0x6a761202000000000000000000000000a92ef6a90058f52556e74504324d28d7ec8d49a20000000000000000000000000000000000000000000000000000000000000000000000000000000000000000000000000000000000000000000000000000014000000000000000000000000000000000000000000000000000000000000000000000000000000000000000000000000000000000000000000000000000000000000000000000000000000000000000000000000000000000000000000000000000000000000000000000000000000000000000000000000000000000000000000000000000000000000000000000000000000000000000000000000000000000000000000000000000000000000000000000000000000000000000000000000000000000000000000000000000000000000000000000000000000000000001a000000000000000000000000000000000000000000000000000000000000000241f00d99e000000000000000000000000498581ff718922c3f8e6a244956af099b2652b2b000000000000000000000000000000000000000000000000000000000000000000000000000000000000000000000000000000000000000000000082af8e0de03c1e8f3d4232607389e3575c25da0dbc27cc4cb94279fa599fad235b0b93f284b82b545239a26a5aa97ebb8efdd539d428b412a3c9dcfb7e423ce7921b2511b5ae01cfb6ec097a18eae102b933a75204e55254f13de37ff48970fa0be36f3128f0b3c00657958951a102f21ad088e1db8fd81a4a62c7f84477a02ce3f21b000000000000000000000000000000000000000000000000000000000000",
        "nonce": "0x12",
        "chainId": "0x2105"
      },
      "additionalContracts": [],
      "isFixedGasLimit": false
    },
    {
      "hash": "0x1b7752c9eb29b40b7d5e5b9e3bfe83cd2a1dda6fc97bde6215fecbe5ac8e5c18",
      "transactionType": "CALL",
      "contractName": null,
      "contractAddress": "0x872c561f699b42977c093f0ed8b4c9a431280c6c",
      "function": "execTransaction(address,uint256,bytes,uint8,uint256,uint256,uint256,address,address,bytes)",
      "arguments": [
        "0xBBBBBbbBBb9cC5e90e3b3Af64bdAF62C37EEFFCb",
        "0",
        "0x8c1358a2000000000000000000000000f4d97f2da56e8c3098f3a8d538db630a2606a0240000000000000000000000003394898b648385fad4fe847c52b5e4cce0d63662000000000000000000000000e762e8011d453853638d1978398df8b1d383a2d900000000000000000000000046415998764c29ab2a25cbea6254146d50d226870000000000000000000000000000000000000000000000000557cb75ce868000",
        "0",
        "0",
        "0",
        "0",
        "0x0000000000000000000000000000000000000000",
        "0x0000000000000000000000000000000000000000",
        "0x51bcd93b4596d17d3c909ac2513a11d659dcac4db1f1d06ec29c29d251fca5df4f3f2cf6fdb988cea5ae308d8fcf15829c1036cad83dc5488c50b4e6f9c115411b76ec189a20ea824d31185de31a3941202daaf2667c5ee857353a7bed51757f827ae4f3177c0a918322b03a7cdfe34ad54ef70be02433f63bb95b93388dd4c2ee1c"
      ],
      "transaction": {
        "from": "0x6002820a323bc6b44fe54059ea6964a36be4b1f6",
        "to": "0x872c561f699b42977c093f0ed8b4c9a431280c6c",
        "gas": "0x52dc4",
        "value": "0x0",
        "input": "0x6a761202000000000000000000000000bbbbbbbbbb9cc5e90e3b3af64bdaf62c37eeffcb00000000000000000000000000000000000000000000000000000000000000000000000000000000000000000000000000000000000000000000000000000140000000000000000000000000000000000000000000000000000000000000000000000000000000000000000000000000000000000000000000000000000000000000000000000000000000000000000000000000000000000000000000000000000000000000000000000000000000000000000000000000000000000000000000000000000000000000000000000000000000000000000000000000000000000000000000000000000000000000000000000000000000000000000000000000000000000000000000000000000000000000000000000000000000000000022000000000000000000000000000000000000000000000000000000000000000a48c1358a2000000000000000000000000f4d97f2da56e8c3098f3a8d538db630a2606a0240000000000000000000000003394898b648385fad4fe847c52b5e4cce0d63662000000000000000000000000e762e8011d453853638d1978398df8b1d383a2d900000000000000000000000046415998764c29ab2a25cbea6254146d50d226870000000000000000000000000000000000000000000000000557cb75ce86800000000000000000000000000000000000000000000000000000000000000000000000000000000000000000000000000000000000000000000000008251bcd93b4596d17d3c909ac2513a11d659dcac4db1f1d06ec29c29d251fca5df4f3f2cf6fdb988cea5ae308d8fcf15829c1036cad83dc5488c50b4e6f9c115411b76ec189a20ea824d31185de31a3941202daaf2667c5ee857353a7bed51757f827ae4f3177c0a918322b03a7cdfe34ad54ef70be02433f63bb95b93388dd4c2ee1c000000000000000000000000000000000000000000000000000000000000",
        "nonce": "0x13",
        "chainId": "0x2105"
      },
      "additionalContracts": [],
      "isFixedGasLimit": false
    }
  ],
  "receipts": [
    {
      "status": "0x1",
      "cumulativeGasUsed": "0xedddad",
      "logs": [
        {
          "address": "0x872c561f699b42977c093f0ed8b4c9a431280c6c",
          "topics": [
            "0x66753cd2356569ee081232e3be8909b950e0a76c1f8460c3a5e3c2be32b11bed"
          ],
          "data": "0x0000000000000000000000003394898b648385fad4fe847c52b5e4cce0d636620000000000000000000000000000000000000000000000000000000000000000000000000000000000000000000000000000000000000000000000000000016000000000000000000000000000000000000000000000000000000000000000000000000000000000000000000000000000000000000000000000000000000000000000000000000000000000000000000000000000000000000000000000000000000000000000000000000000000000000000000000000000000000000000000000000000000000000000000000000000000000000000000000000000000000000000000000000000000000000000000000000000000000000000000000000000000000000000000000000000000000000000000000000000000000000001c000000000000000000000000000000000000000000000000000000000000002800000000000000000000000000000000000000000000000000000000000000024c267ada400000000000000000000000033b218bd86046aad25c209b1d7adb7e8a66483870000000000000000000000000000000000000000000000000000000000000000000000000000000000000000000000000000000000000000000000827372187daa383f33bda0af41bb86dba44a85fae4a906d47670adf8e89f2b70e06a94496ef95a1f652f6e3103a931391314c32a7d25b5d48c0bf76ed98a8bf6a41b68a7f8df2a287806c0e6c346cb0b68a7d879cd30d5210014a23091e94249f53562f47434fada9407c44ac2199899fb5328a70f013d5abbae0fbc9f2c8a9e883f1c000000000000000000000000000000000000000000000000000000000000000000000000000000000000000000000000000000000000000000000000006000000000000000000000000000000000000000000000000000000000000000300000000000000000000000006002820a323bc6b44fe54059ea6964a36be4b1f60000000000000000000000000000000000000000000000000000000000000002",
          "blockHash": "0x0000000000000000000000000000000000000000000000000000000000000000",
          "blockNumber": "0x2c9dae0",
          "blockTimestamp": "0x6a1e12a3",
          "transactionHash": "0xdff588169b99e255b3d6484bf74cf6336fe1f49768a6d78e8ccf2839a7bce59d",
          "transactionIndex": "0x2e",
          "logIndex": "0xe7",
          "removed": false
        },
        {
          "address": "0x872c561f699b42977c093f0ed8b4c9a431280c6c",
          "topics": [
            "0x442e715f626346e8c54381002da614f62bee8d27386535b2521ec8540898556e",
            "0xf44e06e38c837498bb6d62f93c93ee5f787958b9d2c8b5130e55c52db0cfec14"
          ],
          "data": "0x0000000000000000000000000000000000000000000000000000000000000000",
          "blockHash": "0x0000000000000000000000000000000000000000000000000000000000000000",
          "blockNumber": "0x2c9dae0",
          "blockTimestamp": "0x6a1e12a3",
          "transactionHash": "0xdff588169b99e255b3d6484bf74cf6336fe1f49768a6d78e8ccf2839a7bce59d",
          "transactionIndex": "0x2e",
          "logIndex": "0xe8",
          "removed": false
        }
      ],
      "logsBloom": "0x00000000400000000000000000000000000000000000000000000000040000000000000000000000000000000000000000000000000000000000000000000000000000800000000000000000000000000000040000000000000000000000000000002000000000000000000000000000000000000000000002000000000000000000000000000000000000000000000000000000400000000000000000000000000000000400000000000000000004000000000000000000000002000000000000000000000400000000000000020000000000000000000000000000000000000000000000000000000000000000000000000000000000000000000000000000",
      "type": "0x2",
      "transactionHash": "0xdff588169b99e255b3d6484bf74cf6336fe1f49768a6d78e8ccf2839a7bce59d",
      "transactionIndex": "0x2e",
      "blockHash": "0x0000000000000000000000000000000000000000000000000000000000000000",
      "blockNumber": "0x2c9dae0",
      "gasUsed": "0x11fa3",
      "effectiveGasPrice": "0x57bcf0",
      "blobGasUsed": "0x8d10",
      "from": "0x6002820a323bc6b44fe54059ea6964a36be4b1f6",
      "to": "0x872c561f699b42977c093f0ed8b4c9a431280c6c",
      "contractAddress": null,
      "daFootprintGasScalar": "0x94",
      "l1BaseFeeScalar": "0x8dd",
      "l1BlobBaseFee": "0x1156a47",
      "l1BlobBaseFeeScalar": "0x101c12",
      "l1Fee": "0xc4e859dc",
      "l1GasPrice": "0x16b98461",
      "l1GasUsed": "0xf45"
    },
    {
      "status": "0x1",
      "cumulativeGasUsed": "0xef486b",
      "logs": [
        {
          "address": "0x872c561f699b42977c093f0ed8b4c9a431280c6c",
          "topics": [
            "0x66753cd2356569ee081232e3be8909b950e0a76c1f8460c3a5e3c2be32b11bed"
          ],
          "data": "0x000000000000000000000000a92ef6a90058f52556e74504324d28d7ec8d49a20000000000000000000000000000000000000000000000000000000000000000000000000000000000000000000000000000000000000000000000000000016000000000000000000000000000000000000000000000000000000000000000000000000000000000000000000000000000000000000000000000000000000000000000000000000000000000000000000000000000000000000000000000000000000000000000000000000000000000000000000000000000000000000000000000000000000000000000000000000000000000000000000000000000000000000000000000000000000000000000000000000000000000000000000000000000000000000000000000000000000000000000000000000000000000000001c0000000000000000000000000000000000000000000000000000000000000028000000000000000000000000000000000000000000000000000000000000000241f00d99e000000000000000000000000498581ff718922c3f8e6a244956af099b2652b2b000000000000000000000000000000000000000000000000000000000000000000000000000000000000000000000000000000000000000000000082af8e0de03c1e8f3d4232607389e3575c25da0dbc27cc4cb94279fa599fad235b0b93f284b82b545239a26a5aa97ebb8efdd539d428b412a3c9dcfb7e423ce7921b2511b5ae01cfb6ec097a18eae102b933a75204e55254f13de37ff48970fa0be36f3128f0b3c00657958951a102f21ad088e1db8fd81a4a62c7f84477a02ce3f21b000000000000000000000000000000000000000000000000000000000000000000000000000000000000000000000000000000000000000000000000006000000000000000000000000000000000000000000000000000000000000000310000000000000000000000006002820a323bc6b44fe54059ea6964a36be4b1f60000000000000000000000000000000000000000000000000000000000000002",
          "blockHash": "0x0000000000000000000000000000000000000000000000000000000000000000",
          "blockNumber": "0x2c9dae0",
          "blockTimestamp": "0x6a1e12a3",
          "transactionHash": "0x39c45309f3c2c29d992ddf7823680b9adab0b236ded391ff22286ace4215ecf7",
          "transactionIndex": "0x2f",
          "logIndex": "0xe9",
          "removed": false
        },
        {
          "address": "0x872c561f699b42977c093f0ed8b4c9a431280c6c",
          "topics": [
            "0x442e715f626346e8c54381002da614f62bee8d27386535b2521ec8540898556e",
            "0x531d4472a1f2d101fa4452be913878605849801934d720068c4275401478c0a8"
          ],
          "data": "0x0000000000000000000000000000000000000000000000000000000000000000",
          "blockHash": "0x0000000000000000000000000000000000000000000000000000000000000000",
          "blockNumber": "0x2c9dae0",
          "blockTimestamp": "0x6a1e12a3",
          "transactionHash": "0x39c45309f3c2c29d992ddf7823680b9adab0b236ded391ff22286ace4215ecf7",
          "transactionIndex": "0x2f",
          "logIndex": "0xea",
          "removed": false
        }
      ],
      "logsBloom": "0x00000000400000000000000000000000000000000000000000000000040000000000000000000020000000000000001000000000000000000000000000000000000000000000000000000010000000000000040000000000000000000000000000002000000000000000000000000000000000000000000000000000000000000000000000000000000000000000000000000000000000000000000000000000000000000400000000000000000004000000000000000000000002000000000000000000000400000000000000020000000000000000000000000000000000000000000000000000000000000000000000000000000000000000000000000000",
      "type": "0x2",
      "transactionHash": "0x39c45309f3c2c29d992ddf7823680b9adab0b236ded391ff22286ace4215ecf7",
      "transactionIndex": "0x2f",
      "blockHash": "0x0000000000000000000000000000000000000000000000000000000000000000",
      "blockNumber": "0x2c9dae0",
      "gasUsed": "0x16abe",
      "effectiveGasPrice": "0x57bcf0",
      "blobGasUsed": "0x8d10",
      "from": "0x6002820a323bc6b44fe54059ea6964a36be4b1f6",
      "to": "0x872c561f699b42977c093f0ed8b4c9a431280c6c",
      "contractAddress": null,
      "daFootprintGasScalar": "0x94",
      "l1BaseFeeScalar": "0x8dd",
      "l1BlobBaseFee": "0x1156a47",
      "l1BlobBaseFeeScalar": "0x101c12",
      "l1Fee": "0xc4e859dc",
      "l1GasPrice": "0x16b98461",
      "l1GasUsed": "0xf45"
    },
    {
      "status": "0x1",
      "cumulativeGasUsed": "0xf30840",
      "logs": [
        {
          "address": "0x872c561f699b42977c093f0ed8b4c9a431280c6c",
          "topics": [
            "0x66753cd2356569ee081232e3be8909b950e0a76c1f8460c3a5e3c2be32b11bed"
          ],
          "data": "0x000000000000000000000000bbbbbbbbbb9cc5e90e3b3af64bdaf62c37eeffcb000000000000000000000000000000000000000000000000000000000000000000000000000000000000000000000000000000000000000000000000000001600000000000000000000000000000000000000000000000000000000000000000000000000000000000000000000000000000000000000000000000000000000000000000000000000000000000000000000000000000000000000000000000000000000000000000000000000000000000000000000000000000000000000000000000000000000000000000000000000000000000000000000000000000000000000000000000000000000000000000000000000000000000000000000000000000000000000000000000000000000000000000000000000000000000000240000000000000000000000000000000000000000000000000000000000000030000000000000000000000000000000000000000000000000000000000000000a48c1358a2000000000000000000000000f4d97f2da56e8c3098f3a8d538db630a2606a0240000000000000000000000003394898b648385fad4fe847c52b5e4cce0d63662000000000000000000000000e762e8011d453853638d1978398df8b1d383a2d900000000000000000000000046415998764c29ab2a25cbea6254146d50d226870000000000000000000000000000000000000000000000000557cb75ce86800000000000000000000000000000000000000000000000000000000000000000000000000000000000000000000000000000000000000000000000008251bcd93b4596d17d3c909ac2513a11d659dcac4db1f1d06ec29c29d251fca5df4f3f2cf6fdb988cea5ae308d8fcf15829c1036cad83dc5488c50b4e6f9c115411b76ec189a20ea824d31185de31a3941202daaf2667c5ee857353a7bed51757f827ae4f3177c0a918322b03a7cdfe34ad54ef70be02433f63bb95b93388dd4c2ee1c000000000000000000000000000000000000000000000000000000000000000000000000000000000000000000000000000000000000000000000000006000000000000000000000000000000000000000000000000000000000000000320000000000000000000000006002820a323bc6b44fe54059ea6964a36be4b1f60000000000000000000000000000000000000000000000000000000000000002",
          "blockHash": "0x0000000000000000000000000000000000000000000000000000000000000000",
          "blockNumber": "0x2c9dae0",
          "blockTimestamp": "0x6a1e12a3",
          "transactionHash": "0x1b7752c9eb29b40b7d5e5b9e3bfe83cd2a1dda6fc97bde6215fecbe5ac8e5c18",
          "transactionIndex": "0x30",
          "logIndex": "0xeb",
          "removed": false
        },
        {
          "address": "0xbbbbbbbbbb9cc5e90e3b3af64bdaf62c37eeffcb",
          "topics": [
            "0xac4b2400f169220b0c0afdde7a0b32e775ba727ea1cb30b35f935cdaab8683ac",
            "0xdaf35f1b7950cbc49a0570fbfff090088805df3ee2020811f46e9abdf2bf5895"
          ],
          "data": "0x000000000000000000000000f4d97f2da56e8c3098f3a8d538db630a2606a0240000000000000000000000003394898b648385fad4fe847c52b5e4cce0d63662000000000000000000000000e762e8011d453853638d1978398df8b1d383a2d900000000000000000000000046415998764c29ab2a25cbea6254146d50d226870000000000000000000000000000000000000000000000000557cb75ce868000",
          "blockHash": "0x0000000000000000000000000000000000000000000000000000000000000000",
          "blockNumber": "0x2c9dae0",
          "blockTimestamp": "0x6a1e12a3",
          "transactionHash": "0x1b7752c9eb29b40b7d5e5b9e3bfe83cd2a1dda6fc97bde6215fecbe5ac8e5c18",
          "transactionIndex": "0x30",
          "logIndex": "0xec",
          "removed": false
        },
        {
          "address": "0x46415998764c29ab2a25cbea6254146d50d22687",
          "topics": [
            "0x7120161a7b3d31251e01294ab351ef15a41b91659a36032e4641bb89b121e321",
            "0xdaf35f1b7950cbc49a0570fbfff090088805df3ee2020811f46e9abdf2bf5895"
          ],
          "data": "0x0000000000000000000000000000000000000000000000000000000012e687bf000000000000000000000000000000000000000000000000000000004b9a1eff",
          "blockHash": "0x0000000000000000000000000000000000000000000000000000000000000000",
          "blockNumber": "0x2c9dae0",
          "blockTimestamp": "0x6a1e12a3",
          "transactionHash": "0x1b7752c9eb29b40b7d5e5b9e3bfe83cd2a1dda6fc97bde6215fecbe5ac8e5c18",
          "transactionIndex": "0x30",
          "logIndex": "0xed",
          "removed": false
        },
        {
          "address": "0x872c561f699b42977c093f0ed8b4c9a431280c6c",
          "topics": [
            "0x442e715f626346e8c54381002da614f62bee8d27386535b2521ec8540898556e",
            "0xac7fa05d5e490ede9e91f3b004b70aeeb35a5cfad422d6b0d8afb6b1cfe5ef2c"
          ],
          "data": "0x0000000000000000000000000000000000000000000000000000000000000000",
          "blockHash": "0x0000000000000000000000000000000000000000000000000000000000000000",
          "blockNumber": "0x2c9dae0",
          "blockTimestamp": "0x6a1e12a3",
          "transactionHash": "0x1b7752c9eb29b40b7d5e5b9e3bfe83cd2a1dda6fc97bde6215fecbe5ac8e5c18",
          "transactionIndex": "0x30",
          "logIndex": "0xee",
          "removed": false
        }
      ],
      "logsBloom": "0x00000000400000000000000000000800000000000000000000000000040000000000000000000100000000000000000000000000000000000000000000804001000000000010000000000000000000000000040000000000000000000000000000002000000000000000000000000000000008000000000000000040000000000000000000000008000000000000000000000000000000000008080000000000000000000400000000000000000004000000000000000000000002000000040020000000000400000000000000020000000100000000000000000000000000010000000000000000000000000001000000000000000000000000000000004010",
      "type": "0x2",
      "transactionHash": "0x1b7752c9eb29b40b7d5e5b9e3bfe83cd2a1dda6fc97bde6215fecbe5ac8e5c18",
      "transactionIndex": "0x30",
      "blockHash": "0x0000000000000000000000000000000000000000000000000000000000000000",
      "blockNumber": "0x2c9dae0",
      "gasUsed": "0x3bfd5",
      "effectiveGasPrice": "0x57bcf0",
      "blobGasUsed": "0xb61c",
      "from": "0x6002820a323bc6b44fe54059ea6964a36be4b1f6",
      "to": "0x872c561f699b42977c093f0ed8b4c9a431280c6c",
      "contractAddress": null,
      "daFootprintGasScalar": "0x94",
      "l1BaseFeeScalar": "0x8dd",
      "l1BlobBaseFee": "0x1156a47",
      "l1BlobBaseFeeScalar": "0x101c12",
      "l1Fee": "0xc4e859dc",
      "l1GasPrice": "0x16b98461",
      "l1GasUsed": "0x13b6"
    }
  ],
  "libraries": [],
  "pending": [],
  "returns": {},
  "timestamp": 1780355746835,
  "chain": 8453,
  "commit": "b7e9519"
}