{
  "transactions": [
    {
      "hash": "0x28594a48427db026db930121864cac22dffdb8b5ffa0243ccb81524092ef0cdd",
      "transactionType": "CALL",
      "contractName": null,
      "contractAddress": "0x872c561f699b42977c093f0ed8b4c9a431280c6c",
      "function": "execTransaction(address,uint256,bytes,uint8,uint256,uint256,uint256,address,address,bytes)",
      "arguments": [
        "0xe49FA849cB37b0e7A42B2335e333fb99474167ba",
        "0",
        "0xf1cd3a390000000000000000000000008885b256609e1d7c1fb2f1db58a379d2efb8bbf30000000000000000000000000000000000000000000000000000000000000000",
        "0",
        "0",
        "0",
        "0",
        "0x0000000000000000000000000000000000000000",
        "0x0000000000000000000000000000000000000000",
        "0x923476d32937d3e3f3a397b06742f47e30b76b09bba7379ad9a1025d8e674d3a4a270e2790b06a28b9b1b6b91af42e6e3879437a941b0726a7c7e507b5bff11d1bf1162cfebfdfda36d0c46777f5e371186bf02e54ea9c80db0311a017840361e60cb7d2be84b07434a0548260a62d07fdfbb882e3498b3780bf27a4048bf9dc361c"
      ],
      "transaction": {
        "from": "0xf04822e5b0e76a34aeea936c79b4439f794b8be1",
        "to": "0x872c561f699b42977c093f0ed8b4c9a431280c6c",
        "gas": "0x191b5",
        "value": "0x0",
        "input": "0x6a761202000000000000000000000000e49fa849cb37b0e7a42b2335e333fb99474167ba0000000000000000000000000000000000000000000000000000000000000000000000000000000000000000000000000000000000000000000000000000014000000000000000000000000000000000000000000000000000000000000000000000000000000000000000000000000000000000000000000000000000000000000000000000000000000000000000000000000000000000000000000000000000000000000000000000000000000000000000000000000000000000000000000000000000000000000000000000000000000000000000000000000000000000000000000000000000000000000000000000000000000000000000000000000000000000000000000000000000000000000000000000000000000000000001c00000000000000000000000000000000000000000000000000000000000000044f1cd3a390000000000000000000000008885b256609e1d7c1fb2f1db58a379d2efb8bbf30000000000000000000000000000000000000000000000000000000000000000000000000000000000000000000000000000000000000000000000000000000000000000000000000000000000000000000000000000000000000082923476d32937d3e3f3a397b06742f47e30b76b09bba7379ad9a1025d8e674d3a4a270e2790b06a28b9b1b6b91af42e6e3879437a941b0726a7c7e507b5bff11d1bf1162cfebfdfda36d0c46777f5e371186bf02e54ea9c80db0311a017840361e60cb7d2be84b07434a0548260a62d07fdfbb882e3498b3780bf27a4048bf9dc361c000000000000000000000000000000000000000000000000000000000000",
        "nonce": "0xc",
        "chainId": "0x2105"
      },
      "additionalContracts": [],
      "isFixedGasLimit": false
    },
    {
      "hash": "0xda8162d9d63800ceacd5b69b24a16b51353a157a00b6ff85ce5d8c6292698af3",
      "transactionType": "CALL",
      "contractName": null,
      "contractAddress": "0x872c561f699b42977c093f0ed8b4c9a431280c6c",
      "function": "execTransaction(address,uint256,bytes,uint8,uint256,uint256,uint256,address,address,bytes)",
      "arguments": [
        "0xe49FA849cB37b0e7A42B2335e333fb99474167ba",
        "0",
        "0xf1cd3a39000000000000000000000000f50ca14f49bd090fc13680019ed8df5046626e8b0000000000000000000000000000000000000000000000000000000000000000",
        "0",
        "0",
        "0",
        "0",
        "0x0000000000000000000000000000000000000000",
        "0x0000000000000000000000000000000000000000",
        "0x03603582e03ea9196f85f6fe759a5cefdb31d7c05de9d3269b4332f60f5ee28b4ba3b848c460c45467e5b3b5df4c8cafbd21717bab6b33e9e1aba976deac11e41c2472d513574e46dd3ec0c6fbefcfa4e61a9f2a587c93c1496fcac527d07dc79a0dfe810f0596824150e3632a38295edb68df446c01cbb6686f5681641d08df711c"
      ],
      "transaction": {
        "from": "0xf04822e5b0e76a34aeea936c79b4439f794b8be1",
        "to": "0x872c561f699b42977c093f0ed8b4c9a431280c6c",
        "gas": "0x191b5",
        "value": "0x0",
        "input": "0x6a761202000000000000000000000000e49fa849cb37b0e7a42b2335e333fb99474167ba0000000000000000000000000000000000000000000000000000000000000000000000000000000000000000000000000000000000000000000000000000014000000000000000000000000000000000000000000000000000000000000000000000000000000000000000000000000000000000000000000000000000000000000000000000000000000000000000000000000000000000000000000000000000000000000000000000000000000000000000000000000000000000000000000000000000000000000000000000000000000000000000000000000000000000000000000000000000000000000000000000000000000000000000000000000000000000000000000000000000000000000000000000000000000000000001c00000000000000000000000000000000000000000000000000000000000000044f1cd3a39000000000000000000000000f50ca14f49bd090fc13680019ed8df5046626e8b000000000000000000000000000000000000000000000000000000000000000000000000000000000000000000000000000000000000000000000000000000000000000000000000000000000000000000000000000000000000008203603582e03ea9196f85f6fe759a5cefdb31d7c05de9d3269b4332f60f5ee28b4ba3b848c460c45467e5b3b5df4c8cafbd21717bab6b33e9e1aba976deac11e41c2472d513574e46dd3ec0c6fbefcfa4e61a9f2a587c93c1496fcac527d07dc79a0dfe810f0596824150e3632a38295edb68df446c01cbb6686f5681641d08df711c000000000000000000000000000000000000000000000000000000000000",
        "nonce": "0xd",
        "chainId": "0x2105"
      },
      "additionalContracts": [],
      "isFixedGasLimit": false
    }
  ],
  "receipts": [
    {
      "status": "0x1",
      "cumulativeGasUsed": "0x5d761c",
      "logs": [
        {
          "address": "0x872c561f699b42977c093f0ed8b4c9a431280c6c",
          "topics": [
            "0x66753cd2356569ee081232e3be8909b950e0a76c1f8460c3a5e3c2be32b11bed"
          ],
          "data": "0x000000000000000000000000e49fa849cb37b0e7a42b2335e333fb99474167ba0000000000000000000000000000000000000000000000000000000000000000000000000000000000000000000000000000000000000000000000000000016000000000000000000000000000000000000000000000000000000000000000000000000000000000000000000000000000000000000000000000000000000000000000000000000000000000000000000000000000000000000000000000000000000000000000000000000000000000000000000000000000000000000000000000000000000000000000000000000000000000000000000000000000000000000000000000000000000000000000000000000000000000000000000000000000000000000000000000000000000000000000000000000000000000000001e000000000000000000000000000000000000000000000000000000000000002a00000000000000000000000000000000000000000000000000000000000000044f1cd3a390000000000000000000000008885b256609e1d7c1fb2f1db58a379d2efb8bbf30000000000000000000000000000000000000000000000000000000000000000000000000000000000000000000000000000000000000000000000000000000000000000000000000000000000000000000000000000000000000082923476d32937d3e3f3a397b06742f47e30b76b09bba7379ad9a1025d8e674d3a4a270e2790b06a28b9b1b6b91af42e6e3879437a941b0726a7c7e507b5bff11d1bf1162cfebfdfda36d0c46777f5e371186bf02e54ea9c80db0311a017840361e60cb7d2be84b07434a0548260a62d07fdfbb882e3498b3780bf27a4048bf9dc361c0000000000000000000000000000000000000000000000000000000000000000000000000000000000000000000000000000000000000000000000000060000000000000000000000000000000000000000000000000000000000000004c000000000000000000000000f04822e5b0e76a34aeea936c79b4439f794b8be10000000000000000000000000000000000000000000000000000000000000002",
          "blockHash": "0x0000000000000000000000000000000000000000000000000000000000000000",
          "blockNumber": "0x2d11a0d",
          "blockTimestamp": "0x6a2c90fd",
          "transactionHash": "0x28594a48427db026db930121864cac22dffdb8b5ffa0243ccb81524092ef0cdd",
          "transactionIndex": "0x3c",
          "logIndex": "0x77",
          "removed": false
        },
        {
          "address": "0xe49fa849cb37b0e7a42b2335e333fb99474167ba",
          "topics": [
            "0x9f0b5e2e99b047f18244f9503999cd734903f90a033ebad82b1018376eab4b82",
            "0x0000000000000000000000008885b256609e1d7c1fb2f1db58a379d2efb8bbf3"
          ],
          "data": "0x0000000000000000000000000000000000000000000000000000000000000000",
          "blockHash": "0x0000000000000000000000000000000000000000000000000000000000000000",
          "blockNumber": "0x2d11a0d",
          "blockTimestamp": "0x6a2c90fd",
          "transactionHash": "0x28594a48427db026db930121864cac22dffdb8b5ffa0243ccb81524092ef0cdd",
          "transactionIndex": "0x3c",
          "logIndex": "0x78",
          "removed": false
        },
        {
          "address": "0x872c561f699b42977c093f0ed8b4c9a431280c6c",
          "topics": [
            "0x442e715f626346e8c54381002da614f62bee8d27386535b2521ec8540898556e",
            "0xc1df7ec25ae29f926f0a5021e106e219692f38b9fb98d786ca70158ac42aa1f9"
          ],
          "data": "0x0000000000000000000000000000000000000000000000000000000000000000",
          "blockHash": "0x0000000000000000000000000000000000000000000000000000000000000000",
          "blockNumber": "0x2d11a0d",
          "blockTimestamp": "0x6a2c90fd",
          "transactionHash": "0x28594a48427db026db930121864cac22dffdb8b5ffa0243ccb81524092ef0cdd",
          "transactionIndex": "0x3c",
          "logIndex": "0x79",
          "removed": false
        }
      ],
      "logsBloom": "0x00000000400000010000000000000000000000000000000000000000040000000000010001000000000008000000000000000000000000000000000000000004000000000000000000000000000000000000040080000000000000000000000000002000000000000000000004000000000040000000000000000000000000000000000000000000000080000000000000000000004000000000000000000000000040000400000000000000000004000000000000000000000002000000000000000000000400000000000000020000000000000000000000001000000000000000000000000000000000000000000000000000000000000000000000000000",
      "type": "0x2",
      "transactionHash": "0x28594a48427db026db930121864cac22dffdb8b5ffa0243ccb81524092ef0cdd",
      "transactionIndex": "0x3c",
      "blockHash": "0x0000000000000000000000000000000000000000000000000000000000000000",
      "blockNumber": "0x2d11a0d",
      "gasUsed": "0x122d5",
      "effectiveGasPrice": "0x5b8d80",
      "blobGasUsed": "0x8d10",
      "from": "0xf04822e5b0e76a34aeea936c79b4439f794b8be1",
      "to": "0x872c561f699b42977c093f0ed8b4c9a431280c6c",
      "contractAddress": null,
      "daFootprintGasScalar": "0x94",
      "l1BaseFeeScalar": "0x8dd",
      "l1BlobBaseFee": "0x7377ad",
      "l1BlobBaseFeeScalar": "0x101c12",
      "l1Fee": "0x4edf4886",
      "l1GasPrice": "0x89bcc12",
      "l1GasUsed": "0xf45"
    },
    {
      "status": "0x1",
      "cumulativeGasUsed": "0x5e98f1",
      "logs": [
        {
          "address": "0x872c561f699b42977c093f0ed8b4c9a431280c6c",
          "topics": [
            "0x66753cd2356569ee081232e3be8909b950e0a76c1f8460c3a5e3c2be32b11bed"
          ],
          "data": "0x000000000000000000000000e49fa849cb37b0e7a42b2335e333fb99474167ba0000000000000000000000000000000000000000000000000000000000000000000000000000000000000000000000000000000000000000000000000000016000000000000000000000000000000000000000000000000000000000000000000000000000000000000000000000000000000000000000000000000000000000000000000000000000000000000000000000000000000000000000000000000000000000000000000000000000000000000000000000000000000000000000000000000000000000000000000000000000000000000000000000000000000000000000000000000000000000000000000000000000000000000000000000000000000000000000000000000000000000000000000000000000000000000001e000000000000000000000000000000000000000000000000000000000000002a00000000000000000000000000000000000000000000000000000000000000044f1cd3a39000000000000000000000000f50ca14f49bd090fc13680019ed8df5046626e8b000000000000000000000000000000000000000000000000000000000000000000000000000000000000000000000000000000000000000000000000000000000000000000000000000000000000000000000000000000000000008203603582e03ea9196f85f6fe759a5cefdb31d7c05de9d3269b4332f60f5ee28b4ba3b848c460c45467e5b3b5df4c8cafbd21717bab6b33e9e1aba976deac11e41c2472d513574e46dd3ec0c6fbefcfa4e61a9f2a587c93c1496fcac527d07dc79a0dfe810f0596824150e3632a38295edb68df446c01cbb6686f5681641d08df711c0000000000000000000000000000000000000000000000000000000000000000000000000000000000000000000000000000000000000000000000000060000000000000000000000000000000000000000000000000000000000000004d000000000000000000000000f04822e5b0e76a34aeea936c79b4439f794b8be10000000000000000000000000000000000000000000000000000000000000002",
          "blockHash": "0x0000000000000000000000000000000000000000000000000000000000000000",
          "blockNumber": "0x2d11a0d",
          "blockTimestamp": "0x6a2c90fd",
          "transactionHash": "0xda8162d9d63800ceacd5b69b24a16b51353a157a00b6ff85ce5d8c6292698af3",
          "transactionIndex": "0x3d",
          "logIndex": "0x7a",
          "removed": false
        },
        {
          "address": "0xe49fa849cb37b0e7a42b2335e333fb99474167ba",
          "topics": [
            "0x9f0b5e2e99b047f18244f9503999cd734903f90a033ebad82b1018376eab4b82",
            "0x000000000000000000000000f50ca14f49bd090fc13680019ed8df5046626e8b"
          ],
          "data": "0x0000000000000000000000000000000000000000000000000000000000000000",
          "blockHash": "0x0000000000000000000000000000000000000000000000000000000000000000",
          "blockNumber": "0x2d11a0d",
          "blockTimestamp": "0x6a2c90fd",
          "transactionHash": "0xda8162d9d63800ceacd5b69b24a16b51353a157a00b6ff85ce5d8c6292698af3",
          "transactionIndex": "0x3d",
          "logIndex": "0x7b",
          "removed": false
        },
        {
          "address": "0x872c561f699b42977c093f0ed8b4c9a431280c6c",
          "topics": [
            "0x442e715f626346e8c54381002da614f62bee8d27386535b2521ec8540898556e",
            "0xd2af9fb6cc0c7795cf415a6466d6afa6b85c651425b1e6b7d1438b3ed323c1de"
          ],
          "data": "0x0000000000000000000000000000000000000000000000000000000000000000",
          "blockHash": "0x0000000000000000000000000000000000000000000000000000000000000000",
          "blockNumber": "0x2d11a0d",
          "blockTimestamp": "0x6a2c90fd",
          "transactionHash": "0xda8162d9d63800ceacd5b69b24a16b51353a157a00b6ff85ce5d8c6292698af3",
          "transactionIndex": "0x3d",
          "logIndex": "0x7c",
          "removed": false
        }
      ],
      "logsBloom": "0x00800000400000000000000000000000000000000000000000000000040000000000010001000000100008000000000000000000000000020000000000000004000000000000000000000000000000000000040000000000000000000000000000002000001000000000000000000000020040000000000000000000000000000000000000000000000000000000000000000000000000000000000000000000000040000400000008000000000004000000000000000000000002000000000000000000000400000000000000020000000000000000000000000000000000000000000000000000000000000000000000000000000000000000000000000000",
      "type": "0x2",
      "transactionHash": "0xda8162d9d63800ceacd5b69b24a16b51353a157a00b6ff85ce5d8c6292698af3",
      "transactionIndex": "0x3d",
      "blockHash": "0x0000000000000000000000000000000000000000000000000000000000000000",
      "blockNumber": "0x2d11a0d",
      "gasUsed": "0x122d5",
      "effectiveGasPrice": "0x5b8d80",
      "blobGasUsed": "0x8d10",
      "from": "0xf04822e5b0e76a34aeea936c79b4439f794b8be1",
      "to": "0x872c561f699b42977c093f0ed8b4c9a431280c6c",
      "contractAddress": null,
      "daFootprintGasScalar": "0x94",
      "l1BaseFeeScalar": "0x8dd",
      "l1BlobBaseFee": "0x7377ad",
      "l1BlobBaseFeeScalar": "0x101c12",
      "l1Fee": "0x4edf4886",
      "l1GasPrice": "0x89bcc12",
      "l1GasUsed": "0xf45"
    }
  ],
  "libraries": [],
  "pending": [],
  "returns": {},
  "timestamp": 1781305595498,
  "chain": 8453,
  "commit": "cca9802"
}