{
  "transactions": [
    {
      "hash": "0x7422b27e9e0486a14135489a8a7dcd9517a994f796b0bc6931150cc7f844ac83",
      "transactionType": "CALL",
      "contractName": null,
      "contractAddress": "0x04f1a284168743759be6554f607a10cebdb77760",
      "function": "transferOwnership(address)",
      "arguments": [
        "0x872c561f699B42977c093F0eD8b4C9a431280c6c"
      ],
      "transaction": {
        "from": "0x49f5b131e083510d47b22f7f4526c1b0f7957cda",
        "to": "0x04f1a284168743759be6554f607a10cebdb77760",
        "gas": "0x9b77",
        "value": "0x0",
        "input": "0xf2fde38b000000000000000000000000872c561f699b42977c093f0ed8b4c9a431280c6c",
        "nonce": "0x1c",
        "chainId": "0x2105"
      },
      "additionalContracts": [],
      "isFixedGasLimit": false
    },
    {
      "hash": "0x2d080089e8167587010b1ec0cc46ebed9db4c862a747ef0e3b726f570d9e5ee1",
      "transactionType": "CALL",
      "contractName": null,
      "contractAddress": "0xf7d3be3fc0de76fa5550c29a8f6fa53667b876ff",
      "function": "transferOwnership(address)",
      "arguments": [
        "0x872c561f699B42977c093F0eD8b4C9a431280c6c"
      ],
      "transaction": {
        "from": "0x49f5b131e083510d47b22f7f4526c1b0f7957cda",
        "to": "0xf7d3be3fc0de76fa5550c29a8f6fa53667b876ff",
        "gas": "0xa2fb",
        "value": "0x0",
        "input": "0xf2fde38b000000000000000000000000872c561f699b42977c093f0ed8b4c9a431280c6c",
        "nonce": "0x1d",
        "chainId": "0x2105"
      },
      "additionalContracts": [],
      "isFixedGasLimit": false
    },
    {
      "hash": "0xcce2a4b99ee8b996f0692f2609415cfc9b6b6c11754e1f29df02b5074be58705",
      "transactionType": "CALL",
      "contractName": null,
      "contractAddress": "0xb614167d79adbaa9ba35d05fe1d5542d7316ccaa",
      "function": "transferOwnership(address)",
      "arguments": [
        "0x872c561f699B42977c093F0eD8b4C9a431280c6c"
      ],
      "transaction": {
        "from": "0x49f5b131e083510d47b22f7f4526c1b0f7957cda",
        "to": "0xb614167d79adbaa9ba35d05fe1d5542d7316ccaa",
        "gas": "0x99a7",
        "value": "0x0",
        "input": "0xf2fde38b000000000000000000000000872c561f699b42977c093f0ed8b4c9a431280c6c",
        "nonce": "0x1e",
        "chainId": "0x2105"
      },
      "additionalContracts": [],
      "isFixedGasLimit": false
    },
    {
      "hash": "0x28635256500d024e99b23ea62dd25d933934577ef56bd649d369c4b9599fde22",
      "transactionType": "CALL",
      "contractName": null,
      "contractAddress": "0x77247fcd1d5e34a3703aca898a591dc7422435f3",
      "function": "transferOwnership(address)",
      "arguments": [
        "0x872c561f699B42977c093F0eD8b4C9a431280c6c"
      ],
      "transaction": {
        "from": "0x49f5b131e083510d47b22f7f4526c1b0f7957cda",
        "to": "0x77247fcd1d5e34a3703aca898a591dc7422435f3",
        "gas": "0x9c30",
        "value": "0x0",
        "input": "0xf2fde38b000000000000000000000000872c561f699b42977c093f0ed8b4c9a431280c6c",
        "nonce": "0x1f",
        "chainId": "0x2105"
      },
      "additionalContracts": [],
      "isFixedGasLimit": false
    },
    {
      "hash": "0xc2c44fab3c681548c0f07064f70a231fb6833a76ceccc48f1e4399f96f83f9a6",
      "transactionType": "CALL",
      "contractName": null,
      "contractAddress": "0x187e8627c02c58f31831953c1268e157d3bfcefd",
      "function": "transferOwnership(address)",
      "arguments": [
        "0x872c561f699B42977c093F0eD8b4C9a431280c6c"
      ],
      "transaction": {
        "from": "0x49f5b131e083510d47b22f7f4526c1b0f7957cda",
        "to": "0x187e8627c02c58f31831953c1268e157d3bfcefd",
        "gas": "0xa4d2",
        "value": "0x0",
        "input": "0xf2fde38b000000000000000000000000872c561f699b42977c093f0ed8b4c9a431280c6c",
        "nonce": "0x20",
        "chainId": "0x2105"
      },
      "additionalContracts": [],
      "isFixedGasLimit": false
    },
    {
      "hash": "0xf054f8402e72e8ae4e08122eb175f9f90fa360eb9069c91461efab1581c119b5",
      "transactionType": "CALL",
      "contractName": null,
      "contractAddress": "0x3bca63ecb49d5f917092d10fa879fdb422740163",
      "function": "transferOwnership(address)",
      "arguments": [
        "0x872c561f699B42977c093F0eD8b4C9a431280c6c"
      ],
      "transaction": {
        "from": "0x49f5b131e083510d47b22f7f4526c1b0f7957cda",
        "to": "0x3bca63ecb49d5f917092d10fa879fdb422740163",
        "gas": "0xa619",
        "value": "0x0",
        "input": "0xf2fde38b000000000000000000000000872c561f699b42977c093f0ed8b4c9a431280c6c",
        "nonce": "0x21",
        "chainId": "0x2105"
      },
      "additionalContracts": [],
      "isFixedGasLimit": false
    }
  ],
  "receipts": [
    {
      "status": "0x1",
      "cumulativeGasUsed": "0xbf083c",
      "logs": [
        {
          "address": "0x04f1a284168743759be6554f607a10cebdb77760",
          "topics": [
            "0x8be0079c531659141344cd1fd0a4f28419497f9722a3daafe3b4186f6b6457e0",
            "0x00000000000000000000000049f5b131e083510d47b22f7f4526c1b0f7957cda",
            "0x000000000000000000000000872c561f699b42977c093f0ed8b4c9a431280c6c"
          ],
          "data": "0x",
          "blockHash": "0x0000000000000000000000000000000000000000000000000000000000000000",
          "blockNumber": "0x2951397",
          "blockTimestamp": "0x69b48411",
          "transactionHash": "0x7422b27e9e0486a14135489a8a7dcd9517a994f796b0bc6931150cc7f844ac83",
          "transactionIndex": "0x2d",
          "logIndex": "0x184",
          "removed": false
        }
      ],
      "logsBloom": "0x00000000000000000000000000000000000000000000000000800000000000000018000000000000000000000000000000000000000000000000000000000000000000000000000000000000000000000001000000000000000000000000000000020000000000000000000000000000000000000000000000000000000000400000000000000000000000000000000000001000000000000000000000000000000000000000000000000000001000000000000000000000000000000000000000000000000000004000000000000080000000000000000000000000000000000000000000000000000000000000000000001000000000000000000000000002",
      "type": "0x2",
      "transactionHash": "0x7422b27e9e0486a14135489a8a7dcd9517a994f796b0bc6931150cc7f844ac83",
      "transactionIndex": "0x2d",
      "blockHash": "0x0000000000000000000000000000000000000000000000000000000000000000",
      "blockNumber": "0x2951397",
      "gasUsed": "0x708f",
      "effectiveGasPrice": "0x4c4f13",
      "blobGasUsed": "0x364c",
      "from": "0x49f5b131e083510d47b22f7f4526c1b0f7957cda",
      "to": "0x04f1a284168743759be6554f607a10cebdb77760",
      "contractAddress": null,
      "daFootprintGasScalar": "0x8b",
      "l1BaseFeeScalar": "0x8dd",
      "l1BlobBaseFee": "0x20711e",
      "l1BlobBaseFeeScalar": "0x101c12",
      "l1Fee": "0x1648bd74",
      "l1GasPrice": "0x273ef16",
      "l1GasUsed": "0x640"
    },
    {
      "status": "0x1",
      "cumulativeGasUsed": "0x2d5ec55",
      "logs": [
        {
          "address": "0xf7d3be3fc0de76fa5550c29a8f6fa53667b876ff",
          "topics": [
            "0x8be0079c531659141344cd1fd0a4f28419497f9722a3daafe3b4186f6b6457e0",
            "0x00000000000000000000000049f5b131e083510d47b22f7f4526c1b0f7957cda",
            "0x000000000000000000000000872c561f699b42977c093f0ed8b4c9a431280c6c"
          ],
          "data": "0x",
          "blockHash": "0x0000000000000000000000000000000000000000000000000000000000000000",
          "blockNumber": "0x2951398",
          "blockTimestamp": "0x69b48413",
          "transactionHash": "0x2d080089e8167587010b1ec0cc46ebed9db4c862a747ef0e3b726f570d9e5ee1",
          "transactionIndex": "0xb6",
          "logIndex": "0x440",
          "removed": false
        }
      ],
      "logsBloom": "0x00000000000100000000000000000000000000000000000000800000000000000018000000000000000000000000000000000000000000000000000000000000000000000000000000000000000008000001000000000000000000000000000000000000000000000000000000000000000000000000000000000000000000400000000000000000000000100000000000001000000000000000000000000000000000000000000000000000001000000000000000000000000000000000000000000000000000004000000000000000000000000000000000000000000000000000000000000000000000000000000000001000000000000000000000000000",
      "type": "0x2",
      "transactionHash": "0x2d080089e8167587010b1ec0cc46ebed9db4c862a747ef0e3b726f570d9e5ee1",
      "transactionIndex": "0xb6",
      "blockHash": "0x0000000000000000000000000000000000000000000000000000000000000000",
      "blockNumber": "0x2951398",
      "gasUsed": "0x6f71",
      "effectiveGasPrice": "0x4c4b6b",
      "blobGasUsed": "0x364c",
      "from": "0x49f5b131e083510d47b22f7f4526c1b0f7957cda",
      "to": "0xf7d3be3fc0de76fa5550c29a8f6fa53667b876ff",
      "contractAddress": null,
      "daFootprintGasScalar": "0x8b",
      "l1BaseFeeScalar": "0x8dd",
      "l1BlobBaseFee": "0x212d8c",
      "l1BlobBaseFeeScalar": "0x101c12",
      "l1Fee": "0x2328c9ec",
      "l1GasPrice": "0x25a9598",
      "l1GasUsed": "0x640"
    },
    {
      "status": "0x1",
      "cumulativeGasUsed": "0x1af02d5",
      "logs": [
        {
          "address": "0xb614167d79adbaa9ba35d05fe1d5542d7316ccaa",
          "topics": [
            "0x8be0079c531659141344cd1fd0a4f28419497f9722a3daafe3b4186f6b6457e0",
            "0x00000000000000000000000049f5b131e083510d47b22f7f4526c1b0f7957cda",
            "0x000000000000000000000000872c561f699b42977c093f0ed8b4c9a431280c6c"
          ],
          "data": "0x",
          "blockHash": "0x0000000000000000000000000000000000000000000000000000000000000000",
          "blockNumber": "0x2951399",
          "blockTimestamp": "0x69b48415",
          "transactionHash": "0xcce2a4b99ee8b996f0692f2609415cfc9b6b6c11754e1f29df02b5074be58705",
          "transactionIndex": "0xa3",
          "logIndex": "0x290",
          "removed": false
        }
      ],
      "logsBloom": "0x00000000000000000000000000000000000000000000000000800000000000000018000000000000000000000000000000000000000000000000000000000000000000000000000000000000000000000001100000000000000000000000000000040000000000000000000000000000000000000000000000000000000000400000000000000000000000000000000000001000000000000000000000000000000000000000000000000000001000000000040000000000000000000000000000000000000000004000000000000000000000000000000000000000000000000000000000000000000000000000000000001000000000000000000000000000",
      "type": "0x2",
      "transactionHash": "0xcce2a4b99ee8b996f0692f2609415cfc9b6b6c11754e1f29df02b5074be58705",
      "transactionIndex": "0xa3",
      "blockHash": "0x0000000000000000000000000000000000000000000000000000000000000000",
      "blockNumber": "0x2951399",
      "gasUsed": "0x6f3f",
      "effectiveGasPrice": "0x4c52f1",
      "blobGasUsed": "0x364c",
      "from": "0x49f5b131e083510d47b22f7f4526c1b0f7957cda",
      "to": "0xb614167d79adbaa9ba35d05fe1d5542d7316ccaa",
      "contractAddress": null,
      "daFootprintGasScalar": "0x8b",
      "l1BaseFeeScalar": "0x8dd",
      "l1BlobBaseFee": "0x212d8c",
      "l1BlobBaseFeeScalar": "0x101c12",
      "l1Fee": "0x163a6bb1",
      "l1GasPrice": "0x25a9598",
      "l1GasUsed": "0x640"
    },
    {
      "status": "0x1",
      "cumulativeGasUsed": "0x107c2dc",
      "logs": [
        {
          "address": "0x77247fcd1d5e34a3703aca898a591dc7422435f3",
          "topics": [
            "0x8be0079c531659141344cd1fd0a4f28419497f9722a3daafe3b4186f6b6457e0",
            "0x00000000000000000000000049f5b131e083510d47b22f7f4526c1b0f7957cda",
            "0x000000000000000000000000872c561f699b42977c093f0ed8b4c9a431280c6c"
          ],
          "data": "0x",
          "blockHash": "0x0000000000000000000000000000000000000000000000000000000000000000",
          "blockNumber": "0x295139a",
          "blockTimestamp": "0x69b48417",
          "transactionHash": "0x28635256500d024e99b23ea62dd25d933934577ef56bd649d369c4b9599fde22",
          "transactionIndex": "0x4d",
          "logIndex": "0x1e0",
          "removed": false
        }
      ],
      "logsBloom": "0x00000000000000000000000000000000000000000000000000800000000000000018000000000000000000000000000000000000000000000000000000000000000000000000000000000000000000000001000000000000000000000000000000000000000000000000000000000000000000000000000000000000000000400000000000000020000000000000000000001000000000000000000000000000000000000000000000000000001000000000000000000000000000000400000000000000000000004000000000000000000000400000000000000000000000000000000000000000000000000000000000001000000000000000000000000000",
      "type": "0x2",
      "transactionHash": "0x28635256500d024e99b23ea62dd25d933934577ef56bd649d369c4b9599fde22",
      "transactionIndex": "0x4d",
      "blockHash": "0x0000000000000000000000000000000000000000000000000000000000000000",
      "blockNumber": "0x295139a",
      "gasUsed": "0x7114",
      "effectiveGasPrice": "0x4c4b6b",
      "blobGasUsed": "0x364c",
      "from": "0x49f5b131e083510d47b22f7f4526c1b0f7957cda",
      "to": "0x77247fcd1d5e34a3703aca898a591dc7422435f3",
      "contractAddress": null,
      "daFootprintGasScalar": "0x8b",
      "l1BaseFeeScalar": "0x8dd",
      "l1BlobBaseFee": "0x212d8c",
      "l1BlobBaseFeeScalar": "0x101c12",
      "l1Fee": "0x163a6bb1",
      "l1GasPrice": "0x25a9598",
      "l1GasUsed": "0x640"
    },
    {
      "status": "0x1",
      "cumulativeGasUsed": "0x1b075eb",
      "logs": [
        {
          "address": "0x187e8627c02c58f31831953c1268e157d3bfcefd",
          "topics": [
            "0x8be0079c531659141344cd1fd0a4f28419497f9722a3daafe3b4186f6b6457e0",
            "0x00000000000000000000000049f5b131e083510d47b22f7f4526c1b0f7957cda",
            "0x000000000000000000000000872c561f699b42977c093f0ed8b4c9a431280c6c"
          ],
          "data": "0x",
          "blockHash": "0x0000000000000000000000000000000000000000000000000000000000000000",
          "blockNumber": "0x295139b",
          "blockTimestamp": "0x69b48419",
          "transactionHash": "0xc2c44fab3c681548c0f07064f70a231fb6833a76ceccc48f1e4399f96f83f9a6",
          "transactionIndex": "0x86",
          "logIndex": "0x304",
          "removed": false
        }
      ],
      "logsBloom": "0x00000000000000000000000000000000000000000000000000800000000000000018000000000000000000000000000000000000000000000000002000000000000000000000000000000000000000000001000000000000000000000000000000000000000000000000000000000000000000000000000000000000000000400000000000000000000000000000000000001000000000000000000000000000000000000000000000000000001000000000000000000000000000800000000000000000000000004000000000000000000000000000000000000000000000000000000000000000000000000000000000001000000001000000000000000000",
      "type": "0x2",
      "transactionHash": "0xc2c44fab3c681548c0f07064f70a231fb6833a76ceccc48f1e4399f96f83f9a6",
      "transactionIndex": "0x86",
      "blockHash": "0x0000000000000000000000000000000000000000000000000000000000000000",
      "blockNumber": "0x295139b",
      "gasUsed": "0x70b3",
      "effectiveGasPrice": "0x4c4b6b",
      "blobGasUsed": "0x364c",
      "from": "0x49f5b131e083510d47b22f7f4526c1b0f7957cda",
      "to": "0x187e8627c02c58f31831953c1268e157d3bfcefd",
      "contractAddress": null,
      "daFootprintGasScalar": "0x8b",
      "l1BaseFeeScalar": "0x8dd",
      "l1BlobBaseFee": "0x212d8c",
      "l1BlobBaseFeeScalar": "0x101c12",
      "l1Fee": "0x1c17f988",
      "l1GasPrice": "0x25a9598",
      "l1GasUsed": "0x640"
    },
    {
      "status": "0x1",
      "cumulativeGasUsed": "0x20ec6e1",
      "logs": [
        {
          "address": "0x3bca63ecb49d5f917092d10fa879fdb422740163",
          "topics": [
            "0x8be0079c531659141344cd1fd0a4f28419497f9722a3daafe3b4186f6b6457e0",
            "0x00000000000000000000000049f5b131e083510d47b22f7f4526c1b0f7957cda",
            "0x000000000000000000000000872c561f699b42977c093f0ed8b4c9a431280c6c"
          ],
          "data": "0x",
          "blockHash": "0x0000000000000000000000000000000000000000000000000000000000000000",
          "blockNumber": "0x295139c",
          "blockTimestamp": "0x69b4841b",
          "transactionHash": "0xf054f8402e72e8ae4e08122eb175f9f90fa360eb9069c91461efab1581c119b5",
          "transactionIndex": "0xa3",
          "logIndex": "0x3f7",
          "removed": false
        }
      ],
      "logsBloom": "0x00000000000000000000000000000000000000000000000000800000000000000018000000000000000000000000000000000000000000000000000000000000000000000000000000000000000000000001000000000000000000000000000000000000000000000000000000000000000000000000000000000000000000400000000000000040000000000000000000001000000000000000000000000000000000000000000000000000001000000000000000000000000000000000000000000000000000004000000000000000010000000000000000000000000000000000000000000000000000000000000000001000000000100000000000000000",
      "type": "0x2",
      "transactionHash": "0xf054f8402e72e8ae4e08122eb175f9f90fa360eb9069c91461efab1581c119b5",
      "transactionIndex": "0xa3",
      "blockHash": "0x0000000000000000000000000000000000000000000000000000000000000000",
      "blockNumber": "0x295139c",
      "gasUsed": "0x7193",
      "effectiveGasPrice": "0x4c4b6b",
      "blobGasUsed": "0x364c",
      "from": "0x49f5b131e083510d47b22f7f4526c1b0f7957cda",
      "to": "0x3bca63ecb49d5f917092d10fa879fdb422740163",
      "contractAddress": null,
      "daFootprintGasScalar": "0x8b",
      "l1BaseFeeScalar": "0x8dd",
      "l1BlobBaseFee": "0x212d8c",
      "l1BlobBaseFeeScalar": "0x101c12",
      "l1Fee": "0x1c17f988",
      "l1GasPrice": "0x25a9598",
      "l1GasUsed": "0x640"
    }
  ],
  "libraries": [],
  "pending": [],
  "returns": {},
  "timestamp": 1773437978170,
  "chain": 8453,
  "commit": "e787917"
}