{
  "transactions": [
    {
      "hash": "0xe4acf2eaa82519c12776f32af308692dfd5497a74b3e200e5629bc4ebb4dad05",
      "transactionType": "CREATE",
      "contractName": "AntSeedAdapter",
      "contractAddress": "0xed98a5f4f3acfd0752a81fdd03dd28b7a44a18b7",
      "function": null,
      "arguments": [
        "0xe49FA849cB37b0e7A42B2335e333fb99474167ba",
        "0x833589fCD6eDb6E08f4c7C32D4f71b54bdA02913",
        "0x2626664c2603336E57B271c5C0b26F421741e481",
        "0xf04822e5B0E76A34aeeA936c79B4439f794b8Be1"
      ],
      "transaction": {
        "from": "0xf04822e5b0e76a34aeea936c79b4439f794b8be1",
        "gas": "0x1cd841",
        "value": "0x0",
        "input": "0x60c03461014957601f6119ab38819003918201601f19168301916001600160401b0383118484101761014d578084926080946040528339810103126101495761004781610161565b9061005460208201610161565b61006060408301610161565b916001600160a01b039061007690606001610161565b16928315610136575f54604051948060018060a01b0383167f8be0079c531659141344cd1fd0a4f28419497f9722a3daafe3b4186f6b6457e05f80a36001600160b81b031990911617607d60a21b1762ffffff60b81b191661027160bc1b175f556103e8600255600180546001600160a01b0319166001600160a01b039290921691909117905560805260a05261183590816101768239608051818181610318015281816109f50152610d70015260a0518181816104de0152610e500152f35b631e4fbdf760e01b5f525f60045260245ffd5b5f80fd5b634e487b7160e01b5f52604160045260245ffd5b51906001600160a01b03821682036101495756fe6080806040526004361015610012575f80fd5b5f905f3560e01c90816307387fd914610d3457508063101e4f9e14610b6c57806326196074146103c5578063341b828b14610a195780633e413bee146109c857806362c06767146108d457806365fce585146108af5780636817031b14610826578063715018a6146107a8578063748747e61461071f57806380fc98e6146107035780638da5cb5b146106d0578063a17b3c261461062e578063ac02803814610609578063aced1661146105d5578063af935b041461051f578063bff1d4ad14610502578063c31c9c07146104b1578063cad6226e14610428578063d62d7486146103f4578063de3def58146103c5578063def3d30714610255578063e17dd7c514610237578063f2fde38b146101675763fbfa77cf14610131575f80fd5b34610164578060031936011261016457602073ffffffffffffffffffffffffffffffffffffffff60015416604051908152f35b80fd5b50346101645760206003193601126101645773ffffffffffffffffffffffffffffffffffffffff610196611561565b61019e611762565b16801561020b5773ffffffffffffffffffffffffffffffffffffffff8254827fffffffffffffffffffffffff00000000000000000000000000000000000000008216178455167f8be0079c531659141344cd1fd0a4f28419497f9722a3daafe3b4186f6b6457e08380a380f35b6024827f1e4fbdf700000000000000000000000000000000000000000000000000000000815280600452fd5b50346101645780600319360112610164576020600254604051908152f35b50346101645760206003193601126101645760043573ffffffffffffffffffffffffffffffffffffffff60045416331480156103a5575b156103475760207f8a92d411665ba2871660087c41aa031d8328805f31550763ecee1791ac6e377a9161033d6040517f23b872dd0000000000000000000000000000000000000000000000000000000084820152336024820152306044820152826064820152606481526103016084826115c7565b73ffffffffffffffffffffffffffffffffffffffff7f0000000000000000000000000000000000000000000000000000000000000000166117ae565b604051908152a180f35b60646040517f08c379a000000000000000000000000000000000000000000000000000000000815260206004820152600e60248201527f6e6f7420617574686f72697a65640000000000000000000000000000000000006044820152fd5b5073ffffffffffffffffffffffffffffffffffffffff825416331461028c565b5034610164578060031936011261016457602060405173f4d97f2da56e8c3098f3a8d538db630a2606a0248152f35b5034610164578060031936011261016457602073ffffffffffffffffffffffffffffffffffffffff60045416604051908152f35b50346101645760206003193601126101645773ffffffffffffffffffffffffffffffffffffffff610457611561565b61045f611762565b16807fffffffffffffffffffffffff000000000000000000000000000000000000000060045416176004557fa5db000012e784eddc7abb35ba4948d38d616b0cd0d54c056d1e5c9cfe8ac33f8280a280f35b5034610164578060031936011261016457602060405173ffffffffffffffffffffffffffffffffffffffff7f0000000000000000000000000000000000000000000000000000000000000000168152f35b503461016457806003193601126101645760206040516107d08152f35b50346101645760206003193601126101645760043561053c611762565b6107d08111610577576020817fecf72c9ac9f8f5ea2bb6a3c6fbbeff4107883d5e51388cc5e24b0dba5f5a2fe692600255604051908152a180f35b60646040517f08c379a000000000000000000000000000000000000000000000000000000000815260206004820152600f60248201527f65786365656473206d61782066656500000000000000000000000000000000006044820152fd5b5034610164578060031936011261016457602073ffffffffffffffffffffffffffffffffffffffff60035416604051908152f35b503461016457806003193601126101645762ffffff6020915460a01c16604051908152f35b50346101645780600319360112610164576040516040810181811067ffffffffffffffff8211176106a35761069f9250604052600781527f416e7453656564000000000000000000000000000000000000000000000000006020820152604051918291602083526020830190611584565b0390f35b6024837f4e487b710000000000000000000000000000000000000000000000000000000081526041600452fd5b503461016457806003193601126101645773ffffffffffffffffffffffffffffffffffffffff6020915416604051908152f35b5034610164578060031936011261016457602090604051908152f35b50346101645760206003193601126101645773ffffffffffffffffffffffffffffffffffffffff61074e611561565b610756611762565b16807fffffffffffffffffffffffff000000000000000000000000000000000000000060035416176003557fdc3dba1d64dd67c0dc8b12621edd0c6ca4303a9073c3a8fcac38115e73d67b6b8280a280f35b50346101645780600319360112610164576107c1611762565b8073ffffffffffffffffffffffffffffffffffffffff81547fffffffffffffffffffffffff000000000000000000000000000000000000000081168355167f8be0079c531659141344cd1fd0a4f28419497f9722a3daafe3b4186f6b6457e08280a380f35b50346101645760206003193601126101645773ffffffffffffffffffffffffffffffffffffffff610855611561565b61085d611762565b16807fffffffffffffffffffffffff000000000000000000000000000000000000000060015416176001557fe7ae49f883c825b05681b3e00e8be6fdea9ed2a8a45e4c6ecb9390fc44cce6158280a280f35b503461016457806003193601126101645762ffffff6020915460b81c16604051908152f35b5034610164576060600319360112610164576108ee611561565b6024359073ffffffffffffffffffffffffffffffffffffffff821682036109c45773ffffffffffffffffffffffffffffffffffffffff61098f916109bb6109c194610937611762565b6040517fa9059cbb00000000000000000000000000000000000000000000000000000000602082015273ffffffffffffffffffffffffffffffffffffffff909116602482015260448035908201529384906064820190565b037fffffffffffffffffffffffffffffffffffffffffffffffffffffffffffffffe081018552846115c7565b166117ae565b80f35b8280fd5b5034610164578060031936011261016457602060405173ffffffffffffffffffffffffffffffffffffffff7f0000000000000000000000000000000000000000000000000000000000000000168152f35b503461016457806003193601126101645773ffffffffffffffffffffffffffffffffffffffff600154166040517f38d52e0f000000000000000000000000000000000000000000000000000000008152602081600481855afa8015610b615773ffffffffffffffffffffffffffffffffffffffff926060928592610b2d575b5060249060405194859384927f9503b15c0000000000000000000000000000000000000000000000000000000084526004840152165afa908115610b22578291610ae8575b602082604051908152f35b90506060813d606011610b1a575b81610b03606093836115c7565b81010312610b165760209150515f610add565b5080fd5b3d9150610af6565b6040513d84823e3d90fd5b6024919250610b539060203d602011610b5a575b610b4b81836115c7565b810190611608565b9190610a98565b503d610b41565b6040513d85823e3d90fd5b50346101645760406003193601126101645760043562ffffff81168082036109c4576024359062ffffff8216808303610d3057610ba7611762565b81151580610d24575b15610cc65780151580610cba575b15610c5c577fa52e279a9c4ed8ff7beccca9a9f7a38075d2c5cbaac8e5b5032d95e32504ebc5936040937fffffffffffff000000000000ffffffffffffffffffffffffffffffffffffffff76ffffff000000000000000000000000000000000000000079ffffff000000000000000000000000000000000000000000000089549360b81b169360a01b1691161717855582519182526020820152a180f35b60646040517f08c379a000000000000000000000000000000000000000000000000000000000815260206004820152601060248201527f696e76616c6964204449454d20666565000000000000000000000000000000006044820152fd5b50612710811115610bbe565b60646040517f08c379a000000000000000000000000000000000000000000000000000000000815260206004820152601560248201527f696e76616c696420555344432f574554482066656500000000000000000000006044820152fd5b50612710821115610bb0565b8480fd5b90503461122a57602060031936011261122a5773ffffffffffffffffffffffffffffffffffffffff5f541633148015611540575b156114e457507f000000000000000000000000000000000000000000000000000000000000000073ffffffffffffffffffffffffffffffffffffffff8116604051907f70a08231000000000000000000000000000000000000000000000000000000008252306004830152602082602481845afa91821561133c575f926114b0575b50811561145257600492602073ffffffffffffffffffffffffffffffffffffffff60015416604051958680927f38d52e0f0000000000000000000000000000000000000000000000000000000082525afa93841561133c575f94611431575b50610e76837f00000000000000000000000000000000000000000000000000000000000000008094611641565b7fffffff00000000000000000000000000000000000000000000000000000000005f547fffffffffffffffffffffffffffffffffffffffff0000000000000000000000006040519360601b166020840152818160481b1660348401527f4200000000000000000000000000000000000006000000000000000000000000603784015260301b16604b8201527fffffffffffffffffffffffffffffffffffffffff00000000000000000000000073ffffffffffffffffffffffffffffffffffffffff85169460601b16604e82015260428152610f526062826115c7565b60405191608083019083821067ffffffffffffffff8311176114045760209273ffffffffffffffffffffffffffffffffffffffff926040528452610fee5f83858701963088526040810197898952606082016004358152604051998a98899788957fb858183f0000000000000000000000000000000000000000000000000000000087528c6004880152516080602488015260a4870190611584565b93511660448501525160648401525160848301520393165af190811561133c575f916113d2575b5080156113745760025480820290828204036113475761271090049261103b8483611634565b806112a0575b5084809480611086575b507f73ae596b0194c4a2e07c63759627e439490e08b1ba95331625271bad9ee2d76a606085878660405192835260208301526040820152a180f35b9091945073ffffffffffffffffffffffffffffffffffffffff60015416604051957f70a08231000000000000000000000000000000000000000000000000000000008752306004880152602087602481855afa96871561129557849761125a575b506110f3918391611641565b73ffffffffffffffffffffffffffffffffffffffff6001541690813b156109c45782916044839260405194859384927f0f21794800000000000000000000000000000000000000000000000000000000845260048401523060248401525af18015610b2257611241575b5050602492602073ffffffffffffffffffffffffffffffffffffffff60015416604051958680927f70a082310000000000000000000000000000000000000000000000000000000082523060048301525afa9384156112365785946111f8575b50906111ed606093927f73ae596b0194c4a2e07c63759627e439490e08b1ba95331625271bad9ee2d76a95611634565b93509091845f61104b565b935091906020843d60201161122e575b81611215602093836115c7565b8101031261122a5792519290916111ed6111bd565b5f80fd5b3d9150611208565b6040513d87823e3d90fd5b8161124b916115c7565b61125657835f61115d565b8380fd5b935095506020833d60201161128d575b81611277602093836115c7565b8101031261122a579151948692906110f36110e7565b3d915061126a565b6040513d86823e3d90fd5b6112c38173ffffffffffffffffffffffffffffffffffffffff6001541684611641565b73ffffffffffffffffffffffffffffffffffffffff6001541690813b1561122a575f916024839260405194859384927f24ea14f500000000000000000000000000000000000000000000000000000000845260048401525af1801561133c5715611041576113349195505f906115c7565b5f935f611041565b6040513d5f823e3d90fd5b7f4e487b71000000000000000000000000000000000000000000000000000000005f52601160045260245ffd5b60646040517f08c379a000000000000000000000000000000000000000000000000000000000815260206004820152600f60248201527f737761702072657475726e6564203000000000000000000000000000000000006044820152fd5b90506020813d6020116113fc575b816113ed602093836115c7565b8101031261122a57515f611015565b3d91506113e0565b7f4e487b71000000000000000000000000000000000000000000000000000000005f52604160045260245ffd5b61144b91945060203d602011610b5a57610b4b81836115c7565b925f610e49565b60646040517f08c379a000000000000000000000000000000000000000000000000000000000815260206004820152601060248201527f6e6f205553444320746f20726f757465000000000000000000000000000000006044820152fd5b9091506020813d6020116114dc575b816114cc602093836115c7565b8101031261122a5751905f610dea565b3d91506114bf565b807f08c379a0000000000000000000000000000000000000000000000000000000006064925260206004820152600c60248201527f6e6f74206f70657261746f7200000000000000000000000000000000000000006044820152fd5b5073ffffffffffffffffffffffffffffffffffffffff600354163314610d68565b6004359073ffffffffffffffffffffffffffffffffffffffff8216820361122a57565b907fffffffffffffffffffffffffffffffffffffffffffffffffffffffffffffffe0601f602080948051918291828752018686015e5f8582860101520116010190565b90601f7fffffffffffffffffffffffffffffffffffffffffffffffffffffffffffffffe0910116810190811067ffffffffffffffff82111761140457604052565b9081602091031261122a575173ffffffffffffffffffffffffffffffffffffffff8116810361122a5790565b9190820391821161134757565b6040517f095ea7b300000000000000000000000000000000000000000000000000000000602080830191825273ffffffffffffffffffffffffffffffffffffffff85166024840152604480840196909652948252929390925f906116a66064866115c7565b84519082855af15f513d82611730575b5050156116c257505050565b61172961172e9373ffffffffffffffffffffffffffffffffffffffff604051917f095ea7b30000000000000000000000000000000000000000000000000000000060208401521660248201525f6044820152604481526117236064826115c7565b826117ae565b6117ae565b565b90915061175a575073ffffffffffffffffffffffffffffffffffffffff81163b15155b5f806116b6565b600114611753565b73ffffffffffffffffffffffffffffffffffffffff5f5416330361178257565b7f118cdaa7000000000000000000000000000000000000000000000000000000005f523360045260245ffd5b905f602091828151910182855af11561133c575f513d61182c575073ffffffffffffffffffffffffffffffffffffffff81163b155b6117ea5750565b73ffffffffffffffffffffffffffffffffffffffff907f5274afe7000000000000000000000000000000000000000000000000000000005f521660045260245ffd5b600114156117e356000000000000000000000000e49fa849cb37b0e7a42b2335e333fb99474167ba000000000000000000000000833589fcd6edb6e08f4c7c32d4f71b54bda029130000000000000000000000002626664c2603336e57b271c5c0b26f421741e481000000000000000000000000f04822e5b0e76a34aeea936c79b4439f794b8be1",
        "nonce": "0x2",
        "chainId": "0x2105"
      },
      "additionalContracts": [],
      "isFixedGasLimit": false
    },
    {
      "hash": "0xe1c91b15260b6f737be4514468b43ceac446913a57d4d787635bd2c14d658af0",
      "transactionType": "CREATE",
      "contractName": "SurplusAdapter",
      "contractAddress": "0x91b3e39ef6335d97876adb4448a998c7cbd3885f",
      "function": null,
      "arguments": [
        "0xe49FA849cB37b0e7A42B2335e333fb99474167ba",
        "0x833589fCD6eDb6E08f4c7C32D4f71b54bdA02913",
        "0x2626664c2603336E57B271c5C0b26F421741e481",
        "0xf04822e5B0E76A34aeeA936c79B4439f794b8Be1"
      ],
      "transaction": {
        "from": "0xf04822e5b0e76a34aeea936c79b4439f794b8be1",
        "gas": "0x1cd90b",
        "value": "0x0",
        "input": "0x60c03461014957601f6119ab38819003918201601f19168301916001600160401b0383118484101761014d578084926080946040528339810103126101495761004781610161565b9061005460208201610161565b61006060408301610161565b916001600160a01b039061007690606001610161565b16928315610136575f54604051948060018060a01b0383167f8be0079c531659141344cd1fd0a4f28419497f9722a3daafe3b4186f6b6457e05f80a36001600160b81b031990911617607d60a21b1762ffffff60b81b191661027160bc1b175f556103e8600255600180546001600160a01b0319166001600160a01b039290921691909117905560805260a05261183590816101768239608051818181610318015281816109f50152610d70015260a0518181816104de0152610e500152f35b631e4fbdf760e01b5f525f60045260245ffd5b5f80fd5b634e487b7160e01b5f52604160045260245ffd5b51906001600160a01b03821682036101495756fe6080806040526004361015610012575f80fd5b5f905f3560e01c90816307387fd914610d3457508063101e4f9e14610b6c57806326196074146103c5578063341b828b14610a195780633e413bee146109c857806362c06767146108d457806365fce585146108af5780636817031b14610826578063715018a6146107a8578063748747e61461071f57806380fc98e6146107035780638da5cb5b146106d0578063a17b3c261461062e578063ac02803814610609578063aced1661146105d5578063af935b041461051f578063bff1d4ad14610502578063c31c9c07146104b1578063cad6226e14610428578063d62d7486146103f4578063de3def58146103c5578063def3d30714610255578063e17dd7c514610237578063f2fde38b146101675763fbfa77cf14610131575f80fd5b34610164578060031936011261016457602073ffffffffffffffffffffffffffffffffffffffff60015416604051908152f35b80fd5b50346101645760206003193601126101645773ffffffffffffffffffffffffffffffffffffffff610196611561565b61019e611762565b16801561020b5773ffffffffffffffffffffffffffffffffffffffff8254827fffffffffffffffffffffffff00000000000000000000000000000000000000008216178455167f8be0079c531659141344cd1fd0a4f28419497f9722a3daafe3b4186f6b6457e08380a380f35b6024827f1e4fbdf700000000000000000000000000000000000000000000000000000000815280600452fd5b50346101645780600319360112610164576020600254604051908152f35b50346101645760206003193601126101645760043573ffffffffffffffffffffffffffffffffffffffff60045416331480156103a5575b156103475760207f8a92d411665ba2871660087c41aa031d8328805f31550763ecee1791ac6e377a9161033d6040517f23b872dd0000000000000000000000000000000000000000000000000000000084820152336024820152306044820152826064820152606481526103016084826115c7565b73ffffffffffffffffffffffffffffffffffffffff7f0000000000000000000000000000000000000000000000000000000000000000166117ae565b604051908152a180f35b60646040517f08c379a000000000000000000000000000000000000000000000000000000000815260206004820152600e60248201527f6e6f7420617574686f72697a65640000000000000000000000000000000000006044820152fd5b5073ffffffffffffffffffffffffffffffffffffffff825416331461028c565b5034610164578060031936011261016457602060405173f4d97f2da56e8c3098f3a8d538db630a2606a0248152f35b5034610164578060031936011261016457602073ffffffffffffffffffffffffffffffffffffffff60045416604051908152f35b50346101645760206003193601126101645773ffffffffffffffffffffffffffffffffffffffff610457611561565b61045f611762565b16807fffffffffffffffffffffffff000000000000000000000000000000000000000060045416176004557fa5db000012e784eddc7abb35ba4948d38d616b0cd0d54c056d1e5c9cfe8ac33f8280a280f35b5034610164578060031936011261016457602060405173ffffffffffffffffffffffffffffffffffffffff7f0000000000000000000000000000000000000000000000000000000000000000168152f35b503461016457806003193601126101645760206040516107d08152f35b50346101645760206003193601126101645760043561053c611762565b6107d08111610577576020817fecf72c9ac9f8f5ea2bb6a3c6fbbeff4107883d5e51388cc5e24b0dba5f5a2fe692600255604051908152a180f35b60646040517f08c379a000000000000000000000000000000000000000000000000000000000815260206004820152600f60248201527f65786365656473206d61782066656500000000000000000000000000000000006044820152fd5b5034610164578060031936011261016457602073ffffffffffffffffffffffffffffffffffffffff60035416604051908152f35b503461016457806003193601126101645762ffffff6020915460a01c16604051908152f35b50346101645780600319360112610164576040516040810181811067ffffffffffffffff8211176106a35761069f9250604052601481527f537572706c757320496e74656c6c6967656e63650000000000000000000000006020820152604051918291602083526020830190611584565b0390f35b6024837f4e487b710000000000000000000000000000000000000000000000000000000081526041600452fd5b503461016457806003193601126101645773ffffffffffffffffffffffffffffffffffffffff6020915416604051908152f35b5034610164578060031936011261016457602090604051908152f35b50346101645760206003193601126101645773ffffffffffffffffffffffffffffffffffffffff61074e611561565b610756611762565b16807fffffffffffffffffffffffff000000000000000000000000000000000000000060035416176003557fdc3dba1d64dd67c0dc8b12621edd0c6ca4303a9073c3a8fcac38115e73d67b6b8280a280f35b50346101645780600319360112610164576107c1611762565b8073ffffffffffffffffffffffffffffffffffffffff81547fffffffffffffffffffffffff000000000000000000000000000000000000000081168355167f8be0079c531659141344cd1fd0a4f28419497f9722a3daafe3b4186f6b6457e08280a380f35b50346101645760206003193601126101645773ffffffffffffffffffffffffffffffffffffffff610855611561565b61085d611762565b16807fffffffffffffffffffffffff000000000000000000000000000000000000000060015416176001557fe7ae49f883c825b05681b3e00e8be6fdea9ed2a8a45e4c6ecb9390fc44cce6158280a280f35b503461016457806003193601126101645762ffffff6020915460b81c16604051908152f35b5034610164576060600319360112610164576108ee611561565b6024359073ffffffffffffffffffffffffffffffffffffffff821682036109c45773ffffffffffffffffffffffffffffffffffffffff61098f916109bb6109c194610937611762565b6040517fa9059cbb00000000000000000000000000000000000000000000000000000000602082015273ffffffffffffffffffffffffffffffffffffffff909116602482015260448035908201529384906064820190565b037fffffffffffffffffffffffffffffffffffffffffffffffffffffffffffffffe081018552846115c7565b166117ae565b80f35b8280fd5b5034610164578060031936011261016457602060405173ffffffffffffffffffffffffffffffffffffffff7f0000000000000000000000000000000000000000000000000000000000000000168152f35b503461016457806003193601126101645773ffffffffffffffffffffffffffffffffffffffff600154166040517f38d52e0f000000000000000000000000000000000000000000000000000000008152602081600481855afa8015610b615773ffffffffffffffffffffffffffffffffffffffff926060928592610b2d575b5060249060405194859384927f9503b15c0000000000000000000000000000000000000000000000000000000084526004840152165afa908115610b22578291610ae8575b602082604051908152f35b90506060813d606011610b1a575b81610b03606093836115c7565b81010312610b165760209150515f610add565b5080fd5b3d9150610af6565b6040513d84823e3d90fd5b6024919250610b539060203d602011610b5a575b610b4b81836115c7565b810190611608565b9190610a98565b503d610b41565b6040513d85823e3d90fd5b50346101645760406003193601126101645760043562ffffff81168082036109c4576024359062ffffff8216808303610d3057610ba7611762565b81151580610d24575b15610cc65780151580610cba575b15610c5c577fa52e279a9c4ed8ff7beccca9a9f7a38075d2c5cbaac8e5b5032d95e32504ebc5936040937fffffffffffff000000000000ffffffffffffffffffffffffffffffffffffffff76ffffff000000000000000000000000000000000000000079ffffff000000000000000000000000000000000000000000000089549360b81b169360a01b1691161717855582519182526020820152a180f35b60646040517f08c379a000000000000000000000000000000000000000000000000000000000815260206004820152601060248201527f696e76616c6964204449454d20666565000000000000000000000000000000006044820152fd5b50612710811115610bbe565b60646040517f08c379a000000000000000000000000000000000000000000000000000000000815260206004820152601560248201527f696e76616c696420555344432f574554482066656500000000000000000000006044820152fd5b50612710821115610bb0565b8480fd5b90503461122a57602060031936011261122a5773ffffffffffffffffffffffffffffffffffffffff5f541633148015611540575b156114e457507f000000000000000000000000000000000000000000000000000000000000000073ffffffffffffffffffffffffffffffffffffffff8116604051907f70a08231000000000000000000000000000000000000000000000000000000008252306004830152602082602481845afa91821561133c575f926114b0575b50811561145257600492602073ffffffffffffffffffffffffffffffffffffffff60015416604051958680927f38d52e0f0000000000000000000000000000000000000000000000000000000082525afa93841561133c575f94611431575b50610e76837f00000000000000000000000000000000000000000000000000000000000000008094611641565b7fffffff00000000000000000000000000000000000000000000000000000000005f547fffffffffffffffffffffffffffffffffffffffff0000000000000000000000006040519360601b166020840152818160481b1660348401527f4200000000000000000000000000000000000006000000000000000000000000603784015260301b16604b8201527fffffffffffffffffffffffffffffffffffffffff00000000000000000000000073ffffffffffffffffffffffffffffffffffffffff85169460601b16604e82015260428152610f526062826115c7565b60405191608083019083821067ffffffffffffffff8311176114045760209273ffffffffffffffffffffffffffffffffffffffff926040528452610fee5f83858701963088526040810197898952606082016004358152604051998a98899788957fb858183f0000000000000000000000000000000000000000000000000000000087528c6004880152516080602488015260a4870190611584565b93511660448501525160648401525160848301520393165af190811561133c575f916113d2575b5080156113745760025480820290828204036113475761271090049261103b8483611634565b806112a0575b5084809480611086575b507f73ae596b0194c4a2e07c63759627e439490e08b1ba95331625271bad9ee2d76a606085878660405192835260208301526040820152a180f35b9091945073ffffffffffffffffffffffffffffffffffffffff60015416604051957f70a08231000000000000000000000000000000000000000000000000000000008752306004880152602087602481855afa96871561129557849761125a575b506110f3918391611641565b73ffffffffffffffffffffffffffffffffffffffff6001541690813b156109c45782916044839260405194859384927f0f21794800000000000000000000000000000000000000000000000000000000845260048401523060248401525af18015610b2257611241575b5050602492602073ffffffffffffffffffffffffffffffffffffffff60015416604051958680927f70a082310000000000000000000000000000000000000000000000000000000082523060048301525afa9384156112365785946111f8575b50906111ed606093927f73ae596b0194c4a2e07c63759627e439490e08b1ba95331625271bad9ee2d76a95611634565b93509091845f61104b565b935091906020843d60201161122e575b81611215602093836115c7565b8101031261122a5792519290916111ed6111bd565b5f80fd5b3d9150611208565b6040513d87823e3d90fd5b8161124b916115c7565b61125657835f61115d565b8380fd5b935095506020833d60201161128d575b81611277602093836115c7565b8101031261122a579151948692906110f36110e7565b3d915061126a565b6040513d86823e3d90fd5b6112c38173ffffffffffffffffffffffffffffffffffffffff6001541684611641565b73ffffffffffffffffffffffffffffffffffffffff6001541690813b1561122a575f916024839260405194859384927f24ea14f500000000000000000000000000000000000000000000000000000000845260048401525af1801561133c5715611041576113349195505f906115c7565b5f935f611041565b6040513d5f823e3d90fd5b7f4e487b71000000000000000000000000000000000000000000000000000000005f52601160045260245ffd5b60646040517f08c379a000000000000000000000000000000000000000000000000000000000815260206004820152600f60248201527f737761702072657475726e6564203000000000000000000000000000000000006044820152fd5b90506020813d6020116113fc575b816113ed602093836115c7565b8101031261122a57515f611015565b3d91506113e0565b7f4e487b71000000000000000000000000000000000000000000000000000000005f52604160045260245ffd5b61144b91945060203d602011610b5a57610b4b81836115c7565b925f610e49565b60646040517f08c379a000000000000000000000000000000000000000000000000000000000815260206004820152601060248201527f6e6f205553444320746f20726f757465000000000000000000000000000000006044820152fd5b9091506020813d6020116114dc575b816114cc602093836115c7565b8101031261122a5751905f610dea565b3d91506114bf565b807f08c379a0000000000000000000000000000000000000000000000000000000006064925260206004820152600c60248201527f6e6f74206f70657261746f7200000000000000000000000000000000000000006044820152fd5b5073ffffffffffffffffffffffffffffffffffffffff600354163314610d68565b6004359073ffffffffffffffffffffffffffffffffffffffff8216820361122a57565b907fffffffffffffffffffffffffffffffffffffffffffffffffffffffffffffffe0601f602080948051918291828752018686015e5f8582860101520116010190565b90601f7fffffffffffffffffffffffffffffffffffffffffffffffffffffffffffffffe0910116810190811067ffffffffffffffff82111761140457604052565b9081602091031261122a575173ffffffffffffffffffffffffffffffffffffffff8116810361122a5790565b9190820391821161134757565b6040517f095ea7b300000000000000000000000000000000000000000000000000000000602080830191825273ffffffffffffffffffffffffffffffffffffffff85166024840152604480840196909652948252929390925f906116a66064866115c7565b84519082855af15f513d82611730575b5050156116c257505050565b61172961172e9373ffffffffffffffffffffffffffffffffffffffff604051917f095ea7b30000000000000000000000000000000000000000000000000000000060208401521660248201525f6044820152604481526117236064826115c7565b826117ae565b6117ae565b565b90915061175a575073ffffffffffffffffffffffffffffffffffffffff81163b15155b5f806116b6565b600114611753565b73ffffffffffffffffffffffffffffffffffffffff5f5416330361178257565b7f118cdaa7000000000000000000000000000000000000000000000000000000005f523360045260245ffd5b905f602091828151910182855af11561133c575f513d61182c575073ffffffffffffffffffffffffffffffffffffffff81163b155b6117ea5750565b73ffffffffffffffffffffffffffffffffffffffff907f5274afe7000000000000000000000000000000000000000000000000000000005f521660045260245ffd5b600114156117e356000000000000000000000000e49fa849cb37b0e7a42b2335e333fb99474167ba000000000000000000000000833589fcd6edb6e08f4c7c32d4f71b54bda029130000000000000000000000002626664c2603336e57b271c5c0b26f421741e481000000000000000000000000f04822e5b0e76a34aeea936c79b4439f794b8be1",
        "nonce": "0x3",
        "chainId": "0x2105"
      },
      "additionalContracts": [],
      "isFixedGasLimit": false
    },
    {
      "hash": "0xc4968057d632b5e6a0a2857793481afc0551a64474a198ef46bc4b588058cb04",
      "transactionType": "CALL",
      "contractName": "AntSeedAdapter",
      "contractAddress": "0xed98a5f4f3acfd0752a81fdd03dd28b7a44a18b7",
      "function": "setKeeper(address)",
      "arguments": [
        "0x988CE72d127b8A06821BBb3708897dBdc0D66f2f"
      ],
      "transaction": {
        "from": "0xf04822e5b0e76a34aeea936c79b4439f794b8be1",
        "to": "0xed98a5f4f3acfd0752a81fdd03dd28b7a44a18b7",
        "gas": "0xfee0",
        "value": "0x0",
        "input": "0x748747e6000000000000000000000000988ce72d127b8a06821bbb3708897dbdc0d66f2f",
        "nonce": "0x4",
        "chainId": "0x2105"
      },
      "additionalContracts": [],
      "isFixedGasLimit": false
    },
    {
      "hash": "0x06f6a2f0be9e62c29618f8e443c87213a8e28ff1eeb8ea9409302bab178c0784",
      "transactionType": "CALL",
      "contractName": "AntSeedAdapter",
      "contractAddress": "0xed98a5f4f3acfd0752a81fdd03dd28b7a44a18b7",
      "function": "setAuthorizedSettler(address)",
      "arguments": [
        "0x988CE72d127b8A06821BBb3708897dBdc0D66f2f"
      ],
      "transaction": {
        "from": "0xf04822e5b0e76a34aeea936c79b4439f794b8be1",
        "to": "0xed98a5f4f3acfd0752a81fdd03dd28b7a44a18b7",
        "gas": "0xfff1",
        "value": "0x0",
        "input": "0xcad6226e000000000000000000000000988ce72d127b8a06821bbb3708897dbdc0d66f2f",
        "nonce": "0x5",
        "chainId": "0x2105"
      },
      "additionalContracts": [],
      "isFixedGasLimit": false
    },
    {
      "hash": "0xabecb158db57bb578eab8fa6e7898dc2600c64718b71934f45ddecb298b40000",
      "transactionType": "CALL",
      "contractName": "SurplusAdapter",
      "contractAddress": "0x91b3e39ef6335d97876adb4448a998c7cbd3885f",
      "function": "setKeeper(address)",
      "arguments": [
        "0x988CE72d127b8A06821BBb3708897dBdc0D66f2f"
      ],
      "transaction": {
        "from": "0xf04822e5b0e76a34aeea936c79b4439f794b8be1",
        "to": "0x91b3e39ef6335d97876adb4448a998c7cbd3885f",
        "gas": "0xfee0",
        "value": "0x0",
        "input": "0x748747e6000000000000000000000000988ce72d127b8a06821bbb3708897dbdc0d66f2f",
        "nonce": "0x6",
        "chainId": "0x2105"
      },
      "additionalContracts": [],
      "isFixedGasLimit": false
    },
    {
      "hash": "0x125f128e128adf9738bd8ec177b5a48f6678d12cabb11a568e0a6bce8d3d31f9",
      "transactionType": "CALL",
      "contractName": "SurplusAdapter",
      "contractAddress": "0x91b3e39ef6335d97876adb4448a998c7cbd3885f",
      "function": "setAuthorizedSettler(address)",
      "arguments": [
        "0x988CE72d127b8A06821BBb3708897dBdc0D66f2f"
      ],
      "transaction": {
        "from": "0xf04822e5b0e76a34aeea936c79b4439f794b8be1",
        "to": "0x91b3e39ef6335d97876adb4448a998c7cbd3885f",
        "gas": "0xfff1",
        "value": "0x0",
        "input": "0xcad6226e000000000000000000000000988ce72d127b8a06821bbb3708897dbdc0d66f2f",
        "nonce": "0x7",
        "chainId": "0x2105"
      },
      "additionalContracts": [],
      "isFixedGasLimit": false
    },
    {
      "hash": "0x0727eeda9678624ff874493133c2d9ad904f4e901a0857eb0757253f760dd4a9",
      "transactionType": "CALL",
      "contractName": "AntSeedAdapter",
      "contractAddress": "0xed98a5f4f3acfd0752a81fdd03dd28b7a44a18b7",
      "function": "transferOwnership(address)",
      "arguments": [
        "0x872c561f699B42977c093F0eD8b4C9a431280c6c"
      ],
      "transaction": {
        "from": "0xf04822e5b0e76a34aeea936c79b4439f794b8be1",
        "to": "0xed98a5f4f3acfd0752a81fdd03dd28b7a44a18b7",
        "gas": "0xa4d0",
        "value": "0x0",
        "input": "0xf2fde38b000000000000000000000000872c561f699b42977c093f0ed8b4c9a431280c6c",
        "nonce": "0x8",
        "chainId": "0x2105"
      },
      "additionalContracts": [],
      "isFixedGasLimit": false
    },
    {
      "hash": "0x6a09882aab8e0b0c6ab9ccb2bada337caa8ef45222929a5bf230bf1ab79a6bf1",
      "transactionType": "CALL",
      "contractName": "SurplusAdapter",
      "contractAddress": "0x91b3e39ef6335d97876adb4448a998c7cbd3885f",
      "function": "transferOwnership(address)",
      "arguments": [
        "0x872c561f699B42977c093F0eD8b4C9a431280c6c"
      ],
      "transaction": {
        "from": "0xf04822e5b0e76a34aeea936c79b4439f794b8be1",
        "to": "0x91b3e39ef6335d97876adb4448a998c7cbd3885f",
        "gas": "0xa4d0",
        "value": "0x0",
        "input": "0xf2fde38b000000000000000000000000872c561f699b42977c093f0ed8b4c9a431280c6c",
        "nonce": "0x9",
        "chainId": "0x2105"
      },
      "additionalContracts": [],
      "isFixedGasLimit": false
    },
    {
      "hash": "0x9987fc092cddb6518363a18b42e5b8eab33550198d5fd52446e7e060cbf6aa6a",
      "transactionType": "CALL",
      "contractName": null,
      "contractAddress": "0x872c561f699b42977c093f0ed8b4c9a431280c6c",
      "function": "execTransaction(address,uint256,bytes,uint8,uint256,uint256,uint256,address,address,bytes)",
      "arguments": [
        "0xe49FA849cB37b0e7A42B2335e333fb99474167ba",
        "0",
        "0xf1cd3a39000000000000000000000000ed98a5f4f3acfd0752a81fdd03dd28b7a44a18b70000000000000000000000000000000000000000000000000000000000000001",
        "0",
        "0",
        "0",
        "0",
        "0x0000000000000000000000000000000000000000",
        "0x0000000000000000000000000000000000000000",
        "0x52be407a60b7ed8a7284aede773d8c7562bc539373a4ca9859d20fdbbcab7e2638721780c7f4f170b116b3885f80010d6e5f9f0ac346845141a555ce7071333f1b7a821573bb0f0f04919b35a9e214093d830b7711b777f4e9862b45ce2f5ac0a010691d95bcddc5c2ba3ee812987f976db4b2500c89376c972b5f2e936eb4959c1c"
      ],
      "transaction": {
        "from": "0xf04822e5b0e76a34aeea936c79b4439f794b8be1",
        "to": "0x872c561f699b42977c093f0ed8b4c9a431280c6c",
        "gas": "0x207ef",
        "value": "0x0",
        "input": "0x6a761202000000000000000000000000e49fa849cb37b0e7a42b2335e333fb99474167ba0000000000000000000000000000000000000000000000000000000000000000000000000000000000000000000000000000000000000000000000000000014000000000000000000000000000000000000000000000000000000000000000000000000000000000000000000000000000000000000000000000000000000000000000000000000000000000000000000000000000000000000000000000000000000000000000000000000000000000000000000000000000000000000000000000000000000000000000000000000000000000000000000000000000000000000000000000000000000000000000000000000000000000000000000000000000000000000000000000000000000000000000000000000000000000000001c00000000000000000000000000000000000000000000000000000000000000044f1cd3a39000000000000000000000000ed98a5f4f3acfd0752a81fdd03dd28b7a44a18b7000000000000000000000000000000000000000000000000000000000000000100000000000000000000000000000000000000000000000000000000000000000000000000000000000000000000000000000000000000000000008252be407a60b7ed8a7284aede773d8c7562bc539373a4ca9859d20fdbbcab7e2638721780c7f4f170b116b3885f80010d6e5f9f0ac346845141a555ce7071333f1b7a821573bb0f0f04919b35a9e214093d830b7711b777f4e9862b45ce2f5ac0a010691d95bcddc5c2ba3ee812987f976db4b2500c89376c972b5f2e936eb4959c1c000000000000000000000000000000000000000000000000000000000000",
        "nonce": "0xa",
        "chainId": "0x2105"
      },
      "additionalContracts": [],
      "isFixedGasLimit": false
    },
    {
      "hash": "0x142521b25d3069cefee1392134fc8eb6f88e3c7cf3a7885ae255a3b1b42795a9",
      "transactionType": "CALL",
      "contractName": null,
      "contractAddress": "0x872c561f699b42977c093f0ed8b4c9a431280c6c",
      "function": "execTransaction(address,uint256,bytes,uint8,uint256,uint256,uint256,address,address,bytes)",
      "arguments": [
        "0xe49FA849cB37b0e7A42B2335e333fb99474167ba",
        "0",
        "0xf1cd3a3900000000000000000000000091b3e39ef6335d97876adb4448a998c7cbd3885f0000000000000000000000000000000000000000000000000000000000000001",
        "0",
        "0",
        "0",
        "0",
        "0x0000000000000000000000000000000000000000",
        "0x0000000000000000000000000000000000000000",
        "0xe51e96c8b32d63690240243b00951af96cfa5d057a28962f31d32b74a0ec04755efb7d842bad9cbd92de7738a424aff017654865a65ac54b17afc9a4622e0e5e1cad77bd8f888eead0e77d53364cb958734f97480373b7b4d3c1864fc3ca5888931bea209f8e62f3510f3f02e673b23c9098b6ecb2cd079ea25d76d25cc5e792e51b"
      ],
      "transaction": {
        "from": "0xf04822e5b0e76a34aeea936c79b4439f794b8be1",
        "to": "0x872c561f699b42977c093f0ed8b4c9a431280c6c",
        "gas": "0x22674",
        "value": "0x0",
        "input": "0x6a761202000000000000000000000000e49fa849cb37b0e7a42b2335e333fb99474167ba0000000000000000000000000000000000000000000000000000000000000000000000000000000000000000000000000000000000000000000000000000014000000000000000000000000000000000000000000000000000000000000000000000000000000000000000000000000000000000000000000000000000000000000000000000000000000000000000000000000000000000000000000000000000000000000000000000000000000000000000000000000000000000000000000000000000000000000000000000000000000000000000000000000000000000000000000000000000000000000000000000000000000000000000000000000000000000000000000000000000000000000000000000000000000000000001c00000000000000000000000000000000000000000000000000000000000000044f1cd3a3900000000000000000000000091b3e39ef6335d97876adb4448a998c7cbd3885f0000000000000000000000000000000000000000000000000000000000000001000000000000000000000000000000000000000000000000000000000000000000000000000000000000000000000000000000000000000000000082e51e96c8b32d63690240243b00951af96cfa5d057a28962f31d32b74a0ec04755efb7d842bad9cbd92de7738a424aff017654865a65ac54b17afc9a4622e0e5e1cad77bd8f888eead0e77d53364cb958734f97480373b7b4d3c1864fc3ca5888931bea209f8e62f3510f3f02e673b23c9098b6ecb2cd079ea25d76d25cc5e792e51b000000000000000000000000000000000000000000000000000000000000",
        "nonce": "0xb",
        "chainId": "0x2105"
      },
      "additionalContracts": [],
      "isFixedGasLimit": false
    }
  ],
  "receipts": [
    {
      "status": "0x1",
      "cumulativeGasUsed": "0x158acbf",
      "logs": [
        {
          "address": "0xed98a5f4f3acfd0752a81fdd03dd28b7a44a18b7",
          "topics": [
            "0x8be0079c531659141344cd1fd0a4f28419497f9722a3daafe3b4186f6b6457e0",
            "0x0000000000000000000000000000000000000000000000000000000000000000",
            "0x000000000000000000000000f04822e5b0e76a34aeea936c79b4439f794b8be1"
          ],
          "data": "0x",
          "blockHash": "0x0000000000000000000000000000000000000000000000000000000000000000",
          "blockNumber": "0x2d11921",
          "blockTimestamp": "0x6a2c8f25",
          "transactionHash": "0xe4acf2eaa82519c12776f32af308692dfd5497a74b3e200e5629bc4ebb4dad05",
          "transactionIndex": "0x46",
          "logIndex": "0xda",
          "removed": false
        }
      ],
      "logsBloom": "0x00000000000000000000000000000000000000000000000000800000000000000000000000000000000000000000000000000000000000000000000000080000000000000000000002000000000000000001000000000000000000000000000000000000020000000000000000000800020000000000000000000000000000400000000000000000000000000000000000000000000000000000000000000000000000000000000000000000000000000000000000004000000000000000000000000000000000000000004000000000000000000000000000000000000020000000000000000000000000000000000000002000000000000000000000000000",
      "type": "0x2",
      "transactionHash": "0xe4acf2eaa82519c12776f32af308692dfd5497a74b3e200e5629bc4ebb4dad05",
      "transactionIndex": "0x46",
      "blockHash": "0x0000000000000000000000000000000000000000000000000000000000000000",
      "blockNumber": "0x2d11921",
      "gasUsed": "0x163032",
      "effectiveGasPrice": "0x57bcf0",
      "blobGasUsed": "0x6d284",
      "from": "0xf04822e5b0e76a34aeea936c79b4439f794b8be1",
      "to": null,
      "contractAddress": "0xed98a5f4f3acfd0752a81fdd03dd28b7a44a18b7",
      "daFootprintGasScalar": "0x94",
      "l1BaseFeeScalar": "0x8dd",
      "l1BlobBaseFee": "0x70e7e9",
      "l1BlobBaseFeeScalar": "0x101c12",
      "l1Fee": "0x9995fcaf",
      "l1GasPrice": "0x7a45ceb",
      "l1GasUsed": "0xbcd8"
    },
    {
      "status": "0x1",
      "cumulativeGasUsed": "0x16edd8d",
      "logs": [
        {
          "address": "0x91b3e39ef6335d97876adb4448a998c7cbd3885f",
          "topics": [
            "0x8be0079c531659141344cd1fd0a4f28419497f9722a3daafe3b4186f6b6457e0",
            "0x0000000000000000000000000000000000000000000000000000000000000000",
            "0x000000000000000000000000f04822e5b0e76a34aeea936c79b4439f794b8be1"
          ],
          "data": "0x",
          "blockHash": "0x0000000000000000000000000000000000000000000000000000000000000000",
          "blockNumber": "0x2d11921",
          "blockTimestamp": "0x6a2c8f25",
          "transactionHash": "0xe1c91b15260b6f737be4514468b43ceac446913a57d4d787635bd2c14d658af0",
          "transactionIndex": "0x47",
          "logIndex": "0xdb",
          "removed": false
        }
      ],
      "logsBloom": "0x00000000000000000000000000000000000000000000000000800000000000000000000000000000000000000000000000000000000000000000000000080000000000000000000000000000000000000001000000000000000000000000000000000000020000000000000000000800020000000000000000000000000000400000000000000000000000000000000000000000000000000000000000000040000000000000000000000000000000000200000000000000000000000000000000000000000000000000004000000000000000000000000000000000000020000000000000000000000000000000000000000001000000000000000000000000",
      "type": "0x2",
      "transactionHash": "0xe1c91b15260b6f737be4514468b43ceac446913a57d4d787635bd2c14d658af0",
      "transactionIndex": "0x47",
      "blockHash": "0x0000000000000000000000000000000000000000000000000000000000000000",
      "blockNumber": "0x2d11921",
      "gasUsed": "0x1630ce",
      "effectiveGasPrice": "0x57bcf0",
      "blobGasUsed": "0x6da08",
      "from": "0xf04822e5b0e76a34aeea936c79b4439f794b8be1",
      "to": null,
      "contractAddress": "0x91b3e39ef6335d97876adb4448a998c7cbd3885f",
      "daFootprintGasScalar": "0x94",
      "l1BaseFeeScalar": "0x8dd",
      "l1BlobBaseFee": "0x70e7e9",
      "l1BlobBaseFeeScalar": "0x101c12",
      "l1Fee": "0x9995fcaf",
      "l1GasPrice": "0x7a45ceb",
      "l1GasUsed": "0xbdae"
    },
    {
      "status": "0x1",
      "cumulativeGasUsed": "0x22ab6db",
      "logs": [
        {
          "address": "0xed98a5f4f3acfd0752a81fdd03dd28b7a44a18b7",
          "topics": [
            "0xdc3dba1d64dd67c0dc8b12621edd0c6ca4303a9073c3a8fcac38115e73d67b6b",
            "0x000000000000000000000000988ce72d127b8a06821bbb3708897dbdc0d66f2f"
          ],
          "data": "0x",
          "blockHash": "0x0000000000000000000000000000000000000000000000000000000000000000",
          "blockNumber": "0x2d11921",
          "blockTimestamp": "0x6a2c8f25",
          "transactionHash": "0xc4968057d632b5e6a0a2857793481afc0551a64474a198ef46bc4b588058cb04",
          "transactionIndex": "0x6f",
          "logIndex": "0x1f6",
          "removed": false
        }
      ],
      "logsBloom": "0x00000000000000000000000000000000000000000000000000000000000000000002000010000000000000000000000000000000000000000000000000000000000000000000000002000000000008000000000000000000000000000000000000000000004000000000000000000000000000000000000000000800000000000000000000000000000000000000000000000000000000000000000000000000000000000000000000000000000000000000000000004000000000000000000000000000000000000000000000000000000000000000000000000000000000000000004000000000000000000000000000002000000000000000000000000000",
      "type": "0x2",
      "transactionHash": "0xc4968057d632b5e6a0a2857793481afc0551a64474a198ef46bc4b588058cb04",
      "transactionIndex": "0x6f",
      "blockHash": "0x0000000000000000000000000000000000000000000000000000000000000000",
      "blockNumber": "0x2d11921",
      "gasUsed": "0xb887",
      "effectiveGasPrice": "0x57bcf0",
      "blobGasUsed": "0x39d0",
      "from": "0xf04822e5b0e76a34aeea936c79b4439f794b8be1",
      "to": "0xed98a5f4f3acfd0752a81fdd03dd28b7a44a18b7",
      "contractAddress": null,
      "daFootprintGasScalar": "0x94",
      "l1BaseFeeScalar": "0x8dd",
      "l1BlobBaseFee": "0x70e7e9",
      "l1BlobBaseFeeScalar": "0x101c12",
      "l1Fee": "0x9fcd394d",
      "l1GasPrice": "0x7a45ceb",
      "l1GasUsed": "0x640"
    },
    {
      "status": "0x1",
      "cumulativeGasUsed": "0x22b7028",
      "logs": [
        {
          "address": "0xed98a5f4f3acfd0752a81fdd03dd28b7a44a18b7",
          "topics": [
            "0xa5db000012e784eddc7abb35ba4948d38d616b0cd0d54c056d1e5c9cfe8ac33f",
            "0x000000000000000000000000988ce72d127b8a06821bbb3708897dbdc0d66f2f"
          ],
          "data": "0x",
          "blockHash": "0x0000000000000000000000000000000000000000000000000000000000000000",
          "blockNumber": "0x2d11921",
          "blockTimestamp": "0x6a2c8f25",
          "transactionHash": "0xabecb158db57bb578eab8fa6e7898dc2600c64718b71934f45ddecb298b40000",
          "transactionIndex": "0x70",
          "logIndex": "0x1f7",
          "removed": false
        }
      ],
      "logsBloom": "0x00000000000000000000000000000000000000000000000000000000000000000002000010000000000000000000000000000000000000400000000000000000000000000000000002000000000008000000000000000000000000000000008000000000000000000000000000000000000000000000000000000000000000000000000000000000000000000000000400000000000000000000000000000000000000000000000000000000000000000000000000004000000000000000000000000000000000000000000000000000000000000000000000000000000000000000000000000000000000000000000000002000000000000000000000000000",
      "type": "0x2",
      "transactionHash": "0xabecb158db57bb578eab8fa6e7898dc2600c64718b71934f45ddecb298b40000",
      "transactionIndex": "0x70",
      "blockHash": "0x0000000000000000000000000000000000000000000000000000000000000000",
      "blockNumber": "0x2d11921",
      "gasUsed": "0xb94d",
      "effectiveGasPrice": "0x57bcf0",
      "blobGasUsed": "0x39d0",
      "from": "0xf04822e5b0e76a34aeea936c79b4439f794b8be1",
      "to": "0xed98a5f4f3acfd0752a81fdd03dd28b7a44a18b7",
      "contractAddress": null,
      "daFootprintGasScalar": "0x94",
      "l1BaseFeeScalar": "0x8dd",
      "l1BlobBaseFee": "0x70e7e9",
      "l1BlobBaseFeeScalar": "0x101c12",
      "l1Fee": "0x9fcd394d",
      "l1GasPrice": "0x7a45ceb",
      "l1GasUsed": "0x640"
    },
    {
      "status": "0x1",
      "cumulativeGasUsed": "0x22c28af",
      "logs": [
        {
          "address": "0x91b3e39ef6335d97876adb4448a998c7cbd3885f",
          "topics": [
            "0xdc3dba1d64dd67c0dc8b12621edd0c6ca4303a9073c3a8fcac38115e73d67b6b",
            "0x000000000000000000000000988ce72d127b8a06821bbb3708897dbdc0d66f2f"
          ],
          "data": "0x",
          "blockHash": "0x0000000000000000000000000000000000000000000000000000000000000000",
          "blockNumber": "0x2d11921",
          "blockTimestamp": "0x6a2c8f25",
          "transactionHash": "0x06f6a2f0be9e62c29618f8e443c87213a8e28ff1eeb8ea9409302bab178c0784",
          "transactionIndex": "0x71",
          "logIndex": "0x1f8",
          "removed": false
        }
      ],
      "logsBloom": "0x00000000000000000000000000000000000000000000000000000000000000000002000010000000000000000000000000000000000000000000000000000000000000000000000000000000000008000000000000000000000000000000000000000000004000000000000000000000000000000000000000000800000000000000000000000000000000000000000000000000000000000000000000000040000000000000000000000000000000000200000000000000000000000000000000000000000000000000000000000000000000000000000000000000000000000000004000000000000000000000000000000001000000000000000000000000",
      "type": "0x2",
      "transactionHash": "0x06f6a2f0be9e62c29618f8e443c87213a8e28ff1eeb8ea9409302bab178c0784",
      "transactionIndex": "0x71",
      "blockHash": "0x0000000000000000000000000000000000000000000000000000000000000000",
      "blockNumber": "0x2d11921",
      "gasUsed": "0xb887",
      "effectiveGasPrice": "0x57bcf0",
      "blobGasUsed": "0x39d0",
      "from": "0xf04822e5b0e76a34aeea936c79b4439f794b8be1",
      "to": "0x91b3e39ef6335d97876adb4448a998c7cbd3885f",
      "contractAddress": null,
      "daFootprintGasScalar": "0x94",
      "l1BaseFeeScalar": "0x8dd",
      "l1BlobBaseFee": "0x70e7e9",
      "l1BlobBaseFeeScalar": "0x101c12",
      "l1Fee": "0x9fcd394d",
      "l1GasPrice": "0x7a45ceb",
      "l1GasUsed": "0x640"
    },
    {
      "status": "0x1",
      "cumulativeGasUsed": "0x22ce1fc",
      "logs": [
        {
          "address": "0x91b3e39ef6335d97876adb4448a998c7cbd3885f",
          "topics": [
            "0xa5db000012e784eddc7abb35ba4948d38d616b0cd0d54c056d1e5c9cfe8ac33f",
            "0x000000000000000000000000988ce72d127b8a06821bbb3708897dbdc0d66f2f"
          ],
          "data": "0x",
          "blockHash": "0x0000000000000000000000000000000000000000000000000000000000000000",
          "blockNumber": "0x2d11921",
          "blockTimestamp": "0x6a2c8f25",
          "transactionHash": "0x6a09882aab8e0b0c6ab9ccb2bada337caa8ef45222929a5bf230bf1ab79a6bf1",
          "transactionIndex": "0x72",
          "logIndex": "0x1f9",
          "removed": false
        }
      ],
      "logsBloom": "0x00000000000000000000000000000000000000000000000000000000000000000002000010000000000000000000000000000000000000400000000000000000000000000000000000000000000008000000000000000000000000000000008000000000000000000000000000000000000000000000000000000000000000000000000000000000000000000000000400000000000000000000000000000040000000000000000000000000000000000200000000000000000000000000000000000000000000000000000000000000000000000000000000000000000000000000000000000000000000000000000000000001000000000000000000000000",
      "type": "0x2",
      "transactionHash": "0x6a09882aab8e0b0c6ab9ccb2bada337caa8ef45222929a5bf230bf1ab79a6bf1",
      "transactionIndex": "0x72",
      "blockHash": "0x0000000000000000000000000000000000000000000000000000000000000000",
      "blockNumber": "0x2d11921",
      "gasUsed": "0xb94d",
      "effectiveGasPrice": "0x57bcf0",
      "blobGasUsed": "0x39d0",
      "from": "0xf04822e5b0e76a34aeea936c79b4439f794b8be1",
      "to": "0x91b3e39ef6335d97876adb4448a998c7cbd3885f",
      "contractAddress": null,
      "daFootprintGasScalar": "0x94",
      "l1BaseFeeScalar": "0x8dd",
      "l1BlobBaseFee": "0x70e7e9",
      "l1BlobBaseFeeScalar": "0x101c12",
      "l1Fee": "0x9fcd394d",
      "l1GasPrice": "0x7a45ceb",
      "l1GasUsed": "0x640"
    },
    {
      "status": "0x1",
      "cumulativeGasUsed": "0x22d52ae",
      "logs": [
        {
          "address": "0xed98a5f4f3acfd0752a81fdd03dd28b7a44a18b7",
          "topics": [
            "0x8be0079c531659141344cd1fd0a4f28419497f9722a3daafe3b4186f6b6457e0",
            "0x000000000000000000000000f04822e5b0e76a34aeea936c79b4439f794b8be1",
            "0x000000000000000000000000872c561f699b42977c093f0ed8b4c9a431280c6c"
          ],
          "data": "0x",
          "blockHash": "0x0000000000000000000000000000000000000000000000000000000000000000",
          "blockNumber": "0x2d11921",
          "blockTimestamp": "0x6a2c8f25",
          "transactionHash": "0x0727eeda9678624ff874493133c2d9ad904f4e901a0857eb0757253f760dd4a9",
          "transactionIndex": "0x73",
          "logIndex": "0x1fa",
          "removed": false
        }
      ],
      "logsBloom": "0x00000000000000000000000000000000000000000000000000800000000000000008000000000000000000000000000000000000000000000000000000080000000000000000000002000000000000000001000000000000000000000000000000000000000000000000000000000000020000000000000000000000000000400000000000000000000000000000000000001000000000000000000000000000000000000000000000000000001000000000000000004000000000000000000000000000000000000000004000000000000000000000000000000000000000000000000000000000000000000000000000002000000000000000000000000000",
      "type": "0x2",
      "transactionHash": "0x0727eeda9678624ff874493133c2d9ad904f4e901a0857eb0757253f760dd4a9",
      "transactionIndex": "0x73",
      "blockHash": "0x0000000000000000000000000000000000000000000000000000000000000000",
      "blockNumber": "0x2d11921",
      "gasUsed": "0x70b2",
      "effectiveGasPrice": "0x57bcf0",
      "blobGasUsed": "0x39d0",
      "from": "0xf04822e5b0e76a34aeea936c79b4439f794b8be1",
      "to": "0xed98a5f4f3acfd0752a81fdd03dd28b7a44a18b7",
      "contractAddress": null,
      "daFootprintGasScalar": "0x94",
      "l1BaseFeeScalar": "0x8dd",
      "l1BlobBaseFee": "0x70e7e9",
      "l1BlobBaseFeeScalar": "0x101c12",
      "l1Fee": "0x9fcd394d",
      "l1GasPrice": "0x7a45ceb",
      "l1GasUsed": "0x640"
    },
    {
      "status": "0x1",
      "cumulativeGasUsed": "0x22dc360",
      "logs": [
        {
          "address": "0x91b3e39ef6335d97876adb4448a998c7cbd3885f",
          "topics": [
            "0x8be0079c531659141344cd1fd0a4f28419497f9722a3daafe3b4186f6b6457e0",
            "0x000000000000000000000000f04822e5b0e76a34aeea936c79b4439f794b8be1",
            "0x000000000000000000000000872c561f699b42977c093f0ed8b4c9a431280c6c"
          ],
          "data": "0x",
          "blockHash": "0x0000000000000000000000000000000000000000000000000000000000000000",
          "blockNumber": "0x2d11921",
          "blockTimestamp": "0x6a2c8f25",
          "transactionHash": "0x125f128e128adf9738bd8ec177b5a48f6678d12cabb11a568e0a6bce8d3d31f9",
          "transactionIndex": "0x74",
          "logIndex": "0x1fb",
          "removed": false
        }
      ],
      "logsBloom": "0x00000000000000000000000000000000000000000000000000800000000000000008000000000000000000000000000000000000000000000000000000080000000000000000000000000000000000000001000000000000000000000000000000000000000000000000000000000000020000000000000000000000000000400000000000000000000000000000000000001000000000000000000000000040000000000000000000000000001000000200000000000000000000000000000000000000000000000000004000000000000000000000000000000000000000000000000000000000000000000000000000000001000000000000000000000000",
      "type": "0x2",
      "transactionHash": "0x125f128e128adf9738bd8ec177b5a48f6678d12cabb11a568e0a6bce8d3d31f9",
      "transactionIndex": "0x74",
      "blockHash": "0x0000000000000000000000000000000000000000000000000000000000000000",
      "blockNumber": "0x2d11921",
      "gasUsed": "0x70b2",
      "effectiveGasPrice": "0x57bcf0",
      "blobGasUsed": "0x39d0",
      "from": "0xf04822e5b0e76a34aeea936c79b4439f794b8be1",
      "to": "0x91b3e39ef6335d97876adb4448a998c7cbd3885f",
      "contractAddress": null,
      "daFootprintGasScalar": "0x94",
      "l1BaseFeeScalar": "0x8dd",
      "l1BlobBaseFee": "0x70e7e9",
      "l1BlobBaseFeeScalar": "0x101c12",
      "l1Fee": "0x9fcd394d",
      "l1GasPrice": "0x7a45ceb",
      "l1GasUsed": "0x640"
    },
    {
      "status": "0x1",
      "cumulativeGasUsed": "0x22f3bcd",
      "logs": [
        {
          "address": "0x872c561f699b42977c093f0ed8b4c9a431280c6c",
          "topics": [
            "0x66753cd2356569ee081232e3be8909b950e0a76c1f8460c3a5e3c2be32b11bed"
          ],
          "data": "0x000000000000000000000000e49fa849cb37b0e7a42b2335e333fb99474167ba0000000000000000000000000000000000000000000000000000000000000000000000000000000000000000000000000000000000000000000000000000016000000000000000000000000000000000000000000000000000000000000000000000000000000000000000000000000000000000000000000000000000000000000000000000000000000000000000000000000000000000000000000000000000000000000000000000000000000000000000000000000000000000000000000000000000000000000000000000000000000000000000000000000000000000000000000000000000000000000000000000000000000000000000000000000000000000000000000000000000000000000000000000000000000000000001e000000000000000000000000000000000000000000000000000000000000002a00000000000000000000000000000000000000000000000000000000000000044f1cd3a39000000000000000000000000ed98a5f4f3acfd0752a81fdd03dd28b7a44a18b7000000000000000000000000000000000000000000000000000000000000000100000000000000000000000000000000000000000000000000000000000000000000000000000000000000000000000000000000000000000000008252be407a60b7ed8a7284aede773d8c7562bc539373a4ca9859d20fdbbcab7e2638721780c7f4f170b116b3885f80010d6e5f9f0ac346845141a555ce7071333f1b7a821573bb0f0f04919b35a9e214093d830b7711b777f4e9862b45ce2f5ac0a010691d95bcddc5c2ba3ee812987f976db4b2500c89376c972b5f2e936eb4959c1c0000000000000000000000000000000000000000000000000000000000000000000000000000000000000000000000000000000000000000000000000060000000000000000000000000000000000000000000000000000000000000004a000000000000000000000000f04822e5b0e76a34aeea936c79b4439f794b8be10000000000000000000000000000000000000000000000000000000000000002",
          "blockHash": "0x0000000000000000000000000000000000000000000000000000000000000000",
          "blockNumber": "0x2d11921",
          "blockTimestamp": "0x6a2c8f25",
          "transactionHash": "0x142521b25d3069cefee1392134fc8eb6f88e3c7cf3a7885ae255a3b1b42795a9",
          "transactionIndex": "0x75",
          "logIndex": "0x1fc",
          "removed": false
        },
        {
          "address": "0xe49fa849cb37b0e7a42b2335e333fb99474167ba",
          "topics": [
            "0x9f0b5e2e99b047f18244f9503999cd734903f90a033ebad82b1018376eab4b82",
            "0x000000000000000000000000ed98a5f4f3acfd0752a81fdd03dd28b7a44a18b7"
          ],
          "data": "0x0000000000000000000000000000000000000000000000000000000000000001",
          "blockHash": "0x0000000000000000000000000000000000000000000000000000000000000000",
          "blockNumber": "0x2d11921",
          "blockTimestamp": "0x6a2c8f25",
          "transactionHash": "0x142521b25d3069cefee1392134fc8eb6f88e3c7cf3a7885ae255a3b1b42795a9",
          "transactionIndex": "0x75",
          "logIndex": "0x1fd",
          "removed": false
        },
        {
          "address": "0x872c561f699b42977c093f0ed8b4c9a431280c6c",
          "topics": [
            "0x442e715f626346e8c54381002da614f62bee8d27386535b2521ec8540898556e",
            "0x60f1f285db3d32c9feec03de07b588f050dd5252c29a3a2585bb272e0550a7b4"
          ],
          "data": "0x0000000000000000000000000000000000000000000000000000000000000000",
          "blockHash": "0x0000000000000000000000000000000000000000000000000000000000000000",
          "blockNumber": "0x2d11921",
          "blockTimestamp": "0x6a2c8f25",
          "transactionHash": "0x142521b25d3069cefee1392134fc8eb6f88e3c7cf3a7885ae255a3b1b42795a9",
          "transactionIndex": "0x75",
          "logIndex": "0x1fe",
          "removed": false
        }
      ],
      "logsBloom": "0x000000004000000000000000000000000000000000000000000000000400000000000100010000000000080000000000000000000000000000000000000000040000000000000000000000000000000002000c0000000000000000000000000000002000000000000000800000000000000040000000000000000000000000000000000000000000000000000000001000000000000000000000000000000000000040000400000000000000000004000000000000000000000002000000000000000000000400000000000000020000000000000000010000000000000000000000000000000000000000000000000000000000000000000000020000000000",
      "type": "0x2",
      "transactionHash": "0x142521b25d3069cefee1392134fc8eb6f88e3c7cf3a7885ae255a3b1b42795a9",
      "transactionIndex": "0x75",
      "blockHash": "0x0000000000000000000000000000000000000000000000000000000000000000",
      "blockNumber": "0x2d11921",
      "gasUsed": "0x1786d",
      "effectiveGasPrice": "0x57bcf0",
      "blobGasUsed": "0x911c",
      "from": "0xf04822e5b0e76a34aeea936c79b4439f794b8be1",
      "to": "0x872c561f699b42977c093f0ed8b4c9a431280c6c",
      "contractAddress": null,
      "daFootprintGasScalar": "0x94",
      "l1BaseFeeScalar": "0x8dd",
      "l1BlobBaseFee": "0x70e7e9",
      "l1BlobBaseFeeScalar": "0x101c12",
      "l1Fee": "0x9fcd394d",
      "l1GasPrice": "0x7a45ceb",
      "l1GasUsed": "0xfb0"
    },
    {
      "status": "0x1",
      "cumulativeGasUsed": "0x230b42e",
      "logs": [
        {
          "address": "0x872c561f699b42977c093f0ed8b4c9a431280c6c",
          "topics": [
            "0x66753cd2356569ee081232e3be8909b950e0a76c1f8460c3a5e3c2be32b11bed"
          ],
          "data": "0x000000000000000000000000e49fa849cb37b0e7a42b2335e333fb99474167ba0000000000000000000000000000000000000000000000000000000000000000000000000000000000000000000000000000000000000000000000000000016000000000000000000000000000000000000000000000000000000000000000000000000000000000000000000000000000000000000000000000000000000000000000000000000000000000000000000000000000000000000000000000000000000000000000000000000000000000000000000000000000000000000000000000000000000000000000000000000000000000000000000000000000000000000000000000000000000000000000000000000000000000000000000000000000000000000000000000000000000000000000000000000000000000000001e000000000000000000000000000000000000000000000000000000000000002a00000000000000000000000000000000000000000000000000000000000000044f1cd3a3900000000000000000000000091b3e39ef6335d97876adb4448a998c7cbd3885f0000000000000000000000000000000000000000000000000000000000000001000000000000000000000000000000000000000000000000000000000000000000000000000000000000000000000000000000000000000000000082e51e96c8b32d63690240243b00951af96cfa5d057a28962f31d32b74a0ec04755efb7d842bad9cbd92de7738a424aff017654865a65ac54b17afc9a4622e0e5e1cad77bd8f888eead0e77d53364cb958734f97480373b7b4d3c1864fc3ca5888931bea209f8e62f3510f3f02e673b23c9098b6ecb2cd079ea25d76d25cc5e792e51b0000000000000000000000000000000000000000000000000000000000000000000000000000000000000000000000000000000000000000000000000060000000000000000000000000000000000000000000000000000000000000004b000000000000000000000000f04822e5b0e76a34aeea936c79b4439f794b8be10000000000000000000000000000000000000000000000000000000000000002",
          "blockHash": "0x0000000000000000000000000000000000000000000000000000000000000000",
          "blockNumber": "0x2d11921",
          "blockTimestamp": "0x6a2c8f25",
          "transactionHash": "0x9987fc092cddb6518363a18b42e5b8eab33550198d5fd52446e7e060cbf6aa6a",
          "transactionIndex": "0x76",
          "logIndex": "0x1ff",
          "removed": false
        },
        {
          "address": "0xe49fa849cb37b0e7a42b2335e333fb99474167ba",
          "topics": [
            "0x9f0b5e2e99b047f18244f9503999cd734903f90a033ebad82b1018376eab4b82",
            "0x00000000000000000000000091b3e39ef6335d97876adb4448a998c7cbd3885f"
          ],
          "data": "0x0000000000000000000000000000000000000000000000000000000000000001",
          "blockHash": "0x0000000000000000000000000000000000000000000000000000000000000000",
          "blockNumber": "0x2d11921",
          "blockTimestamp": "0x6a2c8f25",
          "transactionHash": "0x9987fc092cddb6518363a18b42e5b8eab33550198d5fd52446e7e060cbf6aa6a",
          "transactionIndex": "0x76",
          "logIndex": "0x200",
          "removed": false
        },
        {
          "address": "0x872c561f699b42977c093f0ed8b4c9a431280c6c",
          "topics": [
            "0x442e715f626346e8c54381002da614f62bee8d27386535b2521ec8540898556e",
            "0x53278f92b528d4f0142e256e9142221ae307c7228b69006f9f3704bac6b6545c"
          ],
          "data": "0x0000000000000000000000000000000000000000000000000000000000000000",
          "blockHash": "0x0000000000000000000000000000000000000000000000000000000000000000",
          "blockNumber": "0x2d11921",
          "blockTimestamp": "0x6a2c8f25",
          "transactionHash": "0x9987fc092cddb6518363a18b42e5b8eab33550198d5fd52446e7e060cbf6aa6a",
          "transactionIndex": "0x76",
          "logIndex": "0x201",
          "removed": false
        }
      ],
      "logsBloom": "0x00000000400000000000000000000000000800000000000000000000040008000000010001000000000008000000010000000000000000000000000000000004000000000000000000000000000000000000040000000000000000000000000000002000000000000000000000000000000040000000000000000000000000000000000000000000000000000000000000000000000000000000000000000000000040000400000000000000000004000000000000000000000002000000000000000000000400000000000000020000000000000000000000000000000000400000000000000000000000000800000000000000000000000000000000800000",
      "type": "0x2",
      "transactionHash": "0x9987fc092cddb6518363a18b42e5b8eab33550198d5fd52446e7e060cbf6aa6a",
      "transactionIndex": "0x76",
      "blockHash": "0x0000000000000000000000000000000000000000000000000000000000000000",
      "blockNumber": "0x2d11921",
      "gasUsed": "0x17861",
      "effectiveGasPrice": "0x57bcf0",
      "blobGasUsed": "0x911c",
      "from": "0xf04822e5b0e76a34aeea936c79b4439f794b8be1",
      "to": "0x872c561f699b42977c093f0ed8b4c9a431280c6c",
      "contractAddress": null,
      "daFootprintGasScalar": "0x94",
      "l1BaseFeeScalar": "0x8dd",
      "l1BlobBaseFee": "0x70e7e9",
      "l1BlobBaseFeeScalar": "0x101c12",
      "l1Fee": "0x9fcd394d",
      "l1GasPrice": "0x7a45ceb",
      "l1GasUsed": "0xfb0"
    }
  ],
  "libraries": [],
  "pending": [],
  "returns": {},
  "timestamp": 1781305168261,
  "chain": 8453,
  "commit": "cca9802"
}