{
  "transactions": [
    {
      "hash": "0xc41200e72798b55d830a8c0d313855cd3898c1c09f6e7fff8039d4f5dc497912",
      "transactionType": "CREATE",
      "contractName": "AntSeedAdapter",
      "contractAddress": "0x8885b256609e1d7c1fb2f1db58a379d2efb8bbf3",
      "function": null,
      "arguments": [
        "0xe49FA849cB37b0e7A42B2335e333fb99474167ba",
        "0x833589fCD6eDb6E08f4c7C32D4f71b54bdA02913",
        "0x2626664c2603336E57B271c5C0b26F421741e481",
        "0x428Fac40C9f92aA35131256Dba95A7bAF4966311"
      ],
      "transaction": {
        "from": "0x428fac40c9f92aa35131256dba95a7baf4966311",
        "gas": "0x1c9e16",
        "value": "0x0",
        "input": "0x60c03461014957601f61197538819003918201601f19168301916001600160401b0383118484101761014d578084926080946040528339810103126101495761004781610161565b9061005460208201610161565b61006060408301610161565b916001600160a01b039061007690606001610161565b16928315610136575f54604051948060018060a01b0383167f8be0079c531659141344cd1fd0a4f28419497f9722a3daafe3b4186f6b6457e05f80a36001600160b81b031990911617607d60a21b1762ffffff60b81b191661027160bc1b175f556103e8600255600180546001600160a01b0319166001600160a01b039290921691909117905560805260a0526117ff908161017682396080518181816103140152818161045d01526111f3015260a05181818161053d0152610d200152f35b631e4fbdf760e01b5f525f60045260245ffd5b5f80fd5b634e487b7160e01b5f52604160045260245ffd5b51906001600160a01b03821682036101495756fe60806040526004361015610011575f80fd5b5f5f3560e01c8063101e4f9e14611369578063261960741461133b578063341b828b146112175780633e413bee146111c757806362c06767146110d957806365fce585146110b55780636817031b1461102e578063715018a614610fb2578063748747e614610f2b57806380fc98e614610f115780638da5cb5b14610edf578063a17b3c2614610e6b578063ac02803814610e47578063aced166114610e14578063af935b0414610d60578063bff1d4ad14610d44578063c31c9c0714610cf4578063cad6226e14610c6d578063d613993c14610424578063d62d7486146103f0578063de3def58146103c1578063def3d30714610251578063e17dd7c514610233578063f2fde38b146101635763fbfa77cf1461012d575f80fd5b34610160578060031936011261016057602073ffffffffffffffffffffffffffffffffffffffff60015416604051908152f35b80fd5b50346101605760206003193601126101605773ffffffffffffffffffffffffffffffffffffffff61019261152b565b61019a61160b565b1680156102075773ffffffffffffffffffffffffffffffffffffffff8254827fffffffffffffffffffffffff00000000000000000000000000000000000000008216178455167f8be0079c531659141344cd1fd0a4f28419497f9722a3daafe3b4186f6b6457e08380a380f35b6024827f1e4fbdf700000000000000000000000000000000000000000000000000000000815280600452fd5b50346101605780600319360112610160576020600254604051908152f35b50346101605760206003193601126101605760043573ffffffffffffffffffffffffffffffffffffffff60045416331480156103a1575b156103435760207f8a92d411665ba2871660087c41aa031d8328805f31550763ecee1791ac6e377a916103396040517f23b872dd0000000000000000000000000000000000000000000000000000000084820152336024820152306044820152826064820152606481526102fd608482611591565b73ffffffffffffffffffffffffffffffffffffffff7f000000000000000000000000000000000000000000000000000000000000000016611778565b604051908152a180f35b60646040517f08c379a000000000000000000000000000000000000000000000000000000000815260206004820152600e60248201527f6e6f7420617574686f72697a65640000000000000000000000000000000000006044820152fd5b5073ffffffffffffffffffffffffffffffffffffffff8254163314610288565b5034610160578060031936011261016057602060405173f4d97f2da56e8c3098f3a8d538db630a2606a0248152f35b5034610160578060031936011261016057602073ffffffffffffffffffffffffffffffffffffffff60045416604051908152f35b5034610915575f6003193601126109155773ffffffffffffffffffffffffffffffffffffffff5f541633148015610c4c575b15610bee577f000000000000000000000000000000000000000000000000000000000000000073ffffffffffffffffffffffffffffffffffffffff8116604051907f70a08231000000000000000000000000000000000000000000000000000000008252306004830152602082602481845afa918215610a36575f92610bba575b508115610b5c57600492602073ffffffffffffffffffffffffffffffffffffffff60015416604051958680927f38d52e0f0000000000000000000000000000000000000000000000000000000082525afa938415610a36575f94610b2b575b50610563837f00000000000000000000000000000000000000000000000000000000000000008094611657565b7fffffff00000000000000000000000000000000000000000000000000000000005f547fffffffffffffffffffffffffffffffffffffffff0000000000000000000000006040519360601b166020840152818160481b1660348401527f4200000000000000000000000000000000000006000000000000000000000000603784015260301b16604b8201527fffffffffffffffffffffffffffffffffffffffff00000000000000000000000073ffffffffffffffffffffffffffffffffffffffff85169460601b16604e8201526042815261063f606282611591565b60405191608083019083821067ffffffffffffffff831117610afe5760209273ffffffffffffffffffffffffffffffffffffffff9260405284526106d95f8385870196308852604081019789895260608201848152604051998a98899788957fb858183f0000000000000000000000000000000000000000000000000000000087528c6004880152516080602488015260a487019061154e565b93511660448501525160648401525160848301520393165af1908115610a36575f91610acc575b508015610a6e576002548082029082820403610a415761271090049261072684836115fe565b8061099a575b5084809480610771575b507f73ae596b0194c4a2e07c63759627e439490e08b1ba95331625271bad9ee2d76a606085878660405192835260208301526040820152a180f35b9091945073ffffffffffffffffffffffffffffffffffffffff60015416604051957f70a08231000000000000000000000000000000000000000000000000000000008752306004880152602087602481855afa96871561098f578497610954575b506107de918391611657565b73ffffffffffffffffffffffffffffffffffffffff6001541690813b156109505782916044839260405194859384927f0f21794800000000000000000000000000000000000000000000000000000000845260048401523060248401525af180156109455761092c575b5050602492602073ffffffffffffffffffffffffffffffffffffffff60015416604051958680927f70a082310000000000000000000000000000000000000000000000000000000082523060048301525afa9384156109215785946108e3575b50906108d8606093927f73ae596b0194c4a2e07c63759627e439490e08b1ba95331625271bad9ee2d76a956115fe565b93509091845f610736565b935091906020843d602011610919575b8161090060209383611591565b810103126109155792519290916108d86108a8565b5f80fd5b3d91506108f3565b6040513d87823e3d90fd5b8161093691611591565b61094157835f610848565b8380fd5b6040513d84823e3d90fd5b8280fd5b935095506020833d602011610987575b8161097160209383611591565b81010312610915579151948692906107de6107d2565b3d9150610964565b6040513d86823e3d90fd5b6109bd8173ffffffffffffffffffffffffffffffffffffffff6001541684611657565b73ffffffffffffffffffffffffffffffffffffffff6001541690813b15610915575f916024839260405194859384927f24ea14f500000000000000000000000000000000000000000000000000000000845260048401525af18015610a36571561072c57610a2e9195505f90611591565b5f935f61072c565b6040513d5f823e3d90fd5b7f4e487b71000000000000000000000000000000000000000000000000000000005f52601160045260245ffd5b60646040517f08c379a000000000000000000000000000000000000000000000000000000000815260206004820152600f60248201527f737761702072657475726e6564203000000000000000000000000000000000006044820152fd5b90506020813d602011610af6575b81610ae760209383611591565b8101031261091557515f610700565b3d9150610ada565b7f4e487b71000000000000000000000000000000000000000000000000000000005f52604160045260245ffd5b610b4e91945060203d602011610b55575b610b468183611591565b8101906115d2565b925f610536565b503d610b3c565b60646040517f08c379a000000000000000000000000000000000000000000000000000000000815260206004820152601060248201527f6e6f205553444320746f20726f757465000000000000000000000000000000006044820152fd5b9091506020813d602011610be6575b81610bd660209383611591565b810103126109155751905f6104d7565b3d9150610bc9565b60646040517f08c379a000000000000000000000000000000000000000000000000000000000815260206004820152600c60248201527f6e6f74206f70657261746f7200000000000000000000000000000000000000006044820152fd5b5073ffffffffffffffffffffffffffffffffffffffff600354163314610456565b346109155760206003193601126109155773ffffffffffffffffffffffffffffffffffffffff610c9b61152b565b610ca361160b565b16807fffffffffffffffffffffffff000000000000000000000000000000000000000060045416176004557fa5db000012e784eddc7abb35ba4948d38d616b0cd0d54c056d1e5c9cfe8ac33f5f80a2005b34610915575f60031936011261091557602060405173ffffffffffffffffffffffffffffffffffffffff7f0000000000000000000000000000000000000000000000000000000000000000168152f35b34610915575f6003193601126109155760206040516107d08152f35b3461091557602060031936011261091557600435610d7c61160b565b6107d08111610db6576020817fecf72c9ac9f8f5ea2bb6a3c6fbbeff4107883d5e51388cc5e24b0dba5f5a2fe692600255604051908152a1005b60646040517f08c379a000000000000000000000000000000000000000000000000000000000815260206004820152600f60248201527f65786365656473206d61782066656500000000000000000000000000000000006044820152fd5b34610915575f60031936011261091557602073ffffffffffffffffffffffffffffffffffffffff60035416604051908152f35b34610915575f60031936011261091557602062ffffff5f5460a01c16604051908152f35b34610915575f60031936011261091557604051604081019080821067ffffffffffffffff831117610afe57610edb91604052600781527f416e745365656400000000000000000000000000000000000000000000000000602082015260405191829160208352602083019061154e565b0390f35b34610915575f60031936011261091557602073ffffffffffffffffffffffffffffffffffffffff5f5416604051908152f35b34610915575f6003193601126109155760206040515f8152f35b346109155760206003193601126109155773ffffffffffffffffffffffffffffffffffffffff610f5961152b565b610f6161160b565b16807fffffffffffffffffffffffff000000000000000000000000000000000000000060035416176003557fdc3dba1d64dd67c0dc8b12621edd0c6ca4303a9073c3a8fcac38115e73d67b6b5f80a2005b34610915575f60031936011261091557610fca61160b565b5f73ffffffffffffffffffffffffffffffffffffffff81547fffffffffffffffffffffffff000000000000000000000000000000000000000081168355167f8be0079c531659141344cd1fd0a4f28419497f9722a3daafe3b4186f6b6457e08280a3005b346109155760206003193601126109155773ffffffffffffffffffffffffffffffffffffffff61105c61152b565b61106461160b565b16807fffffffffffffffffffffffff000000000000000000000000000000000000000060015416176001557fe7ae49f883c825b05681b3e00e8be6fdea9ed2a8a45e4c6ecb9390fc44cce6155f80a2005b34610915575f60031936011261091557602062ffffff5f5460b81c16604051908152f35b34610915576060600319360112610915576110f261152b565b6024359073ffffffffffffffffffffffffffffffffffffffff821682036109155773ffffffffffffffffffffffffffffffffffffffff611193916111bf6111c59461113b61160b565b6040517fa9059cbb00000000000000000000000000000000000000000000000000000000602082015273ffffffffffffffffffffffffffffffffffffffff909116602482015260448035908201529384906064820190565b037fffffffffffffffffffffffffffffffffffffffffffffffffffffffffffffffe08101855284611591565b16611778565b005b34610915575f60031936011261091557602060405173ffffffffffffffffffffffffffffffffffffffff7f0000000000000000000000000000000000000000000000000000000000000000168152f35b34610915575f6003193601126109155773ffffffffffffffffffffffffffffffffffffffff600154166040517f38d52e0f000000000000000000000000000000000000000000000000000000008152602081600481855afa8015610a365773ffffffffffffffffffffffffffffffffffffffff926060925f92611317575b5060249060405194859384927f9503b15c0000000000000000000000000000000000000000000000000000000084526004840152165afa8015610a36575f906112e4575b602090604051908152f35b506060813d60601161130f575b816112fe60609383611591565b8101031261091557602090516112d9565b3d91506112f1565b60249192506113349060203d602011610b5557610b468183611591565b9190611295565b34610915575f60031936011261091557602060405173f4d97f2da56e8c3098f3a8d538db630a2606a0248152f35b346109155760406003193601126109155760043562ffffff8116808203610915576024359062ffffff8216808303610915576113a361160b565b8115158061151f575b156114c157801515806114b5575b15611457577fa52e279a9c4ed8ff7beccca9a9f7a38075d2c5cbaac8e5b5032d95e32504ebc5936040937fffffffffffff000000000000ffffffffffffffffffffffffffffffffffffffff76ffffff000000000000000000000000000000000000000079ffffff00000000000000000000000000000000000000000000005f549360b81b169360a01b16911617175f5582519182526020820152a1005b60646040517f08c379a000000000000000000000000000000000000000000000000000000000815260206004820152601060248201527f696e76616c6964204449454d20666565000000000000000000000000000000006044820152fd5b506127108111156113ba565b60646040517f08c379a000000000000000000000000000000000000000000000000000000000815260206004820152601560248201527f696e76616c696420555344432f574554482066656500000000000000000000006044820152fd5b506127108211156113ac565b6004359073ffffffffffffffffffffffffffffffffffffffff8216820361091557565b907fffffffffffffffffffffffffffffffffffffffffffffffffffffffffffffffe0601f602080948051918291828752018686015e5f8582860101520116010190565b90601f7fffffffffffffffffffffffffffffffffffffffffffffffffffffffffffffffe0910116810190811067ffffffffffffffff821117610afe57604052565b90816020910312610915575173ffffffffffffffffffffffffffffffffffffffff811681036109155790565b91908203918211610a4157565b73ffffffffffffffffffffffffffffffffffffffff5f5416330361162b57565b7f118cdaa7000000000000000000000000000000000000000000000000000000005f523360045260245ffd5b6040517f095ea7b300000000000000000000000000000000000000000000000000000000602080830191825273ffffffffffffffffffffffffffffffffffffffff85166024840152604480840196909652948252929390925f906116bc606486611591565b84519082855af15f513d82611746575b5050156116d857505050565b61173f6117449373ffffffffffffffffffffffffffffffffffffffff604051917f095ea7b30000000000000000000000000000000000000000000000000000000060208401521660248201525f604482015260448152611739606482611591565b82611778565b611778565b565b909150611770575073ffffffffffffffffffffffffffffffffffffffff81163b15155b5f806116cc565b600114611769565b905f602091828151910182855af115610a36575f513d6117f6575073ffffffffffffffffffffffffffffffffffffffff81163b155b6117b45750565b73ffffffffffffffffffffffffffffffffffffffff907f5274afe7000000000000000000000000000000000000000000000000000000005f521660045260245ffd5b600114156117ad56000000000000000000000000e49fa849cb37b0e7a42b2335e333fb99474167ba000000000000000000000000833589fcd6edb6e08f4c7c32d4f71b54bda029130000000000000000000000002626664c2603336e57b271c5c0b26f421741e481000000000000000000000000428fac40c9f92aa35131256dba95a7baf4966311",
        "nonce": "0x1b",
        "chainId": "0x2105"
      },
      "additionalContracts": [],
      "isFixedGasLimit": false
    },
    {
      "hash": "0xfa8ae46e7a67ad861abc6241d6fa5009b60f7343f9ae00c9b02dc0fd2c7506ba",
      "transactionType": "CREATE",
      "contractName": "SurplusAdapter",
      "contractAddress": "0xf50ca14f49bd090fc13680019ed8df5046626e8b",
      "function": null,
      "arguments": [
        "0xe49FA849cB37b0e7A42B2335e333fb99474167ba",
        "0x833589fCD6eDb6E08f4c7C32D4f71b54bdA02913",
        "0x2626664c2603336E57B271c5C0b26F421741e481",
        "0x428Fac40C9f92aA35131256Dba95A7bAF4966311"
      ],
      "transaction": {
        "from": "0x428fac40c9f92aa35131256dba95a7baf4966311",
        "gas": "0x1c9ee1",
        "value": "0x0",
        "input": "0x60c03461014957601f61197538819003918201601f19168301916001600160401b0383118484101761014d578084926080946040528339810103126101495761004781610161565b9061005460208201610161565b61006060408301610161565b916001600160a01b039061007690606001610161565b16928315610136575f54604051948060018060a01b0383167f8be0079c531659141344cd1fd0a4f28419497f9722a3daafe3b4186f6b6457e05f80a36001600160b81b031990911617607d60a21b1762ffffff60b81b191661027160bc1b175f556103e8600255600180546001600160a01b0319166001600160a01b039290921691909117905560805260a0526117ff908161017682396080518181816103140152818161045d01526111f3015260a05181818161053d0152610d200152f35b631e4fbdf760e01b5f525f60045260245ffd5b5f80fd5b634e487b7160e01b5f52604160045260245ffd5b51906001600160a01b03821682036101495756fe60806040526004361015610011575f80fd5b5f5f3560e01c8063101e4f9e14611369578063261960741461133b578063341b828b146112175780633e413bee146111c757806362c06767146110d957806365fce585146110b55780636817031b1461102e578063715018a614610fb2578063748747e614610f2b57806380fc98e614610f115780638da5cb5b14610edf578063a17b3c2614610e6b578063ac02803814610e47578063aced166114610e14578063af935b0414610d60578063bff1d4ad14610d44578063c31c9c0714610cf4578063cad6226e14610c6d578063d613993c14610424578063d62d7486146103f0578063de3def58146103c1578063def3d30714610251578063e17dd7c514610233578063f2fde38b146101635763fbfa77cf1461012d575f80fd5b34610160578060031936011261016057602073ffffffffffffffffffffffffffffffffffffffff60015416604051908152f35b80fd5b50346101605760206003193601126101605773ffffffffffffffffffffffffffffffffffffffff61019261152b565b61019a61160b565b1680156102075773ffffffffffffffffffffffffffffffffffffffff8254827fffffffffffffffffffffffff00000000000000000000000000000000000000008216178455167f8be0079c531659141344cd1fd0a4f28419497f9722a3daafe3b4186f6b6457e08380a380f35b6024827f1e4fbdf700000000000000000000000000000000000000000000000000000000815280600452fd5b50346101605780600319360112610160576020600254604051908152f35b50346101605760206003193601126101605760043573ffffffffffffffffffffffffffffffffffffffff60045416331480156103a1575b156103435760207f8a92d411665ba2871660087c41aa031d8328805f31550763ecee1791ac6e377a916103396040517f23b872dd0000000000000000000000000000000000000000000000000000000084820152336024820152306044820152826064820152606481526102fd608482611591565b73ffffffffffffffffffffffffffffffffffffffff7f000000000000000000000000000000000000000000000000000000000000000016611778565b604051908152a180f35b60646040517f08c379a000000000000000000000000000000000000000000000000000000000815260206004820152600e60248201527f6e6f7420617574686f72697a65640000000000000000000000000000000000006044820152fd5b5073ffffffffffffffffffffffffffffffffffffffff8254163314610288565b5034610160578060031936011261016057602060405173f4d97f2da56e8c3098f3a8d538db630a2606a0248152f35b5034610160578060031936011261016057602073ffffffffffffffffffffffffffffffffffffffff60045416604051908152f35b5034610915575f6003193601126109155773ffffffffffffffffffffffffffffffffffffffff5f541633148015610c4c575b15610bee577f000000000000000000000000000000000000000000000000000000000000000073ffffffffffffffffffffffffffffffffffffffff8116604051907f70a08231000000000000000000000000000000000000000000000000000000008252306004830152602082602481845afa918215610a36575f92610bba575b508115610b5c57600492602073ffffffffffffffffffffffffffffffffffffffff60015416604051958680927f38d52e0f0000000000000000000000000000000000000000000000000000000082525afa938415610a36575f94610b2b575b50610563837f00000000000000000000000000000000000000000000000000000000000000008094611657565b7fffffff00000000000000000000000000000000000000000000000000000000005f547fffffffffffffffffffffffffffffffffffffffff0000000000000000000000006040519360601b166020840152818160481b1660348401527f4200000000000000000000000000000000000006000000000000000000000000603784015260301b16604b8201527fffffffffffffffffffffffffffffffffffffffff00000000000000000000000073ffffffffffffffffffffffffffffffffffffffff85169460601b16604e8201526042815261063f606282611591565b60405191608083019083821067ffffffffffffffff831117610afe5760209273ffffffffffffffffffffffffffffffffffffffff9260405284526106d95f8385870196308852604081019789895260608201848152604051998a98899788957fb858183f0000000000000000000000000000000000000000000000000000000087528c6004880152516080602488015260a487019061154e565b93511660448501525160648401525160848301520393165af1908115610a36575f91610acc575b508015610a6e576002548082029082820403610a415761271090049261072684836115fe565b8061099a575b5084809480610771575b507f73ae596b0194c4a2e07c63759627e439490e08b1ba95331625271bad9ee2d76a606085878660405192835260208301526040820152a180f35b9091945073ffffffffffffffffffffffffffffffffffffffff60015416604051957f70a08231000000000000000000000000000000000000000000000000000000008752306004880152602087602481855afa96871561098f578497610954575b506107de918391611657565b73ffffffffffffffffffffffffffffffffffffffff6001541690813b156109505782916044839260405194859384927f0f21794800000000000000000000000000000000000000000000000000000000845260048401523060248401525af180156109455761092c575b5050602492602073ffffffffffffffffffffffffffffffffffffffff60015416604051958680927f70a082310000000000000000000000000000000000000000000000000000000082523060048301525afa9384156109215785946108e3575b50906108d8606093927f73ae596b0194c4a2e07c63759627e439490e08b1ba95331625271bad9ee2d76a956115fe565b93509091845f610736565b935091906020843d602011610919575b8161090060209383611591565b810103126109155792519290916108d86108a8565b5f80fd5b3d91506108f3565b6040513d87823e3d90fd5b8161093691611591565b61094157835f610848565b8380fd5b6040513d84823e3d90fd5b8280fd5b935095506020833d602011610987575b8161097160209383611591565b81010312610915579151948692906107de6107d2565b3d9150610964565b6040513d86823e3d90fd5b6109bd8173ffffffffffffffffffffffffffffffffffffffff6001541684611657565b73ffffffffffffffffffffffffffffffffffffffff6001541690813b15610915575f916024839260405194859384927f24ea14f500000000000000000000000000000000000000000000000000000000845260048401525af18015610a36571561072c57610a2e9195505f90611591565b5f935f61072c565b6040513d5f823e3d90fd5b7f4e487b71000000000000000000000000000000000000000000000000000000005f52601160045260245ffd5b60646040517f08c379a000000000000000000000000000000000000000000000000000000000815260206004820152600f60248201527f737761702072657475726e6564203000000000000000000000000000000000006044820152fd5b90506020813d602011610af6575b81610ae760209383611591565b8101031261091557515f610700565b3d9150610ada565b7f4e487b71000000000000000000000000000000000000000000000000000000005f52604160045260245ffd5b610b4e91945060203d602011610b55575b610b468183611591565b8101906115d2565b925f610536565b503d610b3c565b60646040517f08c379a000000000000000000000000000000000000000000000000000000000815260206004820152601060248201527f6e6f205553444320746f20726f757465000000000000000000000000000000006044820152fd5b9091506020813d602011610be6575b81610bd660209383611591565b810103126109155751905f6104d7565b3d9150610bc9565b60646040517f08c379a000000000000000000000000000000000000000000000000000000000815260206004820152600c60248201527f6e6f74206f70657261746f7200000000000000000000000000000000000000006044820152fd5b5073ffffffffffffffffffffffffffffffffffffffff600354163314610456565b346109155760206003193601126109155773ffffffffffffffffffffffffffffffffffffffff610c9b61152b565b610ca361160b565b16807fffffffffffffffffffffffff000000000000000000000000000000000000000060045416176004557fa5db000012e784eddc7abb35ba4948d38d616b0cd0d54c056d1e5c9cfe8ac33f5f80a2005b34610915575f60031936011261091557602060405173ffffffffffffffffffffffffffffffffffffffff7f0000000000000000000000000000000000000000000000000000000000000000168152f35b34610915575f6003193601126109155760206040516107d08152f35b3461091557602060031936011261091557600435610d7c61160b565b6107d08111610db6576020817fecf72c9ac9f8f5ea2bb6a3c6fbbeff4107883d5e51388cc5e24b0dba5f5a2fe692600255604051908152a1005b60646040517f08c379a000000000000000000000000000000000000000000000000000000000815260206004820152600f60248201527f65786365656473206d61782066656500000000000000000000000000000000006044820152fd5b34610915575f60031936011261091557602073ffffffffffffffffffffffffffffffffffffffff60035416604051908152f35b34610915575f60031936011261091557602062ffffff5f5460a01c16604051908152f35b34610915575f60031936011261091557604051604081019080821067ffffffffffffffff831117610afe57610edb91604052601481527f537572706c757320496e74656c6c6967656e6365000000000000000000000000602082015260405191829160208352602083019061154e565b0390f35b34610915575f60031936011261091557602073ffffffffffffffffffffffffffffffffffffffff5f5416604051908152f35b34610915575f6003193601126109155760206040515f8152f35b346109155760206003193601126109155773ffffffffffffffffffffffffffffffffffffffff610f5961152b565b610f6161160b565b16807fffffffffffffffffffffffff000000000000000000000000000000000000000060035416176003557fdc3dba1d64dd67c0dc8b12621edd0c6ca4303a9073c3a8fcac38115e73d67b6b5f80a2005b34610915575f60031936011261091557610fca61160b565b5f73ffffffffffffffffffffffffffffffffffffffff81547fffffffffffffffffffffffff000000000000000000000000000000000000000081168355167f8be0079c531659141344cd1fd0a4f28419497f9722a3daafe3b4186f6b6457e08280a3005b346109155760206003193601126109155773ffffffffffffffffffffffffffffffffffffffff61105c61152b565b61106461160b565b16807fffffffffffffffffffffffff000000000000000000000000000000000000000060015416176001557fe7ae49f883c825b05681b3e00e8be6fdea9ed2a8a45e4c6ecb9390fc44cce6155f80a2005b34610915575f60031936011261091557602062ffffff5f5460b81c16604051908152f35b34610915576060600319360112610915576110f261152b565b6024359073ffffffffffffffffffffffffffffffffffffffff821682036109155773ffffffffffffffffffffffffffffffffffffffff611193916111bf6111c59461113b61160b565b6040517fa9059cbb00000000000000000000000000000000000000000000000000000000602082015273ffffffffffffffffffffffffffffffffffffffff909116602482015260448035908201529384906064820190565b037fffffffffffffffffffffffffffffffffffffffffffffffffffffffffffffffe08101855284611591565b16611778565b005b34610915575f60031936011261091557602060405173ffffffffffffffffffffffffffffffffffffffff7f0000000000000000000000000000000000000000000000000000000000000000168152f35b34610915575f6003193601126109155773ffffffffffffffffffffffffffffffffffffffff600154166040517f38d52e0f000000000000000000000000000000000000000000000000000000008152602081600481855afa8015610a365773ffffffffffffffffffffffffffffffffffffffff926060925f92611317575b5060249060405194859384927f9503b15c0000000000000000000000000000000000000000000000000000000084526004840152165afa8015610a36575f906112e4575b602090604051908152f35b506060813d60601161130f575b816112fe60609383611591565b8101031261091557602090516112d9565b3d91506112f1565b60249192506113349060203d602011610b5557610b468183611591565b9190611295565b34610915575f60031936011261091557602060405173f4d97f2da56e8c3098f3a8d538db630a2606a0248152f35b346109155760406003193601126109155760043562ffffff8116808203610915576024359062ffffff8216808303610915576113a361160b565b8115158061151f575b156114c157801515806114b5575b15611457577fa52e279a9c4ed8ff7beccca9a9f7a38075d2c5cbaac8e5b5032d95e32504ebc5936040937fffffffffffff000000000000ffffffffffffffffffffffffffffffffffffffff76ffffff000000000000000000000000000000000000000079ffffff00000000000000000000000000000000000000000000005f549360b81b169360a01b16911617175f5582519182526020820152a1005b60646040517f08c379a000000000000000000000000000000000000000000000000000000000815260206004820152601060248201527f696e76616c6964204449454d20666565000000000000000000000000000000006044820152fd5b506127108111156113ba565b60646040517f08c379a000000000000000000000000000000000000000000000000000000000815260206004820152601560248201527f696e76616c696420555344432f574554482066656500000000000000000000006044820152fd5b506127108211156113ac565b6004359073ffffffffffffffffffffffffffffffffffffffff8216820361091557565b907fffffffffffffffffffffffffffffffffffffffffffffffffffffffffffffffe0601f602080948051918291828752018686015e5f8582860101520116010190565b90601f7fffffffffffffffffffffffffffffffffffffffffffffffffffffffffffffffe0910116810190811067ffffffffffffffff821117610afe57604052565b90816020910312610915575173ffffffffffffffffffffffffffffffffffffffff811681036109155790565b91908203918211610a4157565b73ffffffffffffffffffffffffffffffffffffffff5f5416330361162b57565b7f118cdaa7000000000000000000000000000000000000000000000000000000005f523360045260245ffd5b6040517f095ea7b300000000000000000000000000000000000000000000000000000000602080830191825273ffffffffffffffffffffffffffffffffffffffff85166024840152604480840196909652948252929390925f906116bc606486611591565b84519082855af15f513d82611746575b5050156116d857505050565b61173f6117449373ffffffffffffffffffffffffffffffffffffffff604051917f095ea7b30000000000000000000000000000000000000000000000000000000060208401521660248201525f604482015260448152611739606482611591565b82611778565b611778565b565b909150611770575073ffffffffffffffffffffffffffffffffffffffff81163b15155b5f806116cc565b600114611769565b905f602091828151910182855af115610a36575f513d6117f6575073ffffffffffffffffffffffffffffffffffffffff81163b155b6117b45750565b73ffffffffffffffffffffffffffffffffffffffff907f5274afe7000000000000000000000000000000000000000000000000000000005f521660045260245ffd5b600114156117ad56000000000000000000000000e49fa849cb37b0e7a42b2335e333fb99474167ba000000000000000000000000833589fcd6edb6e08f4c7c32d4f71b54bda029130000000000000000000000002626664c2603336e57b271c5c0b26f421741e481000000000000000000000000428fac40c9f92aa35131256dba95a7baf4966311",
        "nonce": "0x1c",
        "chainId": "0x2105"
      },
      "additionalContracts": [],
      "isFixedGasLimit": false
    },
    {
      "hash": "0x64daaa6adab07a799680bae496ec032e765440af6bf299f0807dd42635faa912",
      "transactionType": "CALL",
      "contractName": "AntSeedAdapter",
      "contractAddress": "0x8885b256609e1d7c1fb2f1db58a379d2efb8bbf3",
      "function": "setKeeper(address)",
      "arguments": [
        "0x988CE72d127b8A06821BBb3708897dBdc0D66f2f"
      ],
      "transaction": {
        "from": "0x428fac40c9f92aa35131256dba95a7baf4966311",
        "to": "0x8885b256609e1d7c1fb2f1db58a379d2efb8bbf3",
        "gas": "0xfeab",
        "value": "0x0",
        "input": "0x748747e6000000000000000000000000988ce72d127b8a06821bbb3708897dbdc0d66f2f",
        "nonce": "0x1d",
        "chainId": "0x2105"
      },
      "additionalContracts": [],
      "isFixedGasLimit": false
    },
    {
      "hash": "0x590f4f22fe260c94ff10178833f01f2dbd53aed5c5bc00c8e3823393739dd86b",
      "transactionType": "CALL",
      "contractName": "AntSeedAdapter",
      "contractAddress": "0x8885b256609e1d7c1fb2f1db58a379d2efb8bbf3",
      "function": "setAuthorizedSettler(address)",
      "arguments": [
        "0x988CE72d127b8A06821BBb3708897dBdc0D66f2f"
      ],
      "transaction": {
        "from": "0x428fac40c9f92aa35131256dba95a7baf4966311",
        "to": "0x8885b256609e1d7c1fb2f1db58a379d2efb8bbf3",
        "gas": "0xffbc",
        "value": "0x0",
        "input": "0xcad6226e000000000000000000000000988ce72d127b8a06821bbb3708897dbdc0d66f2f",
        "nonce": "0x1e",
        "chainId": "0x2105"
      },
      "additionalContracts": [],
      "isFixedGasLimit": false
    },
    {
      "hash": "0xd4020d2d0da6185e2dccd3a4907ff974329e8a0924701ce5aaf4c54b39ff2f7b",
      "transactionType": "CALL",
      "contractName": "SurplusAdapter",
      "contractAddress": "0xf50ca14f49bd090fc13680019ed8df5046626e8b",
      "function": "setKeeper(address)",
      "arguments": [
        "0x988CE72d127b8A06821BBb3708897dBdc0D66f2f"
      ],
      "transaction": {
        "from": "0x428fac40c9f92aa35131256dba95a7baf4966311",
        "to": "0xf50ca14f49bd090fc13680019ed8df5046626e8b",
        "gas": "0xfeab",
        "value": "0x0",
        "input": "0x748747e6000000000000000000000000988ce72d127b8a06821bbb3708897dbdc0d66f2f",
        "nonce": "0x1f",
        "chainId": "0x2105"
      },
      "additionalContracts": [],
      "isFixedGasLimit": false
    },
    {
      "hash": "0xcb4f4ca9210fdd0d62758c778eada9876c909905d54700273b9fbb5bdd249f1d",
      "transactionType": "CALL",
      "contractName": "SurplusAdapter",
      "contractAddress": "0xf50ca14f49bd090fc13680019ed8df5046626e8b",
      "function": "setAuthorizedSettler(address)",
      "arguments": [
        "0x988CE72d127b8A06821BBb3708897dBdc0D66f2f"
      ],
      "transaction": {
        "from": "0x428fac40c9f92aa35131256dba95a7baf4966311",
        "to": "0xf50ca14f49bd090fc13680019ed8df5046626e8b",
        "gas": "0xffbc",
        "value": "0x0",
        "input": "0xcad6226e000000000000000000000000988ce72d127b8a06821bbb3708897dbdc0d66f2f",
        "nonce": "0x20",
        "chainId": "0x2105"
      },
      "additionalContracts": [],
      "isFixedGasLimit": false
    },
    {
      "hash": "0x387b47e2ddf424f5ab2e6faf1b55e3c3a11569b7b0be474c9fecb61fd5e6ef8f",
      "transactionType": "CALL",
      "contractName": "AntSeedAdapter",
      "contractAddress": "0x8885b256609e1d7c1fb2f1db58a379d2efb8bbf3",
      "function": "transferOwnership(address)",
      "arguments": [
        "0x872c561f699B42977c093F0eD8b4C9a431280c6c"
      ],
      "transaction": {
        "from": "0x428fac40c9f92aa35131256dba95a7baf4966311",
        "to": "0x8885b256609e1d7c1fb2f1db58a379d2efb8bbf3",
        "gas": "0x9b99",
        "value": "0x0",
        "input": "0xf2fde38b000000000000000000000000872c561f699b42977c093f0ed8b4c9a431280c6c",
        "nonce": "0x21",
        "chainId": "0x2105"
      },
      "additionalContracts": [],
      "isFixedGasLimit": false
    },
    {
      "hash": "0xeba629ff489837c20a30316e22eebde7ab978a711bd62c1f8b7758c27b9a1ae4",
      "transactionType": "CALL",
      "contractName": "SurplusAdapter",
      "contractAddress": "0xf50ca14f49bd090fc13680019ed8df5046626e8b",
      "function": "transferOwnership(address)",
      "arguments": [
        "0x872c561f699B42977c093F0eD8b4C9a431280c6c"
      ],
      "transaction": {
        "from": "0x428fac40c9f92aa35131256dba95a7baf4966311",
        "to": "0xf50ca14f49bd090fc13680019ed8df5046626e8b",
        "gas": "0x9b99",
        "value": "0x0",
        "input": "0xf2fde38b000000000000000000000000872c561f699b42977c093f0ed8b4c9a431280c6c",
        "nonce": "0x22",
        "chainId": "0x2105"
      },
      "additionalContracts": [],
      "isFixedGasLimit": false
    },
    {
      "hash": "0xe8adac32c9cf8bd379b87804a4d74d26995cb52ceef885fb878d5f5d8f1d0adb",
      "transactionType": "CALL",
      "contractName": null,
      "contractAddress": "0x872c561f699b42977c093f0ed8b4c9a431280c6c",
      "function": "execTransaction(address,uint256,bytes,uint8,uint256,uint256,uint256,address,address,bytes)",
      "arguments": [
        "0xe49FA849cB37b0e7A42B2335e333fb99474167ba",
        "0",
        "0xf1cd3a390000000000000000000000008885b256609e1d7c1fb2f1db58a379d2efb8bbf30000000000000000000000000000000000000000000000000000000000000001",
        "0",
        "0",
        "0",
        "0",
        "0x0000000000000000000000000000000000000000",
        "0x0000000000000000000000000000000000000000",
        "0x376e641682821c11e0f6b95db126b17ea8d450da7118cd22cb8c083213cdb5283f2e162879b5267f19d69feb227f295a2f2b1e809f9df1bd381de4d85458e2161c83565306b0709306aaa9f2d7924654e0a2136eadb99657f74ab8a541d9a21ce371e91719b92136b97374e74e3c059c83e574b3be0dfb7753a4b25d064f2ef0cf1c"
      ],
      "transaction": {
        "from": "0x428fac40c9f92aa35131256dba95a7baf4966311",
        "to": "0x872c561f699b42977c093f0ed8b4c9a431280c6c",
        "gas": "0x207ef",
        "value": "0x0",
        "input": "0x6a761202000000000000000000000000e49fa849cb37b0e7a42b2335e333fb99474167ba0000000000000000000000000000000000000000000000000000000000000000000000000000000000000000000000000000000000000000000000000000014000000000000000000000000000000000000000000000000000000000000000000000000000000000000000000000000000000000000000000000000000000000000000000000000000000000000000000000000000000000000000000000000000000000000000000000000000000000000000000000000000000000000000000000000000000000000000000000000000000000000000000000000000000000000000000000000000000000000000000000000000000000000000000000000000000000000000000000000000000000000000000000000000000000000001c00000000000000000000000000000000000000000000000000000000000000044f1cd3a390000000000000000000000008885b256609e1d7c1fb2f1db58a379d2efb8bbf30000000000000000000000000000000000000000000000000000000000000001000000000000000000000000000000000000000000000000000000000000000000000000000000000000000000000000000000000000000000000082376e641682821c11e0f6b95db126b17ea8d450da7118cd22cb8c083213cdb5283f2e162879b5267f19d69feb227f295a2f2b1e809f9df1bd381de4d85458e2161c83565306b0709306aaa9f2d7924654e0a2136eadb99657f74ab8a541d9a21ce371e91719b92136b97374e74e3c059c83e574b3be0dfb7753a4b25d064f2ef0cf1c000000000000000000000000000000000000000000000000000000000000",
        "nonce": "0x23",
        "chainId": "0x2105"
      },
      "additionalContracts": [],
      "isFixedGasLimit": false
    },
    {
      "hash": "0x5a3ed1e16f4a32717d7053715e4d0c85d5c996e018d5c1105669b0de7f407121",
      "transactionType": "CALL",
      "contractName": null,
      "contractAddress": "0x872c561f699b42977c093f0ed8b4c9a431280c6c",
      "function": "execTransaction(address,uint256,bytes,uint8,uint256,uint256,uint256,address,address,bytes)",
      "arguments": [
        "0xe49FA849cB37b0e7A42B2335e333fb99474167ba",
        "0",
        "0xf1cd3a39000000000000000000000000f50ca14f49bd090fc13680019ed8df5046626e8b0000000000000000000000000000000000000000000000000000000000000001",
        "0",
        "0",
        "0",
        "0",
        "0x0000000000000000000000000000000000000000",
        "0x0000000000000000000000000000000000000000",
        "0xaf1308b7c2b69421719a2aa0f54bc3ecb98ffe23a45025c576a9f0a9ce32b5225a2f25fb90723bbff43cadd6666333728d3201a1c555f2f1526a4ff0c1db23bb1cd7a86467480604c8b8cb75b11cf4fcb507b2bf717e6ee66069646d73766aaa3d225d8139a7a4314554b2dce42d3075749289dd3821caef434653098f338ba1f31c"
      ],
      "transaction": {
        "from": "0x428fac40c9f92aa35131256dba95a7baf4966311",
        "to": "0x872c561f699b42977c093f0ed8b4c9a431280c6c",
        "gas": "0x207ef",
        "value": "0x0",
        "input": "0x6a761202000000000000000000000000e49fa849cb37b0e7a42b2335e333fb99474167ba0000000000000000000000000000000000000000000000000000000000000000000000000000000000000000000000000000000000000000000000000000014000000000000000000000000000000000000000000000000000000000000000000000000000000000000000000000000000000000000000000000000000000000000000000000000000000000000000000000000000000000000000000000000000000000000000000000000000000000000000000000000000000000000000000000000000000000000000000000000000000000000000000000000000000000000000000000000000000000000000000000000000000000000000000000000000000000000000000000000000000000000000000000000000000000000001c00000000000000000000000000000000000000000000000000000000000000044f1cd3a39000000000000000000000000f50ca14f49bd090fc13680019ed8df5046626e8b0000000000000000000000000000000000000000000000000000000000000001000000000000000000000000000000000000000000000000000000000000000000000000000000000000000000000000000000000000000000000082af1308b7c2b69421719a2aa0f54bc3ecb98ffe23a45025c576a9f0a9ce32b5225a2f25fb90723bbff43cadd6666333728d3201a1c555f2f1526a4ff0c1db23bb1cd7a86467480604c8b8cb75b11cf4fcb507b2bf717e6ee66069646d73766aaa3d225d8139a7a4314554b2dce42d3075749289dd3821caef434653098f338ba1f31c000000000000000000000000000000000000000000000000000000000000",
        "nonce": "0x24",
        "chainId": "0x2105"
      },
      "additionalContracts": [],
      "isFixedGasLimit": false
    }
  ],
  "receipts": [
    {
      "status": "0x1",
      "cumulativeGasUsed": "0x15882c0",
      "logs": [
        {
          "address": "0x8885b256609e1d7c1fb2f1db58a379d2efb8bbf3",
          "topics": [
            "0x8be0079c531659141344cd1fd0a4f28419497f9722a3daafe3b4186f6b6457e0",
            "0x0000000000000000000000000000000000000000000000000000000000000000",
            "0x000000000000000000000000428fac40c9f92aa35131256dba95a7baf4966311"
          ],
          "data": "0x",
          "blockHash": "0x58112d1591b58bd15870d3a1dcb1db8b713427fd5b3f719a2c1560be7c580fab",
          "blockNumber": "0x2cfe15a",
          "blockTimestamp": "0x6a2a1f97",
          "transactionHash": "0xc41200e72798b55d830a8c0d313855cd3898c1c09f6e7fff8039d4f5dc497912",
          "transactionIndex": "0x70",
          "logIndex": "0x11f",
          "removed": false
        }
      ],
      "logsBloom": "0x00000000000000000000000000000000000000000000000080800000000000000000000000000000000000000000000000000000000000000000000000000000000000000000000000000000000000000001000000000000000000000000000000000000020000000000000000000800000000000000000000000000000000400000000000000000000000000000000000000000020000000000000000000000000000000000000001000000000000000000000000000000000000000000000000000000000000000000000000080000000004000000000000000000000020000000000000000000000000000000000000002000000000000000000000000000",
      "type": "0x2",
      "transactionHash": "0xc41200e72798b55d830a8c0d313855cd3898c1c09f6e7fff8039d4f5dc497912",
      "transactionIndex": "0x70",
      "blockHash": "0x58112d1591b58bd15870d3a1dcb1db8b713427fd5b3f719a2c1560be7c580fab",
      "blockNumber": "0x2cfe15a",
      "gasUsed": "0x160374",
      "effectiveGasPrice": "0x5b8d80",
      "blobGasUsed": "0x6b630",
      "from": "0x428fac40c9f92aa35131256dba95a7baf4966311",
      "to": null,
      "contractAddress": "0x8885b256609e1d7c1fb2f1db58a379d2efb8bbf3",
      "daFootprintGasScalar": "0x94",
      "l1BaseFeeScalar": "0x8dd",
      "l1BlobBaseFee": "0x68cc8d",
      "l1BlobBaseFeeScalar": "0x101c12",
      "l1Fee": "0x7be00c9d7",
      "l1GasPrice": "0x676b3cc",
      "l1GasUsed": "0xb9c2"
    },
    {
      "status": "0x1",
      "cumulativeGasUsed": "0x1b3af14",
      "logs": [
        {
          "address": "0xf50ca14f49bd090fc13680019ed8df5046626e8b",
          "topics": [
            "0x8be0079c531659141344cd1fd0a4f28419497f9722a3daafe3b4186f6b6457e0",
            "0x0000000000000000000000000000000000000000000000000000000000000000",
            "0x000000000000000000000000428fac40c9f92aa35131256dba95a7baf4966311"
          ],
          "data": "0x",
          "blockHash": "0x277d148135e808cdcb6a2326a2b0292f80d8f2e3257df5341926affdf63ff5e8",
          "blockNumber": "0x2cfe15b",
          "blockTimestamp": "0x6a2a1f99",
          "transactionHash": "0xfa8ae46e7a67ad861abc6241d6fa5009b60f7343f9ae00c9b02dc0fd2c7506ba",
          "transactionIndex": "0xad",
          "logIndex": "0x1ed",
          "removed": false
        }
      ],
      "logsBloom": "0x00000000000000000000000000000000000000000000000000800000000000000000000000000000000000000000000000000000000000000000000000000000000000000000000000000000000000000001000000000000000000000000400000000000020000000000000000000800000000000000000000000000000000400000000000000000000000000000000000000000020000000800000000000000000000000000000001000000000000000000000000000000000000000000000000000000000000000000000000000000000000000000000000000000000020000000000010000000000000000000000000002000000000000000000000000000",
      "type": "0x2",
      "transactionHash": "0xfa8ae46e7a67ad861abc6241d6fa5009b60f7343f9ae00c9b02dc0fd2c7506ba",
      "transactionIndex": "0xad",
      "blockHash": "0x277d148135e808cdcb6a2326a2b0292f80d8f2e3257df5341926affdf63ff5e8",
      "blockNumber": "0x2cfe15b",
      "gasUsed": "0x160410",
      "effectiveGasPrice": "0x5b8d80",
      "blobGasUsed": "0x6bdb4",
      "from": "0x428fac40c9f92aa35131256dba95a7baf4966311",
      "to": null,
      "contractAddress": "0xf50ca14f49bd090fc13680019ed8df5046626e8b",
      "daFootprintGasScalar": "0x94",
      "l1BaseFeeScalar": "0x8dd",
      "l1BlobBaseFee": "0x68cc8d",
      "l1BlobBaseFeeScalar": "0x101c12",
      "l1Fee": "0x7c6eda3d1",
      "l1GasPrice": "0x676b3cc",
      "l1GasUsed": "0xba98"
    },
    {
      "status": "0x1",
      "cumulativeGasUsed": "0x16a6f7b",
      "logs": [
        {
          "address": "0x8885b256609e1d7c1fb2f1db58a379d2efb8bbf3",
          "topics": [
            "0xdc3dba1d64dd67c0dc8b12621edd0c6ca4303a9073c3a8fcac38115e73d67b6b",
            "0x000000000000000000000000988ce72d127b8a06821bbb3708897dbdc0d66f2f"
          ],
          "data": "0x",
          "blockHash": "0xaed936938ff6db7a0c84ae9af736ad4cb492df7c3b1a689b3fe7a79400c2300c",
          "blockNumber": "0x2cfe15c",
          "blockTimestamp": "0x6a2a1f9b",
          "transactionHash": "0x64daaa6adab07a799680bae496ec032e765440af6bf299f0807dd42635faa912",
          "transactionIndex": "0x9a",
          "logIndex": "0x1b5",
          "removed": false
        }
      ],
      "logsBloom": "0x00000000000000000000000000000000000000000000000080000000000000000002000010000000000000000000000000000000000000000000000000000000000000000000000000000000000008000000000000000000000000000000000000000000004000000000000000000000000000000000000000000800000000000000000000000000000000000000000000000000000000000000000000000000000000000000000000000000000000000000000000000000000000000000000000000000000000000000000000080000000004000000000000000000000000000000004000000000000000000000000000000000000000000000000000000000",
      "type": "0x2",
      "transactionHash": "0x64daaa6adab07a799680bae496ec032e765440af6bf299f0807dd42635faa912",
      "transactionIndex": "0x9a",
      "blockHash": "0xaed936938ff6db7a0c84ae9af736ad4cb492df7c3b1a689b3fe7a79400c2300c",
      "blockNumber": "0x2cfe15c",
      "gasUsed": "0xb860",
      "effectiveGasPrice": "0x5b8d80",
      "blobGasUsed": "0x39d0",
      "from": "0x428fac40c9f92aa35131256dba95a7baf4966311",
      "to": "0x8885b256609e1d7c1fb2f1db58a379d2efb8bbf3",
      "contractAddress": null,
      "daFootprintGasScalar": "0x94",
      "l1BaseFeeScalar": "0x8dd",
      "l1BlobBaseFee": "0x599176",
      "l1BlobBaseFeeScalar": "0x101c12",
      "l1Fee": "0x3da627fd",
      "l1GasPrice": "0x6ce79e3",
      "l1GasUsed": "0x640"
    },
    {
      "status": "0x1",
      "cumulativeGasUsed": "0xbd9714",
      "logs": [
        {
          "address": "0x8885b256609e1d7c1fb2f1db58a379d2efb8bbf3",
          "topics": [
            "0xa5db000012e784eddc7abb35ba4948d38d616b0cd0d54c056d1e5c9cfe8ac33f",
            "0x000000000000000000000000988ce72d127b8a06821bbb3708897dbdc0d66f2f"
          ],
          "data": "0x",
          "blockHash": "0x0000000000000000000000000000000000000000000000000000000000000000",
          "blockNumber": "0x2cfe15e",
          "blockTimestamp": "0x6a2a1f9f",
          "transactionHash": "0x590f4f22fe260c94ff10178833f01f2dbd53aed5c5bc00c8e3823393739dd86b",
          "transactionIndex": "0x27",
          "logIndex": "0x140",
          "removed": false
        }
      ],
      "logsBloom": "0x00000000000000000000000000000000000000000000000080000000000000000002000010000000000000000000000000000000000000400000000000000000000000000000000000000000000008000000000000000000000000000000008000000000000000000000000000000000000000000000000000000000000000000000000000000000000000000000000400000000000000000000000000000000000000000000000000000000000000000000000000000000000000000000000000000000000000000000000000080000000004000000000000000000000000000000000000000000000000000000000000000000000000000000000000000000",
      "type": "0x2",
      "transactionHash": "0x590f4f22fe260c94ff10178833f01f2dbd53aed5c5bc00c8e3823393739dd86b",
      "transactionIndex": "0x27",
      "blockHash": "0x0000000000000000000000000000000000000000000000000000000000000000",
      "blockNumber": "0x2cfe15e",
      "gasUsed": "0xb926",
      "effectiveGasPrice": "0x5b8d80",
      "blobGasUsed": "0x39d0",
      "from": "0x428fac40c9f92aa35131256dba95a7baf4966311",
      "to": "0x8885b256609e1d7c1fb2f1db58a379d2efb8bbf3",
      "contractAddress": null,
      "daFootprintGasScalar": "0x94",
      "l1BaseFeeScalar": "0x8dd",
      "l1BlobBaseFee": "0x599176",
      "l1BlobBaseFeeScalar": "0x101c12",
      "l1Fee": "0x410636a7",
      "l1GasPrice": "0x6ce79e3",
      "l1GasUsed": "0x640"
    },
    {
      "status": "0x1",
      "cumulativeGasUsed": "0x1447d24",
      "logs": [
        {
          "address": "0xf50ca14f49bd090fc13680019ed8df5046626e8b",
          "topics": [
            "0xdc3dba1d64dd67c0dc8b12621edd0c6ca4303a9073c3a8fcac38115e73d67b6b",
            "0x000000000000000000000000988ce72d127b8a06821bbb3708897dbdc0d66f2f"
          ],
          "data": "0x",
          "blockHash": "0xe56a8e25b39cebc351acecafaaff92da8b6252239682654098e2c7aac8551e61",
          "blockNumber": "0x2cfe15f",
          "blockTimestamp": "0x6a2a1fa1",
          "transactionHash": "0xd4020d2d0da6185e2dccd3a4907ff974329e8a0924701ce5aaf4c54b39ff2f7b",
          "transactionIndex": "0xa8",
          "logIndex": "0x148",
          "removed": false
        }
      ],
      "logsBloom": "0x00000000000000000000000000000000000000000000000000000000000000000002000010000000000000000000000000000000000000000000000000000000000000000000000000000000000008000000000000000000000000000000400000000000004000000000000000000000000000000000000000000800000000000000000000000000000000000000000000000000000000000800000000000000000000000000000000000000000000000000000000000000000000000000000000000000000000000000000000000000000000000000000000000000000000000000004010000000000000000000000000000000000000000000000000000000",
      "type": "0x2",
      "transactionHash": "0xd4020d2d0da6185e2dccd3a4907ff974329e8a0924701ce5aaf4c54b39ff2f7b",
      "transactionIndex": "0xa8",
      "blockHash": "0xe56a8e25b39cebc351acecafaaff92da8b6252239682654098e2c7aac8551e61",
      "blockNumber": "0x2cfe15f",
      "gasUsed": "0xb860",
      "effectiveGasPrice": "0x5b8d80",
      "blobGasUsed": "0x39d0",
      "from": "0x428fac40c9f92aa35131256dba95a7baf4966311",
      "to": "0xf50ca14f49bd090fc13680019ed8df5046626e8b",
      "contractAddress": null,
      "daFootprintGasScalar": "0x94",
      "l1BaseFeeScalar": "0x8dd",
      "l1BlobBaseFee": "0x599176",
      "l1BlobBaseFeeScalar": "0x101c12",
      "l1Fee": "0x3da627fd",
      "l1GasPrice": "0x6ce79e3",
      "l1GasUsed": "0x640"
    },
    {
      "status": "0x1",
      "cumulativeGasUsed": "0x110ee05",
      "logs": [
        {
          "address": "0xf50ca14f49bd090fc13680019ed8df5046626e8b",
          "topics": [
            "0xa5db000012e784eddc7abb35ba4948d38d616b0cd0d54c056d1e5c9cfe8ac33f",
            "0x000000000000000000000000988ce72d127b8a06821bbb3708897dbdc0d66f2f"
          ],
          "data": "0x",
          "blockHash": "0x48b19014703d12da0c8fe8fc10bb645bdd525bdb8547bc5e4cee0e5daeebbcc7",
          "blockNumber": "0x2cfe160",
          "blockTimestamp": "0x6a2a1fa3",
          "transactionHash": "0xcb4f4ca9210fdd0d62758c778eada9876c909905d54700273b9fbb5bdd249f1d",
          "transactionIndex": "0x6b",
          "logIndex": "0x12e",
          "removed": false
        }
      ],
      "logsBloom": "0x00000000000000000000000000000000000000000000000000000000000000000002000010000000000000000000000000000000000000400000000000000000000000000000000000000000000008000000000000000000000000000000408000000000000000000000000000000000000000000000000000000000000000000000000000000000000000000000000400000000000000000800000000000000000000000000000000000000000000000000000000000000000000000000000000000000000000000000000000000000000000000000000000000000000000000000000010000000000000000000000000000000000000000000000000000000",
      "type": "0x2",
      "transactionHash": "0xcb4f4ca9210fdd0d62758c778eada9876c909905d54700273b9fbb5bdd249f1d",
      "transactionIndex": "0x6b",
      "blockHash": "0x48b19014703d12da0c8fe8fc10bb645bdd525bdb8547bc5e4cee0e5daeebbcc7",
      "blockNumber": "0x2cfe160",
      "gasUsed": "0xb926",
      "effectiveGasPrice": "0x5b8d80",
      "blobGasUsed": "0x39d0",
      "from": "0x428fac40c9f92aa35131256dba95a7baf4966311",
      "to": "0xf50ca14f49bd090fc13680019ed8df5046626e8b",
      "contractAddress": null,
      "daFootprintGasScalar": "0x94",
      "l1BaseFeeScalar": "0x8dd",
      "l1BlobBaseFee": "0x599176",
      "l1BlobBaseFeeScalar": "0x101c12",
      "l1Fee": "0x3da627fd",
      "l1GasPrice": "0x6ce79e3",
      "l1GasUsed": "0x640"
    },
    {
      "status": "0x1",
      "cumulativeGasUsed": "0x1e68f85",
      "logs": [
        {
          "address": "0x8885b256609e1d7c1fb2f1db58a379d2efb8bbf3",
          "topics": [
            "0x8be0079c531659141344cd1fd0a4f28419497f9722a3daafe3b4186f6b6457e0",
            "0x000000000000000000000000428fac40c9f92aa35131256dba95a7baf4966311",
            "0x000000000000000000000000872c561f699b42977c093f0ed8b4c9a431280c6c"
          ],
          "data": "0x",
          "blockHash": "0x5f6eb2d3a914cf53fd0c2ecf2289356907c9859a8f2474ab9148791a45e15684",
          "blockNumber": "0x2cfe161",
          "blockTimestamp": "0x6a2a1fa5",
          "transactionHash": "0x387b47e2ddf424f5ab2e6faf1b55e3c3a11569b7b0be474c9fecb61fd5e6ef8f",
          "transactionIndex": "0x98",
          "logIndex": "0x279",
          "removed": false
        }
      ],
      "logsBloom": "0x00000000000000000000000000000000000000000000000080800000000000000008000000000000000000000000000000000000000000000000000000000000000000000000000000000000000000000001000000000000000000000000000000000000000000000000000000000000000000000000000000000000000000400000000000000000000000000000000000001000020000000000000000000000000000000000000001000000001000000000000000000000000000000000000000000000000000000000000000080000000004000000000000000000000000000000000000000000000000000000000000002000000000000000000000000000",
      "type": "0x2",
      "transactionHash": "0x387b47e2ddf424f5ab2e6faf1b55e3c3a11569b7b0be474c9fecb61fd5e6ef8f",
      "transactionIndex": "0x98",
      "blockHash": "0x5f6eb2d3a914cf53fd0c2ecf2289356907c9859a8f2474ab9148791a45e15684",
      "blockNumber": "0x2cfe161",
      "gasUsed": "0x70a7",
      "effectiveGasPrice": "0x5b8d80",
      "blobGasUsed": "0x39d0",
      "from": "0x428fac40c9f92aa35131256dba95a7baf4966311",
      "to": "0x8885b256609e1d7c1fb2f1db58a379d2efb8bbf3",
      "contractAddress": null,
      "daFootprintGasScalar": "0x94",
      "l1BaseFeeScalar": "0x8dd",
      "l1BlobBaseFee": "0x599176",
      "l1BlobBaseFeeScalar": "0x101c12",
      "l1Fee": "0x3da627fd",
      "l1GasPrice": "0x6ce79e3",
      "l1GasUsed": "0x640"
    },
    {
      "status": "0x1",
      "cumulativeGasUsed": "0x137fc8e",
      "logs": [
        {
          "address": "0xf50ca14f49bd090fc13680019ed8df5046626e8b",
          "topics": [
            "0x8be0079c531659141344cd1fd0a4f28419497f9722a3daafe3b4186f6b6457e0",
            "0x000000000000000000000000428fac40c9f92aa35131256dba95a7baf4966311",
            "0x000000000000000000000000872c561f699b42977c093f0ed8b4c9a431280c6c"
          ],
          "data": "0x",
          "blockHash": "0x0000000000000000000000000000000000000000000000000000000000000000",
          "blockNumber": "0x2cfe163",
          "blockTimestamp": "0x6a2a1fa9",
          "transactionHash": "0xeba629ff489837c20a30316e22eebde7ab978a711bd62c1f8b7758c27b9a1ae4",
          "transactionIndex": "0x24",
          "logIndex": "0x252",
          "removed": false
        }
      ],
      "logsBloom": "0x00000000000000000000000000000000000000000000000000800000000000000008000000000000000000000000000000000000000000000000000000000000000000000000000000000000000000000001000000000000000000000000400000000000000000000000000000000000000000000000000000000000000000400000000000000000000000000000000000001000020000000800000000000000000000000000000001000000001000000000000000000000000000000000000000000000000000000000000000000000000000000000000000000000000000000000000010000000000000000000000000002000000000000000000000000000",
      "type": "0x2",
      "transactionHash": "0xeba629ff489837c20a30316e22eebde7ab978a711bd62c1f8b7758c27b9a1ae4",
      "transactionIndex": "0x24",
      "blockHash": "0x0000000000000000000000000000000000000000000000000000000000000000",
      "blockNumber": "0x2cfe163",
      "gasUsed": "0x70a7",
      "effectiveGasPrice": "0x5b8d80",
      "blobGasUsed": "0x39d0",
      "from": "0x428fac40c9f92aa35131256dba95a7baf4966311",
      "to": "0xf50ca14f49bd090fc13680019ed8df5046626e8b",
      "contractAddress": null,
      "daFootprintGasScalar": "0x94",
      "l1BaseFeeScalar": "0x8dd",
      "l1BlobBaseFee": "0x5ca238",
      "l1BlobBaseFeeScalar": "0x101c12",
      "l1Fee": "0x48e6e018",
      "l1GasPrice": "0x65f2b40",
      "l1GasUsed": "0x640"
    },
    {
      "status": "0x1",
      "cumulativeGasUsed": "0x142d8b5",
      "logs": [
        {
          "address": "0x872c561f699b42977c093f0ed8b4c9a431280c6c",
          "topics": [
            "0x66753cd2356569ee081232e3be8909b950e0a76c1f8460c3a5e3c2be32b11bed"
          ],
          "data": "0x000000000000000000000000e49fa849cb37b0e7a42b2335e333fb99474167ba0000000000000000000000000000000000000000000000000000000000000000000000000000000000000000000000000000000000000000000000000000016000000000000000000000000000000000000000000000000000000000000000000000000000000000000000000000000000000000000000000000000000000000000000000000000000000000000000000000000000000000000000000000000000000000000000000000000000000000000000000000000000000000000000000000000000000000000000000000000000000000000000000000000000000000000000000000000000000000000000000000000000000000000000000000000000000000000000000000000000000000000000000000000000000000000001e000000000000000000000000000000000000000000000000000000000000002a00000000000000000000000000000000000000000000000000000000000000044f1cd3a390000000000000000000000008885b256609e1d7c1fb2f1db58a379d2efb8bbf30000000000000000000000000000000000000000000000000000000000000001000000000000000000000000000000000000000000000000000000000000000000000000000000000000000000000000000000000000000000000082376e641682821c11e0f6b95db126b17ea8d450da7118cd22cb8c083213cdb5283f2e162879b5267f19d69feb227f295a2f2b1e809f9df1bd381de4d85458e2161c83565306b0709306aaa9f2d7924654e0a2136eadb99657f74ab8a541d9a21ce371e91719b92136b97374e74e3c059c83e574b3be0dfb7753a4b25d064f2ef0cf1c00000000000000000000000000000000000000000000000000000000000000000000000000000000000000000000000000000000000000000000000000600000000000000000000000000000000000000000000000000000000000000048000000000000000000000000428fac40c9f92aa35131256dba95a7baf49663110000000000000000000000000000000000000000000000000000000000000002",
          "blockHash": "0xc300d25c4201d222a53b0f8acae7320b9850d3e7665150e53848db486bdee4c9",
          "blockNumber": "0x2cfe164",
          "blockTimestamp": "0x6a2a1fab",
          "transactionHash": "0xe8adac32c9cf8bd379b87804a4d74d26995cb52ceef885fb878d5f5d8f1d0adb",
          "transactionIndex": "0x85",
          "logIndex": "0x1ad",
          "removed": false
        },
        {
          "address": "0xe49fa849cb37b0e7a42b2335e333fb99474167ba",
          "topics": [
            "0x9f0b5e2e99b047f18244f9503999cd734903f90a033ebad82b1018376eab4b82",
            "0x0000000000000000000000008885b256609e1d7c1fb2f1db58a379d2efb8bbf3"
          ],
          "data": "0x0000000000000000000000000000000000000000000000000000000000000001",
          "blockHash": "0xc300d25c4201d222a53b0f8acae7320b9850d3e7665150e53848db486bdee4c9",
          "blockNumber": "0x2cfe164",
          "blockTimestamp": "0x6a2a1fab",
          "transactionHash": "0xe8adac32c9cf8bd379b87804a4d74d26995cb52ceef885fb878d5f5d8f1d0adb",
          "transactionIndex": "0x85",
          "logIndex": "0x1ae",
          "removed": false
        },
        {
          "address": "0x872c561f699b42977c093f0ed8b4c9a431280c6c",
          "topics": [
            "0x442e715f626346e8c54381002da614f62bee8d27386535b2521ec8540898556e",
            "0x79011ef8e544c2a8b876d5ce483320d23ed379ca425ef1d656cea4e367b8ad80"
          ],
          "data": "0x0000000000000000000000000000000000000000000000000000000000000000",
          "blockHash": "0xc300d25c4201d222a53b0f8acae7320b9850d3e7665150e53848db486bdee4c9",
          "blockNumber": "0x2cfe164",
          "blockTimestamp": "0x6a2a1fab",
          "transactionHash": "0xe8adac32c9cf8bd379b87804a4d74d26995cb52ceef885fb878d5f5d8f1d0adb",
          "transactionIndex": "0x85",
          "logIndex": "0x1af",
          "removed": false
        }
      ],
      "logsBloom": "0x00000000400000000000000000000000000000000000000000000000040000000000010001000000000008000000000000000000000000000000000000000004000000000000000000000000000000000000040000000000000000000000000000002000000000000000000000000000000040000000000000000000000000000000000000000000000080000000000000000000004000000000000000000000400040000400000000000000000004000000000000000000000002000000000000000000000400000000000000020200000000000000000000001000000000000000000000000000000000000000000000040000000000000000000000000000",
      "type": "0x2",
      "transactionHash": "0xe8adac32c9cf8bd379b87804a4d74d26995cb52ceef885fb878d5f5d8f1d0adb",
      "transactionIndex": "0x85",
      "blockHash": "0xc300d25c4201d222a53b0f8acae7320b9850d3e7665150e53848db486bdee4c9",
      "blockNumber": "0x2cfe164",
      "gasUsed": "0x1786d",
      "effectiveGasPrice": "0x5b8d80",
      "blobGasUsed": "0x911c",
      "from": "0x428fac40c9f92aa35131256dba95a7baf4966311",
      "to": "0x872c561f699b42977c093f0ed8b4c9a431280c6c",
      "contractAddress": null,
      "daFootprintGasScalar": "0x94",
      "l1BaseFeeScalar": "0x8dd",
      "l1BlobBaseFee": "0x5ca238",
      "l1BlobBaseFeeScalar": "0x101c12",
      "l1Fee": "0x99f7597b",
      "l1GasPrice": "0x65f2b40",
      "l1GasUsed": "0xfb0"
    },
    {
      "status": "0x1",
      "cumulativeGasUsed": "0x17a9a71",
      "logs": [
        {
          "address": "0x872c561f699b42977c093f0ed8b4c9a431280c6c",
          "topics": [
            "0x66753cd2356569ee081232e3be8909b950e0a76c1f8460c3a5e3c2be32b11bed"
          ],
          "data": "0x000000000000000000000000e49fa849cb37b0e7a42b2335e333fb99474167ba0000000000000000000000000000000000000000000000000000000000000000000000000000000000000000000000000000000000000000000000000000016000000000000000000000000000000000000000000000000000000000000000000000000000000000000000000000000000000000000000000000000000000000000000000000000000000000000000000000000000000000000000000000000000000000000000000000000000000000000000000000000000000000000000000000000000000000000000000000000000000000000000000000000000000000000000000000000000000000000000000000000000000000000000000000000000000000000000000000000000000000000000000000000000000000000001e000000000000000000000000000000000000000000000000000000000000002a00000000000000000000000000000000000000000000000000000000000000044f1cd3a39000000000000000000000000f50ca14f49bd090fc13680019ed8df5046626e8b0000000000000000000000000000000000000000000000000000000000000001000000000000000000000000000000000000000000000000000000000000000000000000000000000000000000000000000000000000000000000082af1308b7c2b69421719a2aa0f54bc3ecb98ffe23a45025c576a9f0a9ce32b5225a2f25fb90723bbff43cadd6666333728d3201a1c555f2f1526a4ff0c1db23bb1cd7a86467480604c8b8cb75b11cf4fcb507b2bf717e6ee66069646d73766aaa3d225d8139a7a4314554b2dce42d3075749289dd3821caef434653098f338ba1f31c00000000000000000000000000000000000000000000000000000000000000000000000000000000000000000000000000000000000000000000000000600000000000000000000000000000000000000000000000000000000000000049000000000000000000000000428fac40c9f92aa35131256dba95a7baf49663110000000000000000000000000000000000000000000000000000000000000002",
          "blockHash": "0x1582aac5f1e4c4b4603cff8b0dc2e716f4aa3dc714e62d4b3f4a829cd46621d2",
          "blockNumber": "0x2cfe165",
          "blockTimestamp": "0x6a2a1fad",
          "transactionHash": "0x5a3ed1e16f4a32717d7053715e4d0c85d5c996e018d5c1105669b0de7f407121",
          "transactionIndex": "0x88",
          "logIndex": "0x1f6",
          "removed": false
        },
        {
          "address": "0xe49fa849cb37b0e7a42b2335e333fb99474167ba",
          "topics": [
            "0x9f0b5e2e99b047f18244f9503999cd734903f90a033ebad82b1018376eab4b82",
            "0x000000000000000000000000f50ca14f49bd090fc13680019ed8df5046626e8b"
          ],
          "data": "0x0000000000000000000000000000000000000000000000000000000000000001",
          "blockHash": "0x1582aac5f1e4c4b4603cff8b0dc2e716f4aa3dc714e62d4b3f4a829cd46621d2",
          "blockNumber": "0x2cfe165",
          "blockTimestamp": "0x6a2a1fad",
          "transactionHash": "0x5a3ed1e16f4a32717d7053715e4d0c85d5c996e018d5c1105669b0de7f407121",
          "transactionIndex": "0x88",
          "logIndex": "0x1f7",
          "removed": false
        },
        {
          "address": "0x872c561f699b42977c093f0ed8b4c9a431280c6c",
          "topics": [
            "0x442e715f626346e8c54381002da614f62bee8d27386535b2521ec8540898556e",
            "0xd1addb768df798110ba13624d321cd5f9f00b1e5d5562dc45bb1c459513b586a"
          ],
          "data": "0x0000000000000000000000000000000000000000000000000000000000000000",
          "blockHash": "0x1582aac5f1e4c4b4603cff8b0dc2e716f4aa3dc714e62d4b3f4a829cd46621d2",
          "blockNumber": "0x2cfe165",
          "blockTimestamp": "0x6a2a1fad",
          "transactionHash": "0x5a3ed1e16f4a32717d7053715e4d0c85d5c996e018d5c1105669b0de7f407121",
          "transactionIndex": "0x88",
          "logIndex": "0x1f8",
          "removed": false
        }
      ],
      "logsBloom": "0x00800000400000000800000000000000000000000000000000000000040000000000010001000000100008000000000000000000000000020000000000000004000004000000000000000000000000000000040000000000000000000000000000002010000000000000000000000000000040000000000000000000000000000000000000000000000000000000000000000000000000000000000000000000000040000400000000000000000004000000000000000000000002000000000000000000000400000000000000020000000000000000000000000000000000000000000000000000000000000000000000000000000000000000000000000000",
      "type": "0x2",
      "transactionHash": "0x5a3ed1e16f4a32717d7053715e4d0c85d5c996e018d5c1105669b0de7f407121",
      "transactionIndex": "0x88",
      "blockHash": "0x1582aac5f1e4c4b4603cff8b0dc2e716f4aa3dc714e62d4b3f4a829cd46621d2",
      "blockNumber": "0x2cfe165",
      "gasUsed": "0x1786d",
      "effectiveGasPrice": "0x5b8d80",
      "blobGasUsed": "0x911c",
      "from": "0x428fac40c9f92aa35131256dba95a7baf4966311",
      "to": "0x872c561f699b42977c093f0ed8b4c9a431280c6c",
      "contractAddress": null,
      "daFootprintGasScalar": "0x94",
      "l1BaseFeeScalar": "0x8dd",
      "l1BlobBaseFee": "0x5ca238",
      "l1BlobBaseFeeScalar": "0x101c12",
      "l1Fee": "0x99f7597b",
      "l1GasPrice": "0x65f2b40",
      "l1GasUsed": "0xfb0"
    }
  ],
  "libraries": [],
  "pending": [],
  "returns": {},
  "timestamp": 1781145517725,
  "chain": 8453,
  "commit": "cf17012"
}