{
  "transactions": [
    {
      "hash": "0x542c9c24fc7f4a7354d4458c98954777ad72b013da213d1f4939e78140a4efd3",
      "transactionType": "CALL",
      "contractName": null,
      "contractAddress": "0xdebc9bc5c3ca697493a01e8ac503b590d209d8bd",
      "function": "setDeprecated(bool)",
      "arguments": [
        "false"
      ],
      "transaction": {
        "from": "0xa558e3058050448f07df73a2509f23b7912395da",
        "to": "0xdebc9bc5c3ca697493a01e8ac503b590d209d8bd",
        "gas": "0x8fe3",
        "value": "0x0",
        "input": "0xd848dee70000000000000000000000000000000000000000000000000000000000000000",
        "nonce": "0x31",
        "chainId": "0x1237"
      },
      "additionalContracts": [],
      "isFixedGasLimit": false
    },
    {
      "hash": "0x12b06102d97bb33b4abe6e8178be09f8eeecb83e8cbe86a07d1e8b3f1443a700",
      "transactionType": "CALL",
      "contractName": null,
      "contractAddress": "0xdebc9bc5c3ca697493a01e8ac503b590d209d8bd",
      "function": "setHook(address,bool)",
      "arguments": [
        "0x5de599D4363bb9308434351600c34C96D46868CC",
        "true"
      ],
      "transaction": {
        "from": "0xa558e3058050448f07df73a2509f23b7912395da",
        "to": "0xdebc9bc5c3ca697493a01e8ac503b590d209d8bd",
        "gas": "0x11eb7",
        "value": "0x0",
        "input": "0x833e8db10000000000000000000000005de599d4363bb9308434351600c34c96d46868cc0000000000000000000000000000000000000000000000000000000000000001",
        "nonce": "0x32",
        "chainId": "0x1237"
      },
      "additionalContracts": [],
      "isFixedGasLimit": false
    },
    {
      "hash": "0x9aa418e0c918700fa966c33c396e432f5ee585389997592fefa11a263b7f7cb7",
      "transactionType": "CALL",
      "contractName": null,
      "contractAddress": "0xdebc9bc5c3ca697493a01e8ac503b590d209d8bd",
      "function": "setHook(address,bool)",
      "arguments": [
        "0xCD9DD3fa11c53cf6aE3d4e4D3fdf7C1f790468cc",
        "true"
      ],
      "transaction": {
        "from": "0xa558e3058050448f07df73a2509f23b7912395da",
        "to": "0xdebc9bc5c3ca697493a01e8ac503b590d209d8bd",
        "gas": "0x11ebc",
        "value": "0x0",
        "input": "0x833e8db1000000000000000000000000cd9dd3fa11c53cf6ae3d4e4d3fdf7c1f790468cc0000000000000000000000000000000000000000000000000000000000000001",
        "nonce": "0x33",
        "chainId": "0x1237"
      },
      "additionalContracts": [],
      "isFixedGasLimit": false
    },
    {
      "hash": "0x5a42f22585f35450147ecd6f2b6bb793ad2ceb82f8b076f4d58e73ffa7f2a7dc",
      "transactionType": "CALL",
      "contractName": null,
      "contractAddress": "0xdebc9bc5c3ca697493a01e8ac503b590d209d8bd",
      "function": "setLocker(address,address,bool)",
      "arguments": [
        "0x34861965c8eFc302E794C8593404CF17c6e65fF0",
        "0x5de599D4363bb9308434351600c34C96D46868CC",
        "true"
      ],
      "transaction": {
        "from": "0xa558e3058050448f07df73a2509f23b7912395da",
        "to": "0xdebc9bc5c3ca697493a01e8ac503b590d209d8bd",
        "gas": "0x12460",
        "value": "0x0",
        "input": "0xfc1b602200000000000000000000000034861965c8efc302e794c8593404cf17c6e65ff00000000000000000000000005de599d4363bb9308434351600c34c96d46868cc0000000000000000000000000000000000000000000000000000000000000001",
        "nonce": "0x34",
        "chainId": "0x1237"
      },
      "additionalContracts": [],
      "isFixedGasLimit": false
    },
    {
      "hash": "0xde7cbcce7c604412286304f8523c938202be27e5c1f8c486a30aafd969d0b658",
      "transactionType": "CALL",
      "contractName": null,
      "contractAddress": "0xdebc9bc5c3ca697493a01e8ac503b590d209d8bd",
      "function": "setLocker(address,address,bool)",
      "arguments": [
        "0x34861965c8eFc302E794C8593404CF17c6e65fF0",
        "0xCD9DD3fa11c53cf6aE3d4e4D3fdf7C1f790468cc",
        "true"
      ],
      "transaction": {
        "from": "0xa558e3058050448f07df73a2509f23b7912395da",
        "to": "0xdebc9bc5c3ca697493a01e8ac503b590d209d8bd",
        "gas": "0x135a6",
        "value": "0x0",
        "input": "0xfc1b602200000000000000000000000034861965c8efc302e794c8593404cf17c6e65ff0000000000000000000000000cd9dd3fa11c53cf6ae3d4e4d3fdf7c1f790468cc0000000000000000000000000000000000000000000000000000000000000001",
        "nonce": "0x35",
        "chainId": "0x1237"
      },
      "additionalContracts": [],
      "isFixedGasLimit": false
    },
    {
      "hash": "0xe206c41918d57a2a3207294721b60fe31a4cdd5616b39bf1ef0054dcb88188ec",
      "transactionType": "CALL",
      "contractName": null,
      "contractAddress": "0xdebc9bc5c3ca697493a01e8ac503b590d209d8bd",
      "function": "setExtension(address,bool)",
      "arguments": [
        "0x39ddF0339f9DcCEF59457A3579De1789c38d5a40",
        "true"
      ],
      "transaction": {
        "from": "0xa558e3058050448f07df73a2509f23b7912395da",
        "to": "0xdebc9bc5c3ca697493a01e8ac503b590d209d8bd",
        "gas": "0x11d17",
        "value": "0x0",
        "input": "0x031bc1ba00000000000000000000000039ddf0339f9dccef59457a3579de1789c38d5a400000000000000000000000000000000000000000000000000000000000000001",
        "nonce": "0x36",
        "chainId": "0x1237"
      },
      "additionalContracts": [],
      "isFixedGasLimit": false
    },
    {
      "hash": "0x2499fda3890d46883ad00af7e9cdc7b52d3ae97d22ebf1b777284c7e1314ca3f",
      "transactionType": "CALL",
      "contractName": null,
      "contractAddress": "0xdebc9bc5c3ca697493a01e8ac503b590d209d8bd",
      "function": "setMevModule(address,bool)",
      "arguments": [
        "0xcBBC3534A892A365C57023C34349300d360F6A1b",
        "true"
      ],
      "transaction": {
        "from": "0xa558e3058050448f07df73a2509f23b7912395da",
        "to": "0xdebc9bc5c3ca697493a01e8ac503b590d209d8bd",
        "gas": "0x13064",
        "value": "0x0",
        "input": "0xdbb0b1c7000000000000000000000000cbbc3534a892a365c57023c34349300d360f6a1b0000000000000000000000000000000000000000000000000000000000000001",
        "nonce": "0x37",
        "chainId": "0x1237"
      },
      "additionalContracts": [],
      "isFixedGasLimit": false
    },
    {
      "hash": "0x4b72dc9e2159909b6481ee27d0d361b02ba55e06b1a8f947456a65939237140c",
      "transactionType": "CALL",
      "contractName": null,
      "contractAddress": "0xdebc9bc5c3ca697493a01e8ac503b590d209d8bd",
      "function": "setMevModule(address,bool)",
      "arguments": [
        "0x31D7d1396DDa00110a8984CC7dD4A04FB211379d",
        "true"
      ],
      "transaction": {
        "from": "0xa558e3058050448f07df73a2509f23b7912395da",
        "to": "0xdebc9bc5c3ca697493a01e8ac503b590d209d8bd",
        "gas": "0x1304e",
        "value": "0x0",
        "input": "0xdbb0b1c700000000000000000000000031d7d1396dda00110a8984cc7dd4a04fb211379d0000000000000000000000000000000000000000000000000000000000000001",
        "nonce": "0x38",
        "chainId": "0x1237"
      },
      "additionalContracts": [],
      "isFixedGasLimit": false
    }
  ],
  "receipts": [
    {
      "type": "0x2",
      "status": "0x1",
      "cumulativeGasUsed": "0x630d",
      "logs": [
        {
          "address": "0xdebc9bc5c3ca697493a01e8ac503b590d209d8bd",
          "topics": [
            "0x20db9067ad1976f7d6ee4ee07eea48c1139e0716fd856ec6edf203236c37db82"
          ],
          "data": "0x0000000000000000000000000000000000000000000000000000000000000000",
          "blockHash": "0x7ae628844f887a796bdddb06b64a1dc5df56f33ff0ae36658cebb6a2ef4a3ce1",
          "blockNumber": "0xe7f91",
          "blockTimestamp": "0x6a45a677",
          "transactionHash": "0x542c9c24fc7f4a7354d4458c98954777ad72b013da213d1f4939e78140a4efd3",
          "transactionIndex": "0x1",
          "logIndex": "0x0",
          "removed": false
        }
      ],
      "logsBloom": "0x00000000000000000000000000000000000000000800000000000000000000000000000000000000000000000000000010000000000000000000000000000000000000000010000000000000000000000000000000000000000000000000000080000000000000000000000000000000000000000000000000000000000000000000000000000000000000000000000000000000000000000000000100000000000000000000000000000000000000000000000000000000000000000000000000000000000000000000000000000000000000000000000000000000000000000000000000000000000000000000000000000000000000800000000000000000",
      "transactionHash": "0x542c9c24fc7f4a7354d4458c98954777ad72b013da213d1f4939e78140a4efd3",
      "transactionIndex": "0x1",
      "blockHash": "0x7ae628844f887a796bdddb06b64a1dc5df56f33ff0ae36658cebb6a2ef4a3ce1",
      "blockNumber": "0xe7f91",
      "gasUsed": "0x630d",
      "effectiveGasPrice": "0x1313ca0",
      "from": "0xa558e3058050448f07df73a2509f23b7912395da",
      "to": "0xdebc9bc5c3ca697493a01e8ac503b590d209d8bd",
      "contractAddress": null
    },
    {
      "type": "0x2",
      "status": "0x1",
      "cumulativeGasUsed": "0xd065",
      "logs": [
        {
          "address": "0xdebc9bc5c3ca697493a01e8ac503b590d209d8bd",
          "topics": [
            "0x3e7510e93c4fe81ab57ed70b4eaa9a407eeced9cdb0954a360b36947f38ccda0"
          ],
          "data": "0x0000000000000000000000005de599d4363bb9308434351600c34c96d46868cc0000000000000000000000000000000000000000000000000000000000000001",
          "blockHash": "0x6b7e73bb9625060ecc1c644cfb5d4e89adf665c3dd0a00e3813dffe72c3900d8",
          "blockNumber": "0xe7fa3",
          "blockTimestamp": "0x6a45a679",
          "transactionHash": "0x12b06102d97bb33b4abe6e8178be09f8eeecb83e8cbe86a07d1e8b3f1443a700",
          "transactionIndex": "0x1",
          "logIndex": "0x0",
          "removed": false
        }
      ],
      "logsBloom": "0x00000000000000000000000000000000000000000000000000000000000000000000000000000000000000000000040000000000000000000000000000000000000000000010000000000000000000000000000000000000000000000000000000000000000000000000000000000000000000000000000000000000000000000000000000000000000000000000000000000000000000000000000100200000000000000000000000000000000000000000000000000000000000000000000000000000000000000000400000000000000000000000000000000000000000000000000000000000000000000000000000000000000000800000000000000000",
      "transactionHash": "0x12b06102d97bb33b4abe6e8178be09f8eeecb83e8cbe86a07d1e8b3f1443a700",
      "transactionIndex": "0x1",
      "blockHash": "0x6b7e73bb9625060ecc1c644cfb5d4e89adf665c3dd0a00e3813dffe72c3900d8",
      "blockNumber": "0xe7fa3",
      "gasUsed": "0xd065",
      "effectiveGasPrice": "0x1317b20",
      "from": "0xa558e3058050448f07df73a2509f23b7912395da",
      "to": "0xdebc9bc5c3ca697493a01e8ac503b590d209d8bd",
      "contractAddress": null
    },
    {
      "type": "0x2",
      "status": "0x1",
      "cumulativeGasUsed": "0xd069",
      "logs": [
        {
          "address": "0xdebc9bc5c3ca697493a01e8ac503b590d209d8bd",
          "topics": [
            "0x3e7510e93c4fe81ab57ed70b4eaa9a407eeced9cdb0954a360b36947f38ccda0"
          ],
          "data": "0x000000000000000000000000cd9dd3fa11c53cf6ae3d4e4d3fdf7c1f790468cc0000000000000000000000000000000000000000000000000000000000000001",
          "blockHash": "0xbc1555a9c599fff667d419cc63a46a305a0dfed7b403fc17c948e9e075b55421",
          "blockNumber": "0xe7fad",
          "blockTimestamp": "0x6a45a67b",
          "transactionHash": "0x9aa418e0c918700fa966c33c396e432f5ee585389997592fefa11a263b7f7cb7",
          "transactionIndex": "0x1",
          "logIndex": "0x0",
          "removed": false
        }
      ],
      "logsBloom": "0x00000000000000000000000000000000000000000000000000000000000000000000000000000000000000000000040000000000000000000000000000000000000000000010000000000000000000000000000000000000000000000000000000000000000000000000000000000000000000000000000000000000000000000000000000000000000000000000000000000000000000000000000100200000000000000000000000000000000000000000000000000000000000000000000000000000000000000000400000000000000000000000000000000000000000000000000000000000000000000000000000000000000000800000000000000000",
      "transactionHash": "0x9aa418e0c918700fa966c33c396e432f5ee585389997592fefa11a263b7f7cb7",
      "transactionIndex": "0x1",
      "blockHash": "0xbc1555a9c599fff667d419cc63a46a305a0dfed7b403fc17c948e9e075b55421",
      "blockNumber": "0xe7fad",
      "gasUsed": "0xd069",
      "effectiveGasPrice": "0x131fff0",
      "from": "0xa558e3058050448f07df73a2509f23b7912395da",
      "to": "0xdebc9bc5c3ca697493a01e8ac503b590d209d8bd",
      "contractAddress": null
    },
    {
      "type": "0x2",
      "status": "0x1",
      "cumulativeGasUsed": "0xd4a4",
      "logs": [
        {
          "address": "0xdebc9bc5c3ca697493a01e8ac503b590d209d8bd",
          "topics": [
            "0xa42b595aa29ec637074f31538fbf673587d74ba490265a33cf04ed41d27a9ddc"
          ],
          "data": "0x00000000000000000000000034861965c8efc302e794c8593404cf17c6e65ff00000000000000000000000005de599d4363bb9308434351600c34c96d46868cc0000000000000000000000000000000000000000000000000000000000000001",
          "blockHash": "0x0e0b393320b8d4cae9ee4a1abbbc9743224886bcb0e041829ae0dbcaa1134b52",
          "blockNumber": "0xe7fb8",
          "blockTimestamp": "0x6a45a67d",
          "transactionHash": "0x5a42f22585f35450147ecd6f2b6bb793ad2ceb82f8b076f4d58e73ffa7f2a7dc",
          "transactionIndex": "0x1",
          "logIndex": "0x0",
          "removed": false
        }
      ],
      "logsBloom": "0x00000000000000000000000000000000000000000000000000000000000000000000000000001000020000000000000000000000000000000000000000000000000000000010000000000000000000000000000000000000000000000000000000000000000000000000000000000000000000000000000000000000000000000000000000000000800000000000000000000000000000000000000100000000000000000000000000000000000000000000000000000000000000000000000000000000000000000000000000000000000000000000000000000000000000000000000000000000000000000000000000000000000000800000000000000000",
      "transactionHash": "0x5a42f22585f35450147ecd6f2b6bb793ad2ceb82f8b076f4d58e73ffa7f2a7dc",
      "transactionIndex": "0x1",
      "blockHash": "0x0e0b393320b8d4cae9ee4a1abbbc9743224886bcb0e041829ae0dbcaa1134b52",
      "blockNumber": "0xe7fb8",
      "gasUsed": "0xd4a4",
      "effectiveGasPrice": "0x1317b20",
      "from": "0xa558e3058050448f07df73a2509f23b7912395da",
      "to": "0xdebc9bc5c3ca697493a01e8ac503b590d209d8bd",
      "contractAddress": null
    },
    {
      "type": "0x2",
      "status": "0x1",
      "cumulativeGasUsed": "0xd4b1",
      "logs": [
        {
          "address": "0xdebc9bc5c3ca697493a01e8ac503b590d209d8bd",
          "topics": [
            "0xa42b595aa29ec637074f31538fbf673587d74ba490265a33cf04ed41d27a9ddc"
          ],
          "data": "0x00000000000000000000000034861965c8efc302e794c8593404cf17c6e65ff0000000000000000000000000cd9dd3fa11c53cf6ae3d4e4d3fdf7c1f790468cc0000000000000000000000000000000000000000000000000000000000000001",
          "blockHash": "0x7a6d07e7e8d42e0a63924875910e2e2f958396ffe3fa4f1ea37166be8ab4933e",
          "blockNumber": "0xe7fbd",
          "blockTimestamp": "0x6a45a67f",
          "transactionHash": "0xde7cbcce7c604412286304f8523c938202be27e5c1f8c486a30aafd969d0b658",
          "transactionIndex": "0x1",
          "logIndex": "0x0",
          "removed": false
        }
      ],
      "logsBloom": "0x00000000000000000000000000000000000000000000000000000000000000000000000000001000020000000000000000000000000000000000000000000000000000000010000000000000000000000000000000000000000000000000000000000000000000000000000000000000000000000000000000000000000000000000000000000000800000000000000000000000000000000000000100000000000000000000000000000000000000000000000000000000000000000000000000000000000000000000000000000000000000000000000000000000000000000000000000000000000000000000000000000000000000800000000000000000",
      "transactionHash": "0xde7cbcce7c604412286304f8523c938202be27e5c1f8c486a30aafd969d0b658",
      "transactionIndex": "0x1",
      "blockHash": "0x7a6d07e7e8d42e0a63924875910e2e2f958396ffe3fa4f1ea37166be8ab4933e",
      "blockNumber": "0xe7fbd",
      "gasUsed": "0xd4b1",
      "effectiveGasPrice": "0x13134d0",
      "from": "0xa558e3058050448f07df73a2509f23b7912395da",
      "to": "0xdebc9bc5c3ca697493a01e8ac503b590d209d8bd",
      "contractAddress": null
    },
    {
      "type": "0x2",
      "status": "0x1",
      "cumulativeGasUsed": "0xcf39",
      "logs": [
        {
          "address": "0xdebc9bc5c3ca697493a01e8ac503b590d209d8bd",
          "topics": [
            "0xb393434b606480a39b9a3b6f498a7f5312283d75b93f92d1dffc0dae86425ea2"
          ],
          "data": "0x00000000000000000000000039ddf0339f9dccef59457a3579de1789c38d5a400000000000000000000000000000000000000000000000000000000000000001",
          "blockHash": "0x846daeb8e129039288aee6387ab0eb12f6d7e033752dbcf08c3e1a4b0492e2f8",
          "blockNumber": "0xe7fc0",
          "blockTimestamp": "0x6a45a681",
          "transactionHash": "0xe206c41918d57a2a3207294721b60fe31a4cdd5616b39bf1ef0054dcb88188ec",
          "transactionIndex": "0x1",
          "logIndex": "0x0",
          "removed": false
        }
      ],
      "logsBloom": "0x00000000000000000020000000000000000000000000000000000000000000000000000000000000000000000000000000000000000000000000000000000000000000000010000000000000000000000100000000000000000000000000000000000000000000000000000000000000000000000000000000000000008000000000000000000000000000000000000000000000000000000000000100000000000000000000000000000000000000000000000000000000000000000000000000000000000000000000000000000000000000000000000000000000000000000000000000000000000000000000000000000000000000800000000000000000",
      "transactionHash": "0xe206c41918d57a2a3207294721b60fe31a4cdd5616b39bf1ef0054dcb88188ec",
      "transactionIndex": "0x1",
      "blockHash": "0x846daeb8e129039288aee6387ab0eb12f6d7e033752dbcf08c3e1a4b0492e2f8",
      "blockNumber": "0xe7fc0",
      "gasUsed": "0xcf39",
      "effectiveGasPrice": "0x1312d00",
      "from": "0xa558e3058050448f07df73a2509f23b7912395da",
      "to": "0xdebc9bc5c3ca697493a01e8ac503b590d209d8bd",
      "contractAddress": null
    },
    {
      "type": "0x2",
      "status": "0x1",
      "cumulativeGasUsed": "0xd0f4",
      "logs": [
        {
          "address": "0xdebc9bc5c3ca697493a01e8ac503b590d209d8bd",
          "topics": [
            "0xc4bf3ad397ab835bf8aefef70e7e1c35a0cfad7be9c060049050303ace20605c"
          ],
          "data": "0x000000000000000000000000cbbc3534a892a365c57023c34349300d360f6a1b0000000000000000000000000000000000000000000000000000000000000001",
          "blockHash": "0x6c6cb0c8f83917e1da3ba1a457eac53431ace88803b2798f62ebb044ee9f53de",
          "blockNumber": "0xe7fc8",
          "blockTimestamp": "0x6a45a683",
          "transactionHash": "0x2499fda3890d46883ad00af7e9cdc7b52d3ae97d22ebf1b777284c7e1314ca3f",
          "transactionIndex": "0x1",
          "logIndex": "0x0",
          "removed": false
        }
      ],
      "logsBloom": "0x00000000000000000000000000000000000000000000000000000000000000000000000000000000000000000000000000400000000000000000000000000000000000000010000000000000000000000000000000000000000000040000000000000000000000000000000000000000000000000000000000000000000000000000000000000000000000000000000000000000000000000000000100000000000000000000000000000000000000000000000000000000000000000000000000000000000000000000000000000000000000004000000000000000000000000000000000000000000000000000000000000000000000800000000000000000",
      "transactionHash": "0x2499fda3890d46883ad00af7e9cdc7b52d3ae97d22ebf1b777284c7e1314ca3f",
      "transactionIndex": "0x1",
      "blockHash": "0x6c6cb0c8f83917e1da3ba1a457eac53431ace88803b2798f62ebb044ee9f53de",
      "blockNumber": "0xe7fc8",
      "gasUsed": "0xd0f4",
      "effectiveGasPrice": "0x13134d0",
      "from": "0xa558e3058050448f07df73a2509f23b7912395da",
      "to": "0xdebc9bc5c3ca697493a01e8ac503b590d209d8bd",
      "contractAddress": null
    },
    {
      "type": "0x2",
      "status": "0x1",
      "cumulativeGasUsed": "0xd0e5",
      "logs": [
        {
          "address": "0xdebc9bc5c3ca697493a01e8ac503b590d209d8bd",
          "topics": [
            "0xc4bf3ad397ab835bf8aefef70e7e1c35a0cfad7be9c060049050303ace20605c"
          ],
          "data": "0x00000000000000000000000031d7d1396dda00110a8984cc7dd4a04fb211379d0000000000000000000000000000000000000000000000000000000000000001",
          "blockHash": "0xd0c3f5637bfbb200de356830ff1d403831d35c285895a472c5fd34dd2972af95",
          "blockNumber": "0xe7fcb",
          "blockTimestamp": "0x6a45a685",
          "transactionHash": "0x4b72dc9e2159909b6481ee27d0d361b02ba55e06b1a8f947456a65939237140c",
          "transactionIndex": "0x1",
          "logIndex": "0x0",
          "removed": false
        }
      ],
      "logsBloom": "0x00000000000000000000000000000000000000000000000000000000000000000000000000000000000000000000000000400000000000000000000000000000000000000010000000000000000000000000000000000000000000040000000000000000000000000000000000000000000000000000000000000000000000000000000000000000000000000000000000000000000000000000000100000000000000000000000000000000000000000000000000000000000000000000000000000000000000000000000000000000000000004000000000000000000000000000000000000000000000000000000000000000000000800000000000000000",
      "transactionHash": "0x4b72dc9e2159909b6481ee27d0d361b02ba55e06b1a8f947456a65939237140c",
      "transactionIndex": "0x1",
      "blockHash": "0xd0c3f5637bfbb200de356830ff1d403831d35c285895a472c5fd34dd2972af95",
      "blockNumber": "0xe7fcb",
      "gasUsed": "0xd0e5",
      "effectiveGasPrice": "0x1312d00",
      "from": "0xa558e3058050448f07df73a2509f23b7912395da",
      "to": "0xdebc9bc5c3ca697493a01e8ac503b590d209d8bd",
      "contractAddress": null
    }
  ],
  "libraries": [],
  "pending": [],
  "returns": {},
  "timestamp": 1782949511039,
  "chain": 4663,
  "commit": "8a0ab66"
}