{
  "transactions": [
    {
      "hash": "0xd30cd70db63cb5a4f6711fb312ebfc481884b9a561948791e9af68492f976bfe",
      "transactionType": "CALL",
      "contractName": null,
      "contractAddress": "0x23e6a10ac78e9ad4c8397168d925f15aaf3fcbed",
      "function": "setDeprecated(bool)",
      "arguments": [
        "false"
      ],
      "transaction": {
        "from": "0xa558e3058050448f07df73a2509f23b7912395da",
        "to": "0x23e6a10ac78e9ad4c8397168d925f15aaf3fcbed",
        "gas": "0x8fe3",
        "value": "0x0",
        "input": "0xd848dee70000000000000000000000000000000000000000000000000000000000000000",
        "nonce": "0xb",
        "chainId": "0x1237"
      },
      "additionalContracts": [],
      "isFixedGasLimit": false
    },
    {
      "hash": "0x8c70d0bb96d150d6d9892dfef92234a2bb9613d7c79eef85f23d9ae9a72ebb99",
      "transactionType": "CALL",
      "contractName": null,
      "contractAddress": "0x23e6a10ac78e9ad4c8397168d925f15aaf3fcbed",
      "function": "setHook(address,bool)",
      "arguments": [
        "0xDa3371a2b4D69AB01dB02407663dCcb0f173E8CC",
        "true"
      ],
      "transaction": {
        "from": "0xa558e3058050448f07df73a2509f23b7912395da",
        "to": "0x23e6a10ac78e9ad4c8397168d925f15aaf3fcbed",
        "gas": "0x11ec8",
        "value": "0x0",
        "input": "0x833e8db1000000000000000000000000da3371a2b4d69ab01db02407663dccb0f173e8cc0000000000000000000000000000000000000000000000000000000000000001",
        "nonce": "0xc",
        "chainId": "0x1237"
      },
      "additionalContracts": [],
      "isFixedGasLimit": false
    },
    {
      "hash": "0x19adbcc94ebf1568c096c07fc4e686b46d223d7446ef9bb5030217f934ed6cb6",
      "transactionType": "CALL",
      "contractName": null,
      "contractAddress": "0x23e6a10ac78e9ad4c8397168d925f15aaf3fcbed",
      "function": "setHook(address,bool)",
      "arguments": [
        "0xdF58eAaf3b5eb054DC341b9df2b0A599B7B8a8cC",
        "true"
      ],
      "transaction": {
        "from": "0xa558e3058050448f07df73a2509f23b7912395da",
        "to": "0x23e6a10ac78e9ad4c8397168d925f15aaf3fcbed",
        "gas": "0x11ebc",
        "value": "0x0",
        "input": "0x833e8db1000000000000000000000000df58eaaf3b5eb054dc341b9df2b0a599b7b8a8cc0000000000000000000000000000000000000000000000000000000000000001",
        "nonce": "0xd",
        "chainId": "0x1237"
      },
      "additionalContracts": [],
      "isFixedGasLimit": false
    },
    {
      "hash": "0xe4e61ecfc9f5e68785dee26450006806053817baa9fbed930aa65b692b237a88",
      "transactionType": "CALL",
      "contractName": null,
      "contractAddress": "0x23e6a10ac78e9ad4c8397168d925f15aaf3fcbed",
      "function": "setLocker(address,address,bool)",
      "arguments": [
        "0xa3dAEEE0b25e43F9f0c2C758aE38d35586b2Ba24",
        "0xDa3371a2b4D69AB01dB02407663dCcb0f173E8CC",
        "true"
      ],
      "transaction": {
        "from": "0xa558e3058050448f07df73a2509f23b7912395da",
        "to": "0x23e6a10ac78e9ad4c8397168d925f15aaf3fcbed",
        "gas": "0x135a6",
        "value": "0x0",
        "input": "0xfc1b6022000000000000000000000000a3daeee0b25e43f9f0c2c758ae38d35586b2ba24000000000000000000000000da3371a2b4d69ab01db02407663dccb0f173e8cc0000000000000000000000000000000000000000000000000000000000000001",
        "nonce": "0xe",
        "chainId": "0x1237"
      },
      "additionalContracts": [],
      "isFixedGasLimit": false
    },
    {
      "hash": "0x370e6f0fd5b47f210f18fcfd7d56490060b5ab00c001dac5ac1e6595c3dbb94d",
      "transactionType": "CALL",
      "contractName": null,
      "contractAddress": "0x23e6a10ac78e9ad4c8397168d925f15aaf3fcbed",
      "function": "setLocker(address,address,bool)",
      "arguments": [
        "0xa3dAEEE0b25e43F9f0c2C758aE38d35586b2Ba24",
        "0xdF58eAaf3b5eb054DC341b9df2b0A599B7B8a8cC",
        "true"
      ],
      "transaction": {
        "from": "0xa558e3058050448f07df73a2509f23b7912395da",
        "to": "0x23e6a10ac78e9ad4c8397168d925f15aaf3fcbed",
        "gas": "0x135a6",
        "value": "0x0",
        "input": "0xfc1b6022000000000000000000000000a3daeee0b25e43f9f0c2c758ae38d35586b2ba24000000000000000000000000df58eaaf3b5eb054dc341b9df2b0a599b7b8a8cc0000000000000000000000000000000000000000000000000000000000000001",
        "nonce": "0xf",
        "chainId": "0x1237"
      },
      "additionalContracts": [],
      "isFixedGasLimit": false
    },
    {
      "hash": "0xb355e2e09e1d30a7256f5d8481f67539f66f319f2d3a2a8980660392b48cbc31",
      "transactionType": "CALL",
      "contractName": null,
      "contractAddress": "0x23e6a10ac78e9ad4c8397168d925f15aaf3fcbed",
      "function": "setExtension(address,bool)",
      "arguments": [
        "0x82701f7d64ebe6908ad24b25E86aa578a07b0065",
        "true"
      ],
      "transaction": {
        "from": "0xa558e3058050448f07df73a2509f23b7912395da",
        "to": "0x23e6a10ac78e9ad4c8397168d925f15aaf3fcbed",
        "gas": "0x12dcb",
        "value": "0x0",
        "input": "0x031bc1ba00000000000000000000000082701f7d64ebe6908ad24b25e86aa578a07b00650000000000000000000000000000000000000000000000000000000000000001",
        "nonce": "0x10",
        "chainId": "0x1237"
      },
      "additionalContracts": [],
      "isFixedGasLimit": false
    },
    {
      "hash": "0xd8ffcacac443d612bb890b6dd2d634a1a654d97051e05039a163d3d0eab1a8f3",
      "transactionType": "CALL",
      "contractName": null,
      "contractAddress": "0x23e6a10ac78e9ad4c8397168d925f15aaf3fcbed",
      "function": "setMevModule(address,bool)",
      "arguments": [
        "0x33d25954a2F9115e11d9B8040b63e517CcFe96df",
        "true"
      ],
      "transaction": {
        "from": "0xa558e3058050448f07df73a2509f23b7912395da",
        "to": "0x23e6a10ac78e9ad4c8397168d925f15aaf3fcbed",
        "gas": "0x13064",
        "value": "0x0",
        "input": "0xdbb0b1c700000000000000000000000033d25954a2f9115e11d9b8040b63e517ccfe96df0000000000000000000000000000000000000000000000000000000000000001",
        "nonce": "0x11",
        "chainId": "0x1237"
      },
      "additionalContracts": [],
      "isFixedGasLimit": false
    },
    {
      "hash": "0xf7a5299baf7d725f02d260fc0654afee7646be51231fda63c3fb83631e22c99a",
      "transactionType": "CALL",
      "contractName": null,
      "contractAddress": "0x23e6a10ac78e9ad4c8397168d925f15aaf3fcbed",
      "function": "setMevModule(address,bool)",
      "arguments": [
        "0x98959578Fc29Ca7410981fe0BeC222e294090Abe",
        "true"
      ],
      "transaction": {
        "from": "0xa558e3058050448f07df73a2509f23b7912395da",
        "to": "0x23e6a10ac78e9ad4c8397168d925f15aaf3fcbed",
        "gas": "0x11f76",
        "value": "0x0",
        "input": "0xdbb0b1c700000000000000000000000098959578fc29ca7410981fe0bec222e294090abe0000000000000000000000000000000000000000000000000000000000000001",
        "nonce": "0x12",
        "chainId": "0x1237"
      },
      "additionalContracts": [],
      "isFixedGasLimit": false
    }
  ],
  "receipts": [
    {
      "type": "0x2",
      "status": "0x1",
      "cumulativeGasUsed": "0xbc16",
      "logs": [
        {
          "address": "0x23e6a10ac78e9ad4c8397168d925f15aaf3fcbed",
          "topics": [
            "0x20db9067ad1976f7d6ee4ee07eea48c1139e0716fd856ec6edf203236c37db82"
          ],
          "data": "0x0000000000000000000000000000000000000000000000000000000000000000",
          "blockHash": "0xc089ca5cef1e89163c81f27497681b0a8ee50910a608ed6efde9bcb2de21200e",
          "blockNumber": "0xd1748",
          "blockTimestamp": "0x6a45768b",
          "transactionHash": "0xd30cd70db63cb5a4f6711fb312ebfc481884b9a561948791e9af68492f976bfe",
          "transactionIndex": "0x2",
          "logIndex": "0x0",
          "removed": false
        }
      ],
      "logsBloom": "0x00000000000000000000000000000000000000000800000000000000000000000000000000000000000000000000000010000000000000000000000000200000000000000000000000000000000000000000000000000040000000000000000080000000000000000000000000000000000000000000000000000000000000000000000000000000000000000000000002000000000000000000000000000000000000000000000000000000000000000000000000000000000000000000000000000000000000000000000000000000000000000000000000000000000000000000000000000000000000000000000000000000000000000000000000000000",
      "transactionHash": "0xd30cd70db63cb5a4f6711fb312ebfc481884b9a561948791e9af68492f976bfe",
      "transactionIndex": "0x2",
      "blockHash": "0xc089ca5cef1e89163c81f27497681b0a8ee50910a608ed6efde9bcb2de21200e",
      "blockNumber": "0xd1748",
      "gasUsed": "0x652a",
      "effectiveGasPrice": "0x1312d00",
      "from": "0xa558e3058050448f07df73a2509f23b7912395da",
      "to": "0x23e6a10ac78e9ad4c8397168d925f15aaf3fcbed",
      "contractAddress": null
    },
    {
      "type": "0x2",
      "status": "0x1",
      "cumulativeGasUsed": "0xd309",
      "logs": [
        {
          "address": "0x23e6a10ac78e9ad4c8397168d925f15aaf3fcbed",
          "topics": [
            "0x3e7510e93c4fe81ab57ed70b4eaa9a407eeced9cdb0954a360b36947f38ccda0"
          ],
          "data": "0x000000000000000000000000da3371a2b4d69ab01db02407663dccb0f173e8cc0000000000000000000000000000000000000000000000000000000000000001",
          "blockHash": "0x59c0a7605480e04264949349691980f6fc0ce37d7461519271fb7dd8b8cb2f19",
          "blockNumber": "0xd175b",
          "blockTimestamp": "0x6a45768d",
          "transactionHash": "0x8c70d0bb96d150d6d9892dfef92234a2bb9613d7c79eef85f23d9ae9a72ebb99",
          "transactionIndex": "0x1",
          "logIndex": "0x0",
          "removed": false
        }
      ],
      "logsBloom": "0x00000000000000000000000000000000000000000000000000000000000000000000000000000000000000000000040000000000000000000000000000200000000000000000000000000000000000000000000000000040000000000000000000000000000000000000000000000000000000000000000000000000000000000000000000000000000000000000000002000000000000000000000000200000000000000000000000000000000000000000000000000000000000000000000000000000000000000000400000000000000000000000000000000000000000000000000000000000000000000000000000000000000000000000000000000000",
      "transactionHash": "0x8c70d0bb96d150d6d9892dfef92234a2bb9613d7c79eef85f23d9ae9a72ebb99",
      "transactionIndex": "0x1",
      "blockHash": "0x59c0a7605480e04264949349691980f6fc0ce37d7461519271fb7dd8b8cb2f19",
      "blockNumber": "0xd175b",
      "gasUsed": "0xd309",
      "effectiveGasPrice": "0x131e880",
      "from": "0xa558e3058050448f07df73a2509f23b7912395da",
      "to": "0x23e6a10ac78e9ad4c8397168d925f15aaf3fcbed",
      "contractAddress": null
    },
    {
      "type": "0x2",
      "status": "0x1",
      "cumulativeGasUsed": "0xd303",
      "logs": [
        {
          "address": "0x23e6a10ac78e9ad4c8397168d925f15aaf3fcbed",
          "topics": [
            "0x3e7510e93c4fe81ab57ed70b4eaa9a407eeced9cdb0954a360b36947f38ccda0"
          ],
          "data": "0x000000000000000000000000df58eaaf3b5eb054dc341b9df2b0a599b7b8a8cc0000000000000000000000000000000000000000000000000000000000000001",
          "blockHash": "0x09ef3618d8172e7ced610b453fd30ea145efdc564188f27edad476dd8592e58e",
          "blockNumber": "0xd176e",
          "blockTimestamp": "0x6a45768f",
          "transactionHash": "0x19adbcc94ebf1568c096c07fc4e686b46d223d7446ef9bb5030217f934ed6cb6",
          "transactionIndex": "0x1",
          "logIndex": "0x0",
          "removed": false
        }
      ],
      "logsBloom": "0x00000000000000000000000000000000000000000000000000000000000000000000000000000000000000000000040000000000000000000000000000200000000000000000000000000000000000000000000000000040000000000000000000000000000000000000000000000000000000000000000000000000000000000000000000000000000000000000000002000000000000000000000000200000000000000000000000000000000000000000000000000000000000000000000000000000000000000000400000000000000000000000000000000000000000000000000000000000000000000000000000000000000000000000000000000000",
      "transactionHash": "0x19adbcc94ebf1568c096c07fc4e686b46d223d7446ef9bb5030217f934ed6cb6",
      "transactionIndex": "0x1",
      "blockHash": "0x09ef3618d8172e7ced610b453fd30ea145efdc564188f27edad476dd8592e58e",
      "blockNumber": "0xd176e",
      "gasUsed": "0xd303",
      "effectiveGasPrice": "0x1312d00",
      "from": "0xa558e3058050448f07df73a2509f23b7912395da",
      "to": "0x23e6a10ac78e9ad4c8397168d925f15aaf3fcbed",
      "contractAddress": null
    },
    {
      "type": "0x2",
      "status": "0x1",
      "cumulativeGasUsed": "0x2cb1d",
      "logs": [
        {
          "address": "0x23e6a10ac78e9ad4c8397168d925f15aaf3fcbed",
          "topics": [
            "0xa42b595aa29ec637074f31538fbf673587d74ba490265a33cf04ed41d27a9ddc"
          ],
          "data": "0x000000000000000000000000a3daeee0b25e43f9f0c2c758ae38d35586b2ba24000000000000000000000000da3371a2b4d69ab01db02407663dccb0f173e8cc0000000000000000000000000000000000000000000000000000000000000001",
          "blockHash": "0x912debfbad672cfeb82f8cc058412e1e15b371a9b202c8f11aa95995b2de3cef",
          "blockNumber": "0xd1783",
          "blockTimestamp": "0x6a457691",
          "transactionHash": "0xe4e61ecfc9f5e68785dee26450006806053817baa9fbed930aa65b692b237a88",
          "transactionIndex": "0x2",
          "logIndex": "0x4",
          "removed": false
        }
      ],
      "logsBloom": "0x00000000000000000000000000000000000000000000000000000000000000000000000000001000020000000000000000000000000000000000000000200000000000000000000000000000000000000000000000000040000000000000000000000000000000000000000000000000000000000000000000000000000000000000000000000000800000000000000002000000000000000000000000000000000000000000000000000000000000000000000000000000000000000000000000000000000000000000000000000000000000000000000000000000000000000000000000000000000000000000000000000000000000000000000000000000",
      "transactionHash": "0xe4e61ecfc9f5e68785dee26450006806053817baa9fbed930aa65b692b237a88",
      "transactionIndex": "0x2",
      "blockHash": "0x912debfbad672cfeb82f8cc058412e1e15b371a9b202c8f11aa95995b2de3cef",
      "blockNumber": "0xd1783",
      "gasUsed": "0xd7c0",
      "effectiveGasPrice": "0x1313ca0",
      "from": "0xa558e3058050448f07df73a2509f23b7912395da",
      "to": "0x23e6a10ac78e9ad4c8397168d925f15aaf3fcbed",
      "contractAddress": null
    },
    {
      "type": "0x2",
      "status": "0x1",
      "cumulativeGasUsed": "0xd7bf",
      "logs": [
        {
          "address": "0x23e6a10ac78e9ad4c8397168d925f15aaf3fcbed",
          "topics": [
            "0xa42b595aa29ec637074f31538fbf673587d74ba490265a33cf04ed41d27a9ddc"
          ],
          "data": "0x000000000000000000000000a3daeee0b25e43f9f0c2c758ae38d35586b2ba24000000000000000000000000df58eaaf3b5eb054dc341b9df2b0a599b7b8a8cc0000000000000000000000000000000000000000000000000000000000000001",
          "blockHash": "0x0e89f1935c593ef9109bfbf47dfed95795fe79d7f1ed68a1aaae6d1b6b30e7ae",
          "blockNumber": "0xd1797",
          "blockTimestamp": "0x6a457693",
          "transactionHash": "0x370e6f0fd5b47f210f18fcfd7d56490060b5ab00c001dac5ac1e6595c3dbb94d",
          "transactionIndex": "0x1",
          "logIndex": "0x0",
          "removed": false
        }
      ],
      "logsBloom": "0x00000000000000000000000000000000000000000000000000000000000000000000000000001000020000000000000000000000000000000000000000200000000000000000000000000000000000000000000000000040000000000000000000000000000000000000000000000000000000000000000000000000000000000000000000000000800000000000000002000000000000000000000000000000000000000000000000000000000000000000000000000000000000000000000000000000000000000000000000000000000000000000000000000000000000000000000000000000000000000000000000000000000000000000000000000000",
      "transactionHash": "0x370e6f0fd5b47f210f18fcfd7d56490060b5ab00c001dac5ac1e6595c3dbb94d",
      "transactionIndex": "0x1",
      "blockHash": "0x0e89f1935c593ef9109bfbf47dfed95795fe79d7f1ed68a1aaae6d1b6b30e7ae",
      "blockNumber": "0xd1797",
      "gasUsed": "0xd7bf",
      "effectiveGasPrice": "0x1315410",
      "from": "0xa558e3058050448f07df73a2509f23b7912395da",
      "to": "0x23e6a10ac78e9ad4c8397168d925f15aaf3fcbed",
      "contractAddress": null
    },
    {
      "type": "0x2",
      "status": "0x1",
      "cumulativeGasUsed": "0xd4c3f",
      "logs": [
        {
          "address": "0x23e6a10ac78e9ad4c8397168d925f15aaf3fcbed",
          "topics": [
            "0xb393434b606480a39b9a3b6f498a7f5312283d75b93f92d1dffc0dae86425ea2"
          ],
          "data": "0x00000000000000000000000082701f7d64ebe6908ad24b25e86aa578a07b00650000000000000000000000000000000000000000000000000000000000000001",
          "blockHash": "0x45b349b24d93d53c2a9eee419aacb813f8e699e378ca2913ab27e06dbbc73803",
          "blockNumber": "0xd17ac",
          "blockTimestamp": "0x6a457695",
          "transactionHash": "0xb355e2e09e1d30a7256f5d8481f67539f66f319f2d3a2a8980660392b48cbc31",
          "transactionIndex": "0x3",
          "logIndex": "0x0",
          "removed": false
        }
      ],
      "logsBloom": "0x00000000000000000020000000000000000000000000000000000000000000000000000000000000000000000000000000000000000000000000000000200000000000000000000000000000000000000100000000000040000000000000000000000000000000000000000000000000000000000000000000000000008000000000000000000000000000000000000002000000000000000000000000000000000000000000000000000000000000000000000000000000000000000000000000000000000000000000000000000000000000000000000000000000000000000000000000000000000000000000000000000000000000000000000000000000",
      "transactionHash": "0xb355e2e09e1d30a7256f5d8481f67539f66f319f2d3a2a8980660392b48cbc31",
      "transactionIndex": "0x3",
      "blockHash": "0x45b349b24d93d53c2a9eee419aacb813f8e699e378ca2913ab27e06dbbc73803",
      "blockNumber": "0xd17ac",
      "gasUsed": "0xd1be",
      "effectiveGasPrice": "0x133dc80",
      "from": "0xa558e3058050448f07df73a2509f23b7912395da",
      "to": "0x23e6a10ac78e9ad4c8397168d925f15aaf3fcbed",
      "contractAddress": null
    },
    {
      "type": "0x2",
      "status": "0x1",
      "cumulativeGasUsed": "0x2d6d8",
      "logs": [
        {
          "address": "0x23e6a10ac78e9ad4c8397168d925f15aaf3fcbed",
          "topics": [
            "0xc4bf3ad397ab835bf8aefef70e7e1c35a0cfad7be9c060049050303ace20605c"
          ],
          "data": "0x00000000000000000000000033d25954a2f9115e11d9b8040b63e517ccfe96df0000000000000000000000000000000000000000000000000000000000000001",
          "blockHash": "0xb1727ad1978c6c895fe4147995c923df592d1ab7bc050ffa4be36acb3fd9d4ab",
          "blockNumber": "0xd17c0",
          "blockTimestamp": "0x6a457697",
          "transactionHash": "0xd8ffcacac443d612bb890b6dd2d634a1a654d97051e05039a163d3d0eab1a8f3",
          "transactionIndex": "0x2",
          "logIndex": "0x4",
          "removed": false
        }
      ],
      "logsBloom": "0x00000000000000000000000000000000000000000000000000000000000000000000000000000000000000000000000000400000000000000000000000200000000000000000000000000000000000000000000000000040000000040000000000000000000000000000000000000000000000000000000000000000000000000000000000000000000000000000000002000000000000000000000000000000000000000000000000000000000000000000000000000000000000000000000000000000000000000000000000000000000000004000000000000000000000000000000000000000000000000000000000000000000000000000000000000000",
      "transactionHash": "0xd8ffcacac443d612bb890b6dd2d634a1a654d97051e05039a163d3d0eab1a8f3",
      "transactionIndex": "0x2",
      "blockHash": "0xb1727ad1978c6c895fe4147995c923df592d1ab7bc050ffa4be36acb3fd9d4ab",
      "blockNumber": "0xd17c0",
      "gasUsed": "0xd389",
      "effectiveGasPrice": "0x132abd0",
      "from": "0xa558e3058050448f07df73a2509f23b7912395da",
      "to": "0x23e6a10ac78e9ad4c8397168d925f15aaf3fcbed",
      "contractAddress": null
    },
    {
      "type": "0x2",
      "status": "0x1",
      "cumulativeGasUsed": "0xd389",
      "logs": [
        {
          "address": "0x23e6a10ac78e9ad4c8397168d925f15aaf3fcbed",
          "topics": [
            "0xc4bf3ad397ab835bf8aefef70e7e1c35a0cfad7be9c060049050303ace20605c"
          ],
          "data": "0x00000000000000000000000098959578fc29ca7410981fe0bec222e294090abe0000000000000000000000000000000000000000000000000000000000000001",
          "blockHash": "0xc1c122185d9a85cb4bdfe53f5e0ff74325ac9d3002bbd6b939bfab00e626934c",
          "blockNumber": "0xd17d5",
          "blockTimestamp": "0x6a457699",
          "transactionHash": "0xf7a5299baf7d725f02d260fc0654afee7646be51231fda63c3fb83631e22c99a",
          "transactionIndex": "0x1",
          "logIndex": "0x0",
          "removed": false
        }
      ],
      "logsBloom": "0x00000000000000000000000000000000000000000000000000000000000000000000000000000000000000000000000000400000000000000000000000200000000000000000000000000000000000000000000000000040000000040000000000000000000000000000000000000000000000000000000000000000000000000000000000000000000000000000000002000000000000000000000000000000000000000000000000000000000000000000000000000000000000000000000000000000000000000000000000000000000000004000000000000000000000000000000000000000000000000000000000000000000000000000000000000000",
      "transactionHash": "0xf7a5299baf7d725f02d260fc0654afee7646be51231fda63c3fb83631e22c99a",
      "transactionIndex": "0x1",
      "blockHash": "0xc1c122185d9a85cb4bdfe53f5e0ff74325ac9d3002bbd6b939bfab00e626934c",
      "blockNumber": "0xd17d5",
      "gasUsed": "0xd389",
      "effectiveGasPrice": "0x131aa00",
      "from": "0xa558e3058050448f07df73a2509f23b7912395da",
      "to": "0x23e6a10ac78e9ad4c8397168d925f15aaf3fcbed",
      "contractAddress": null
    }
  ],
  "libraries": [],
  "pending": [],
  "returns": {},
  "timestamp": 1782937243624,
  "chain": 4663,
  "commit": "8a0ab66"
}