{
  "transactions": [
    {
      "hash": "0x5869222814e044acb24a631c715b5b96a49c638c9fa7f6ca9fbe882f65c99d54",
      "transactionType": "CALL",
      "contractName": null,
      "contractAddress": "0x86ff937a0337df61bcb0e07b810f15ceb784f8bb",
      "function": "setDeprecated(bool)",
      "arguments": [
        "false"
      ],
      "transaction": {
        "from": "0xa558e3058050448f07df73a2509f23b7912395da",
        "to": "0x86ff937a0337df61bcb0e07b810f15ceb784f8bb",
        "gas": "0x8fe3",
        "value": "0x0",
        "input": "0xd848dee70000000000000000000000000000000000000000000000000000000000000000",
        "nonce": "0x1e",
        "chainId": "0x1237"
      },
      "additionalContracts": [],
      "isFixedGasLimit": false
    },
    {
      "hash": "0xf73fab3b64735e0879e2ee390eed5506549751b20a6f926b7b3194098329d48e",
      "transactionType": "CALL",
      "contractName": null,
      "contractAddress": "0x86ff937a0337df61bcb0e07b810f15ceb784f8bb",
      "function": "setHook(address,bool)",
      "arguments": [
        "0xC204Fe330431826d7a6f23b25773e50DB71De8CC",
        "true"
      ],
      "transaction": {
        "from": "0xa558e3058050448f07df73a2509f23b7912395da",
        "to": "0x86ff937a0337df61bcb0e07b810f15ceb784f8bb",
        "gas": "0x11ec8",
        "value": "0x0",
        "input": "0x833e8db1000000000000000000000000c204fe330431826d7a6f23b25773e50db71de8cc0000000000000000000000000000000000000000000000000000000000000001",
        "nonce": "0x1f",
        "chainId": "0x1237"
      },
      "additionalContracts": [],
      "isFixedGasLimit": false
    },
    {
      "hash": "0x755c2db1b837c749a454aef82884ae2990d2e550bf655c53712c016d79e08ab0",
      "transactionType": "CALL",
      "contractName": null,
      "contractAddress": "0x86ff937a0337df61bcb0e07b810f15ceb784f8bb",
      "function": "setHook(address,bool)",
      "arguments": [
        "0x3aD4f5eccb1cC82760190F4C029D2B3dd83E68cc",
        "true"
      ],
      "transaction": {
        "from": "0xa558e3058050448f07df73a2509f23b7912395da",
        "to": "0x86ff937a0337df61bcb0e07b810f15ceb784f8bb",
        "gas": "0x11ebc",
        "value": "0x0",
        "input": "0x833e8db10000000000000000000000003ad4f5eccb1cc82760190f4c029d2b3dd83e68cc0000000000000000000000000000000000000000000000000000000000000001",
        "nonce": "0x20",
        "chainId": "0x1237"
      },
      "additionalContracts": [],
      "isFixedGasLimit": false
    },
    {
      "hash": "0xafb187750ef51f87ac8bf9a7d48cda7756d681251e154db9eb03e7afcb695f9f",
      "transactionType": "CALL",
      "contractName": null,
      "contractAddress": "0x86ff937a0337df61bcb0e07b810f15ceb784f8bb",
      "function": "setLocker(address,address,bool)",
      "arguments": [
        "0xf4afa36154D8497Dd69149687bF3e0D5417D61ee",
        "0xC204Fe330431826d7a6f23b25773e50DB71De8CC",
        "true"
      ],
      "transaction": {
        "from": "0xa558e3058050448f07df73a2509f23b7912395da",
        "to": "0x86ff937a0337df61bcb0e07b810f15ceb784f8bb",
        "gas": "0x135a6",
        "value": "0x0",
        "input": "0xfc1b6022000000000000000000000000f4afa36154d8497dd69149687bf3e0d5417d61ee000000000000000000000000c204fe330431826d7a6f23b25773e50db71de8cc0000000000000000000000000000000000000000000000000000000000000001",
        "nonce": "0x21",
        "chainId": "0x1237"
      },
      "additionalContracts": [],
      "isFixedGasLimit": false
    },
    {
      "hash": "0x778732d8a1c98da028131ee99f74e041c5314e6463d8b1fc504c0a038ec19b7f",
      "transactionType": "CALL",
      "contractName": null,
      "contractAddress": "0x86ff937a0337df61bcb0e07b810f15ceb784f8bb",
      "function": "setLocker(address,address,bool)",
      "arguments": [
        "0xf4afa36154D8497Dd69149687bF3e0D5417D61ee",
        "0x3aD4f5eccb1cC82760190F4C029D2B3dd83E68cc",
        "true"
      ],
      "transaction": {
        "from": "0xa558e3058050448f07df73a2509f23b7912395da",
        "to": "0x86ff937a0337df61bcb0e07b810f15ceb784f8bb",
        "gas": "0x135a6",
        "value": "0x0",
        "input": "0xfc1b6022000000000000000000000000f4afa36154d8497dd69149687bf3e0d5417d61ee0000000000000000000000003ad4f5eccb1cc82760190f4c029d2b3dd83e68cc0000000000000000000000000000000000000000000000000000000000000001",
        "nonce": "0x22",
        "chainId": "0x1237"
      },
      "additionalContracts": [],
      "isFixedGasLimit": false
    },
    {
      "hash": "0xbf1ec3dc592b073d876a94ac8b9a95ed5f9d10a61ab1331007dc736b2c21c86c",
      "transactionType": "CALL",
      "contractName": null,
      "contractAddress": "0x86ff937a0337df61bcb0e07b810f15ceb784f8bb",
      "function": "setExtension(address,bool)",
      "arguments": [
        "0x703E21c144C6cD320FE4c4353Ff591457BDF8D69",
        "true"
      ],
      "transaction": {
        "from": "0xa558e3058050448f07df73a2509f23b7912395da",
        "to": "0x86ff937a0337df61bcb0e07b810f15ceb784f8bb",
        "gas": "0x11d17",
        "value": "0x0",
        "input": "0x031bc1ba000000000000000000000000703e21c144c6cd320fe4c4353ff591457bdf8d690000000000000000000000000000000000000000000000000000000000000001",
        "nonce": "0x23",
        "chainId": "0x1237"
      },
      "additionalContracts": [],
      "isFixedGasLimit": false
    },
    {
      "hash": "0x4a35c25fd687862fc074755b52d09704f695f1c7ca5e3f32f31dac977bfc3f51",
      "transactionType": "CALL",
      "contractName": null,
      "contractAddress": "0x86ff937a0337df61bcb0e07b810f15ceb784f8bb",
      "function": "setMevModule(address,bool)",
      "arguments": [
        "0x1cb194F28E31383A0EC7eca06cBE58b8b10EfeEa",
        "true"
      ],
      "transaction": {
        "from": "0xa558e3058050448f07df73a2509f23b7912395da",
        "to": "0x86ff937a0337df61bcb0e07b810f15ceb784f8bb",
        "gas": "0x13064",
        "value": "0x0",
        "input": "0xdbb0b1c70000000000000000000000001cb194f28e31383a0ec7eca06cbe58b8b10efeea0000000000000000000000000000000000000000000000000000000000000001",
        "nonce": "0x24",
        "chainId": "0x1237"
      },
      "additionalContracts": [],
      "isFixedGasLimit": false
    },
    {
      "hash": "0x8a72a2399283bb1c92d5f9fc03b1ff926d532d61084feff947349acc6d0b6acb",
      "transactionType": "CALL",
      "contractName": null,
      "contractAddress": "0x86ff937a0337df61bcb0e07b810f15ceb784f8bb",
      "function": "setMevModule(address,bool)",
      "arguments": [
        "0x32D21e4840517720B75F7B7D472B50e285923d8a",
        "true"
      ],
      "transaction": {
        "from": "0xa558e3058050448f07df73a2509f23b7912395da",
        "to": "0x86ff937a0337df61bcb0e07b810f15ceb784f8bb",
        "gas": "0x11f76",
        "value": "0x0",
        "input": "0xdbb0b1c700000000000000000000000032d21e4840517720b75f7b7d472b50e285923d8a0000000000000000000000000000000000000000000000000000000000000001",
        "nonce": "0x25",
        "chainId": "0x1237"
      },
      "additionalContracts": [],
      "isFixedGasLimit": false
    }
  ],
  "receipts": [
    {
      "type": "0x2",
      "status": "0x1",
      "cumulativeGasUsed": "0x631e",
      "logs": [
        {
          "address": "0x86ff937a0337df61bcb0e07b810f15ceb784f8bb",
          "topics": [
            "0x20db9067ad1976f7d6ee4ee07eea48c1139e0716fd856ec6edf203236c37db82"
          ],
          "data": "0x0000000000000000000000000000000000000000000000000000000000000000",
          "blockHash": "0x95c1ae92548c4116d1e8c505f3d34c8c7e614dc437555a0730a4faa307cf8242",
          "blockNumber": "0xe3462",
          "blockTimestamp": "0x6a459a1b",
          "transactionHash": "0x5869222814e044acb24a631c715b5b96a49c638c9fa7f6ca9fbe882f65c99d54",
          "transactionIndex": "0x1",
          "logIndex": "0x0",
          "removed": false
        }
      ],
      "logsBloom": "0x00000000000000000000000000000000000000000800000000000000000000000000400000000000000000000000000010000000000000000000000000000000000002000000000000000000000000000000000000000000000000000000000080000000000000000000000000100000000000000000000000000000000000000000000000000000000000000000000000000000000000000000000000000000000000000000000000000000000000000000000000000000000000000000000000000000000000000000000000000000000000000000000000000000000000000000000000000000000000000000000000000000000000000000000000000000",
      "transactionHash": "0x5869222814e044acb24a631c715b5b96a49c638c9fa7f6ca9fbe882f65c99d54",
      "transactionIndex": "0x1",
      "blockHash": "0x95c1ae92548c4116d1e8c505f3d34c8c7e614dc437555a0730a4faa307cf8242",
      "blockNumber": "0xe3462",
      "gasUsed": "0x631e",
      "effectiveGasPrice": "0x1315be0",
      "from": "0xa558e3058050448f07df73a2509f23b7912395da",
      "to": "0x86ff937a0337df61bcb0e07b810f15ceb784f8bb",
      "contractAddress": null
    },
    {
      "type": "0x2",
      "status": "0x1",
      "cumulativeGasUsed": "0xd086",
      "logs": [
        {
          "address": "0x86ff937a0337df61bcb0e07b810f15ceb784f8bb",
          "topics": [
            "0x3e7510e93c4fe81ab57ed70b4eaa9a407eeced9cdb0954a360b36947f38ccda0"
          ],
          "data": "0x000000000000000000000000c204fe330431826d7a6f23b25773e50db71de8cc0000000000000000000000000000000000000000000000000000000000000001",
          "blockHash": "0x27d9c7c5bf6236f8695d0529799144c0906036a1f90999fb2284247d88b364fb",
          "blockNumber": "0xe3471",
          "blockTimestamp": "0x6a459a1d",
          "transactionHash": "0xf73fab3b64735e0879e2ee390eed5506549751b20a6f926b7b3194098329d48e",
          "transactionIndex": "0x1",
          "logIndex": "0x0",
          "removed": false
        }
      ],
      "logsBloom": "0x00000000000000000000000000000000000000000000000000000000000000000000400000000000000000000000040000000000000000000000000000000000000002000000000000000000000000000000000000000000000000000000000000000000000000000000000000100000000000000000000000000000000000000000000000000000000000000000000000000000000000000000000000200000000000000000000000000000000000000000000000000000000000000000000000000000000000000000400000000000000000000000000000000000000000000000000000000000000000000000000000000000000000000000000000000000",
      "transactionHash": "0xf73fab3b64735e0879e2ee390eed5506549751b20a6f926b7b3194098329d48e",
      "transactionIndex": "0x1",
      "blockHash": "0x27d9c7c5bf6236f8695d0529799144c0906036a1f90999fb2284247d88b364fb",
      "blockNumber": "0xe3471",
      "gasUsed": "0xd086",
      "effectiveGasPrice": "0x1318ac0",
      "from": "0xa558e3058050448f07df73a2509f23b7912395da",
      "to": "0x86ff937a0337df61bcb0e07b810f15ceb784f8bb",
      "contractAddress": null
    },
    {
      "type": "0x2",
      "status": "0x1",
      "cumulativeGasUsed": "0xd07f",
      "logs": [
        {
          "address": "0x86ff937a0337df61bcb0e07b810f15ceb784f8bb",
          "topics": [
            "0x3e7510e93c4fe81ab57ed70b4eaa9a407eeced9cdb0954a360b36947f38ccda0"
          ],
          "data": "0x0000000000000000000000003ad4f5eccb1cc82760190f4c029d2b3dd83e68cc0000000000000000000000000000000000000000000000000000000000000001",
          "blockHash": "0xcc6e5386c9763e7ca2783c724452acf6c319afa954fbc837aa7b3b8daf76c91a",
          "blockNumber": "0xe3480",
          "blockTimestamp": "0x6a459a1f",
          "transactionHash": "0x755c2db1b837c749a454aef82884ae2990d2e550bf655c53712c016d79e08ab0",
          "transactionIndex": "0x1",
          "logIndex": "0x0",
          "removed": false
        }
      ],
      "logsBloom": "0x00000000000000000000000000000000000000000000000000000000000000000000400000000000000000000000040000000000000000000000000000000000000002000000000000000000000000000000000000000000000000000000000000000000000000000000000000100000000000000000000000000000000000000000000000000000000000000000000000000000000000000000000000200000000000000000000000000000000000000000000000000000000000000000000000000000000000000000400000000000000000000000000000000000000000000000000000000000000000000000000000000000000000000000000000000000",
      "transactionHash": "0x755c2db1b837c749a454aef82884ae2990d2e550bf655c53712c016d79e08ab0",
      "transactionIndex": "0x1",
      "blockHash": "0xcc6e5386c9763e7ca2783c724452acf6c319afa954fbc837aa7b3b8daf76c91a",
      "blockNumber": "0xe3480",
      "gasUsed": "0xd07f",
      "effectiveGasPrice": "0x1315be0",
      "from": "0xa558e3058050448f07df73a2509f23b7912395da",
      "to": "0x86ff937a0337df61bcb0e07b810f15ceb784f8bb",
      "contractAddress": null
    },
    {
      "type": "0x2",
      "status": "0x1",
      "cumulativeGasUsed": "0xd4c9",
      "logs": [
        {
          "address": "0x86ff937a0337df61bcb0e07b810f15ceb784f8bb",
          "topics": [
            "0xa42b595aa29ec637074f31538fbf673587d74ba490265a33cf04ed41d27a9ddc"
          ],
          "data": "0x000000000000000000000000f4afa36154d8497dd69149687bf3e0d5417d61ee000000000000000000000000c204fe330431826d7a6f23b25773e50db71de8cc0000000000000000000000000000000000000000000000000000000000000001",
          "blockHash": "0xd4889dd27c6bcd71b1843d6e5bf7d03adc67b62036aa34823dc70792f8a453af",
          "blockNumber": "0xe348e",
          "blockTimestamp": "0x6a459a21",
          "transactionHash": "0xafb187750ef51f87ac8bf9a7d48cda7756d681251e154db9eb03e7afcb695f9f",
          "transactionIndex": "0x1",
          "logIndex": "0x0",
          "removed": false
        }
      ],
      "logsBloom": "0x00000000000000000000000000000000000000000000000000000000000000000000400000001000020000000000000000000000000000000000000000000000000002000000000000000000000000000000000000000000000000000000000000000000000000000000000000100000000000000000000000000000000000000000000000000000800000000000000000000000000000000000000000000000000000000000000000000000000000000000000000000000000000000000000000000000000000000000000000000000000000000000000000000000000000000000000000000000000000000000000000000000000000000000000000000000",
      "transactionHash": "0xafb187750ef51f87ac8bf9a7d48cda7756d681251e154db9eb03e7afcb695f9f",
      "transactionIndex": "0x1",
      "blockHash": "0xd4889dd27c6bcd71b1843d6e5bf7d03adc67b62036aa34823dc70792f8a453af",
      "blockNumber": "0xe348e",
      "gasUsed": "0xd4c9",
      "effectiveGasPrice": "0x131a230",
      "from": "0xa558e3058050448f07df73a2509f23b7912395da",
      "to": "0x86ff937a0337df61bcb0e07b810f15ceb784f8bb",
      "contractAddress": null
    },
    {
      "type": "0x2",
      "status": "0x1",
      "cumulativeGasUsed": "0xd4c9",
      "logs": [
        {
          "address": "0x86ff937a0337df61bcb0e07b810f15ceb784f8bb",
          "topics": [
            "0xa42b595aa29ec637074f31538fbf673587d74ba490265a33cf04ed41d27a9ddc"
          ],
          "data": "0x000000000000000000000000f4afa36154d8497dd69149687bf3e0d5417d61ee0000000000000000000000003ad4f5eccb1cc82760190f4c029d2b3dd83e68cc0000000000000000000000000000000000000000000000000000000000000001",
          "blockHash": "0xecc913b86a854ebca3e5609dd64405ba94507018e9720a0c36c4eb193965d0a9",
          "blockNumber": "0xe349d",
          "blockTimestamp": "0x6a459a23",
          "transactionHash": "0x778732d8a1c98da028131ee99f74e041c5314e6463d8b1fc504c0a038ec19b7f",
          "transactionIndex": "0x1",
          "logIndex": "0x0",
          "removed": false
        }
      ],
      "logsBloom": "0x00000000000000000000000000000000000000000000000000000000000000000000400000001000020000000000000000000000000000000000000000000000000002000000000000000000000000000000000000000000000000000000000000000000000000000000000000100000000000000000000000000000000000000000000000000000800000000000000000000000000000000000000000000000000000000000000000000000000000000000000000000000000000000000000000000000000000000000000000000000000000000000000000000000000000000000000000000000000000000000000000000000000000000000000000000000",
      "transactionHash": "0x778732d8a1c98da028131ee99f74e041c5314e6463d8b1fc504c0a038ec19b7f",
      "transactionIndex": "0x1",
      "blockHash": "0xecc913b86a854ebca3e5609dd64405ba94507018e9720a0c36c4eb193965d0a9",
      "blockNumber": "0xe349d",
      "gasUsed": "0xd4c9",
      "effectiveGasPrice": "0x13163b0",
      "from": "0xa558e3058050448f07df73a2509f23b7912395da",
      "to": "0x86ff937a0337df61bcb0e07b810f15ceb784f8bb",
      "contractAddress": null
    },
    {
      "type": "0x2",
      "status": "0x1",
      "cumulativeGasUsed": "0xcf4d",
      "logs": [
        {
          "address": "0x86ff937a0337df61bcb0e07b810f15ceb784f8bb",
          "topics": [
            "0xb393434b606480a39b9a3b6f498a7f5312283d75b93f92d1dffc0dae86425ea2"
          ],
          "data": "0x000000000000000000000000703e21c144c6cd320fe4c4353ff591457bdf8d690000000000000000000000000000000000000000000000000000000000000001",
          "blockHash": "0xb27d925d6a339c36c5338a6c103bb591d4934aa79b5c95eaac9630240f3c8ecf",
          "blockNumber": "0xe34a8",
          "blockTimestamp": "0x6a459a25",
          "transactionHash": "0xbf1ec3dc592b073d876a94ac8b9a95ed5f9d10a61ab1331007dc736b2c21c86c",
          "transactionIndex": "0x1",
          "logIndex": "0x0",
          "removed": false
        }
      ],
      "logsBloom": "0x00000000000000000020000000000000000000000000000000000000000000000000400000000000000000000000000000000000000000000000000000000000000002000000000000000000000000000100000000000000000000000000000000000000000000000000000000100000000000000000000000000000008000000000000000000000000000000000000000000000000000000000000000000000000000000000000000000000000000000000000000000000000000000000000000000000000000000000000000000000000000000000000000000000000000000000000000000000000000000000000000000000000000000000000000000000",
      "transactionHash": "0xbf1ec3dc592b073d876a94ac8b9a95ed5f9d10a61ab1331007dc736b2c21c86c",
      "transactionIndex": "0x1",
      "blockHash": "0xb27d925d6a339c36c5338a6c103bb591d4934aa79b5c95eaac9630240f3c8ecf",
      "blockNumber": "0xe34a8",
      "gasUsed": "0xcf4d",
      "effectiveGasPrice": "0x13207c0",
      "from": "0xa558e3058050448f07df73a2509f23b7912395da",
      "to": "0x86ff937a0337df61bcb0e07b810f15ceb784f8bb",
      "contractAddress": null
    },
    {
      "type": "0x2",
      "status": "0x1",
      "cumulativeGasUsed": "0xd108",
      "logs": [
        {
          "address": "0x86ff937a0337df61bcb0e07b810f15ceb784f8bb",
          "topics": [
            "0xc4bf3ad397ab835bf8aefef70e7e1c35a0cfad7be9c060049050303ace20605c"
          ],
          "data": "0x0000000000000000000000001cb194f28e31383a0ec7eca06cbe58b8b10efeea0000000000000000000000000000000000000000000000000000000000000001",
          "blockHash": "0xa7010830a3ba82bca50b8cea3fac0138988c1c8e4d14db39c50c22ae94f45b2d",
          "blockNumber": "0xe34b9",
          "blockTimestamp": "0x6a459a27",
          "transactionHash": "0x4a35c25fd687862fc074755b52d09704f695f1c7ca5e3f32f31dac977bfc3f51",
          "transactionIndex": "0x1",
          "logIndex": "0x0",
          "removed": false
        }
      ],
      "logsBloom": "0x00000000000000000000000000000000000000000000000000000000000000000000400000000000000000000000000000400000000000000000000000000000000002000000000000000000000000000000000000000000000000040000000000000000000000000000000000100000000000000000000000000000000000000000000000000000000000000000000000000000000000000000000000000000000000000000000000000000000000000000000000000000000000000000000000000000000000000000000000000000000000004000000000000000000000000000000000000000000000000000000000000000000000000000000000000000",
      "transactionHash": "0x4a35c25fd687862fc074755b52d09704f695f1c7ca5e3f32f31dac977bfc3f51",
      "transactionIndex": "0x1",
      "blockHash": "0xa7010830a3ba82bca50b8cea3fac0138988c1c8e4d14db39c50c22ae94f45b2d",
      "blockNumber": "0xe34b9",
      "gasUsed": "0xd108",
      "effectiveGasPrice": "0x131c940",
      "from": "0xa558e3058050448f07df73a2509f23b7912395da",
      "to": "0x86ff937a0337df61bcb0e07b810f15ceb784f8bb",
      "contractAddress": null
    },
    {
      "type": "0x2",
      "status": "0x1",
      "cumulativeGasUsed": "0xd106",
      "logs": [
        {
          "address": "0x86ff937a0337df61bcb0e07b810f15ceb784f8bb",
          "topics": [
            "0xc4bf3ad397ab835bf8aefef70e7e1c35a0cfad7be9c060049050303ace20605c"
          ],
          "data": "0x00000000000000000000000032d21e4840517720b75f7b7d472b50e285923d8a0000000000000000000000000000000000000000000000000000000000000001",
          "blockHash": "0x1d3de50effc23d247658e0bfb5511a71d2efbbf400e5ee2b8c63f8e019d9a4ea",
          "blockNumber": "0xe34c2",
          "blockTimestamp": "0x6a459a29",
          "transactionHash": "0x8a72a2399283bb1c92d5f9fc03b1ff926d532d61084feff947349acc6d0b6acb",
          "transactionIndex": "0x1",
          "logIndex": "0x0",
          "removed": false
        }
      ],
      "logsBloom": "0x00000000000000000000000000000000000000000000000000000000000000000000400000000000000000000000000000400000000000000000000000000000000002000000000000000000000000000000000000000000000000040000000000000000000000000000000000100000000000000000000000000000000000000000000000000000000000000000000000000000000000000000000000000000000000000000000000000000000000000000000000000000000000000000000000000000000000000000000000000000000000004000000000000000000000000000000000000000000000000000000000000000000000000000000000000000",
      "transactionHash": "0x8a72a2399283bb1c92d5f9fc03b1ff926d532d61084feff947349acc6d0b6acb",
      "transactionIndex": "0x1",
      "blockHash": "0x1d3de50effc23d247658e0bfb5511a71d2efbbf400e5ee2b8c63f8e019d9a4ea",
      "blockNumber": "0xe34c2",
      "gasUsed": "0xd106",
      "effectiveGasPrice": "0x1312d00",
      "from": "0xa558e3058050448f07df73a2509f23b7912395da",
      "to": "0x86ff937a0337df61bcb0e07b810f15ceb784f8bb",
      "contractAddress": null
    }
  ],
  "libraries": [],
  "pending": [],
  "returns": {},
  "timestamp": 1782946347946,
  "chain": 4663,
  "commit": "8a0ab66"
}